:020000040800F2
:10400000F0FF022009850008AB830008AD8300089B
:10401000C7830008C9830008CB83000800000000A4
:10402000000000000000000000000000CD83000838
:10403000CF83000800000000D1830008D58300086A
:104040004D8500084D8500084D8500084D85000808
:104050004D8500084D850008E58300084D85000862
:104060004D8500084D8500084D8500084D850008E8
:104070004D8500084D8500084D8500084D850008D8
:104080004D8500084D8500082D7F0008C1520008AD
:10409000255300084D8500084D8500084D85000812
:1040A0004D8500084D8500084D8500084D850008A8
:1040B0004D8500084D8500084D8500084D85000898
:1040C0004D8500084D8500084D8500084D85000888
:1040D0004D8500084D8500084D8500084D85000878
:1040E0004D8500084D8500084D8500084D85000868
:1040F0004D8500084D8500084D8500084D85000858
:104100004D8500084D8500084D8500084D85000847
:104110004D8500084D8500084D8500084D85000837
:104120004D8500084D8500084D8500084D85000827
:104130004D8500084D8500084D8500084D85000817
:104140004D8500084D8500084D8500084D85000807
:104150004D8500084D8500084D8500084D850008F7
:104160004D8500084D8500084D8500084D850008E7
:104170004D8500084D8500084D8500084D850008D7
:104180004D8500084D8500084D8500084D850008C7
:104190004D8500084D8500084D8500084D850008B7
:0C41A0004D8500084D8500084D85000885
:1041C00010B5054C237833B9044B13B10448AFF351
:1041D00000800123237010BDC009002000000000F2
:1041E000CCFE000808B5034B1BB103490348AFF3ED
:1041F000008008BD00000000C4090020CCFE0008BB
:1042000081F0004102E000BF83F0004330B54FEA87
:1042100041044FEA430594EA050F08BF90EA020FF4
:104220001FBF54EA000C55EA020C7FEA645C7FEA87
:10423000655C00F0E2804FEA5454D4EB5555B8BFAA
:104240006D420CDD2C4480EA020281EA030382EA1B
:10425000000083EA010180EA020281EA0303362DAD
:1042600088BF30BD11F0004F4FEA01314FF4801C80
:104270004CEA113102D0404261EB410113F0004F92
:104280004FEA03334CEA133302D0524263EB430349
:1042900094EA050F00F0A780A4F10104D5F1200EE7
:1042A0000DDB02FA0EFC22FA05F2801841F1000142
:1042B00003FA0EF2801843FA05F359410EE0A5F116
:1042C00020050EF1200E012A03FA0EFC28BF4CF047
:1042D000020C43FA05F3C01851EBE37101F00045FD
:1042E00007D54FF0000EDCF1000C7EEB00006EEB0A
:1042F0000101B1F5801F1BD3B1F5001F0CD3490894
:104300005FEA30004FEA3C0C04F101044FEA4452EA
:1043100012F5800F80F09A80BCF1004F08BF5FEA71
:10432000500C50F1000041EB045141EA050130BD51
:104330005FEA4C0C404141EB0101013C28BFB1F563
:10434000801FE9D291F0000F04BF01460020B1FAAE
:1043500081F308BF2033A3F10B03B3F120020CDA81
:104360000C3208DD02F1140CC2F10C0201FA0CF05F
:1043700021FA02F10CE002F11402D8BFC2F1200CC4
:1043800001FA02F120FA0CFCDCBF41EA0C0190407A
:10439000E41AA2BF01EB0451294330BD6FEA0404C3
:1043A0001F3C1CDA0C340EDC04F11404C4F12002AE
:1043B00020FA04F001FA02F340EA030021FA04F3C0
:1043C00045EA030130BDC4F10C04C4F1200220FA17
:1043D00002F001FA04F340EA0300294630BD21FA55
:1043E00004F0294630BD94F0000F83F4801306BF1B
:1043F00081F480110134013D4EE77FEA645C18BF0F
:104400007FEA655C29D094EA050F08BF90EA020FA5
:1044100005D054EA000C04BF1946104630BD91EA9D
:10442000030F1EBF0021002030BD5FEA545C05D1A0
:104430004000494128BF41F0004130BD14F58004DF
:104440003CBF01F5801130BD01F0004545F0FE4153
:1044500041F470014FF0000030BD7FEA645C1ABF88
:10446000194610467FEA655C1CBF0B46024650EABF
:10447000013406BF52EA033591EA030F41F40021EB
:1044800030BD00BF90F0000F04BF0021704730B571
:104490004FF4806404F132044FF000054FF0000146
:1044A00050E700BF90F0000F04BF0021704730B507
:1044B0004FF4806404F1320410F0004548BF4042DC
:1044C0004FF000013EE700BF42004FEAE2014FEA31
:1044D00031014FEA02701FBF12F07F4393F07F4F0C
:1044E00081F06051704732F07F4208BF704793F00F
:1044F0007F4F04BF41F40021704730B54FF4607422
:1045000001F0004521F000411CE700BF50EA010224
:1045100008BF704730B54FF000050AE050EA0102CD
:1045200008BF704730B511F0004502D5404261EB3D
:1045300041014FF4806404F132045FEA915C3FF47E
:10454000D8AE4FF003025FEADC0C18BF03325FEA1B
:10455000DC0C18BF033202EBDC02C2F1200300FACC
:1045600003FC20FA02F001FA03FE40EA0E0021FAF1
:1045700002F11444BDE600BF70B54FF0FF0C4CF4DF
:10458000E06C1CEA11541DBF1CEA135594EA0C0F91
:1045900095EA0C0F00F0DEF82C4481EA030621EACC
:1045A0004C5123EA4C5350EA013518BF52EA033507
:1045B00041F4801143F4801338D0A0FB02CE4FF0B9
:1045C0000005E1FB02E506F00042E0FB03E54FF0E9
:1045D0000006E1FB03569CF0000F18BF4EF0010EE1
:1045E000A4F1FF04B6F5007F64F5407404D25FEADD
:1045F0004E0E6D4146EB060642EAC62141EA555190
:104600004FEAC52040EA5E504FEACE2EB4F1FD0CD1
:1046100088BFBCF5E06F1ED8BEF1004F08BF5FEA4F
:10462000500E50F1000041EB045170BD06F0004601
:1046300046EA010140EA020081EA0301B4EB5C04AE
:10464000C2BFD4EB0C0541EA045170BD41F48011A6
:104650004FF0000E013C00F3AB8014F1360FDEBFCB
:10466000002001F0004170BDC4F10004203C35DAA7
:104670000C341BDC04F11404C4F1200500FA05F32A
:1046800020FA04F001FA05F240EA020001F00042CB
:1046900021F0004110EBD37021FA04F642EB060141
:1046A0005EEA430E08BF20EAD37070BDC4F10C046B
:1046B000C4F1200500FA04F320FA05F001FA04F22F
:1046C00040EA020001F0004110EBD37041F100011B
:1046D0005EEA430E08BF20EAD37070BDC4F1200526
:1046E00000FA05F24EEA020E20FA04F301FA05F28E
:1046F00043EA020321FA04F001F0004121FA04F236
:1047000020EA020000EBD3705EEA430E08BF20EA05
:10471000D37070BD94F0000F0FD101F0004640003F
:1047200041EB010111F4801F08BF013CF7D041EAC1
:10473000060195F0000F18BF704703F000465200C5
:1047400043EB030313F4801F08BF013DF7D043EA96
:104750000603704794EA0C0F0CEA135518BF95EA4C
:104760000C0F0CD050EA410618BF52EA4306D1D1D3
:1047700081EA030101F000414FF0000070BD50EAF2
:10478000410606BF1046194652EA430619D094EA7C
:104790000C0F02D150EA013613D195EA0C0F05D166
:1047A00052EA03361CBF104619460AD181EA0301BA
:1047B00001F0004141F0FE4141F470014FF0000072
:1047C00070BD41F0FE4141F4780170BD70B54FF00D
:1047D000FF0C4CF4E06C1CEA11541DBF1CEA13558D
:1047E00094EA0C0F95EA0C0F00F0A7F8A4EB05046F
:1047F00081EA030E52EA03354FEA013100F0888066
:104800004FEA03334FF0805545EA131343EA12632E
:104810004FEA022245EA111545EA10654FEA0026E3
:104820000EF000419D4208BF964244F1FD0404F59C
:10483000407402D25B084FEA3202B61A65EB0305F8
:104840005B084FEA32024FF480104FF4002CB6EBB5
:10485000020E75EB030E22BFB61A754640EA0C0035
:104860005B084FEA3202B6EB020E75EB030E22BF75
:10487000B61A754640EA5C005B084FEA3202B6EBB6
:10488000020E75EB030E22BFB61A754640EA9C0075
:104890005B084FEA3202B6EB020E75EB030E22BF45
:1048A000B61A754640EADC0055EA060E18D04FEA03
:1048B000051545EA16754FEA06164FEAC30343EAA3
:1048C00052734FEAC2025FEA1C1CC0D111F4801F70
:1048D0000BD141EA00014FF000004FF0004CB6E769
:1048E00011F4801F04BF01430020B4F1FD0C88BF08
:1048F000BCF5E06F3FF6AFAEB5EB030C04BFB6EB13
:10490000020C5FEA500C50F1000041EB045170BD05
:104910000EF0004E4EEA113114EB5C04C2BFD4EB32
:104920000C0541EA045170BD41F480114FF0000EB6
:10493000013C90E645EA060E8DE60CEA135594EA32
:104940000C0F08BF95EA0C0F3FF43BAF94EA0C0F35
:104950000AD150EA01347FF434AF95EA0C0F7FF4AA
:1049600025AF104619462CE795EA0C0F06D152EAFE
:1049700003353FF4FDAE1046194622E750EA4106E2
:1049800018BF52EA43067FF4C5AE50EA41047FF4F3
:104990000DAF52EA43057FF4EBAE12E74A0011D2A5
:1049A00012F5001211D20DD56FF47873B3EB625289
:1049B0000ED44FEAC12343F0004343EA505323FA95
:1049C00002F070474FF00000704750EA013002D10A
:1049D0004FF0FF3070474FF00000704700000000BC
:1049E00000000000000000000000000000000000C7
:1049F00000000000000000000000000000000000B7
:104A000090F800F06DE9024520F007016FF0000C0E
:104A100010F0070491F820F040F049804FF00004B6
:104A20006FF00700D1E9002391F840F000F1080091
:104A300082FA4CF2A4FA8CF283FA4CF3A2FA8CF3C9
:104A40004BBBD1E9022382FA4CF200F10800A4FA30
:104A50008CF283FA4CF3A2FA8CF3E3B9D1E9042384
:104A600082FA4CF200F10800A4FA8CF283FA4CF3BB
:104A7000A2FA8CF37BB9D1E9062301F1200182FA75
:104A80004CF200F10800A4FA8CF283FA4CF3A2FA7B
:104A90008CF3002BC6D0002A04BF04301A4612BA89
:104AA000B2FA82F2FDE8024500EBD2007047D1E98C
:104AB000002304F00305C4F100004FEAC50514F01B
:104AC000040F91F840F00CFA05F562EA05021CBFEC
:104AD00063EA050362464FF00004A9E70000000006
:104AE00001F0FF01102A2BDB10F0070F08D010F89F
:104AF000013B013A8B422DD010F0070F42B3F6D1A3
:104B0000F0B441EA012141EA014122F007047FF0BB
:104B100000070023F0E80256083C85EA010586EA12
:104B2000010685FA47F5A3FA87F586FA47F6A5FA4E
:104B300087F68EB9EED1F0BC01F0FF0102F007025A
:104B400032B110F8013B013A83EA010313B1F8D105
:104B50000020704701387047002D06BF35460338E6
:104B6000073815F0010F07D1013015F4807F02BF1F
:104B7000013015F4C03F0130F0BC0138704700BF70
:104B8000844641EA000313F003036DD1403A41D358
:104B900051F8043B40F8043B51F8043B40F8043B17
:104BA00051F8043B40F8043B51F8043B40F8043B07
:104BB00051F8043B40F8043B51F8043B40F8043BF7
:104BC00051F8043B40F8043B51F8043B40F8043BE7
:104BD00051F8043B40F8043B51F8043B40F8043BD7
:104BE00051F8043B40F8043B51F8043B40F8043BC7
:104BF00051F8043B40F8043B51F8043B40F8043BB7
:104C000051F8043B40F8043B51F8043B40F8043BA6
:104C1000403ABDD2303211D351F8043B40F8043B46
:104C200051F8043B40F8043B51F8043B40F8043B86
:104C300051F8043B40F8043B103AEDD20C3205D356
:104C400051F8043B40F8043B043AF9D2043208D04E
:104C5000D2071CBF11F8013B00F8013B01D30B88C0
:104C600003806046704700BF082A13D38B078DD09E
:104C700010F003038AD0C3F10403D21ADB071CBF70
:104C800011F8013B00F8013B80D331F8023B20F8DA
:104C9000023B7BE7043AD9D3013A11F8013B00F813
:104CA000013BF9D20B7803704B7843708B7883709B
:104CB000604670474FF0FF3C06E000BF4FF0010C2C
:104CC00002E000BF4FF0010C4DF804CD4FEA410C5B
:104CD0007FEA6C5C4FEA430C18BF7FEA6C5C1BD028
:104CE00001B050EA410C0CBF52EA430C91EA030FA9
:104CF00002BF90EA020F0020704710F1000F91EA06
:104D0000030F58BF994208BF90422CBFD8176FEAD3
:104D1000E37040F0010070474FEA410C7FEA6C5CA1
:104D200002D150EA013C07D14FEA430C7FEA6C5CA8
:104D3000D6D152EA033CD3D05DF8040B704700BFD4
:104D40008446104662468C461946634600E000BF22
:104D500001B5FFF7B7FF002848BF10F1000F01BDF4
:104D60004DF808EDFFF7F4FF0CBF012000205DF8BF
:104D700008FB00BF4DF808EDFFF7EAFF34BF012044
:104D800000205DF808FB00BF4DF808EDFFF7E0FFDD
:104D900094BF012000205DF808FB00BF4DF808ED2E
:104DA000FFF7CEFF94BF012000205DF808FB00BF95
:104DB0004DF808EDFFF7C4FF34BF012000205DF877
:104DC00008FB00BF4FEA410C7FEA6C5C02D150EA5D
:104DD000013C0AD14FEA430C7FEA6C5C02D152EAF3
:104DE000033C02D14FF0000070474FF001007047C4
:104DF0004FEA410212F5001215D211D56FF4787303
:104E0000B3EB625212D94FEAC12343F0004343EAA5
:104E1000505311F0004F23FA02F018BF4042704780
:104E20004FF00000704750EA013005D111F000400A
:104E300008BF6FF0004070474FF00000704700BFA0
:104E400053B94AB9002908BF00281CBF4FF0FF31F1
:104E50004FF0FF3000F06EB9ADF1080C6DE904CEF3
:104E600000F006F8DDF804E0DDE9022304B0704745
:104E70002DE9F047089D04468C46002B40F08380C6
:104E80008A42174647D9B2FA82F242B1C2F12000F3
:104E900024FA00F09140974040EA010C94404FEA18
:104EA0001748230CBCFBF8F61FFA87FE08FB16C157
:104EB00043EA014306FB0EF1994209D9FB1806F1BA
:104EC000FF3080F01981994240F21681023E3B4446
:104ED0005B1AA4B2B3FBF8F008FB103344EA0344B6
:104EE00000FB0EFEA64509D93C1900F1FF3380F006
:104EF0000581A64540F2028102383C4440EA064062
:104F0000A4EB0E0400261DB1D4400023C5E90043E4
:104F10003146BDE8F08702B9FFDEB2FA82F2002A1C
:104F200050D1CB1B4FEA174E1FFA87F80126B3FB6F
:104F3000FEFC210C0EFB1C3341EA034108FB0CF381
:104F40008B4207D979180CF1FF3002D28B4200F264
:104F5000E9808446C91AA3B2B1FBFEF00EFB101122
:104F600043EA014408FB00F8A04507D93C1900F1C9
:104F7000FF3302D2A04500F2D9801846A4EB080402
:104F800040EA0C40BFE78B4209D9002D00F0B18008
:104F90000026C5E9000130463146BDE8F087B3FA86
:104FA00083F6002E4AD18B4202D3824200F2B880AF
:104FB000841A61EB030101208C46002DA8D0C5E9BD
:104FC000004CA5E7C2F1200320FA03F6974001FA4E
:104FD00002F04FEA174ED9403043030CB1FBFEF606
:104FE0001FFA87F80EFB161143EA014306FB08F18E
:104FF000994204FA02F409D9FB1806F1FF3C80F04B
:105000008D80994240F28A80023E3B445B1A81B215
:10501000B3FBFEF00EFB103341EA034100FB08F343
:105020008B4207D9791800F1FF3C73D28B4271D9BA
:1050300002383944CB1A40EA064678E7C6F1200C1C
:1050400003FA06F422FA0CF31C4320FA0CF701FAD7
:1050500006F34FEA144E21FA0CF11F433B0CB1FB4F
:10506000FEF91FFA84F80EFB191143EA014109FB0E
:1050700008FA8A4502FA06F200FA06F308D961181E
:1050800009F1FF3048D28A4546D9A9F102092144E5
:10509000A1EB0A01BFB2B1FBFEF00EFB101147EA13
:1050A000014700FB08F8B84507D9E71900F1FF31BF
:1050B0002ED2B8452CD90238274440EA0940A7EB44
:1050C0000807A0FB02894F45C64649461AD317D0A8
:1050D0005DB1B3EB0E0267EB010707FA0CFCF2407F
:1050E0004CEA0202F740C5E9002700263146BDE838
:1050F000F0872E4628460BE70646E9E61846FDE609
:105100004345E5D2B8EB020E69EB04010138DFE755
:105110000846D2E760468DE78146B9E7664675E7FF
:1051200030464AE7ACF1020C394413E702383C44FC
:1051300024E700BF704700BFF0B4860746D0541E76
:10514000002A3CD0CAB2034601E0013C37D303F841
:10515000012B9D07F9D1032C2AD9CDB245EA0525AB
:105160000F2C45EA054534D9A4F1100222F00F0CAA
:1051700003F120071609674403F1100242E90455C0
:1051800042E902551032BA42F8D1721C14F00C0FE9
:1051900003EB021204F00F0613D0331F23F00303B6
:1051A0000433134442F8045B9342FBD106F003043A
:1051B0002CB1CAB21C4403F8012B9C42FBD1F0BCB9
:1051C000704734461346002CF3D1F8E714460346E3
:1051D000C1E71A462646E0E7024B13B1024800F049
:1051E00005B8704700000000F9510008002301468F
:1051F0001A46184600F01EB838B5084B084D5B1B20
:105200009C1007D0043B1D44013C55F804399847D5
:10521000002CF9D1BDE838400AF05EBEEC08010868
:10522000E8080108704700BF704700BF704700BF23
:10523000704700BF2DE9F047DFF880A00646DAF896
:10524000000098460F469146FFF7F0FF1A4B1B6887
:10525000D3F8484124B365681F2D26DC5EB9AB1C2A
:105260000135DAF80000656044F82370FFF7E0FFCD
:105270000020BDE8F08704EB85030121C3F8889086
:10528000D4F88821A9400A43022EC4F88821C3F823
:105290000881E4D1D4F88C311943C4F88C11DEE7CD
:1052A00003F5A674C3F84841D5E7DAF80000FFF724
:1052B000BFFF4FF0FF30DCE7E8FE000830040020BD
:1052C00038B5164C164894F80235154D23F00203F4
:1052D000012184F8023503F0E9FB94F8001594F8F5
:1052E00001358B4208D001EB810104EB8101284696
:1052F00003F0FFFA042800D138BD94F8023594F881
:10530000002523F00103013202F03F0243F00203C3
:1053100084F8002584F80235DFE700BF381100204B
:1053200000640040F0B5214C214F94F801556E1CEB
:1053300087B006F03F060021384603F072FB18B133
:1053400094F80035B34215D11A49194803F07CFB93
:1053500070B118491648164D03F090FBD4F8043587
:105360000133C4F804350021284603F05AFB88B9FC
:1053700007B0F0BD2DB205EB850504EB85020021D9
:10538000384603F003FB731C84F80165354603F0CF
:105390003F06D0E701AA0021284603F0F7FA94F867
:1053A000023543F0010384F80235DCE7300C0020BD
:1053B000006400401000003230B501218BB00220A3
:1053C00003F0FCFC2C482D4D0922082103F0A0FC21
:1053D00009221146284803F09BFC294B26484FF42C
:1053E000407201A9CDE9012303F040FC254B009355
:1053F000684603F05DF8244B0093684603F058F8C4
:1054000001214FF0007003F0E5FC284603F072F92B
:1054100003A803F063FA1D4B1421CDE903132846BA
:1054200003A94FF080730024059303F07FF940F245
:10543000011306A8ADF82430CDE90644089403F022
:10544000DFF9134BA3F8004583F80245C3F8044580
:10545000104B0122A3F800451146284683F8024567
:10546000C3F8044503F0E8FA01220221284603F0BC
:10547000E3FA0BB030BD00BF0004024000640040FE
:1054800002020001140800011308000109060001CE
:10549000300C002038110020F0B50022012187B027
:1054A0000446384803F0C8FA374A92F8021511F05A
:1054B000020315462AD12288ADF80C30CDE901232C
:1054C000A2788DF80E20E31CC4F1FF2404F57F04BC
:1054D0000DF10F01FD34E618B24212DC01A9294892
:1054E00003F007FA95F802352648012243F002033B
:1054F000114685F8023503F09FFA0124204607B0D3
:10550000F0BD13F8010B01F8010BE4E792F8013547
:1055100092F80065581C00F03F00864226D0142601
:1055200006FB03F22188A950AF1805F1080C0021F1
:10553000796022F80C10E21CA178B972C4F1FF2442
:105540003B4604F57F040B33FD34A618B14208DC5A
:1055500085F80105012401220A48114603F06CFA7E
:10556000CCE712F8016B03F8016BEEE7D2F80435D3
:1055700041F00101013382F80215C2F8043500241C
:10558000E9E700BF0064004038110020034A0E2301
:1055900058431318115201221A737047700A0020E1
:1055A0002DE9F74F244B93F8017593F8000593F814
:1055B000024500224FF0140C874207D11AB183F83C
:1055C000007583F8024503B0BDE8F08F0B211CFB8A
:1055D00000115918194A019100250CFB003E117B5E
:1055E000CE0717D5B2F80080DEF80060B04511D1C3
:1055F0009EF80A80DDF8049082F8028002F1030A26
:105600000026B04512DC8E074CBF41F0040141F08A
:10561000020111730135202D02F10E02DFD101309C
:1056200000F03F0004F0FE040122C5E719F801BBB9
:105630000AF801BB0136E4E7300C0020700A0020B4
:105640000B4B0E2202FB0030037B03F00303032B02
:105650000BD103680B6043684B6083688B60037BEE
:1056600023F006030373012070470020704700BF3A
:10567000700A002001F07F0141EAC010704700006D
:10568000064B074A1B7880331360064A13800823B1
:105690009370054B00221A70704700BFAC260020A3
:1056A00050160020601600207D160020C20801233D
:1056B00000F0070083400848815C5BB219438154C5
:1056C0000648815C21EA030181540548815C21EA96
:1056D00003038354704700BF6D160020401600205E
:1056E00058160020C208012300F007008340054837
:1056F000DB43815C5BB2194081540349885C034001
:105700008B5470476D16002040160020064A08236F
:1057100012F8011B09B100207047013B13F0FF0391
:10572000F6D10120704700BF6D160020F0B5174E6E
:10573000174F0024354617F8012B16F8013B9A4203
:105740001ED082EA0301002341FA03FC1CF0010F82
:1057500013D01A4102F0010101229A40017052B2A5
:1057600039B1295D0A43D2B243EAC4002A55C0B216
:10577000F0BD295D21EA0202F6E70133082BE3D1EF
:105780000134082CD7D10020F2E700BF48160020D2
:105790006D160020054B00221A705A709A70DA704C
:1057A0001A715A719A71DA71704700BF4816002059
:1057B0002DE9F743204C2778A04627B1012F33D09D
:1057C0000023237025E00DF10700FFF7AFFF05462A
:1057D000F8B19DF80790194E194CB9F1000F1BD084
:1057E0003378E77043F0010333701023237133786B
:1057F0006371002323811248E371A372A571FFF73F
:105800004BFE012388F8003002F03AFE0D4B643065
:10581000186003B0BDE8F083FFF778FF08B186F8A1
:1058200000900023E370E1E7064B186802F02EFEBB
:105830000028EED0C4E700BF7D1600206C160020C3
:105840006016002054160020074B10B500241C6081
:1058500002F016FE054B1860054B1C60054B1C60E2
:10586000054B1C6010BD00BFDC0900208016002025
:1058700088260020842600208C2600202DE9F04771
:105880002F4C206802F002FE60B102F0F9FD2D4DB0
:105890002D4F0238206000212E462B683A689A422C
:1058A00000D009B1BDE8F087284ADFF8AC8012F8D3
:1058B00003C0274898F80020531C00EB020EDBB20F
:1058C000BCF10A0F88F800308EF803C018D103F13C
:1058D0000309814496468C468A460EF1010E5FFA12
:1058E0008EFEBEF1070F26D9082BC2F1070288BF32
:1058F00000221344DBB2BCF1000F01D088F8003065
:1059000098F80020072A10D9124B82701B7803F5F3
:10591000886303800E48FFF7BFFD02F0B1FD00234E
:105920001E30206088F80030012133680133C3F352
:105930000B033360B1E709F801AB4FF0010CCCE782
:10594000801600208826002084260020841600204F
:1059500090260020AC260020E0090020084A10B55F
:105960001168084C4B1C2468C3F30B039C420BBF0B
:10597000054A064C1368605408BF0133136010BD1C
:1059800084260020882600208C26002084160020F3
:10599000BFF34F8F0449054BCA6802F4E06213431A
:1059A000CB60BFF34F8FFEE700ED00E00400FA0587
:1059B00010B50C4B0C4A00241C70012393700B4B48
:1059C0001B78214603F5E06320461380FFF7DEFDD8
:1059D0004FF4E8610320FFF7D9FD054B1C60054B30
:1059E0001C6010BDBA260020AE260020AC26002088
:1059F000E4090020E809002008B5FFF7DDFC084BAA
:105A00005A79084B1A7000F069FDFFF7D1FFFFF7D4
:105A100037FE00F03DFBBDE8084000F0A7BE00BF28
:105A2000682A0020AC260020F8B5574CFFF7B8FDD7
:105A300023789BB95548C370FFF72EFD02F020FD77
:105A4000534B00F57A70186002F01AFD514B00F6C6
:105A5000B83018607F23237000F030FC23787F2B50
:105A600002D0043B012B53D84B4D494E2946002010
:105A7000FFF7E6FD80B12B791BB1484A12789A42B4
:105A80000AD102F0FDFCEB780138012B30604BD1DC
:105A900005232370FFF77EFE306802F0F7FC48B163
:105AA0003A482378C370FFF7F7FC02F0E9FC00F5F1
:105AB0007A7030603A4F374D39460320FFF7C0FD0A
:105AC000A0B12378052B09D1FB78052B53D07F2378
:105AD000237000F0F3FB1020FFF7E8FD1120FFF723
:105AE00001FE02F0CDFC00F6B8302860286802F014
:105AF000CDFC68B12378042B08D000F0DFFB02F066
:105B0000BFFC013830601120FFF7D0FD0423237063
:105B10002378052B33D100F03FFE00F06DFCFFF73A
:105B200047FE00F005FE2CE0022B04D10423237075
:105B300000F0C4FBB0E7802B01D17F23F7E7812B76
:105B400001D1FFF725FF822B03D1FFF755FF00237B
:105B5000EDE7902B07D1134A137843F0010313703C
:105B600001F0B8F9EDE7912B96D10E4B1A786FF34F
:105B700000021A70F4E71020FFF7B4FDAEE77F2BA8
:105B8000CDD02078F8BD00BFBA260020AE26002078
:105B9000E8090020E40900209C260020AC26002013
:105BA000BC260020682A0020028808B512F40053A1
:105BB00013D083681A796C2A1ED15A796F2A1BD1A7
:105BC0009A79612A18D1DA79642A15D1DB78012B08
:105BD00012D101F08BFA042008BD12F480420BD0E0
:105BE0008168CA78012A09D10B7181684B7181687B
:105BF0008B718368DA71EEE70020EDE71846EBE77A
:105C000008B5038813F400521AD08368D8780128A5
:105C100021D1134A1278F2B91A79124B597991426B
:105C200018D05A7101F062FABFF34F8F0E490F4B33
:105C3000CA6802F4E0621343CB60BFF34F8FFEE704
:105C400013F4804307D08368D878012805D1054A2A
:105C500052791A7108BD0020FCE71046FAE700BF30
:105C60003C2A0020682A002000ED00E00400FA052C
:105C700037B5048814F4005305460BD08368DA78EE
:105C8000012A1DD1187918B10138C0B201F03AF9D2
:105C9000042410E014F480440DD08268D478012CE0
:105CA00010D10DF1070001F005F9AA6830B19DF897
:105CB000073001331371204603B030BD1071FAE78D
:105CC0000024F8E71C46F6E7028808B512F40053F2
:105CD00013D083681A79732A1ED15A79612A1BD18D
:105CE0009A79762A18D1DA79652A15D1DB78012BD1
:105CF00012D101F0EFF8042008BD12F480420BD05D
:105D00008168CA78012A09D10B7181684B71816859
:105D10008B718368DA71EEE70020EDE71846EBE758
:105D2000DFF870C02DE9F041122700254FF00C0E6E
:105D30007C1B05EB6404E3B20EFB03F40CEB0406DE
:105D40003CF80440844221D896F80280A0444045A3
:105D500014DAF3788B4217D9736803EBC10533F873
:105D6000313013F4805317BF337A1380001B13FBB9
:105D700000F018BF10802846BDE8F081844205D2AB
:105D80000133DDB2AF42D3D20025F4E7013BDFB2ED
:105D9000F8E700BF2802010830B50488650485B023
:105DA00057D5456820040BD56B6824F40054CDE921
:105DB0000232ADF804402B6801A89847274815E047
:105DC000E4B2013C122CF9D8DFE804F0122D450AA8
:105DD0002D450A0A2326292326292920202B2B009A
:105DE000002404208342E9D3FDB9002005B030BD72
:105DF000002DE3D06B1869581879C30800F007002C
:105E0000CB5C034103F001031370D7E700240820A3
:105E1000E8E701240120E5E701240220E2E701246C
:105E2000DFE70124F3E70024F4E76B18013A3CB9FB
:105E300018448342D9D013F8011B02F8011FF8E778
:105E40006B5818448342D0D013F8011B02F8011F8D
:105E5000F8E70348CAE70024DFE700BF10000706A1
:105E60000000010630B585B015460DF10E02019314
:105E7000FFF756FF019B30B1BDF80E102A46FFF721
:105E80008BFF05B030BD034B0348002908BF1846FF
:105E9000F7E700BF000002061100090630B50488CC
:105EA000A50485B059D5436820040ED559681B68F0
:105EB00024F48044CDE90212ADF8044001A89847CB
:105EC00000284CD0002005B030BD002BFAD0E4B241
:105ED000013C5818122C45D8DFE804F00A1F22258F
:105EE0001F2225252D31352D31353528283939000A
:105EF000531855581B7903F00700DC080123834031
:105F00001078295710F001005BB202D00B432B55DB
:105F1000D8E721EA03032B55D5E712785A54D1E785
:105F200012885A52CEE712685A50CBE7D2E90023C2
:105F3000C0E90023C6E75B5812781A70C2E75B58C5
:105F400012881A80BEE75B5812681A60BAE7D2E975
:105F500000455B58C3E90045B4E70348B3E74FF099
:105F60000060B0E70148AEE7000001061000070638
:105F70002DE9F74F1E4F00F5D05905463A18012379
:105F800000214846FFF76EFF78BB1A4B4FEA051A0F
:105F900004460126D34603EB05187B5DB34203D2CA
:105FA0007C5503B0BDE8F08F04230DEB03023146AE
:105FB0004846FFF757FF104B9DF80510BDF8060047
:105FC00004EB0A0203EB4202FFF7AAFE0BEB040309
:105FD0000A4A42F823009DF8043008F8043008B15A
:105FE0000134E4B20136F6B2D7E70024D8E700BFA7
:105FF000A4290020EC280020202900206027002070
:106000002DE9F74F1E4F00F5B05905463A18012308
:1060100000214846FFF726FF78BB1A4B4FEA051AC6
:1060200004460126D34603EB05187B5DB34203D239
:106030007C5503B0BDE8F08F04230DEB030231461D
:106040004846FFF70FFF104B9DF80510BDF80600FE
:1060500004EB0A0203EB4202FFF762FE0BEB0403C0
:106060000A4A42F823009DF8043008F8043008B1C9
:106070000134E4B20136F6B2D7E70024D8E700BF16
:106080001C290020A7290020E82600202C28002019
:106090002DE9F047242200213C483D4D3D4EDFF8DC
:1060A000ECA0FFF749F8242200213B48FFF744F811
:1060B0003A4B3B4800241C70C0222146FFF73CF8B5
:1060C000602221463748FFF737F83022214636480C
:1060D000FFF732F8354B36481C809C70C0222146B1
:1060E000FFF72AF8602221463248FFF725F83248A8
:1060F00030222146FFF720F8304B1C809C70304B3B
:10610000C3E900449C602F4B2F461C809C704FF0CD
:106110000C0997F824203B6A3271FA8CF28009FB53
:1061200004F2C3F30A01002B22F80A105FFA84F884
:10613000336007DB08F10400C0B2FFF727FA4046DE
:10614000FFF75EFF0134032C07F1080706F108068C
:10615000DFD11D4EDFF8408000240C27AB682A7B7E
:10616000327107FB04F2C3F30A01002B22F8081076
:10617000E0B2336001DBFFF7FBFE0134032C05F1D5
:10618000080506F10806E9D1BDE8F087D829002006
:10619000682A00204827002080290020CC260020E3
:1061A0006027002020290020EC280020A4290020BE
:1061B0002C280020E8260020A72900201C290020E8
:1061C00020280020FC290020D02600202DE9F04FB7
:1061D000022887B0054605D9324B00225A5507B030
:1061E000BDE8F08F304A314E314B039302EB8019FA
:1061F000304A02EB4018304A125C4FF00C0A06EBB2
:10620000001603241AFB0044B2181C440292002713
:106210000AFB00FA029BB342DED096F800E059F880
:10622000040F38F8021FBEF1070F31D8237807F0AA
:106230000702134101938DF81730039B03EB0A0B00
:106240004FEAD70C9BF802B00CF1010CE3450BD9D7
:1062500052B194F801C0019BC2F108020CFA02F29B
:1062600013438DF817300134012303FA0EFE9DF815
:1062700017300EF1FF3E0EEA030E0DF117028DF8F6
:1062800017E0FFF70BFE16F8013B1F44FFB2C1E712
:106290002246FFF703FE3378073707F0F80704EBD1
:1062A000D304F0E7302A002028280020A729002066
:1062B000D8290020E62600201C29002038B500241B
:1062C0000A4D20462C606C60AC60FFF77FFF012018
:1062D000EC602C616C61FFF779FFAC61EC612C62C2
:1062E0000220BDE83840FFF771BF00BFD829002069
:1062F00002282DE9F74FDFF8E09006465ED8304BD4
:10630000304F03EB801A304B03EB40182F4B0C251A
:1063100013F800B007EB001705FB00950335BB44ED
:1063200000245F4513D10C23734309EB03020734A8
:10633000E4109470264A52F83620C2F30A0229F873
:106340000320244B00229A5503B0BDE8F08F3B7820
:106350005AF8040F38F8021F072B20D801230DF13B
:106360000702FFF719FDA8B99DF807302878E10862
:1063700004F0070203FA02FC013140EA0C0007298D
:10638000287007D832B1C2F1080213416A7813436A
:106390006B70013517F8013B1C44E4B2C1E70734C8
:1063A000C4F3C703C3F10803DBB22A46FFF7F4FCCA
:1063B0003B7804F0F80405EBD305EBE70024B2E7E3
:1063C0005C270020EC2800201E290020A4290020A2
:1063D000D0260020342A002080290020044B0022EF
:1063E0001A54044B00EB400003EB8000FFF754B855
:1063F000342A0020802900202DE9F74F314C324FFC
:10640000324EDFF8D4904FF000084FF0010B2368B4
:10641000002B5FFA88FA16DB0AF104003146C0B29D
:10642000FFF70EF9054600283AD002F029F8E38874
:1064300087F800B018442379C9F80000FF2B02D177
:106440005046FFF7C3FE08F10108B8F1030F04F14D
:10645000080407F1010706F10C0609F10409D6D179
:106460001B4D1C4E002401272B782341DB07E0B293
:1064700010D516F83430FF2B0CD10190FFF738FF00
:106480000198FFF7ABFF28B12A7807FA04F322EA54
:1064900003032B700134032CE6D103B0BDE8F08F69
:1064A000E388002BCFD0D9F8000001F0EFFF0028DF
:1064B000C9D03B78002BC6D03D70C6F80350C6F853
:1064C0000750C0E748270020FC290020D8290020D9
:1064D000CC260020D42600202028002010B50F4B09
:1064E0000F4C104A1B780820A07003F5B061A07310
:1064F0009070907303F5B8601180908103F5C061CE
:10650000122003F5C8632180A381FFF73FF8A1891A
:106510001320BDE81040FFF739B800BFAC260020BB
:10652000002A0020182A0020F0B40D4D0C23C2F1DF
:10653000040403FB0053A40044F04304DC70002671
:1065400074B2A24206DC00EB400005EB8000F0BC18
:10655000FEF7A2BF1C448F5DE7710136F0E700BF74
:10656000182A00200A4A0C2303FB002310B48024BD
:10657000DC700C0A99725C720C0C090E1C72D971D9
:1065800000EB40005DF8044B02EB8000FEF784BF97
:10659000182A00202DE9FF415B4E0F780D460C2391
:1065A00003FB00636A78897895F803801A7195F87F
:1065B00002C083F805C007F0E00795F803C083F830
:1065C00006C0402F044602D0202F40F0998002EBF5
:1065D000012080B20DF102024146FFF7A1FB002825
:1065E00000F08780402F03883AD1590436D5D9B2BC
:1065F000023989B211299DBF444A575C444A00269A
:1066000094BF565C37461A041AD541684A6823F489
:106610000053ADF80430CDE902250B6801A8984776
:1066200040B13A46291D2046FFF77EFF002004B006
:10663000BDE8F0814FF000612046FFF793FFF5E7DA
:10664000002F54D04368002B51D0BDF80200012E1A
:1066500003EB00013A4608BF1958E4E72D49EBE780
:106660009904FBD51A0418D54268516823F4804375
:10667000ADF80430CDE90215136801A89847002849
:10668000D8D00C2303FB0463602204EB4404DA70CB
:1066900006EB8400FEF700FFC8E7DBB2023B9BB2CB
:1066A000112B24D81C4AD15C2A78C2F38102C2F192
:1066B000040291421BD1DFF874E0BDF802701EF8AD
:1066C0000330D0F804C0012B0CEB070208BF5CF8C4
:1066D0000720013D00239942D3D095F805C005F865
:1066E00001CF47680FB102F803C00133F3E70B494C
:1066F000A2E7B8F1000F01D109499DE709499BE7DD
:10670000802F93D0084998E7182A00201003010829
:10671000220301080000010610030108100007060B
:106720000000020611000906010004052203010809
:1067300008B50A491220FEF783FF18B10849002066
:10674000FFF728FF07491320FEF77AFF28B1BDE8BD
:10675000084005490120FFF71DBF08BD002A0020A1
:10676000032A00200C2A00200F2A0020074B10B516
:1067700000241C809C70064B80211C809C70022091
:10678000FEF704FF034B1C7010BD00BF302A002031
:10679000342A0020332A002070B586B003A90220D5
:1067A000FEF74EFF1C4B002833D001221B4E1C4D20
:1067B0001A70002433782A790133DBB29A4206F842
:1067C000013BE0B204D82B68002B01DBFFF7FEFC95
:1067D0000134032C05F10805ECD1124E124D0024B2
:1067E00033782A790133DBB29A4206F8013BE0B2F2
:1067F00008D82B68002B05DB0190FFF779FD019885
:10680000FFF7ECFD0134032C05F10805E8D106B0D3
:1068100070BD1870FBE700BF332A0020302A00202B
:1068200048270020342A0020D0260020022808B55E
:10683000024603D8044B53F8200008BD034904481E
:1068400002F0B4FD0248F8E7A80301083403010888
:10685000EC09002007B50121102002F0AFFA012158
:10686000802002F0ABFA684602F042FA4CF21002C5
:106870004FF0807369460A48CDE9002302F0F6F92B
:106880004FF4807307480093694602F0EFF9064A17
:1068900000231370054A137003B05DF804FB00BFBA
:1068A00000100240001C02403C2A00203D2A00202B
:1068B0002DE9FF412E4D2E78F6B1012E25D02B78F3
:1068C000B34215D02B4B1B78022B11D92A4801F06B
:1068D00063FD03903046FFF7A9FF02902878FFF789
:1068E000A5FF029B009003992448512202F0F4FC7A
:1068F000002004B0BDE8F08101F0C2FD204B00F59E
:10690000FA70186001232B70D9E71D4B186801F04D
:10691000BDFD0028D3D04FF400411A4802F0EEF933
:106920004FF480418046174802F0E8F94FF4807137
:106930000746154802F0E2F910210446114802F01A
:10694000DDF9B7FA87F2002C0CBF032300235209AC
:1069500003EB4203B0FA80F0B8F1000F14BF1C46FD
:106960005C1C4009094B04EB80041C700223CAE73D
:106970003D2A0020120A0020370301084A030108BB
:10698000382A002000100240001C02403C2A00204F
:1069900070B58CB001F0DBFD0121202002F00EFA71
:1069A0000121042002F00AFA01214FF4806002F074
:1069B0001DFA0024032604236946244800938DF819
:1069C00004608DF8074002F051F969464FF4806386
:1069D0001F4800938DF804608DF8074002F046F9D7
:1069E00002A801F005FE4FF44033CDE9033402A8BC
:1069F0004FF470630593029401F0E6FD06A801F0E0
:106A0000D9FD012540F2011306A91248ADF81C304A
:106A1000CDE9084406940A948DF82C5001F0A4FDA9
:106A200029460C4801F03CFE33462A460948082115
:106A300001F0EDFD2946074801F0E0FD064B054851
:106A40001C7001F028FE0CB070BD00BF00080240B1
:106A500000140240002201403E2A002010B5094ADD
:106A6000094C00231370237001F00AFD074B2278B4
:106A700000F5BB5010301860054B1860054B1A70BC
:106A800010BD00BF482A0020612A00204C2A0020A7
:106A9000442A0020F50900202DE9F047744E754D79
:106AA00096F90020744C754F652A0FD0662A3DD0A8
:106AB0003B78032B3DD1724B197829B922B10120C3
:106AC0001870704802F008FC337801E000232B7046
:106AD00023703B78042B2ED16B4AFF232B70137845
:106AE000012B05D169490B7069490B7000231370A4
:106AF00094F90050674C002D40F0AC80604E337824
:106B0000012B40F0A780206801F0C0FC002800F0B5
:106B1000A78001F0B5FC00F5BB5010303570206047
:106B200029465D48BDE8F04702F0D6BB564B01222E
:106B30001A700023CCE7554A584E00231370327860
:106B4000032A08D1FF222A704F4A11780129CFD198
:106B50004F480170CBE74E49DFF854A1504F0B70FE
:106B6000022A49D194F90030002B45D02B789AF8AD
:106B700000209A422BD08AF8003001F081FC824636
:106B800094F900000028B8BF4042C0B2FDF78AFC6B
:106B900002460B4600204349FDF736FB32A3D3E9FA
:106BA0000023FDF7E9FC3F4B0022FDF70FFE804676
:106BB0000AF59C5008308946FDF764FC02460B46F6
:106BC00040464946FDF722FBFDF7E8FE386038688D
:106BD00001F05CFC20B1344802F0E0FB0323337089
:106BE0002B78FF2B314B04BF1A782A702A78FF2AA2
:106BF00008BF00221A707BE701F042FC064694F9B8
:106C000000000028B8BF4042C0B2FDF74BFC02466E
:106C10000B4600202349FDF7F7FA13A3D3E900231D
:106C2000FDF7AAFC1F4B0022FDF7D0FD804606F5BC
:106C30009C5008308946FDF725FC0B460246494624
:106C40004046FDF7E3FAFDF7A9FE2B7838608AF895
:106C50000030C5E701F014FC00F5BB501030206097
:106C6000BDE8F087AFF30080000000000088C3405B
:106C7000402A0020612A0020AE2B0020110A0020AB
:106C8000BE2B0020DF030108482A0020100A002044
:106C9000B02B0020442A00200E040108B22B002053
:106CA0004C2A002000005940B4030108F4090020D8
:106CB000F5090020094A08B500231370084A13702B
:106CC00001F0DEFB074B00F5BB5010301860064B9F
:106CD0001860064B1A68064B1A6008BD582A002037
:106CE000602A0020542A00205C2A0020502A00201C
:106CF000F8090020F8B52F4D2F4C95F900202F4EA4
:106D0000652A3BD0662A36D03378032B36D12C4BFC
:106D1000597829B922B101212A48597002F0DCFAC8
:106D20002B7863703378284A042B29D1FF23137002
:106D3000264A1378012B05D125490B7025494B7044
:106D40000023137094F90170234C67BB1C4E7578B7
:106D5000012D28D1206801F099FB50B301F090FB80
:106D600000F5BB5010307770206029461B48BDE805
:106D7000F84002F0B1BA154B01221A700023D0E797
:106D8000134900230B7016494978032908D1FF21C4
:106D900011700E4A11780129D4D10E484170D0E704
:106DA0000C494B70CDE701F06BFB00F5BB50103088
:106DB0002060F8BD592A0020AE2B0020110A0020C7
:106DC000BE2B0020D4030108602A0020582A00208E
:106DD000100A0020B02B00205C2A002003040108C8
:106DE000B22B0020034B00221A70034B1A78034B7E
:106DF0001A707047612A0020202C0020622A00208F
:106E000010B5094B1978FF290CD0084A1078084AA8
:106E1000147814B908B1013119701978107001F0A3
:106E20007F01197010BD00BF612A0020202C0020B6
:106E3000622A0020024A00231370024A137070472E
:106E4000642A0020632A002030B517490B78FF2BF5
:106E50001CD016480479C27842EA4402144C2078C7
:106E600055B2D2B2904210D0022D80EA02000EDC60
:106E7000002D0EDC09D101280FD0022805D10133E5
:106E8000DBB2FF2B08BF00230B70227030BD032D37
:106E9000F0E70128F3D00228F7D1013BDBB2FF2B4A
:106EA00008BFFE23F0E700BF642A0020202C00204A
:106EB000632A0020002303700120704708B5F320E7
:106EC00001F048FE0221D82001F07CFE092800D004
:106ED000FEE708BD38B501F027FEFFF7EFFF084DCC
:106EE000002404F10160615900F56020043401F0D0
:106EF0009FFEB4F59A7FF4D1BDE8384001F022BE80
:106F0000682A00202DE9F041644C08B9FF23237161
:106F1000634B1A7812B102F1100363712379053BB8
:106F2000042B04D8DFE803F0949BA903B3000023EB
:106F3000237041F2610363802AB96379013B3E2BE0
:106F400084BF3F23637100254FF00048FF2761791C
:106F500084F83850032084F85C5084F88050C4F8DA
:106F600008802773C4F810802775C4F81880277725
:106F7000FEF780FB022384F838304A4B6179E363E3
:106F800040F0C040012603F58073A0600420236414
:106F90002673FEF76FFB052384F85C30424B2366B3
:106FA00003F500736366A3F58073A36603F50073AE
:106FB00040F0C040E36603F500732061236731466B
:106FC00041F28833032084F8A450E38484F8C85045
:106FD000E38584F8EC50E3862675C4F8208084F8B5
:106FE0002470C4F8288084F82C70C4F8308084F8A9
:106FF0003470FEF73FFB08232C4D84F8A4302C4B53
:1070000084F8246040F0C040C4E92E35206203F5C6
:10701000807310210320C4E93035C4E92A55C4E93E
:107020002C55FEF727FB032384F8C830214B84F846
:107030002C60C4E93335204BC4F8103140F0C04017
:107040004FF4FA53A062C4F8D450A4F81431A671D6
:107050001A4BC4F818314FF08043C4F81C31164B5A
:10706000174AC4E94923174BC4F82C31A3F1641320
:10707000C4F830312D23A4F82031134B1B78032B97
:107080008CBF4FF496734FF4FA63A4F822310923AE
:107090002371BDE8F041FFF71DBF00BF682A002043
:1070A0003C2A0020200100210807002108011020AF
:1070B00008030021200D0021401F401F0000BE4298
:1070C000E803E803F401F401FC0900200649002369
:1070D00003F1016202F5602212685A500433B3F5DD
:1070E0009A7FF5D1704700BF682A002008B50020BC
:1070F000FFF708FFFFF7EEFEBDE80840FFF7E6BF29
:1071000010B51A4CFFF7E2FF628841F261039A4220
:107110001ED0FFF7EBFF61790320FEF7ABFA40F0DA
:10712000C0406179A0600420FEF7A4FA6379104999
:10713000104A122B104B40F0C04019BFC4E92E1367
:10714000C4E93023C4E92E31C4E93032206110BDD6
:107150000A4B1B781BB1627910339342D9D1237942
:10716000092BD8D00120FFF7CDFED4E7682A0020F4
:107170000803002108040021080110203C2A0020F7
:10718000024A00231370024A13807047FC09002052
:10719000A02B002010B501F073F900F16404204623
:1071A00001F074F90028FAD0124801F082FAA0F137
:1071B0005B039BB24E2B014603D80F4B02221A7081
:1071C00010BDA0F1B5039BB2B3F59F7F02D80A4B67
:1071D0000322F4E76FF4FF73C3189BB2B3F5137F78
:1071E00002D8054B0422EAE7BDE81040034802F04C
:1071F00073B800BF00220140FC09002029040108E7
:10720000042808B5024603D8044B53F8200008BDF3
:107210000349044802F0CAF80248F8E7E405010807
:1072200034030108000A0020032808B5024603D8E9
:10723000044B53F8200008BD0349044802F0B6F897
:107240000248F8E7F805010834030108080A00209D
:107250002DE9F74FDFF80C927A4ADFF80CA27A4F4B
:107260007A4DDFF808E211460026CB464FF0640C59
:107270003AF8023B59F8040B31F9024B834280F291
:10728000AC80A0EB03083868714B404433F81630EB
:10729000386090FBF3F06F4B33F81630B8FBF3F324
:1072A000034484EAE470A0EBE47023EAE373019002
:1072B0001846C3EB4333C0EB8303BDF80480019849
:1072C00000EB43002B88B3FBFCF3A8EB030300B2F5
:1072D0001BB223EAE37320EAE0708342A8BF0346AF
:1072E0000FFA88F8984504DD002CD8BF5B4221F8DE
:1072F000023C043702350EF1020E002E6BD0564DC3
:10730000019595F90030002B00F08E80DBF80040ED
:107310003346019991F9011021B1DBF804105E1C8C
:10732000F3B20C444D49B1F810C1A4EB0C060BB1FB
:1073300096FBF3F64A4800214FF0640E4FF61848CA
:107340004FF47A79A44573DA019B5B56B3B3404D91
:10735000036835F811A03F4DB2F900703344036063
:1073600093FBFAF335F811A096FBFAFA534423EA9B
:10737000E373C3EB433B354D87EAE77AAAEBE77A41
:10738000C3EB8B030AEB430335F811B0BBFBFEFBE9
:10739000A7EB0B0B1BB20FFA8BFB2BEAEB7B23EA61
:1073A000E3739B45A8BF9B460FFA8AFADA4505DDD1
:1073B000002FD8BFCBF1000BA2F800B0B2F900301B
:1073C000B3F57A7F37DDA2F800900232043069B35A
:1073D00003B0BDE8F08F01264AE71F4BF05600EBE3
:1073E00080000023B4EB400F3B604FEA4008A3B29B
:1073F0000EDA002CB4BF2888BEF80000B0FBFCF009
:1074000003441BB243457FF772AF21F8028C70E74B
:10741000002CCCBF2888BEF80000B0FBFCF01B1A83
:107420001BB24345F1DB62E71C4672E7012189E7A5
:1074300000230360C2E713F57A7FB8BFA2F800808B
:10744000C3E700BFE22B0020CC2B0020C82B00207C
:10745000AA2B0020B42B0020AE2B0020682A00208D
:10746000D82B00200C2C00207A2B0020BA2B0020D7
:10747000684B2DE9F04133F91060674DDFF8A881C2
:10748000B5F8221186EAE673A3EBE6739BB2592B9B
:1074900081BF0A22B3FBF2F34B436FF0630283BF59
:1074A00093FBF2F35B189BB20B4628F810305B4B52
:1074B0001F88CF1B0446BFB218B1012851D0BDE8C8
:1074C000F081002E1BDDB8F80010554801F0F3FDE7
:1074D000B5F82211524801F0F0FD01222146504832
:1074E00001F015FE224621464D4801F01EFE012204
:1074F00004214B4801F00BFE0422114619E04848D4
:1075000020D001F0D8FDB8F80010454801F0D5FDB5
:1075100043480122214601F0FAFD41480422214658
:1075200001F003FE012204213D4801F0F0FD224656
:1075300004213B4801F0F9FD39463948BDE8F041E6
:1075400001F0BFBD01F0B7FDB5F82211344801F0DC
:10755000B4FD01223146324801F0D9FD0422314602
:10756000C2E7002E23DDB8F802102D4801F0A7FD78
:10757000B5F822112B4801F09EFD2948224608212A
:1075800001F0C5FD26480022082101F0CEFD22466B
:107590002448002101F0BBFD04220021214801F014
:1075A000C4FD39461F48BDE8F04101F086BD1C48C6
:1075B00017D001F084FDB8F802101A4801F07BFDE5
:1075C00017482246082101F0A2FD1548042208218F
:1075D00001F0ABFD22461348002101F098FD002286
:1075E000DBE701F06CFDB5F822110E4801F063FDF8
:1075F0000B482246082101F08AFD0948042208218F
:1076000001F093FD22463146064801F080FD042238
:107610003146C3E7E22B0020682A0020B82B002067
:107620000004014000000140C42B0020012970B576
:1076300018BF0025064606BF04250C462C4610B18F
:10764000012816D070BD01462246134801F05FFDA7
:1076500011482A46314601F068FD0F4822460421B0
:1076600001F055FD0C482A460421BDE8704001F0A8
:107670005CBD09482246082101F049FD06482A461A
:10768000082101F052FD05482246002101F03FFD8E
:1076900002482A460021E8E70004014000000140BA
:1076A0002DE9F047DFF88082974AB8F82231974EEB
:1076B000974C5B0813800121B8F820214FF46173C7
:1076C000B3FBF2F3934A8EB00846138001F076FBC9
:1076D0000121022001F072FB0121102001F06EFB5C
:1076E0000121802001F06AFB01214FF4807001F03C
:1076F00065FB0227202369463046CDE9003701F0BB
:10770000B5FA03223046052101F002FB4FF4005A7E
:1077100069468148CDF800A001F0A8FA03227E480E
:107720000D2101F0F5FA4FF0400969463046CDF8D9
:10773000009001F09BFA032230460621012501F05A
:10774000E7FA69462046009501F090FA03222046A8
:10775000002101F0DDFA802369463046009301F0F4
:1077600085FA03223046072101F0D2FA6946204605
:10777000009701F07BFA03222946204601F0C8FA5F
:107780004FF4807369466548009301F06FFA2A460A
:107790006248082101F0BCFA69462046CDF800A0F5
:1077A00001F064FA2A4620460D2101F0B1FA1023B7
:1077B00069463046009301F059FA0322304604210D
:1077C00001F0A6FA4FF4805A69462046CDF800A091
:1077D00001F04CFA2A4620460C2101F099FA29467C
:1077E000384601F003FB2946284601F0FFFA02A8BB
:1077F00001F05EFBB8F82231494F013B0393B8F822
:107800002031A4F58034013B002602A92046ADF8C2
:107810000830ADF81060ADF80A608DF8126001F024
:1078200009FB02A9384601F005FB05A801F09CFC04
:1078300005A92046ADF81A90CDF81CA0ADF820603F
:1078400001F081FC05A9384601F07DFC09A801F092
:107850002BFC0423ADF82830B8F82231DFF8CCA097
:10786000CDF824A0013B09A92046CDE90B360D96A1
:1078700001F032FB2046082101F025FC09A9204631
:1078800001F0A2FB2046082101F02FFC4FF0700907
:1078900009A92046ADF8249001F056FB20460821A6
:1078A00001F019FC09A9384601F016FB08213846F9
:1078B00001F009FC09A801F0F7FBB8F82231CDF876
:1078C00024A0013B09A920460B93ADF8306001F0DC
:1078D000B9FB2046082101F010FC4946204601F082
:1078E00064FC09A9384601F02FFB3846082101F055
:1078F000F2FB08230B486946CDE9003501F0B6F9E3
:107900000EB0BDE8F08700BFC22B0020002002406F
:1079100000040240B82B0020001C0240000002407E
:107920000000014000100240682A002070000100A1
:107930002DE9F04FA94CAA4D2378AA48AA4987B04F
:107940000393AA4BB3F828212A80B3F8242102809C
:10795000B3F830210A80A64AB3F82C611680B3F838
:107960002A616E80B3F826514580B3F83201B3F82E
:107970002E315380039B4880042B00F2B881DFE84E
:1079800013F0050050006B0082009701994B002214
:107990001A705A70984B1D78002D71D1DFF89492AF
:1079A000DFF88C82954F964E89F80050284688F86B
:1079B00000503D803570FFF75BFD29462846FFF7F4
:1079C00035FE012089F8015088F801507D807570DE
:1079D000FFF74EFD29460120FFF728FE89480821C0
:1079E00001F092F900F04CFD874B0A30186001233A
:1079F0002370864B1B78022B42D9854800F0CCFCC3
:107A000004900398FFF7FCFB02902078FFF7F8FB47
:107A1000029B009004997F4840F2912201F05CFCA7
:107A20002EE0794D286800F031FD28B37A48012115
:107A300001F0A3FB7848012101F042FA77480121C7
:107A400001F09BFB7548012101F03AFA00F018FDA6
:107A50000A3028600223CBE76B4B186800F016FD54
:107A600050B10323237000F00BFD6D4B00F57A70CD
:107A700018606C4B00221A802378039A9342B8D185
:107A800007B0BDE8F08F604D286800F0FFFC04955A
:107A90000028F1D0624D286800F0F8FC38B100F001
:107AA000EFFC604B00F57A70002228601A805A487B
:107AB000802101F070FBB8B15A4A138801339BB2A0
:107AC000142B13802BD85448802101F06AFB5348B3
:107AD000802101F066FB5048012101F04EFB4F4828
:107AE000012101F04AFB05E04C48802101F053FBE5
:107AF0000028E1D14C4B424DDFF80081DFF8F490D3
:107B00004A4F0293002615F801BB5FFA86FABBF1D3
:107B1000030F00F2B680DFE80BF0081A279100236C
:107B20001380042364E70126EDE7029A127800230C
:107B300089F80030002A00F0938001215046FFF7B9
:107B400075FD00233B70012305F8013C2CE03B78D8
:107B50000133DBB2142B3B7040F282800023A8F883
:107B600000303B700223EFE7314BF3560BB1314A43
:107B7000B354FFF76DFB5046FFF77AFCB8F90030BD
:107B80000A2293FBF2F389F80030029B197800294E
:107B900062D150460591FFF749FD0599A8F80010FC
:107BA00089F8001005F8011C184B1B78022B57D9D7
:107BB000174800F0F1FB05905846FFF735FB824669
:107BC00015F8010CFFF730FB0599CDE900A033460D
:107BD00040F27322184801F07FFB41E0110A0020B7
:107BE000C82B0020BA2B0020AA2B0020682A0020D6
:107BF000B42B0020C02B0020100A0020E22B002014
:107C0000B22B002000100240A42B0020120A0020FA
:107C10004E040108D30401080004014000000140A3
:107C2000D42B0020FE090020BE2B0020A82B002012
:107C3000AE2B0020E02B00208D04010800215046CF
:107C4000FFF7F4FC324AB25C0023A8F8003089F850
:107C50000030002A7FF478AF15F8013C5B45A3D1D2
:107C6000029B013308F1020809F10109013702936F
:107C7000002E3FF458AF00F003FC049B0A3018605C
:107C8000FAE6244B1B785BB1234800F085FB009695
:107C9000014615F8013C21484FF41B7201F01CFB12
:107CA00000215046FFF7C2FC002305F8013CD3E752
:107CB0001B48002101F061FA1A48002101F05DFA29
:107CC000194B1B78002B3FF4D7AE1548802101F0EB
:107CD00068FA1448802101F064FA1148012101F08A
:107CE0004CFA1048012101F048FA002380E6094BC4
:107CF0001B784BB1084800F04FFB2378014640F257
:107D00008B220A4801F0E8FA00232370B4E600BF92
:107D1000B02B0020120A00204E040108650401085F
:107D20000004014000000140100A0020BB040108CB
:107D3000F0B5574B5749DFF884E1DFF884C1564F5F
:107D4000564E574840F29F5200251A605A60554BD4
:107D50000D608FB0012440F6F3224D6040F6EE2115
:107D6000AEF80050ACF80050AEF80250ACF802503B
:107D7000C3E900123C7035607C7075600560456039
:107D800000F07EFB484B494E0A30186000F0DFFBE4
:107D90002146042001F012F821464FF4807001F0D2
:107DA00025F821464FF4007001F020F802A800F0F9
:107DB0009FFF0C2702A903233D488DF80C308DF856
:107DC0000F50029700F052FF04A800F011FC4FF48E
:107DD0004033CDE9053504A84FF47063079304954B
:107DE00000F0F2FB08A800F0E5FB0895ADF8245080
:107DF0004FF060630C954FF080502E4D8DF834405D
:107E0000CDE90A0308A9304600F0AEFB08A94FF0FF
:107E1000807328460B9300F0A7FB274B019301A822
:107E200000F046FB2246304640F2052100F044FCBB
:107E30002246304642F21A0100F03EFC214630460E
:107E400000F02EFC2246284640F2052100F034FCCA
:107E50002246284642F21A0100F02EFC214628460E
:107E600000F01EFC224639463046022300F0CFFBCC
:107E70000223224628460D2100F0C9FB2146304648
:107E800000F0BCFB2146284600F0B8FB0FB0F0BD67
:107E9000FC2B00200C2C0020042C0020182C00208F
:107EA000E82B0020F02B0020142C002000200140A3
:107EB000000802400021014012000001062C0020B1
:107EC000F82B0020F8B5DFF860C0124FDCF8003066
:107ED000114E3A68114C12499A1A3368642553437B
:107EE0007A6893FBF5F32360DCF804309A1A736820
:107EF000534393FBF5F363600A4C0120087048700C
:107F0000206800F0C3FA18B100F0BAFA0A30206015
:107F1000F8BD00BFE82B0020FC2B00200C2C00201B
:107F2000042C0020142C0020F02B002010B5324827
:107F300040F2052100F0CBFBB0B12F4800F0B9FBB7
:107F40002E4B1B78002B4CD02D492E4A0B68146801
:107F50001B1B1844086000EBD070401010602648CE
:107F600040F2052100F0C1FB274840F2052100F056
:107F7000AEFBB0B1244800F09CFB204B5B78002B9B
:107F800034D01F491F4A4B6854681B1B1844486073
:107F900000EBD070401050601B4840F2052100F00B
:107FA000A4FB154842F21A0100F091FB40B1174AB8
:107FB0001148138842F21A010133138000F095FB37
:107FC000114842F21A0100F082FBA0B10F4A0E489C
:107FD0005388BDE81040013342F21A01538000F08B
:107FE00084BB0B4A138801331380B8E7084A5388CF
:107FF00001335380D0E710BD00200140042C002045
:10800000182C0020E82B002000210140062C002025
:10801000F82B0020F7B501214FF4807000F0CEFE60
:108020000121042000F0CAFE0121082000F0C6FE54
:108030000121402000F0C2FE00254FF440431548C6
:10804000154F164E6946CDE9003500F00FFE4FF48E
:10805000407313480093694600F008FE80231148DE
:108060000093694600F002FE4FF400730E4800933F
:10807000694600F0FBFD062407F8015B00F000FAFA
:10808000013C00F10A0046F8040BF5D1074B1C70C7
:1080900003B0F0BD00080240202C0020282C002056
:1080A00000200240000C024000180240262C002054
:1080B0002DE9F84FDFF8B080264F274EDFF8AC905F
:1080C0000025C2466B1E042B04D8DFE803F0072E00
:1080D000313437004FF40071204802E04FF4004182
:1080E000484600F00BFE3B7883420446BB4629D04D
:1080F000306800F0CBF920B100F0C2F90A303060EE
:108100003C7001239BF8001098F90020AB40013728
:108110005BB2E1B113430135DBB2062D8AF80030C2
:1081200006F10406CED1BDE8F88F4FF48041D7E7C1
:108130004FF48071D0E70A488021D2E709484FF414
:108140000071CEE700F09CF90A303060D9E722EAEE
:108150000303E0E7202C0020282C00200020024010
:10816000000C024000180240262C002000080240AB
:1081700010B1012805D0704703484FF4805100F03A
:10818000C3BD02480421FAE7001802400010024073
:1081900010B1012805D0704703484FF4805100F01A
:1081A000B5BD02480421FAE7001802400010024061
:1081B0002DE9F041DFF874801B4D18F800300446BB
:1081C0000E4617465BB1012B22D000F059F930441E
:1081D00045F824002046FFF7DBFF00230EE055F8AA
:1081E000200000F053F988B15FB100F049F938443C
:1081F00045F824002046FFF7BBFF012308F80430B0
:1082000004E000F03DF9304445F82400BDE8F08179
:1082100055F8200000F03AF90028F7D0002ED4D10C
:1082200000F02EF93844EFE7402C0020482C0020C5
:1082300038B514461D460A4601460120FFF7B8FF2F
:108240002A4621460020BDE83840FFF7B1BF0000B4
:10825000F8B5454C454D464E204600F06BFD00F00C
:1082600009F963684FF47A72B3FBF2F3414A013BB8
:108270005360414BF02183F82310002407239460BE
:10828000012113604FF4001000F098FD01214FF41C
:10829000800000F093FD01214FF4804000F0A6FD26
:1082A000AB793370FEF774FBFEF76AFFFEF772FFDF
:1082B000324B1B78022B46D9FEF7CCFA304C237890
:1082C000022B3DD1FEF71CFFFDF796FBFDF7BCFA34
:1082D000FFF72EFDFFF7E4F9FFF79CFEFEF782FDA6
:1082E000FEF7A8FDFEF7BAFBFEF7E4FC2549264899
:1082F000264F274C00F0F0FFAB793370FDF794FB6D
:10830000FDF7BCFAFFF7DEFDFFF712FBFFF7D0FE2B
:10831000FEF776FDFEF798FDFEF7BEFBFEF7EAFCE2
:108320003A78052A12D000237F2A2370637014D173
:1083300064234FF4617219461046FFF779FFDBE7BB
:10834000FEF7B6FABBE7134B1C70BBE764234FF490
:10835000FA6200214FF47A70EFE74FF4FA714FF4AC
:108360007A720846E9E700BF4C2C0020682A0020FA
:10837000120A002010E000E000ED00E0FC090020FF
:108380003D2A00200806010811060108BA2600202F
:10839000BE2B00203C2A002010B52F21044601F0FE
:1083A00027F800B1441C204610BD704704205FEA46
:1083B0000E01084202D0EFF3098001E0EFF30880DC
:1083C000416900BE7047FEE7FEE7FEE77047704771
:1083D00070470000024A136801331360704700BF02
:1083E0005C2C0020704700000B4B1968024609B94D
:1083F0000A4919600A491868096809680244A1F520
:1084000000518A4289BF074B1A600C224FF0FF309F
:1084100088BF1A60704700BF140A0020642C002037
:1084200008ED00E0602C002070B50E4614460025D3
:10843000A54201DB204670BD705DFDF78FFA013566
:10844000F6E74FF0FF3070474FF400534B600020C9
:108450007047012070470020704770B50E461446E3
:108460000025A54201DB204670BDAFF300807055AA
:108470000135F6E7014B00221A6070475C2C0020A2
:10848000014B1868704700BF5C2C0020074B1B682D
:108490000130984203D2181AC043C00F7047C01A67
:1084A000B0F1004F94BF0020012070475C2C0020E9
:1084B000017870B501F01F0301269E40C3784D0975
:1084C000CBB10F4BDA684378D243C2F30222C2F138
:1084D0000404E4B2A340DCB20F2343FA02F283782F
:1084E0001340084A23431B011144DBB281F80033D7
:1084F00042F8256070BD034B203543F82560F9E74D
:1085000000ED00E000E100E0002103E00A4B5B58D1
:108510004350043109480A4B42189A42F6D3094A9B
:1085200002E0002342F8043B074B9A42F9D300F0E3
:1085300047FEFFF78DFE7047EC08010800000020A1
:10854000C0090020C0090020642C0020FEE708B507
:1085500001214FF4807000F061FCBDE8084000216B
:108560004FF4807000F05ABC43680A7923F04073DE
:1085700023F4807343EA02230A6813434360D1E97A
:10858000032313438A6810B513438468084A2240C2
:1085900013434A7943EA420383600A7DC36A013A7E
:1085A00023F47003D2B243EA0253C36210BD00BF8A
:1085B000FDF7FFC00023C0E902330360838003613D
:1085C0000123037570470000D0E90032064910B559
:1085D00013434C68054A2240134382681343C26820
:1085E00013434B6010BD00BF00230140E030FCFF8F
:1085F0000023C0E90033C0E902337047836819B132
:1086000043F001038360704723F00103FAE709296F
:1086100070B519D9A1F10A04C56804EB4404072612
:10862000A64025EA0605A3402B43C360062A16D8B8
:10863000541E436B04EB84041F22A24023EA02026F
:10864000A1400A43426370BD046901EB410607255E
:10865000B54024EA0504B34023430361E6E70C2A4E
:108660000BD8D31F046B03EB83031F229A4024EA29
:10867000020299400A430263E5E7A2F10D03C46ACE
:1086800003EB83031F229A4024EA020401FA03F257
:108690002243C262D7E7836843F080438360704718
:1086A000836819B143F480638360704723F4806367
:1086B000FAE7C06C80B27047CBB2012199404368A1
:1086C00012B119434160704723EA0101FAE7426899
:1086D000006810EA112007D00123C9B203FA01F1A2
:1086E000114214BF1846002070476FEA1121016043
:1086F0007047000008B50C4B98424FF001010AD1B9
:108700004FF0007000F07EFB00214FF00070BDE8DC
:10871000084000F077BB4FF0806000F073FB002151
:108720004FF08060F3E700BF00640040036823F06F
:1087300002030360036843F0010303604FF48033D6
:108740004268D20701D4013BFAD1436813F0010318
:1087500054D08B79012B03680CBF43F0800323F0C6
:1087600080030360CB79012B03680CBF43F0400307
:1087700023F0400303600B7A012B03680CBF43F026
:10878000200323F0200303604B7A012B03680CBF06
:1087900043F0100323F0100303608B7A012B03686E
:1087A0000CBF43F0080323F008030360CB7A012BCE
:1087B00003680CBF43F0040323F004030360CB7889
:1087C0008A781B0643EA82730A7943EA02434A79AC
:1087D00043EA02530A88013A1343C361036823F052
:1087E000010303604FF480334268D20701D5013B97
:1087F000FAD14068C04300F0010070471846704746
:10880000354A837A30B5D2F8004244F00104C2F808
:108810000042D2F81C520121994025EA0105C2F814
:108820001C52057BCC43002D34D1D2F80C52DB0016
:108830002540C2F80C5203F18043C588428803F5F5
:10884000C84342EA0542C3F840228588028842EACA
:108850000542C3F84422C27A1F4B82BBD3F80422DC
:108860002240C3F8042202896ABBD3F814221440C0
:10887000C3F81442437B012B174B02BFD3F81C22D1
:108880001143C3F81C12D3F8002222F00102C3F8EE
:10889000002230BD012DDED1D2F80C52DB000D4399
:1088A000C2F80C5203F180430588428803F5C8439F
:1088B00042EA0542C3F840228588C288C7E7D3F858
:1088C00004220A43CDE7012A01BF034AD2F8143239
:1088D0000B43C2F81432CDE700640040012303804B
:1088E00040F20322002343808280C38003814381BE
:1088F00070478368F0B55C013AD483681A0139D4B3
:108900008368DB0040D5022400EB0413D3F88021F8
:1089100002F00102C3F880210D7A4A7A65BB0E6825
:10892000D3F8805142EA46522A43C3F880218A7A1A
:1089300002F00F028A72D3F8845125F00F05C3F8B4
:108940008451D3F884512A43C3F8842100EB0412E4
:10895000D1F80B50C2F88851D1F80F10C2F88C1121
:10896000D3F8802142F00102C3F880212046F0BDF7
:108970000024C9E70124C7E74F68D3F8806142EAC1
:10898000C7022A433243D0E70424EFE700EB011388
:1089900010B5D3F8B04104F004041472BCBBD3F892
:1089A000B041640D1460D3F8B04104F00204547275
:1089B000D3F8B44104F00F049472D3F8B4311B0A15
:1089C000D37400EB0113D3F8B841D472D3F8B84193
:1089D000240A1473D3F8B841240C5473D3F8B84163
:1089E000240E9473D3F8BC41D473D3F8BC41240A49
:1089F0001474D3F8BC41240C5474D3F8BC311B0E4E
:108A0000937449B9C36843F02003C36010BDD3F821
:108A1000B041E4085460C6E7036943F020030361F2
:108A2000F4E719B9C06800F003007047012901D1CB
:108A30000069F8E700207047436912B119434161AA
:108A4000704723EA0101FAE711F4700F0346084664
:108A500007D09B691840C0F31300003818BF0120ED
:108A60007047CA0101D55B68F4E7010101D59B6835
:108A7000F0E782014CBFDB681B69EBE70A4B9942C8
:108A800002D10023836170478A01C1F3130301D52A
:108A9000C36070474A0101D5036170470A014CBFAA
:108AA00083604360704700BF7000F030B1F5007F15
:108AB00036D00FD8202927D006D804291FD008295E
:108AC00020D0012918D07047402920D0B1F5807FEF
:108AD00026D07047B1F5004F20D006D8B1F5806F91
:108AE0001ED0B1F5006F19D07047B1F5803F10D09E
:108AF000B1F5003F10D070470A4B836070470823E0
:108B0000C36070471023FBE70823036170471023FD
:108B1000FBE70823436070471023FBE700238361D2
:108B20000423F7E701010100044B1A69002ABFBFC3
:108B3000034A5A6002F188325A607047003C024092
:108B400023016745024A136943F0004313617047EC
:108B5000003C0240014BD860704700BF003C02401F
:108B60000E4BDA68D20310D4DA68D1060FD4DA6873
:108B7000D2050ED4DA6812F0EF0F0CD1DB6813F0D7
:108B8000020F14BF082009207047012070470620FB
:108B90007047022070470720704700BF003C02402A
:108BA00007B509238DF80730FFF7DAFF8DF80700C6
:108BB0009DF80730012BF7D09DF8070003B05DF852
:108BC00004FB000070B5064659B301292BD00229D9
:108BD0000CBF4FF400754FF44075FFF7E1FF092813
:108BE0001ED1124C236923F4407323612169294368
:108BF0002161236923F0F80323612069304340F0A9
:108C000002002061236943F480332361FFF7C8FF2A
:108C1000236923F002032361236923F0F80323610E
:108C200070BD0D46D9E74FF48075D6E7003C024091
:108C300070B505460E46FFF7B3FF092813D10A4C5D
:108C4000236923F440732361236943F40073236190
:108C5000236943F0010323612E60FFF7A1FF23691D
:108C600023F00103236170BD003C02402DE9F04177
:108C70000022012603250B6806FA02FC3CEA0303E6
:108C800031D10368540005FA04FE23EA0E030360A1
:108C90000B79D0F800806FEA0E0703FA04FE013B5F
:108CA0004EEA080E012BC0F800E011D883681F407F
:108CB00087604B798768A3403B438360436823EA1E
:108CC0000C0343608B79476893409BB23B434360FE
:108CD000C36805FA04F723EA0703C360CB79C768C2
:108CE000A3403B43C3600132102AC4D1BDE8F081E8
:108CF0004FF6FF720023C0E9002370470369194251
:108D000014BF0120002070470183704741837047E2
:108D100001F00703C90800EB810010B5016A9B0050
:108D20000F249C4021EA04010162016A9A400A432F
:108D3000026210BD1D4A936803F00C03042B10B5AA
:108D40001AD0082B1AD01A4B184A03609368194995
:108D5000C3F30313CC5C0368E34043609468C4F33B
:108D600082240C5D23FA04F484609268C2F34232D8
:108D70008A5CD340C36010BD0F4BE5E7546851686F
:108D800052686302C2F388124CBF0B4B084B01F0D0
:108D90003F01B3FBF1F35343044A5268C2F301426B
:108DA00001325200B3FBF2F3CEE700BF00380240BD
:108DB0000024F4003404002000127A00044B1A6BE3
:108DC00011B110431863704722EA0000FAE700BFB0
:108DD00000380240044B1A6C11B1104318647047FC
:108DE00022EA0000FAE700BF00380240044B5A6C48
:108DF00011B110435864704722EA0000FAE700BF3F
:108E000000380240044B1A6A11B1104318627047CF
:108E100022EA0000FAE700BF00380240044B5A6A19
:108E200011B110435862704722EA0000FAE700BF10
:108E3000003802401C4A038890429BB212D002F5CF
:108E4000806290420ED0B0F1804F0BD0A2F58032FC
:108E5000904207D002F58062904203D002F5806212
:108E6000904203D14A8823F0700313430F4A904283
:108E700008D002F5806290421FBF23F440730A8934
:108E80009BB2134303804B68C3620B880385064B78
:108E9000984203D003F58063984201D18B7A038610
:108EA00001238382704700BF000001400010004092
:108EB00000234FF0FF32C0E9003203818372704714
:108EC000038821B19BB243F001030380704723F074
:108ED00001031B041B0CF8E7038C23F001031B04A4
:108EE0001B0C038470B5038C8288048B0D884E881C
:108EF00024F073042404240C2C4323F002038D89F2
:108F00001B0435431B0C2B430E4DA84292B29BB25F
:108F100003D005F58065A8420ED1CD894E8A23F095
:108F200008032B438D8823F004032B430D8A22F47E
:108F3000407235432A4392B282808A680483426336
:108F4000038470BD00000140038C23F010031B0458
:108F50001B0C038470B5038C8488028B0D884E88AB
:108F600022F4E6421204120C42EA052223F0200306
:108F70008D891B0435431B0C43EA0513114DA84290
:108F8000A4B292B29BB203D005F58065A84213D17A
:108F9000CD894E8A23F0800343EA05134FF6BF754F
:108FA0001D408B8845EA03130D8A24F44064354341
:108FB00044EA85049BB2A4B2848002838A688263F7
:108FC000038470BD00000140038C23F480731B04F4
:108FD0001B0C038470B5038C8288848B0D884E88AB
:108FE00024F073042404240C2C4323F400738D898F
:108FF0001B0435431B0C43EA0523114DA84292B2D2
:109000009BB203D005F58065A84213D1CD894E8A65
:1090100023F4006343EA05234FF6FF351D408B8898
:1090200045EA03230D8A22F44052354342EA0512F1
:109030009BB292B282808A688483C263038470BDCB
:1090400000000140038C23F480531B041B0C038499
:1090500070B5038C8488828B0D884E8822F4E6429A
:109060001204120C42EA052223F400538D891B04DA
:1090700035431B0C43EA05330A4DA842A4B292B211
:109080009BB203D005F58065A84205D10D8A24F472
:10909000804444EA8514A4B2848082838A6802648E
:1090A000038470BD000001400023C0E90233036067
:1090B0008380036170474163704781637047C16378
:1090C000704701647047038B23F008031B041B0CDB
:1090D000194301837047038B23F400631B041B0CAB
:1090E00043EA012189B201837047838B23F008038F
:1090F0001B041B0C194381837047838B23F400638B
:109100001B041B0C43EA012189B281837047038C45
:1091100010B501249BB28C4023EA04030384038C22
:109120008A401A4392B2028410BD038C10B5042405
:109130009BB28C4023EA04030384038C8A401A43C5
:1091400092B2028410BD4A880B8813438A88134365
:10915000CA8813430A8913434A8913438A891343EC
:109160009BB2A0F844307047002303804380838083
:10917000C3800381438183817047B0F8443039B1A3
:109180006FEA43436FEA53439BB2A0F84430704701
:10919000C3F30E03F9E7038A194214BF012000202C
:1091A0007047C94389B201827047838823F07003F6
:1091B0001B041B0C838083889BB2194381807047FA
:1091C0003E4AD2F8883043F47003C2F888303C4BF2
:1091D0001A68002142F001021A6099601A6822F0B0
:1091E000847222F480321A60364A5A601A6882B059
:1091F00022F480221A60D960009101911A6842F429
:1092000080321A6019461A6802F400320192009AFC
:1092100001320092019A1AB9009AB2F5A04FF2D128
:109220000B6813F4003318BF01230193019B012B3A
:109230003FD1234B1A6C42F080521A64224A1168C3
:1092400041F44041116099689960996841F4004186
:109250009960996841F4A05199601C495960196856
:1092600041F08071196019688901FCD5136843F4D5
:1092700080331360144B19465A68D203FCD51A6820
:1092800042F400321A604B689B03FCD5104B40F24D
:1092900005721A60A3F580639A6822F003029A604F
:1092A0009A6842F002029A609A6802F00C02082A58
:1092B000FAD1024B074A9A6002B0704700ED00E015
:1092C000003802401030002400700040085A400767
:1092D000003C0240004000080FB400B5074983B0CD
:1092E00004AB086853F8042B8168019301F030FE49
:1092F00003B05DF804EB04B0704700BF000000202D
:1093000070B5054688B008460C46FBF779FB224A43
:10931000AB6B04940126441C04A906920222039418
:10932000CDE90112AC680590079623B3636E13F084
:10933000010FB4F90C309AB201D1980525D59104EA
:1093400006D4626E43F4005322F40052A381626695
:10935000284601AA214604F017FF636E002814BFB7
:109360004FF0FF350A25DA0702D4A3899B0506D5FD
:10937000284608B070BD284604F07CFDD6E7A06DF5
:10938000FBF756FF284608B070BDA06DFBF74EFFF7
:10939000B4F90C309AB2D2E730060108024B01460C
:1093A0001868FFF7ADBF00BF000000200EB430B555
:1093B0009CB01FAB0C4C0D4D53F8042B0193014690
:1093C00002910691206802A96FF00044CDE904459E
:1093D000079400F021F8029B00221A701CB0BDE82F
:1093E000304003B0704700BF000000200802FFFFBC
:1093F00071B138B503460C46002501E0431C054613
:109400001846214606F0C8F90028F7D1284638BD8D
:1094100006F0C2B9000000002DE9F04F2DED068BDB
:10942000D3B08B4617460C93814605F041F803688C
:1094300015931846FBF7E4FABBF80C3014901E069F
:1094400004D5DBF81030002B01F0188000239FEDCD
:10945000747BCDE92733CDE91733CDE91933109368
:109460001693089329AB269398463B788DED127B93
:1094700008EE10BA002B00F059813C4604E014F8C5
:10948000013F002B00F0A880252BF8D1E51B40F010
:10949000A6802378002B00F04981002309938DF8E2
:1094A0007B300693661C4FF0FF33647807932B25BF
:1094B0004FF0200A0136A4F120035A2B00F2B480A9
:1094C000DFE813F09402B200B2008E02B200B200E4
:1094D000B2006A00B200B200F2010302B200FD0164
:1094E000A302B2009D025B005B005B005B005B00BF
:1094F0005B005B005B005B00B200B200B200B20038
:10950000B200B200B2004901B2009501C6024901A1
:1095100049014901B200B200B200B2008802B200B3
:10952000B2000702B200B200B200A301B20078029A
:10953000B200B200BC07B200B200B200B200B2008A
:10954000B200B200B2004901B2009501C90149015F
:10955000490149013A02C9018400B2005B02B2002C
:109560004302B50764028400B200A3018200B80779
:10957000B200B2009307B2008200A4F130030022CF
:1095800016F8014B02EB820203EB4202A4F1300316
:10959000092BF5D909928EE7484604F089FF436804
:1095A00019931846FBF72CFA034648461C461A93B3
:1095B00004F07EFF8268179234B1179B23B1179B8A
:1095C0001B78002B41F09181347873E7069B347847
:1095D00043F0200306936DE7E51B00F0A780DDE96B
:1095E000273201332A44072BCDE92732C8F800700F
:1095F000C8F8045006DC08F10808089A23782A44C1
:10960000089247E718EE101A26AA484606F060F9B5
:10961000002841F0ED830DF1A408EEE7AFF30080E0
:1096200000000000000000000D96002C7ED00023FA
:109630001A464FF0010A8DF8E4408DF87B300B920A
:1096400007920E9211920F92CDF828A039AF069B87
:10965000069913F0020318BF0AF1020A11F0840BF5
:1096600005D10999A1EB0A06002E00F3B583289DC8
:1096700072B1279A013201350DF17B000121072AD1
:10968000CDE92725C8E9000100F3E58308F10808C2
:109690006BB1279B013302351FA90222072BCDE9AD
:1096A0002735C8E9001200F3E58308F10808BBF18B
:1096B000800F00F09B82079B0A9A9E1A002E00F3EF
:1096C000DD82069BDB0500F13582279B0A9AC8F8EC
:1096D000007001331544072B2895C8F80420279300
:1096E00000F3598308F10808069B590705D5099B23
:1096F000A3EB0A04002C00F3CA83DDE908325245CB
:10970000ACBF9B1853440893002D40F0F482002313
:1097100027930B9B1BB10B99484604F031FC0DF1CC
:10972000A4080D9F3B78002B7FF4A7AE289B18EE72
:1097300010BA002B41F0B182BBF80C3013F0400F8F
:10974000089B18BF4FF0FF330893089853B0BDEC47
:10975000068BBDE8F08F0C9B0D96073323F00703B3
:10976000B3EC027B8DED127BDDE912560C9326F0F3
:10977000004309EE903A09EE105A5BEC19ABB04B7E
:10978000504659464FF0FF32FBF71CFB002840F0D3
:109790000B85AB4B4FF0FF3250465946FBF7F4FABE
:1097A000002840F001850022002328463146FBF7BF
:1097B000E1FA002841F071809DF87B20A14FA24B77
:1097C000069800214FF0030A20F080000B910690CC
:1097D000472CC8BF1F46CDF828A007910E911191C4
:1097E0000F91002A3FF433AF0AF1010A2FE70C9BD7
:1097F0000D9653F8042B8DF8E42000210A464FF013
:10980000010A0C938DF87B1019E70C9D0D9655F805
:10981000047B00268DF87B60002F00F03F86079ABE
:109820001346013300F0F28731463846FBF758F90A
:109830000B90002801F04A810B9B0796DA1B0A92D5
:10984000334622EAE27A0C959DF87B200B930E9327
:1098500011930F93C5E7069B0D969D0640F101817C
:109860000C9B073323F007031946F1E802230C9100
:1098700092469B46002A73F10003C0F20381079BC6
:10988000013300F06C85069B23F080055AEA0B0338
:1098900040F09182079B002B40F0948206950023B4
:1098A00007930A9352AF18E10C9B53F8042B0992CB
:1098B000002A80F25684099A0C9352420992069B20
:1098C000347843F004030693F4E534788DF87B5044
:1098D000F0E5069B0D9643F010030693069B990650
:1098E00040F10C840C9B073323F00703F3E802AB31
:1098F0000C93069B23F48065002300228DF87B20C7
:10990000079A1146013100F0CD8025F080010691C3
:109910005AEA0B0140F04B82002A40F02387002BCB
:10992000BDD115F001030A9300F01F8430238DF898
:1099300047310DF24717D0E03478069B682C00F0D1
:10994000968543F040030693B4E5069B0D969E066C
:1099500000F1F984069BDD0600F10A87069B5C0690
:1099600000F1D487069B980540F102870C9B08996B
:1099700053F8042B0C931170D3E63478069B6C2CAF
:1099800000F06E8543F01003069393E50C9B0D9653
:1099900047F6300153F8042BADF87C1006990C9370
:1099A0002A4B169341F0020592464FF0000B02231A
:1099B0007824A2E7069B0D9643F01005AF0640F110
:1099C0008D830C9B073323F00703F3E802AB0C9362
:1099D000012392E7069B347843F00803069369E578
:1099E000069B347843F00103069363E59DF87B30D2
:1099F000002B7FF4E9AD34788DF87BA05AE5069B07
:109A0000347843F08003069354E5324612F8014B54
:109A10002A2C01F07582A4F13003092B164698BF59
:109A2000002201F2368116F8014B02EB820203EBB1
:109A30004202A4F13003092BF5D907923BE500BFA0
:109A4000FFFFEF7F340601083806010844060108CD
:109A5000069B0D9643F010030693069B9D063FF56B
:109A6000FFAE069BD80640F18A830C9B53F8042B6B
:109A70000C934FEAE27B5B46002A73F100039246A7
:109A8000BFF6FDAE079A069DDAF1000A11464FF0C7
:109A90002D036BEB4B0B01318DF87B304FF0010345
:109AA0007FF433AF012B00F08681022B52AF22D11D
:109AB00016984FEA1A130AF00F0143EA0B734FEAA4
:109AC0001B129A469346435C07F8013D5AEA0B0382
:109AD000EFD152ABDB1B06950A93002307990B933A
:109AE0000E9311930F930A9B9DF87B208B42B8BF76
