:020000040800F2
:1040000000A00020ADA20008B1A10008B3A10008E3
:10401000B5A10008B7A10008B9A100080000000080
:10402000000000000000000000000000BBA100082C
:10403000BDA1000800000000BFA10008C1A1000848
:10404000F5A20008F5A20008F5A20008F5A20008F4
:10405000F5A20008F5A20008D1A10008F5A2000809
:10406000F5A20008F5A20008F5A20008F5A20008D4
:10407000F5A20008F5A20008F5A20008F5A20008C4
:10408000F5A20008F5A2000835650008114F0008E8
:10409000754F0008F5A20008F5A20008F5A2000877
:1040A000F5A200082D9C0008F5A20008F5A2000862
:1040B000F5A20008F5A2000851660008F5A2000864
:1040C000F5A20008F5A20008F5A20008F5A2000874
:1040D000F5A20008F5A20008F5A20008F5A2000864
:1040E000F5A20008F5A20008F5A20008F5A2000854
:1040F000F5A20008F5A20008F5A20008F5A2000844
:10410000000000000000000000000000F5A2000810
:10411000F5A20008F5A20008F5A20008F5A2000823
:10412000F5A20008E9970008F5A20008F5A200082A
:10413000F5A20008E19B000800000000000000005C
:10414000F5A20008F5A20008F5A200080000000092
:10415000000000000000000000000000000000005F
:104160000000000000000000F5A20008F5A2000811
:10417000F5A20008000000000000000000000000A0
:0841800000000000F5A2000898
:1041C0007BB972B90029BEBF00204FF0004106E064
:1041D00008BF00281CBF6FF000414FF0FF3000F017
:1041E00057B8ADF1080C6DE904CE002909DB002BAE
:1041F0001ADB08F067FEDDF804E0DDE9022304B015
:104200007047404261EB4101002B1BDB08F05AFE76
:10421000DDF804E0DDE9022304B0404261EB410136
:10422000524263EB43037047524263EB430308F08F
:1042300049FEDDF804E0DDE9022304B0404261EB11
:1042400041017047524263EB430308F03BFEDDF847
:1042500004E0DDE9022304B0524263EB43037047FC
:1042600053B94AB9002908BF00281CBF4FF0FF31DD
:104270004FF0FF3000F00CB8ADF1080C6DE904CE42
:1042800008F020FEDDF804E0DDE9022304B0704709
:10429000704700BF000000000000000000000000A8
:1042A00001F0FF01102A2BDB10F0070F08D010F8E7
:1042B000013B013A8B422DD010F0070F42B3F6D1EB
:1042C000F0B441EA012141EA014122F007047FF004
:1042D00000070023F0E80256083C85EA010586EA5B
:1042E000010685FA47F5A3FA87F586FA47F6A5FA97
:1042F00087F68EB9EED1F0BC01F0FF0102F00702A3
:1043000032B110F8013B013A83EA010313B1F8D14D
:104310000020704701387047002D06BF354603382E
:10432000073815F0010F07D1013015F4807F02BF67
:10433000013015F4C03F0130F0BC0138704700BFB8
:10434000844641EA000313F003036DD1403A41D3A0
:1043500051F8043B40F8043B51F8043B40F8043B5F
:1043600051F8043B40F8043B51F8043B40F8043B4F
:1043700051F8043B40F8043B51F8043B40F8043B3F
:1043800051F8043B40F8043B51F8043B40F8043B2F
:1043900051F8043B40F8043B51F8043B40F8043B1F
:1043A00051F8043B40F8043B51F8043B40F8043B0F
:1043B00051F8043B40F8043B51F8043B40F8043BFF
:1043C00051F8043B40F8043B51F8043B40F8043BEF
:1043D000403ABDD2303211D351F8043B40F8043B8F
:1043E00051F8043B40F8043B51F8043B40F8043BCF
:1043F00051F8043B40F8043B103AEDD20C3205D39F
:1044000051F8043B40F8043B043AF9D2043208D096
:10441000D2071CBF11F8013B00F8013B01D30B8808
:1044200003806046704700BF082A13D38B078DD0E6
:1044300010F003038AD0C3F10403D21ADB071CBFB8
:1044400011F8013B00F8013B80D331F8023B20F822
:10445000023B7BE7043AD9D3013A11F8013B00F85B
:10446000013BF9D20B7803704B7843708B788370E3
:1044700060467047000000000000000000000000DF
:1044800090F800F06DE9024520F007016FF0000C94
:1044900010F0070491F820F040F049804FF000043C
:1044A0006FF00700D1E9002391F840F000F1080017
:1044B00082FA4CF2A4FA8CF283FA4CF3A2FA8CF34F
:1044C0004BBBD1E9022382FA4CF200F10800A4FAB6
:1044D0008CF283FA4CF3A2FA8CF3E3B9D1E904230A
:1044E00082FA4CF200F10800A4FA8CF283FA4CF341
:1044F000A2FA8CF37BB9D1E9062301F1200182FAFB
:104500004CF200F10800A4FA8CF283FA4CF3A2FA00
:104510008CF3002BC6D0002A04BF04301A4612BA0E
:10452000B2FA82F2FDE8024500EBD2007047D1E911
:10453000002304F00305C4F100004FEAC50514F0A0
:10454000040F91F840F00CFA05F562EA05021CBF71
:1045500063EA050362464FF00004A9E781F00041D9
:1045600002E000BF83F0004330B54FEA41044FEA58
:10457000430594EA050F08BF90EA020F1FBF54EAF3
:10458000000C55EA020C7FEA645C7FEA655C00F08F
:10459000E2804FEA5454D4EB5555B8BF6D420CDD60
:1045A0002C4480EA020281EA030382EA000083EAE3
:1045B000010180EA020281EA0303362D88BF30BD83
:1045C00011F0004F4FEA01314FF4801C4CEA1131D9
:1045D00002D0404261EB410113F0004F4FEA033338
:1045E0004CEA133302D0524263EB430394EA050FC3
:1045F00000F0A780A4F10104D5F1200E0DDB02FA32
:104600000EFC22FA05F2801841F1000103FA0EF2C5
:10461000801843FA05F359410EE0A5F120050EF18B
:10462000200E012A03FA0EFC28BF4CF0020C43FABC
:1046300005F3C01851EBE37101F0004507D54FF0C9
:10464000000EDCF1000C7EEB00006EEB0101B1F519
:10465000801F1BD3B1F5001F0CD349085FEA30005F
:104660004FEA3C0C04F101044FEA445212F5800F6A
:1046700080F09A80BCF1004F08BF5FEA500C50F107
:10468000000041EB045141EA050130BD5FEA4C0CEA
:10469000404141EB010111F4801FA4F10104E9D173
:1046A00091F0000F04BF01460020B1FA81F308BF6A
:1046B0002033A3F10B03B3F120020CDA0C3208DD36
:1046C00002F1140CC2F10C0201FA0CF021FA02F111
:1046D0000CE002F11402D8BFC2F1200C01FA02F181
:1046E00020FA0CFCDCBF41EA0C019040E41AA2BFA6
:1046F00001EB0451294330BD6FEA04041F3C1CDA6E
:104700000C340EDC04F11404C4F1200220FA04F08D
:1047100001FA02F340EA030021FA04F345EA030137
:1047200030BDC4F10C04C4F1200220FA02F001FAF9
:1047300004F340EA0300294630BD21FA04F029467B
:1047400030BD94F0000F83F4801306BF81F4801114
:104750000134013D4EE77FEA645C18BF7FEA655C87
:1047600029D094EA050F08BF90EA020F05D054EA59
:10477000000C04BF1946104630BD91EA030F1EBF5E
:104780000021002030BD5FEA545C05D14000494162
:1047900028BF41F0004130BD14F580043CBF01F555
:1047A000801130BD01F0004545F0FE4141F470013B
:1047B0004FF0000030BD7FEA645C1ABF1946104616
:1047C0007FEA655C1CBF0B46024650EA013406BF17
:1047D00052EA033591EA030F41F4002130BD00BFD6
:1047E00090F0000F04BF0021704730B54FF4806493
:1047F00004F132044FF000054FF0000150E700BF14
:1048000090F0000F04BF0021704730B54FF4806472
:1048100004F1320410F0004548BF40424FF000015F
:104820003EE700BF42004FEAE2014FEA31014FEAA2
:1048300002701FBF12F07F4393F07F4F81F06051F1
:10484000704732F07F4208BF704793F07F4F04BF3C
:1048500041F40021704730B54FF4607401F0004519
:1048600021F000411CE700BF50EA010208BF704779
:1048700030B54FF000050AE050EA010208BF70476A
:1048800030B511F0004502D5404261EB41014FF4D3
:10489000806404F132045FEA915C3FF4D8AE4FF0DB
:1048A00003025FEADC0C18BF03325FEADC0C18BFBE
:1048B000033202EBDC02C2F1200300FA03FC20FA0F
:1048C00002F001FA03FE40EA0E0021FA02F114445C
:1048D000BDE600BF70B54FF0FF0C4CF4E06C1CEA75
:1048E00011541DBF1CEA135594EA0C0F95EA0C0FE6
:1048F00000F0DEF82C4481EA030621EA4C5123EA59
:104900004C5350EA013518BF52EA033541F4801187
:1049100043F4801338D0A0FB02CE4FF00005E1FB3A
:1049200002E506F00042E0FB03E54FF00006E1FB84
:1049300003569CF0000F18BF4EF0010EA4F1FF04C7
:10494000B6F5007F64F5407404D25FEA4E0E6D4107
:1049500046EB060642EAC62141EA55514FEAC52018
:1049600040EA5E504FEACE2EB4F1FD0C88BFBCF594
:10497000E06F1ED8BEF1004F08BF5FEA500E50F145
:10498000000041EB045170BD06F0004646EA01010B
:1049900040EA020081EA0301B4EB5C04C2BFD4EB3D
:1049A0000C0541EA045170BD41F480114FF0000E36
:1049B000013C00F3AB8014F1360FDEBF002001F0A4
:1049C000004170BDC4F10004203C35DA0C341BDC1E
:1049D00004F11404C4F1200500FA05F320FA04F0F0
:1049E00001FA05F240EA020001F0004221F0004124
:1049F00010EBD37021FA04F642EB06015EEA430E97
:104A000008BF20EAD37070BDC4F10C04C4F12005C6
:104A100000FA04F320FA05F001FA04F240EA020079
:104A200001F0004110EBD37041F100015EEA430E4A
:104A300008BF20EAD37070BDC4F1200500FA05F26A
:104A40004EEA020E20FA04F301FA05F243EA0203E9
:104A500021FA04F001F0004121FA04F220EA0200F8
:104A600000EBD3705EEA430E08BF20EAD37070BD3E
:104A700094F0000F0FD101F00046400041EB01011E
:104A800011F4801F08BF013CF7D041EA060195F000
:104A9000000F18BF704703F00046520043EB0303BA
:104AA00013F4801F08BF013DF7D043EA06037047A7
:104AB00094EA0C0F0CEA135518BF95EA0C0F0CD0B2
:104AC00050EA410618BF52EA4306D1D181EA0301F8
:104AD00001F000414FF0000070BD50EA410606BFF2
:104AE0001046194652EA430619D094EA0C0F02D137
:104AF00050EA013613D195EA0C0F05D152EA03367C
:104B00001CBF104619460AD181EA030101F0004199
:104B100041F0FE4141F470014FF0000070BD41F0E2
:104B2000FE4141F4780170BD70B54FF0FF0C4CF4BC
:104B3000E06C1CEA11541DBF1CEA135594EA0C0FDB
:104B400095EA0C0F00F0A7F8A4EB050481EA030E28
:104B500052EA03354FEA013100F088804FEA03330F
:104B60004FF0805545EA131343EA12634FEA0222DD
:104B700045EA111545EA10654FEA00260EF000419E
:104B80009D4208BF964244F1FD0404F5407402D2F0
:104B90005B084FEA3202B61A65EB03055B084FEA81
:104BA00032024FF480104FF4002CB6EB020E75EB7E
:104BB000030E22BFB61A754640EA0C005B084FEAA6
:104BC0003202B6EB020E75EB030E22BFB61A754623
:104BD00040EA5C005B084FEA3202B6EB020E75EB6E
:104BE000030E22BFB61A754640EA9C005B084FEAE6
:104BF0003202B6EB020E75EB030E22BFB61A7546F3
:104C000040EADC0055EA060E18D04FEA051545EAE1
:104C100016754FEA06164FEAC30343EA52734FEA8A
:104C2000C2025FEA1C1CC0D111F4801F0BD141EA03
:104C300000014FF000004FF0004CB6E711F4801F68
:104C400004BF01430020B4F1FD0C88BFBCF5E06F48
:104C50003FF6AFAEB5EB030C04BFB6EB020C5FEA58
:104C6000500C50F1000041EB045170BD0EF0004EAD
:104C70004EEA113114EB5C04C2BFD4EB0C0541EADF
:104C8000045170BD41F480114FF0000E013C90E6DC
:104C900045EA060E8DE60CEA135594EA0C0F08BFA0
:104CA00095EA0C0F3FF43BAF94EA0C0F0AD150EA9F
:104CB00001347FF434AF95EA0C0F7FF425AF104632
:104CC00019462CE795EA0C0F06D152EA03353FF45A
:104CD000FDAE1046194622E750EA410618BF52EAD7
:104CE00043067FF4C5AE50EA41047FF40DAF52EAAB
:104CF00043057FF4EBAE12E74FF0FF3C06E000BF48
:104D00004FF0010C02E000BF4FF0010C4DF804CD54
:104D10004FEA410C7FEA6C5C4FEA430C18BF7FEA14
:104D20006C5C1BD001B050EA410C0CBF52EA430C42
:104D300091EA030F02BF90EA020F0020704710F1C2
:104D4000000F91EA030F58BF994208BF90422CBF51
:104D5000D8176FEAE37040F0010070474FEA410C4A
:104D60007FEA6C5C02D150EA013C07D14FEA430C68
:104D70007FEA6C5CD6D152EA033CD3D05DF8040BD9
:104D8000704700BF8446104662468C46194663460B
:104D900000E000BF01B5FFF7B7FF002848BF10F1E2
:104DA000000F01BD4DF808EDFFF7F4FF0CBF012027
:104DB00000205DF808FB00BF4DF808EDFFF7EAFFA3
:104DC00034BF012000205DF808FB00BF4DF808ED5E
:104DD000FFF7E0FF94BF012000205DF808FB00BF53
:104DE0004DF808EDFFF7CEFF94BF012000205DF8DD
:104DF00008FB00BF4DF808EDFFF7C4FF34BF0120EA
:104E000000205DF808FB00BF4FEA410C7FEA6C5CB4
:104E100002D150EA013C0AD14FEA430C7FEA6C5CB4
:104E200002D152EA033C02D14FF0000070474FF02C
:104E3000010070474FEA410212F5001215D211D558
:104E40006FF47873B3EB625212D94FEAC12343F087
:104E5000004343EA505311F0004F23FA02F018BF09
:104E6000404270474FF00000704750EA013005D1D2
:104E700011F0004008BF6FF0004070474FF0000095
:104E8000704700BF0348044B834202D0034B03B179
:104E900018477047E0090020E009002000000000EA
:104EA00005480649091A891001EBD171491002D051
:104EB000034B03B118477047E0090020E0090020C8
:104EC0000000000010B5064C237843B9FFF7DAFF65
:104ED000044B13B10448AFF300800123237010BDCD
:104EE000E009002000000000F04B010808B5054B68
:104EF0001BB105490548AFF30080BDE80840FFF746
:104F0000CFBF00BF00000000E4090020F04B010803
:104F100038B5164C164894F80235154D23F00203A7
:104F2000012184F8023506F0C5F994F8001594F8CB
:104F300001358B4208D001EB810104EB8101284649
:104F400005F0AAFF042800D138BD94F8023594F882
:104F5000002523F00103013202F03F0243F0020377
:104F600084F8002584F80235DFE700BF0412002032
:104F700000640040F0B5244C244F94F801556E1C99
:104F800087B006F03F060021384606F06FF818B1EA
:104F900094F80035B3421AD11D491C4806F0CEF8EA
:104FA00098B11B491948194E06F034F9D4F8043564
:104FB0000133C4F8043521250021304606F056F8A7
:104FC00018B1013D15F0FF0511D107B0F0BD2DB2AC
:104FD00005EB850504EB85020021384605F0E4FF6A
:104FE000731C84F80165354603F03F06CBE701AA40
:104FF0000021304605F0D8FF94F8023543F0010354
:1050000084F80235D8E700BFFC0C002000640040A3
:105010001000003230B5524B1C78012C8BB07BD184
:1050200021464FF4802007F0C3F9092208214D489A
:1050300006F028FF092211464A4806F023FF4FF4E4
:105040004073019302238DF8083003238DF8093053
:1050500044488DF80B4000238DF80A3001A9002444
:1050600006F062FD012514236846ADF800308DF886
:1050700002408DF8035006F069FF13236846ADF82F
:1050800000308DF802408DF8035006F05FFF29468E
:105090004FF0007007F0D4F9334805F06BFD03A81A
:1050A00005F0ECFE102303A903932F488DF812405E
:1050B0004FF4A163ADF810308DF813508DF8144003
:1050C0008DF815408DF816408DF8174005F06AFDF3
:1050D00006A8CDE9064408948DF824508DF8255093
:1050E00005F034FE214B2048A3F8004583F8024523
:1050F000C3F804451E4B2A46A3F8004583F8024531
:105100002946C3F8044505F0D1FF2A460221164876
:1051100005F0CCFF0BB030BD01214FF4003007F09B
:1051200047F909220A214FF0904006F0ABFE0B210F
:105130004FF09040092206F0A5FE4FF44063019322
:1051400002238DF8083003238DF8093000238DF8F1
:105150000A3001238DF80B3001A94FF090407EE713
:105160004F2D00200004004800640040FC0C00208B
:1051700004120020F0B5012187B004460022324815
:1051800005F094FF314991F8020510F002030D4635
:1051900024D12288ADF80C30CDE90123A2788DF816
:1051A0000E2003349A4212DC01A9274805F074FE50
:1051B00095F802352448012243F00203114685F890
:1051C000023505F073FF0124204607B0F0BD01A9A8
:1051D000194414F8010BC8720133E3E791F8012573
:1051E00091F80035561C06F03F06B34221D0142139
:1051F000514323886B506F1805F1080000237B6032
:105200000B5202EB8202A078B872033492009842EB
:1052100008DC85F801650124012211460A4805F0E1
:1052200045FFD1E79918294414F8017BCF72013367
:10523000EDE7D1F8043540F00100013381F80205B3
:10524000C1F804350024E7E70064004004120020A0
:105250001F2838B504460D4603D9E721054803F059
:10526000F5FF054B0E2060431A181D5201231373DE
:1052700038BD00BF403A01083C0B00202DE9F74F34
:10528000254BDFF898E093F8002593F801C593F8D3
:1052900002650021944507D119B183F800C583F850
:1052A000026503B0BDE8F08F02EB82018900019135
:1052B0001421002001FB023800EB0E04217BCF07F4
:1052C00014D530F80E70D8F80050AF420ED198F8CF
:1052D0000A9084F802900025A246A94511DC8D07AA
:1052E0004CBF41F0040141F0020121730E30B0F5D2
:1052F000E07FE1D1013206F0FE0602F03F0201211B
:10530000C8E7019F2F441F440AEB050BFF7A8BF877
:1053100003700135E1E700BFFC0C00203C0B0020CE
:105320001F2838B504460D4604D94FF485710D4841
:1053300003F08CFF0C480E2303FB0400037B03F0F7
:105340000303032B0BD103682B6043686B608368F6
:10535000AB60037B23F006030373012038BD0020FC
:10536000FCE700BF403A01083C0B002001F07F0140
:1053700041EAC01070470000064B074A1B78803393
:105380001360064A138008239370054B00221A709D
:10539000704700BF60270020141700201C17002052
:1053A00031170020C208044900F00703012098408B
:1053B0008B5C18438854704729170020C2080549A0
:1053C00000F0070001238340885C20EA0300885432
:1053D000704700BF29170020054900235A5C0AB115
:1053E000002070470133042BF8D10120704700BF23
:1053F00029170020F0B5154E154F00233546DA5D0C
:10540000995D8A421CD00024514041FA04FC1CF0F2
:10541000010F12D0224102F001010122A2400170CD
:1054200052B231B1E95C0A4344EAC300EA54C0B263
:10543000F0BDE95C21EA0202F6E70134082CE4D170
:105440000133042BDBD10020F2E700BF101700204E
:1054500029170020034B00221A705A709A70DA70D4
:10546000704700BF101700202DE9F743204C267825
:10547000274626B1012E34D00023237026E00DF1FB
:105480000700FFF7B7FF804600B39DF80790194D5E
:10549000194CB9F1000F1CD02B78E67043F00103D2
:1054A0002B70102323712B786371134884F80680C6
:1054B0000023E37123726372A372FFF75BFE012383
:1054C0003B7004F0D5FE0D4B6430186003B0BDE8AE
:1054D000F083FFF781FF08B185F800900023E370A7
:1054E000E0E7064B186804F0C9FE0028EED0C3E7D9
:1054F00031170020281700201C1700201817002043
:10550000074B10B500241C6004F0B2FE054B186078
:10551000054B1C60054B1C60054B1C6010BD00BF9B
:10552000FC090020341700203C27002038270020E9
:10553000402700202DE9F041274C206804F09EFE12
:1055400070B104F095FE254EDFF8A480023820608B
:10555000002237463368D8F80010994200D00AB1CB
:10556000BDE8F0811E491F4D11F803C028781E497F
:10557000431C0844DBB2BCF10A0F2B7080F803C057
:1055800009D1981C084494469646072B1CD9BCF1B7
:10559000000F00D02B70287807280FD9134B887084
:1055A0001B78114803F588630B80FFF7E3FD04F0D7
:1055B0005FFE00231E3020602B7001223B68013308
:1055C000C3F30B033B60C5E7013300F801EFDBB227
:1055D0004FF0010CD9E700BF341700203C27002012
:1055E00038170020000A00204427002060270020F0
:1055F00038270020084A10B51168084C4B1C246855
:10560000C3F30B039C420BBF054A064C136860545E
:1056100008BF0133136010BD382700203C2700204D
:105620004027002038170020BFF34F8F0449054B57
:10563000CA6802F4E0621343CB60BFF34F8FFEE70A
:1056400000ED00E00400FA0510B50C4B0C4A0024F4
:105650001C70012393700B4B1B78214603F5E0630C
:1056600020461380FFF7F4FD4FF4E8610320FFF7B5
:10567000EFFD054B1C60054B1C6010BD6E27002024
:105680006227002060270020040A0020080A00206A
:1056900008B5FFF7BFFC084B5A79084B1A7000F0A9
:1056A00099FDFFF7D1FFFFF767FE00F0B3FBBDE800
:1056B000084000F0E9BE00BFC82A00206027002093
:1056C00010B5164805F056FA154804F015FE4FF0CF
:1056D000A04004F011FE05F085FE124806F040FFE0
:1056E00005F054FE104806F03BFF104806F038FF66
:1056F0000F4805F023FF0F4804F0FEFD082006F0D8
:1057000069FC0C2006F066FC4FF000631B6883F315
:105710000888094BBDE810401B681847006400402A
:105720000001005000080040002C0140000400402F
:105730001C0402400005005004000008F8B5594C54
:10574000FFF79CFD23789BB95748C370FFF712FD04
:1057500004F08EFD554B00F57A70186004F088FD5A
:10576000534B00F6B83018607F23237000F042FCE2
:1057700023787F2B02D0043B012B53D84D4D4B4E49
:1057800029460020FFF7CCFD80B12B791BB14A4A96
:1057900012789A420AD104F06BFDEB780238012BA3
:1057A00030604BD105232370FFF754FE306804F0BE
:1057B00065FD48B13C482378C370FFF7DBFC04F07B
:1057C00057FD00F57A7030603C4F394D3946032063
:1057D000FFF7A6FDA0B12378052B09D1FB78052B97
:1057E00057D07F23237000F005FC1020FFF7DAFD6F
:1057F0001120FFF7E3FD04F03BFD00F6B830286010
:10580000286804F03BFD68B12378042B08D000F031
:10581000F1FB04F02DFD023830601120FFF7C2FDCE
:10582000042323702378052B37D100F041FE00F0CC
:1058300075FCFFF719FE00F009FE30E0022B04D1E1
:105840000423237000F0D6FBB0E7802B01D17F2327
:10585000F7E7812B01D1FFF7E7FE822B03D1FFF79A
:1058600017FF0023EDE7902B09D1154A137843F079
:105870000303137002F098FDFFF722FF96E7912BC8
:1058800094D10F4B1A786FF300021A7002F08CFD5E
:10589000E1E71020FFF792FDAAE77F2BC9D020781F
:1058A000F8BD00BF6E27002062270020080A0020F4
:1058B000040A0020502700206027002070270020C5
:1058C000C82A0020028812F4005317D08368DA78BF
:1058D0002D2A1ED11979104B1970104B1A68104BD4
:1058E0001B68D21A0F4B6420D3F8C830B3FBF0F317
:1058F00001FB03230C4A13600120704712F480421D
:1059000007D08268D1782D2903D1034B1B781371FE
:10591000F2E70020704700BFDC0A00202C0A0020BC
:10592000180A0020C82A00200C0A0020028808B5A6
:1059300012F4005313D083681A796C2A1ED15A7955
:105940006F2A1BD19A79612A18D1DA79642A15D184
:10595000DB78012B12D102F099FE042008BD12F46D
:1059600080420BD08168CA78012A09D10B71816805
:105970004B7181688B718368DA71EEE70020EDE787
:105980001846EBE737B5048814F4005305460BD0EE
:105990008368DA78012A1DD1187918B10138C0B2AC
:1059A00002F020FD042410E014F480440DD082683D
:1059B000D478012C10D10DF1070002F0F1FCAA6897
:1059C00030B19DF8073001331371204603B030BD6C
:1059D0001071FAE70024F8E71C46F6E7028812F493
:1059E000005310B521D08368DA78142A28D11B79A6
:1059F000154C002B0CBF0D210C210320A3716171EC
:105A0000FFF7B4FC40F0C040A06061790520FFF7CB
:105A1000ADFC40F0C040206161790420FFF7A6FC96
:105A200040F0C040A061012010BD12F4804207D0B8
:105A30008268D178142905D1034B9B791371F2E761
:105A40000020F1E71846EFE7C82A0020028808B5D1
:105A500012F4005313D083681A79732A1ED15A792D
:105A6000612A1BD19A79762A18D1DA79652A15D15B
:105A7000DB78012B12D102F097FC042008BD12F450
:105A800080420BD08168CA78012A09D10B718168E4
:105A90004B7181688B718368DA71EEE70020EDE766
:105AA0001846EBE7DFF870C02DE9F0411327002519
:105AB0004FF00C0E7C1B05EB6404E3B20EFB03F409
:105AC0000CEB04063CF80440844222D896F802808D
:105AD000A044404515DAF3788B4218D909B27368AF
:105AE00003EBC10533F8313013F4805317BF337A19
:105AF0001380001B13FB00F018BF10802846BDE880
:105B0000F081844205D20133DDB2BD42D2D90025F5
:105B1000F4E7013BDFB2F8E7A83E010830B504889E
:105B2000650485B057D5456820040BD56B6804A87B
:105B300024F40054CDE9023220F80C4D2B6898472C
:105B4000274815E0E4B2013C122CF9D8DFE804F054
:105B5000120A452D0A452D2D2325282325282820E6
:105B6000202B2B00002401208342E9D3FDB9002023
:105B700005B030BD002DE3D06B1869581879C30803
:105B800000F00700CB5C034103F001031370D7E77B
:105B900000240820E8E70124E5E701240220E3E7E8
:105BA00001240420E0E70124F3E70024F9E76B185F
:105BB000013A3CB918448342D9D013F8011B02F8CA
:105BC000011FF8E76B5818448342D0D013F8011B2B
:105BD00002F8011FF8E70348CAE70024DEE700BF28
:105BE000100007060000010673B515460DF1060208
:105BF0000C461E46FFF756FF38B133462A46BDF81D
:105C00000610FFF78BFF02B070BD0348034B002C5A
:105C100018BF1846F7E700BF00000206110009068A
:105C200030B50488A50485B059D5436820040ED545
:105C300059681B6804A824F48044CDE9021220F8B6
:105C40000C4D984700284CD0002005B030BD002BEB
:105C5000FAD0E4B2013C5818122C45D8DFE804F021
:105C60000A1F22251F2225252D31352D31353528B6
:105C700028393900531855581B7903F00700DC0800
:105C8000012383401078295710F001005BB202D045
:105C90000B432B55D8E721EA03032B55D5E71278A0
:105CA0005A54D1E712885A52CEE712685A50CBE7BD
:105CB000D2E90023C0E90023C6E75B5812781A70C6
:105CC000C2E75B5812881A80BEE75B5812681A60F8
:105CD000BAE7D2E900455B58C3E90045B4E7034899
:105CE000B3E74FF00060B0E70148AEE700000106FF
:105CF000100007062DE9F74F1E4F00F5D059054655
:105D00003A18012300214846FFF76EFF80BB1A4B6B
:105D10004FEA051A4FF0100B0446012603EB0A0860
:105D20007B5DB34203D27C5503B0BDE8F08F042302
:105D30000DEB030231464846FFF756FF0F4B9DF827
:105D40000510BDF806001BFB054203EB4202FFF7FE
:105D5000A9FE0AEB04030A4A42F823009DF8043026
:105D600008F8043008B10134E4B20136F6B2D7E7DE
:105D70000024D8E77E290020C8280020FA28002027
:105D8000C42700202DE9F74F1E4F00F5B0590546F6
:105D90003A18012300214846FFF726FF80BB1A4B23
:105DA0004FEA051A4FF0100B0446012603EB0A08D0
:105DB0007B5DB34203D27C5503B0BDE8F08F042372
:105DC0000DEB030231464846FFF70EFF0F4B9DF8DF
:105DD0000510BDF806001BFB054203EB4202FFF76E
:105DE00061FE0AEB04030A4A42F823009DF80430DE
:105DF00008F8043008B10134E4B20136F6B2D7E74E
:105E00000024D8E7F8280020812900209C270020C2
:105E1000882800202DE9F041334D34480024242205
:105E200021462C606C602C8107F0D6F9304B31484C
:105E30001C70C022214607F0CFF9602221462E486F
:105E400007F0CAF9302221462C4807F0C5F92C4B3F
:105E50002C481C809C704022214607F0BDF920226E
:105E60002146294807F0B8F910222146274807F0B3
:105E7000B3F9274B27491C70274B284A1C60284B35
:105E800091F824001C700B6AC98CD180A342C3F323
:105E90000A011360107125F8021C1EDA1D4D214EF7
:105EA000DFF8488000240C2706EBC402AB68297B8E
:105EB00046F83430117107FB04F2C3F30A01002BDA
:105EC000E0B222F8081001DBFFF714FF0134032CC5
:105ED00005F10805E8D1BDE8F0810420FFF7B8F925
:105EE0002046FFF74FFFD9E7942900205A290020C8
:105EF00080270020C4270020FA280020C82800207E
:105F00007E290020882800209C270020812900204D
:105F1000F8280020C82A002084280020BC27002060
:105F20009E290020842700202DE9F74F074628B13D
:105F3000294B0022DA5503B0BDE8F08F274B284EDD
:105F400093F80080DFF8A0A0DFF8A0900546044693
:105F50004445EDD014F80AC0224B59F8240033F818
:105F60001410BCF1070F2CD8DFF884B032789BF8FE
:105F700002B04FEAD50E05F007030EF1010E1A41EB
:105F8000F3458DF807200AD94BB196F801E0C3F12B
:105F900008030EFA03F31A438DF807200136012394
:105FA0009DF8072003FA0CF3013B134002AA02F804
:105FB000013DFFF735FE1AF804301D44EDB20134FF
:105FC000C6E73246FFF72CFE14F80A30073505F015
:105FD000F80506EBD306EEE7D0290020F8280020CC
:105FE000952900209C270020812900208828002056
:105FF00092290020034B0020186058609860FFF73A
:1060000093BF00BF9229002002282DE9F74F0646D2
:10601000DFF8E89064D8334B334F13F80080334BEC
:106020000FFA80FA03EB8A1B0C25314B05FB009518
:1060300007EB0A17033503EB4A1A002408F1FF386F
:106040005FFA88F8B8F1FF0F13D10C23734309EB03
:1060500003020734E4109470264A52F83620C2F343
:106060000A0229F80320244B00229A5503B0BDE808
:10607000F08F3B785BF8040F3AF8021F072B20D80B
:1060800001230DF10702FFF749FDA8B99DF807307C
:106090002878E10804F0070203FA02FC013140EA23
:1060A0000C000729287007D832B1C2F10802134149
:1060B0006A7813436B70013517F8013B1C44E4B256
:1060C000BCE70734C4F3C703C3F10803DBB22A46B5
:1060D000FFF724FD3B7804F0F80405EBD305EBE76C
:1060E0000024B2E77E290020C8280020C027002015
:1060F000F828002084270020D22900205A290020D7
:10610000044B00221A54044B00EB400003EB8000C8
:10611000FFF730B8D22900205A2900202DE9F0419C
:10612000264D2B68002B15DB254E04203146FFF74A
:10613000F7F8044678B304F09BF8EB881844214B39
:106140001860214B01221A702B79FF2B02D10020FD
:10615000FFF7EAFE1D4D1E4F00244FF001082B787B
:106160002341DB07E6B211D507EBC4031B79FF2BF4
:106170000CD13046FFF748FF3046FFF7C1FF28B18A
:106180002A7808FA04F322EA03032B700134032C63
:10619000E5D1BDE8F081EB88002BDBD0094B186816
:1061A00004F06CF80028D5D0074B1A78002AD1D01B
:1061B0001C70C6F80340C6F80740CBE7BC27002098
:1061C00092290020842800209E290020802700207A
:1061D0008427002010B50F4B0F4C104A1B78082065
:1061E000A07003F5B061A0739070907303F5B86070
:1061F0001180908103F5C0610E2003F5C8632180F2
:10620000A381FFF725F8A1890F20BDE81040FFF713
:106210001FB800BF60270020A0290020B829002057
:10622000F0B40E4D0C23C2F1040403FB0053A40090
:1062300044F04304DC700E461C46731A5BB29A426B
:1062400006DC00EB400005EB8000F0BCFEF792BFDF
:10625000234416F8017BDF71EFE700BFB829002067
:1062600010B4084C0C2303FB004300EB40028020D9
:10627000D8709200E31DA01899505DF8044BFEF70A
:1062800079BF00BFB82900202DE9FF41674E0F7884
:106290000D460C2303FB00636A78897895F8038028
:1062A0001A7195F802C083F805C007F0E00795F869
:1062B00003C083F806C0402F044602D0202F40F0D0
:1062C000B08002EB012080B20DF102024146FFF7DF
:1062D000E9FB002800F09E80402F03883AD15A0441
:1062E00036D5D9B2023989B211299DBF504A565CC0
:1062F000504A002294BF525C16461F041AD54268C9
:1063000004A8516823F4005320F80C3DCDE9021590
:106310001368984740B13246291D2046FFF780FF99
:10632000002004B0BDE8F0814FF000612046FFF787
:1063300097FFF5E7002E6BD04368002B68D0BDF8BF
:106340000200012A03EB0001324608BF1958E4E7B6
:106350003949EBE79904FBD51A0418D5426804A81B
:10636000516823F4804320F80C3DCDE902151368F1
:1063700098470028D8D00C2303FB0463602204EB69
:106380004404DA7006EB8400FEF7F4FEC8E7DBB2E3
:10639000023B112B3CD8DFE803F0093735093735CC
:1063A00035302D2A302D2A2A323239390022012364
:1063B0002978C1F38101C1F104018B4228D1BDF8D4
:1063C0000210D0F804C00CEB01070AB15CF80170B0
:1063D000E91C002211F801CF01F804CC45680DB189
:1063E00007F802C00132D5B29D42F3D1C3E70122C2
:1063F0000423DDE701220223DAE70122D7E70022A6
:106400000823D5E70022F3E70022F4E70122F7E7AB
:106410000A498BE7B8F1000F01D1094986E709491C
:1064200084E7802F3FF47CAF074980E7B82900203C
:106430009C3F0108AE3F010800000106100007065E
:1064400000000206110009060100040508B50A490A
:106450000E20FEF765FF18B108490020FFF714FF72
:1064600007490F20FEF75CFF28B106490120BDE86F
:106470000840FFF709BF08BDA0290020A32900207C
:10648000AC290020AF290020064B10B500241C7059
:10649000054B80211C809C700220FEF7D9FE034B27
:1064A0001C7010BDD0290020D2290020D129002045
:1064B000F0B585B001A90220FEF732FF184B68B392
:1064C00001221A70174A13780133DBB21370164A8F
:1064D0001179994205D81368002B02DB0020FFF7E1
:1064E00023FD124D124E002415F8013F06EBC402A5
:1064F00001331279DBB29A42E7B22B7009D856F811
:106500003430002B05DB3846FFF77EFD3846FFF7B9
:10651000F7FD0134032CE7D105B0F0BD1870FBE79F
:10652000D1290020D0290020BC270020D12900201B
:106530008427002070B504214FF0A04004F090FAA9
:10654000002830D0364C04214FF0A04004F0EAFA85
:106550002378032B24D8DFE803F0020941474FF0EA
:10656000A04004F0D7F92F4B188019E02E4B2D4E88
:106570009B792E4D012B2AD14FF0A04004F0CAF98F
:106580003388C01A2A4B2880597818784A1C02F0A0
:106590001F02904204D003EB4101288848805A70C2
:1065A0002378013323700421224804F059FA68B19A
:1065B000214C2048042104F0B5FA2378012B25D082
:1065C0001ED3022B27D023780133237070BD4FF0E8
:1065D000A040368804F09EF9301AD3E74FF0A0406F
:1065E00004F098F9154BBFE74FF0A04004F092F982
:1065F00007EE900A124BF8EE677AC3ED007ACFE708
:106600000C4804F087F90F4B1880DCE7094804F0C8
:1066100081F90D4BF8E7074804F07CF90B4BF3E7E1
:10662000110A0020400A0020C82A00203E0A00204B
:10663000202A002000010050120A00208C0A0020AD
:10664000940A0020680A00207C0A00205C0A0020CE
:1066500008B50121044806F081FB044A00231370A9
:10666000034A137008BD00BF00080040110A002053
:10667000120A002008B51D4B01221A701C4B1B7812
:1066800093B31C4B1C481B784FF40041ABB105F091
:106690004FFB58B9194B1B78022B07D9184802F049
:1066A000D6FDB1220146174806F0E0FD4FF4004147
:1066B0001148BDE8084005F091BB05F039FB012801
:1066C0000BD10E4B1B78022B07D90D4802F0BFFDF2
:1066D000B82201460B4806F0C9FD4FF400410648B8
:1066E000BDE8084005F0A4BB08BD00BFE40A0020D7
:1066F000480A00204C2D002000040048DF0A00203A
:10670000D23F0108E23F010808B51B4B1B4800229D
:106710001A701B4B1B784FF40041B3B105F008FB16
:1067200001280BD1174B1B78022B07D9164802F012
:106730008EFDCB220146154806F098FD4FF400412E
:106740000E48BDE8084005F073BB05F0F1FA58B9F2
:106750000C4B1B78022B07D90B4802F078FDD22294
:1067600001460A4806F082FD4FF400410348BDE8A7
:10677000084005F033BB00BFE40A002000040048D5
:106780004C2D0020DF0A0020D23F0108C03F010845
:10679000F0B501218BB00420002605F051FE03273F
:1067A000772369464FF09040012500938DF80760EC
:1067B0008DF8047005F0B8F94FF400436946B3480A
:1067C00000938DF805508DF804508DF806608DF813
:1067D000076005F0A9F929464FF0005005F030FE9A
:1067E000AB48AC4C04F05CFEA949102004F008FE54
:1067F0002946102004F05AFE3146304604F078FE57
:1068000029464FF0805005F0D3FD4FF4A06005F00D
:106810007FFB1223204623706670A670E57005F09A
:1068200095FB1E23204623706670A670E57005F068
:106830008DFB4FF4C07005F067FD974C974803F04F
:1068400077FE96494FF0A04003F00EFE204603F07D
:10685000FFFD4FF480634FF4A070C4E90203C4E964
:106860000066C4E90566214604264FF0A04026775D
:1068700003F070FD2A4631464FF0A04004F0BCF80A
:106880002A46294605234FF0A04003F097FF022235
:10689000114605234FF0A04003F090FF05233A4630
:1068A00039464FF0A04003F089FF062332461021FD
:1068B0004FF0A04003F082FF29464FF0A04003F0C4
:1068C000FDFE774B774A1B881380774ADFED776AA6
:1068D000128877499B1A07EE903AF8EEE77A0A8019
:1068E00087EEA67A7349744B088874490880294654
:1068F0004FF0A04083ED007A03F0B2FE29464FF03E
:10690000A04003F01BFF40F6B8354FF0904005F073
:10691000EBF9013DF9D14FF0A040294603F05AFEB2
:106920004FF0A04003F038FE4FF0A04003F07CFE93
:106930000128F9D040F6B8354FF0904005F0D4F971
:10694000013DF9D101214FF0A04003F0F9FD0121F3
:106950004FF0A04004F084F80028F8D04F4803F02E
:10696000E7FD4E49564803F07FFD4B4803F070FDAC
:106970004FF480624FF4A0710023C4E90212032592
:1069800045494F482577C4E90033C4E9053303F08E
:10699000E1FC012204214A4804F02EF801221146AC
:1069A0000723474803F00AFF072302221221444825
:1069B00003F004FF07232A462946414803F0FEFE60
:1069C00001213F4803F04CFE40F6B8344FF09040B0
:1069D00005F08AF9013CF9D121463948384C03F0D9
:1069E000F9FD374803F0D8FD204603F01DFE0128CD
:1069F000FAD040F6B8344FF0904005F075F9013CFC
:106A0000F9D101212E482E4C03F09AFD0121204698
:106A100004F026F80028F9D002A805F0B9FE0025F8
:106A200040F27F2240F2E73302A92648ADF8105029
:106A3000CDE902238DF8125005F01AFE05A806F0E4
:106A400051F870230124059305A964231D48079379
:106A5000ADF81840ADF8205005F0CEFF2246214693
:106A6000184806F0DDF82146164805F0CDFE03F083
:106A7000FFFB154B643018604FF0A04003F02CFF73
:106A80000F4803F029FF0BB0F0BD00BF0004004821
:106A9000102A0020622A0020EC290020D82900209A
:106AA000B8F7FF1FAC0A0020C2F7FF1F0000A0428A
:106AB000AE0A0020BAF7FF1FA80A0020B00A002083
:106AC00000010050000800400C2A002000000000D7
:106AD0002DE9F04FC64CDFF8A4A3D4F8F820DFF876
:106AE000A0934FF47A7382FB032340F2EB55A2FB91
:106AF000050105FB0311D4F8C020B4F8B83085B007
:106B00005A430023FDF75CFBBA4BCDF804A0834643
:106B1000D9E90067DAE9000100251A7893F801C085
:106B2000AE46A846944540F04882B8F1000F01D027
:106B3000C9E90067BEF1000F02D0019AC2E9000165
:106B40000DB183F800C0AC4D286803F097FB002816
:106B500000F0308203F08CFBA84BB4F8B870B4F8A6
:106B6000BA1064302860188879434FF47A72002391
:106B700081FB0001FDF724FBA14BB3F800A04FF00F
:106B8000000B52465B46FDF71BFB9E4B9E4A93F85B
:106B900000809E4BB8F1000F00F02782198816681C
:106BA000761A0644166076081E80994BB4F8BC101D
:106BB000188879434FF47A72002381FB0001FDF7B6
:106BC000FFFA52465B46FDF7FBFA924A924BB8F148
:106BD000000F00F00C82198815686D1A05441560C5
:106BE0006D081D808D4BB4F8BE10188879434FF4A2
:106BF0007A72002381FB0001FDF7E2FA52465B4600
:106C0000FDF7DEFA8649874AB8F1000F00F0F181FE
:106C1000B2F800C00B68A3EB0C031844824B086069
:106C2000C008D4F8C0101080B3F9002001FB07FCA5
:106C3000ACFB0201D3170CFB03114FF47A72002353
:106C4000FDF7BEFA52465B46FDF7BAFAD4F8F830C3
:106C5000764A10EB030A41EBE37BCDE902ABDFF8A8
:106C600024B2B8F1000F00F0C681DBF80010136801
:106C70005B1A0299194408461060082390FBF3F050
:106C8000ABB207EE903AB8EEE77A07EE900AD4ED91
:106C90003D6A674BCBF80000F8EEE77A07EEE67A3C
:106CA000FCEEC77A17EE902A1A80D9E90003D4F8CF
:106CB000C4205743A7FB000107FB03114AA3D3E9F4
:106CC0000023FDF7CDFA5B4B1860019B0546D3E925
:106CD0000003A7FB000107FB031143A3D3E9002333
:106CE000FDF7BEFA544F554B396818602B1A5B18E4
:106CF000D4F8C82040F18281401B38600023642111
:106D0000B2FBF1F293FBF2F34D4A4E4F13704E4B30
:106D10004E491B8807EE103A4D4B1B8807EE903A00
:106D20004C4BF8EEE77AD3ED006A3B8867EEA67A23
:106D300006EE903AF8EEE66A474B87EEA66AB8EEA2
:106D4000C77AD3ED006A454B37EE467AC7EE267A0E
:106D5000B3EE0E7A77EE877AB2EE047AC3ED007A5C
:106D600067EE877A3E4BFDEEE77A17EE902A1A809F
:106D7000A3799BB93B4B1B789B070FD53A4A086810
:106D800013681B1A39480088B6B2361A1E441660BA
:106D9000022396FBF3F6002E0E6001DA00230B604F
:106DA000334D174E2B78DFF85C90DFF8DCA0DFF86E
:106DB000DC80002B00F05A813388002B00F05681D4
:106DC000B4F8CE202B480B68DFF8C4E09B1A0268A9
:106DD0001344294A036012884FF0140C93FBFCF310
:106DE000934257E0AFF30080008E5FFC7E0000000E
:106DF000C82A0020202A00200C2A0020680A00202F
:106E0000720A0020480A0020640A00205E0A00205E
:106E10005C0A0020580A0020520A00208C0A002038
:106E2000880A0020840A00203E0A0020380A002038
:106E3000540A0020180A00200C0A00202C0A002006
:106E4000DC0A00207C0A0020AC0A0020980A0020FE
:106E5000B00A0020940A0020A80A0020900A00200E
:106E60008E0A0020922D00209C0A0020E20A0020B9
:106E7000740A0020A40A00203C0A0020300A0020E6
:106E8000200A0020140A0020700A0020620A002054
:106E9000A00A002040F3B9800CFB02F30360CEF897
:106EA0000020DEF800308348D31ADBF800209B1A5C
:106EB00002684FF01E0C1A4493FBFCFCBAF8003039
:106EC00002604FF0140EC3F1000B92FBFEF262441D
:106ED0009345DFF804A240F39F80ABEB0C0C0EFB54
:106EE0000CF20260AAF800B00A6873491344BAF9B8
:106EF00000201344714A12889B1A0A681A4402201F
:106F00000A6093FBF0F342F2107C052092FBF0F252
:106F10001A4462456A4840F38A80ACEB030303EBF2
:106F200083030B60A0F800C094F800410388654912
:106F3000022C40F087801B0342F2107293FBF2F3A5
:106F4000B3F5486FC8BF4FF448635F4A0B80012315
:106F5000137089F8003003F08BF95C4B00F5EA40C0
:106F600030301860B8F80010002004F0C1FA584A18
:106F70003C8811683388574F0C44E41A1460E408C5
:106F80002BB1621D934202DC0533A34205DA03F004
:106F90006FF900F59C50083038603868348003F091
:106FA0006DF9002800F0838003F062F901230138B5
:106FB00038602B7005B0BDE8F08F03EB4205B5F9E2
:106FC00002505D44002D09DD761947EBE5774FF05F
:106FD0000108013202F01F020125A3E5F9D0401B90
:106FE00061EBE5714FF0010EF3E74600DAE545008D
:106FF000F5E5C00012E6029BD8003DE6934281BF52
:107000008018401B3860134679E6002BBCBF002374
:107010000360CEF8003044E7002AC1BF6FF01302CE
:1070200002FB0CF202600022AAF800205CE7002AB2
:10703000BFBF6FF0040253430B600023B4BF038053
:10704000028071E742F20F7293420DD8012C42F296
:107050001072A2EB030316BF40F69800C3EB033394
:10706000434393FBF2F370E700236EE794F800319B
:10707000022B0CBF002340F6FF730024A8F8003059
:10708000FFF742FB89F80040DFF84090AAF8004083
:10709000D9F8000003F0F2F800283FF463AF03F0E2
:1070A000E7F8094B0238C9F800001C705AE728704D
:1070B00080E700BF440A00206C0A00205E0A00201E
:1070C000600A0020620A0020500A00204C0A0020BA
:1070D000780A0020800A0020280A002008B502460D
:1070E00004280CD8DFE800F0110305070900084860
:1070F00008BD0848FCE70848FAE70848F8E70849E7
:10710000084806F0C7F80748F2E70748F0E700BF6D
:10711000FF3F0108134001081D40010829400108F4
:107120003A400108B20A0020F33F0108124A38B57C
:107130001268124B0024C3E9002403F099F8104BA5
:10714000186023460F4C1A1902F5B47502F5BA728D
:1071500007CA0C3B13F5BA7F85E80700F3D10A4B49
:107160001B88638023800023C4E90133074B1A780E
:10717000074B1A7038BD00BF180A0020882A00206B
:10718000802A0020CC2B00205E0A0020922D0020B7
:10719000702A00200A4B0B4A1B88126810B50A4C53
:1071A00063800A4B1B689B1AA360094B186803F0A5
:1071B00077F84FF47A7390FBF3F0606010BD00BF76
:1071C0005E0A0020882A0020CC2B0020180A00200C
:1071D000802A0020084A00231370084A01211170F8
:1071E000074A0849B2F8F0000880B2F8EE10064AE3
:1071F0001180064A137070477A2A0020712A0020F5
:10720000C82A0020782A0020682A00207B2A002033
:10721000034B1878013801288CBF002001207047EB
:107220007A2A00202DE9FF47AD4CAE4D2678042E7A
:1072300000F22882DFE816F005009400DB00D80198
:10724000CA01FFF761FAA849A84F0878A84B0022A5
:1072500062F341000870A749B7F8E0000880297878
:107260001A8011F0010F98462DD0A34BDFF8D8C239
:1072700093F800E0A148A24BA249BEF1010F61D1F1
:10728000D7F8D820CCF80020B7F8F0201A80B7F84B
:10729000EE20028081F800E01A889B4B1A80FFF7ED
:1072A00045FFFFF7E7F902F0E3FF984B00F59C403C
:1072B00020301860B7F8E030A8F80030944B002276
:1072C0001A7001232370934F2B783A789A4211D089
:1072D000914B1B78012B0BD9904801F0B8FF2A780D
:1072E0003B78009201464FF488728D4805F0BEFF4E
:1072F0002B783B702378B3421FD0874B1B78022B2F
:107300001BD9864801F0A3FF05463046FFF7E6FE8D
:1073100006462078FFF7E2FE824B1B880393824BE0
:107320001B880293814B1B6840F21512CDE90003C4
:10733000294633467E4805F099FF04B0BDE8F04782
:10734000FFF766BF40F6B83ECCF800E04FF4FA5CB9
:10735000A3F800C043F2D40CA0F800C00A709BE769
:10736000614B634F1A786FF341021A70714B93F8B7
:107370000080B8F1000F35D0FFF77CF9614B1B7826
:107380005BB363485B4A90F90030118803EB8303D9
:1073900003EB830301EB83039BB247F23B318B4248
:1073A00088BF47F23C33138013883B80002303706F
:1073B000FFF7F0FE554F386802F060FF38B102F079
:1073C00057FF00F56A4060303860022323702B7845
:1073D000DB073FF578AF002374E7444BB3F8E030A8
:1073E0003B80E5E7FFF790F9A7F80080E2E73E4A27
:1073F0003F4F137843F0020313704E4B93F8008015
:10740000B8F1000F00F0D680FFF734F93D4BDFF8FC
:10741000DC801B78002B5DD03D48364A90F9003067
:10742000118803EB830303EB830301EB83039BB21C
:1074300047F23B318B4288BF47F23C3313801388BD
:107440003B8000230370FFF7A5FE3B4B1A782E4BC1
:10745000002A43D02A4A12881A80324BB8F8E41026
:107460001A889142994605D9304BD8F8DC101B6830
:10747000994206DB1F4BB8F8E6101B880B449A4272
:1074800064DD01F00BF9244B1B78012B0CD9234848
:1074900001F0DDFE254AB9F800301268009201467D
:1074A000B022264805F0E2FE00232370244B1B780F
:1074B000002B8CD101F0F2F8174B1B78012B07D968
:1074C000164801F0C4FE01461E48D72205F0CEFE44
:1074D00000237BE7B8F8E0303B80B4E7074ABAE71F
:1074E0007A2A0020922D0020F02D0020C82A0020AA
:1074F000700A00207C2A0020712A0020682A0020BF
:10750000782A00207B2A00203C0A0020742A0020D0
:10751000DD0A0020702A0020DF0A00203D4001081B
:10752000054101085E0A0020520A0020140A0020CA
:1075300028410108480A0020E50A00204D400108C2
:10754000500A00209A4001086C2A0020DFF87CA134
:10755000544BDAF800201B68DFF858919A4221DA80
:10756000D9F8000002F08AFE00289FD0B8F8E23077
:107570003B8001F093F84C4B1B78012B09D94B4809
:1075800001F065FEDAF800300146BB22484805F0FC
:107590006DFE02F06DFE00F51C501030C9F80000C1
:1075A000042382E702F064FE00F56A406030C9F807
:1075B00000007BE702F05CFE3E4B00F56A40603065
:1075C0001860FFF7A1F8A7F800806FE73A4BB3F80F
:1075D000E2203A4B1A80374B186802F04FFE002821
:1075E0003FF471AE03236DE6354B344F1A786FF3D9
:1075F00041021A70334B93F80080B8F1000F3CD071
:10760000FFF738F82C4B3048B3F8E2103980028885
:10761000B3F8E4709742804605D92C48D3F8DC7063
:107620000068874204DBB3F8E6300B449A4212DD6F
:107630001D4B1B78012B0CD91C4801F008FE234A76
:10764000B8F80030126800920146F422204805F094
:107650000DFE002323701F4B1B78002B7FF4B7AE69
:10766000114B1B78012B7FF633AF104801F0EFFD73
:107670004FF480720146184828E7FFF745F8A7F84D
:107680000080E8E7084B1B78002B3FF4A4AE0748C6
:1076900001F0DDFD2378014640F209120F4805F0A4
:1076A000E5FD98E66C2A0020DF0A00203D40010835
:1076B00073400108742A0020C82A0020700A0020A4
:1076C000F02D0020480A00205E0A0020140A002045
:1076D0004D400108500A0020BF400108E640010863
:1076E00008B50246062811D8DFE800F0160406089F
:1076F0000A0C0E00094808BD0948FCE70948FAE7EA
:107700000948F8E70948F6E70948F4E709490A484B
:1077100005F0C0FD0848EEE70848ECE77E410108A7
:107720008B4101089C410108A3410108AC410108BB
:10773000B54101083A400108BA0A00207541010824
:10774000014B00221A707047902A0020034B1878D2
:1077500005288CBF00200120704700BF902A002020
:107760002DE9FF419A4C2578062D00F22F81DFE8A4
:1077700015F00700240039009800EA0021016E008E
:10778000FEF7C2FF934B00211980934B1A7861F3E7
:1077900041021A70914A1278002A58D01B78D807F3
:1077A00002D50523237052E002F062FD8C4B00F5F8
:1077B0006A40603018600123F4E7874A13786FF35A
:1077C0004103D9071370ECD4854E306802F056FDA2
:1077D00000283CD002F04CFD00F51C501030306009
:1077E0000223DFE77C4E7B4F33786FF34103337026
:1077F0007A4B93F80080B8F1000F24D0794B4FF406
:10780000FA521A80FEF736FF46F6F0633B80337873
:10781000DA07C6D4724E306802F030FDB8B1724B50
:107820001A6841F270739A42BBDD704B1A8845F2B8
:10783000E3739A42B5D802F01BFD00F5EA30C03080
:1078400030600323AEE7FEF75FFFA7F800802378E0
:10785000AB421ED0664B1B78022B1AD9654801F04B
:10786000F6FC06462846FFF73BFF05462078FFF763
:1078700037FF614B1B8803935C4B1B8802935A4B69
:107880001B68C622CDE9000331462B465B4805F054
:10789000EDFC207805288CBF0020012004B0BDE855
:1078A000F0814D4F4B4E3B7843F002033B704B4B06
:1078B00093F80080B8F1000F40D0FEF7DBFE46F6EB
:1078C000F0633380474B4FF4FA521A803B78444FB1
:1078D00013F0010F20D0386802F0D0FC00287FF4AC
:1078E00060AF454B1988464BB3F8E4208A4205D96E
:1078F0003D4AD3F8DC001268904206DBB3F8E02082
:10790000B3F8E600024491420DDD002323703D4BA5
:107910001B78002B9BD145E702F0AAFC00F5EA306A
:10792000C0303860DDE7304A116840F6B732914226
:10793000EDDCB3F8E23033800423E7E7FEF7E4FE42
:10794000A6F80080E3E7244E224F33786FF341031B
:107950003370224B93F80080B8F1000F25D0FEF76A
:1079600089FE46F220733B803378DB0744BF052352
:107970002370214B1988224BB3F8E4208A4205D9A1
:10798000194AD3F8DC001268904206DBB3F8E22013
:10799000B3F8E6301344994201DD05232370194BF7
:1079A0001B78002B3FF4FDAE51E7FEF7ADFEA7F8C4
:1079B0000080F4E7FEF7A8FE064B00211980064B75
:1079C0001A7861F341021A700623EBE60023E9E618
:1079D000902A0020700A0020F02D0020480A002084
:1079E000942A00203C0A0020140A0020520A002099
:1079F000DF0A0020C04101085E0A0020D5410108CD
:107A0000C82A0020500A002008B5024604280CD8D5
:107A1000DFE800F0110305070900084808BD084821
:107A2000FCE70848FAE70848F8E70849084805F07D
:107A300031FC0748F2E70748F0E700BF3942010888
:107A4000544201086E420108884201083A40010888
:107A5000C20A002026420108154B10B500241C70F4
:107A600002F006FC134B00F57A70186002F000FC7F
:107A7000114B00F5922000F57870186002F0F8FBC9
:107A80000E4B00F5922000F57870186002F0F0FBC4
:107A90000B4B023818600B4B1C700B4B1C700B4BC4
:107AA0001A780B4B1A700B4B4FF47A621A8010BD88
:107AB000B02A0020B42A0020BC2A0020C42A0020BA
:107AC000AC2A0020B82A0020B12A0020DE0A0020BB
:107AD000C02A0020A82A00202DE9F04F9C4E9D4D81
:107AE00033789D4CDFF8D08287B00493049A2B78CA
:107AF00062F347132B70994B00221A80049B042BCE
:107B000000F22C84DFE813F005005E01E401A0021E
:107B10008B03FEF7F9FD23786FF3000323702B78B6
:107B200003F0FD036FF300032B708D4B1B7863B1E3
:107B300002F09EFB8B4BB3F8FC3018448A4B186064
:107B40008A4B00221A7001233370DFF87092DFF83D
:107B500070B2B9F8000001F01DF8854B1B78002BBE
:107B600000F00C84834B1988834B1A6891429A4623
:107B700040F304847B4B814AB3F8E230128803F26D
:107B8000F3139342C0F2FA83642898F80030A8BF38
:107B90006420C31A002BB8BF5B420F2B074640F38B
:107BA000ED83DBF8000002F069FB002838D098F87C
:107BB0000030FA1A052AC8BF5F1DFA1A0532B8BF8D
:107BC0005F1F02F055FB6E4B00F592201B7800F50D
:107BD0007870CBF80000A3B16A4801F038FBDAF8FE
:107BE00000200392B9F800200292674A98F800300A
:107BF00012880146CDE90072644840F2411205F056
:107C000035FB634A634B10681B68564A1B1AD2F84F
:107C1000C8006422B0FBF2F007FB00375E4B1F6028
:107C20002B78DA0706D5534A1188534A12689142D5
:107C300040F3AD832B786FF382032B70574B18689A
:107C400002F01CFB38B102F013FB544B02381860F1
:107C5000464B00221A70524D98F800302A789A420A
:107C600016D0474B1B78012B0FD9464801F0EFFA8D
:107C7000414A2B781268019298F800200092014640
:107C80004FF4AC72474805F0F1FA98F800302B70C9
:107C90003378049A93421FD0394B1B78022B1BD99F
:107CA000384801F0D4FA05460498FFF7ADFE0746C0
:107CB0003078FFF7A9FE314B1B880393324B1B88AA
:107CC00002932D4B1B6840F25D12CDE9000329465B
:107CD0003B46354805F0CAFA344D354F2A783B7893
:107CE0009A4212D0264B1B78012B0BD9254801F064
:107CF000AEFA3A782B78009201464FF4B0722D48D4
:107D000005F0B4FA2A4B1B782B70294B22781B788C
:107D1000307813F0080116BF02F0FE0261F304127E
:107D200042F01002227013F0100315BF237822785E
:107D300003F0FE0363F3451216BF43F020032270E5
:107D40002370003018BF012007B0BDE8F08F00BFDE
:107D5000B02A0020F02D0020702D0020700A002095
:107D6000100A0020C82A0020B42A0020AA2A0020D5
:107D7000480A0020A82A0020140A00205E0A0020D9
:107D8000DF0A0020A2420108520A002065440108CF
:107D9000180A00202C0A00200C0A0020AC2A00201F
:107DA000B12A0020C644010800450108C02A00206D
:107DB000DE0A00204C450108DC0A0020540A00209D
:107DC000BC2A00208D4B1B78002B3FF4BEAEFEF783
:107DD0009BFC8B4B1B785A0747D48A4B1A78002A96
:107DE00043D1237862F30003DFF848A2864A237068
:107DF0001288BAF8E030DFF848B2844F9B1A642248
:107E000093FBF2F3824A13702B7803F0FD036FF3B8
:107E100000032B707F4B1A88DBF800309A42D14662
:107E200027DA386802F02AFA00283FF48EAE7A4B3F
:107E30001B78012B09D9794801F009FADBF80030E9
:107E400001466C22764805F011FA02F011FAB9F8F1
:107E5000FE301844386002F00BFA724B00F59220A5
:107E600000F57870186003236EE6237843F0010371
:107E7000BAE702F0FDF9BAF8FC3018446A4B3860F2
:107E80001B78002B3FF461AE684B1B78002B7FF40E
:107E90005CAEDFF8B091B9F8002045F6C0539A42C5
:107EA0007FF653AE5C4B1B78012B09D95B4801F080
:107EB000CEF9B9F80030014678225D4805F0D6F9D0
:107EC00002F0D6F900F56A501830386002233BE61C
:107ED0004A4B1B78002B3FF438AEFEF715FC484B9D
:107EE0001B785B0742D4474B1A78002A3ED123788F
:107EF00062F3000323702B78DFF844A1DFF80C91C4
:107F00004C4F03F0FD0343F001032B70414B1A88E3
:107F1000DAF800309A422DDA3F4B1B78012B09D951
:107F20003E4801F094F9DAF8003001468F223C48CF
:107F300005F09CF902F09CF9B7F8FE301844C9F836
:107F4000000002F095F9374B2F4A00F5922000F51A
:107F500078701860032312883370B7F8E0309B1AEA
:107F6000642293FBF2F32A4A1370EEE5237843F080
:107F70000103BFE7244AB7F8E2301288DFF8C4A053
:107F80009B1A642293FBF2F3214A1370BAF8002083
:107F900045F6BF539A4216D81F4B1B78012B09D9BF
:107FA0001E4801F054F9BAF8003001469A222248DE
:107FB00005F05CF902F05CF9B7F8FC3018440123D5
:107FC000C9F800003370D9F8000002F057F9002812
:107FD0003FF4BBAD104B1B78012B07D90F4801F0C4
:107FE00036F9A1220146154805F040F902F040F9A2
:107FF000B7F8FE301844C9F800002CE7480A002002
:10800000DE0A0020B82A0020520A0020B42A0020EC
:10801000DD0A0020A82A0020DF0A0020A242010871
:10802000B9420108C42A00204C2D0020AA2A0020B1
:10803000E3420108C82A0020044301081443010850
:10804000140A00205E0A0020AB4B1B78002B00F0C6
:10805000E380FEF70FFBA94B1B785F0753D4A84BB7
:108060001A78002A4FD1237862F3000323702B780B
:10807000DFF8C8A2A34F43F003032B70A24B0122E9
:108080001A7002F0F5F8A14BDAF8002000F59C50C8
:10809000083018609E4BD3F8D010914299463EDDCF
:1080A0009C4B1B78012B0CD99B4801F0D0F8D9F8D8
:1080B000D03000930146DAF800309848BA2205F033
:1080C000D5F82B7843F010032B70954B1B78F3B148
:1080D00002F0CEF800F56A50183038600223337091
:1080E000904B1B78002B7FF430AD8A4B1B78012B13
:1080F00007D9894801F0ABF8FD2201468A4805F00E
:10810000B5F8002320E5237843F00103AEE702F041
:10811000AFF8B9F8FC30184438600123DFE7834931
:10812000DFF834B209888A4265DA386802F0A6F8C6
:10813000F0B17B4B1B78DBB1764B1B78012B0CD954
:10814000754801F084F879490B8800930146DAF804
:1081500000307748D12205F089F8764B1A88764BA3
:108160001A8002F085F8042300F57A7038603370C5
:10817000704AB9F8E23012886FF4F9700344934200
:1081800041DCDBF8000002F079F80028A8D002F00A
:108190006FF82B7898F8007000F5922000F5787051
:1081A00043F01003612FCBF800002B7098D8594B87
:1081B0000A371B78622FA8BF62276BB1564801F0BF
:1081C00046F85E4A98F8003012680146CDE9007220
:1081D0005B48E62205F04AF85A4B1A685A4B1B686E
:1081E000D21A6421D9F8C830B3FBF1F307FB032797
:1081F000564B1F6074E7059302F03AF8059BB3F8FD
:10820000FE301844386002F033F800F5922000F593
:108210007870CBF8000063E7FEF776FA60E7364B3C
:108220001B78002B40D0FEF76FFA344B1B785907B0
:108230004AD4334B1A78002A46D1237862F30003DC
:108240002370304F2B78386843F003032B7002F013
:1082500015F848B33749384B0A88B3F800A02D4BBE
:10826000DFF8AC901B78AAEB020ABAF5967F8B4632
:1082700003DC45F6BF518A422AD8012B0CD9264887
:1082800000F0E5FFBBF800300093014653464FF481
:108290008A722F4804F0EAFF01F0EAFFB9F8FC30D7
:1082A00018443860012333701E4B1B78002B7FF479
:1082B0004CAC184B1B78012B7FF623AF164800F00F
:1082C000C6FF4FF4927218E7237843F00103B7E733
:1082D000022B08D9104800F0BAFF4FF48D72014606
:1082E0001C4804F0C3FF01F0C3FFB9F8FE30184486
:1082F00038600323D7E700BF480A0020DE0A0020C9
:10830000B82A0020B42A0020AA2A0020AC2A002083
:10831000C82A0020DF0A0020A24201082E430108DB
:108320004C2D0020500A0020C9430108A82A002033
:10833000614301085E0A0020CA0A0020140A0020D6
:108340007E4301082C0A0020180A00200C0A002095
:10835000F443010813440108C42A00200D4B1B7884
:10836000002B3FF4CEAE0C4800F071FF337801468D
:108370004FF49572094804F079FFC2E601F078FFE6
:1083800000F5922000F57870CBF8000048E443F047
:10839000040352E4DF0A0020A24201083F4401081E
:1083A000002303700120704770B503F021FB0A48D9
:1083B000094C0A4E0A4D03F057FB04F17843A3F52C
:1083C0007E3320469959043403F078FBAC42F4D153
:1083D000BDE8704003F01ABB00F80308C82A00206B
:1083E00004F903082DE9F84F0746824C08B9FF232A
:1083F00023712379053B0C2B08D8DFE803F0A2A5F5
:10840000A8ACB0B2B6B6B6B907BFD20001250026F7
:108410004FF0004A4FF0FF090C214FF0020B0320F0
:108420006171A57184F800B06680C4F808A084F872
:108430000C9084F82860C4F810A084F8149084F894
:108440004C60C4F818A084F81C9084F87060FCF7A5
:108450008DFF694BE362A3F5406340F0C0402363A6
:10846000A3F6F8134FF00408A060636361792573E5
:1084700003F504730520A36384F82880FCF776FFD6
:108480005E4B236540F0C04003F540732061617985
:1084900025754046636584F84CB0FCF767FF584B80
:1084A000636703F54073A36703F5006340F0C040C2
:1084B000E367A3F55063A061C4F88030294641F218
:1084C000883303202577E38484F87080C4F820A0E3
:1084D00084F8249084F89460FCF748FF494BC4F872
:1084E000A030C4E9263303F5700303F5E853C4F85C
:1084F000A430454A454B84F82450C4E92E234CF25D
:108500003873C4E93033424BC4F8C830502384F880
:10851000CC30A3F58763C4F8D0303223C4F8D4300C
:108520004FF47A73C4F8DC303A4D3B4B84F89480B6
:1085300040F0C040C4E9395345F6C0532062A4F866
:10854000EC30364BC4F8F4300023C4F8F8304FF464
:10855000FA63A4F8FC3047F23053A4F8FE30284BFD
:10856000636741F28833A4F8CE30032384F80131E5
:108570002B4B1B7803B1022384F80031294BC4F83C
:10858000E03040F6C413A4F8E63044F64403A4F8FF
:10859000EE3042F21073C4F8D83042F6E063A4F82B
:1085A000F0301123022F23711BD10D2100236171A3
:1085B000A3710320FCF7DAFE40F0C040A0606179AF
:1085C0000520FCF7D3FE40F0C04020616179042013
:1085D000FCF7CCFE40F0C040A061BDE8F84FFFF7CB
:1085E000E3BE032FF9D10C2101236171A371384639
:1085F000E0E700BFC82A0020081F0021200D00214D
:108600001007002108011020C904DC37DC37740E84
:10861000289A01005046C409C05DD8598FC2753DE3
:108620004E2D0020286E206710B5064B06480749DE
:108630001C6803F17842A2F57E3204338B42145059
:10864000F6D110BD00F80308C82A002004F9030879
:1086500010B50D4CFFF7E8FF2379112B04D0012052
:10866000FFF7C0FEFFF7E0FFA27963793AB90D2B5F
:1086700009D00D236371BDE81040FFF795BE0C2BA8
:1086800001D00C23F6E710BDC82A002008B5002051
:10869000FFF7A8FEBDE80840FFF7C6BFF8B503F036
:1086A000A7F90B480B4C0C4F0C4E0D4D03F0DCF9A9
:1086B0000C49074803F002FAE3192046995904349B
:1086C00003F0FCF9AC42F7D1BDE8F84003F09EB9E5
:1086D0000080030804800308FC7FFCF7CC2B0020FB
:1086E0008481030811CCBBAA30B5054B054D064962
:1086F000064A1C685819043393424450F9D130BDDE
:1087000004800308FC7FFCF7CC2B00208481030845
:1087100008B54FF4C0720021044804F05DFDFFF776
:10872000BDFFBDE80840FFF7DFBF00BFCC2B002036
:10873000044B1A68044B9A4201D0FFF7E9BFFFF7D8
:10874000D3BF00BF0080030811CCBBAA73B540F2B1
:10875000C44300262B4C0093694602232A488DF817
:10876000073001258DF805508DF804608DF80660FE
:1087700003F0DAF980212448267003F05FFA2378A9
:10878000B0420CBF184643F00100207040211E4843
:1087900003F054FA2378B04214BF02223246134346
:1087A00004211948237003F049FA2378B04214BF1A
:1087B0000422324613434FF480611348237003F0C0
:1087C0003DFA23781149B04214BF082232461343C0
:1087D0005BB2022B23700E480E4A0BD0032B0CD039
:1087E00023B903700B70137002B070BD05700E706A
:1087F0001670F9E705700D70FAE705700D701570C9
:10880000F2E700BF4D2D0020000400484F2D00204E
:108810004C2D00204E2D002010B101280DD07047A6
:108820000A4B1B7823B14FF48061094803F0D6BA94
:108830004FF400714FF09040F8E7044B1B7813B1F0
:108840004FF40061F1E74FF48061F3E74E2D002013
:108850000008004810B101280DD070470A4B1B7862
:1088600023B14FF48061094803F0E2BA4FF400717C
:108870004FF09040F8E7044B1B7813B14FF40061C0
:10888000F1E74FF48061F3E74E2D00200008004827
:1088900018B101280ED0002070470B4B1B7823B174
:1088A0004FF48061094803F043BA4FF400714FF070
:1088B0009040F8E7044B1B7813B14FF40061F1E7E7
:1088C0004FF48061F3E700BF4E2D00200008004800
:1088D00073B5144B1E78002501248DF804408DF8E3
:1088E00006508DF80750032386B14FF440620E48BE
:1088F000009269468DF8053003F016F92846FFF717
:10890000A9FF2046FFF7A6FF02B070BD4FF4C0627A
:108910004FF09040694600928DF8053003F004F95D
:108920003046ECE74E2D00200008004808B502460E
:10893000032809D8DFE800F00E020406064808BD47
:108940000648FCE70648FAE70649074804F0A2FC97
:108950000548F4E70548F2E78A450108984501080B
:10896000AC4501083A400108CC0A00207B450108CB
:1089700008B5FFF7ADFF034A00231370024A1370D6
:1089800008BD00BF542D0020552D00202DE9F341D6
:10899000624C634E2578032D00F29780DFE805F0E6
:1089A000024449670123237001F062FC5D4B00F52E
:1089B0007A7018605C4F387810F0100000F09480E6
:1089C0000020FFF729FF3B789B064FF0010040F1A4
:1089D0008E80FFF721FF307810F0010040F08A8090
:1089E00001F03AFB4FF4FA721146012001F09AFBB4
:1089F0002378AB4215D04D4B1B78022B11D94C4834
:108A000000F025FC06462846FFF790FF0546207833
:108A1000FFF78CFF2B46009091223146454804F029
:108A200025FC02B0BDE8F0813378DF07C2D5022310
:108A3000B9E73378404F980744BF03222270D90723
:108A40005CBF012323703B786BB3012BB2D1DFF8FD
:108A5000D480D8F8000001F011FC0028AAD001F061
:108A600007FC00F5FA60C8F8000000232BE033781B
:108A700003F00302032A04D0DA074CBF02230123C8
:108A800023702D4F3B7873B1012B93D1DFF8948085
:108A9000D8F8000001F0F2FB00288BD001F0E8FBD1
:108AA00000F5FA70DFE7DFF87C80D8F8000001F00D
:108AB000E5FB00283FF47EAF01F0DAFB00F5FA7029
:108AC000C8F8000001233B7074E7184B1B7843B1D2
:108AD000174800F0BCFB237801466C22174804F0CD
:108AE000C5FB0023237065E7FFF7B4FE6BE7FFF7D4
:108AF000B1FE70E7124B1B78612B4FF0010006D9D5
:108B000001F0AAFA4FF4FA62114600206EE701F074
:108B1000A3FA002001F086FA6AE700BF542D002076
:108B2000F02D0020502D0020922D0020DF0A002083
:108B3000BF450108F4450108552D0020D245010824
:108B4000E00A002008B5024604280CD8DFE800F04F
:108B5000110305070900084808BD0848FCE7084854
:108B6000FAE70848F8E70849084804F093FB074883
:108B7000F2E70748F0E700BF2A4601083746010838
:108B800046460108544601083A400108D40A00202C
:108B90001B46010846F27433984242D846F2063327
:108BA000984240D846F2982398423ED846F2202375
:108BB00098423CD846F2A81398423AD846F2A40309
:108BC000984238D846F22203984236D845F6A07328
:108BD000984234D845F61473984232D845F68863E3
:108BE000984230D845F6705398422ED845F6DA436D
:108BF00098422CD845F6444398422AD845F6AE33DD
:108C0000984228D845F61833984226D845F682234C
:108C1000984224D845F6EC1398428CBF0A200020D5
:108C20007047642070475F2070475A207047552076
:108C300070475020704746207047412070473C20C5
:108C40007047372070473220704728207047232014
:108C500070471E20704719207047142070470F205E
:108C60007047000008B5FFF733FE01F001FB084B29
:108C700000F5BB501030186001F0FAFA054B00F512
:108C80006A5018301860044B00221A7008BD00BFEB
:108C90005C2D0020602D0020582D00202DE9F04390
:108CA000AA4CAB4D277885B0042F00F2D881DFE8BD
:108CB00017F005009A00E7007101CF01A54B1B7862
:108CC000002B53D0A44BA54EDFF8C48200221A70AB
:108CD0003378002B35D1D8F8000001F0CFFA70B30B
:108CE0009F4B1A6840F6B7339A4222DC0123337057
:108CF0009C4B1888FFF74EFF81460020FFF7C8FD08
:108D0000012806D109F10309B9F1640FA8BF4FF09A
:108D10006409954B954A1868954B1B68C31AD2F89D
:108D2000C8006422B0FBF2F009FB0030914B1860E0
:108D300005E0914B186801F0A1FA0028D6D13378EC
:108D4000A3B10020FFF7A4FD012881468A4E3BD144
:108D500001F08EFA00F6B830C8F8000001F088FA89
:108D600000F5EA30C030306084F800902B78DB07E3
:108D70004FF0010040F18281FFF76CFD2378BB4288
:108D80001FD07E4B1B78022B1BD97D4800F05FFA69
:108D900005463846FFF7D6FE06462078FFF7D2FE96
:108DA000784B1B8803936F4B1B8802936C4B1B689B
:108DB00040F22112CDE9000329463346724804F0FF
:108DC00055FA05B0BDE8F08301F052FA00F6B8306C
:108DD000C8F8000001F04CFA00F5BB5010303060CC
:108DE00003232370C2E7694E32783AB12B78DA0751
:108DF00004D5614B186801F041FA08B100233370C3
:108E00002B78634E6FF3C30300202B70FFF704FD34
:108E1000534B564A1B685349002BBCBF07EE903A90
:108E200092ED3D7AB2F8EC200988B7BFF8EEE77A08
:108E3000002367EE877AFDEEE77AB8BF17EE903A27
:108E40001344994216DA306801F018FA30B101F093
:108E50000FFA022300F6B830306023703E4B1B78C7
:108E6000002B83D001F004FA00F59C5008303060EC
:108E70000423B6E701F0FCF900F6B8303060EDE706
:108E8000424B00261E702B78304643F008032B70AF
:108E9000FFF7C2FC324B354A1B68B3420BDA07EED0
:108EA000903A92ED3D7AF8EEE77A67EE877AFDEE3A
:108EB000E77A17EE906A2B4BDFF8D4801988B2F866
:108EC000EA303344994220DAD8F8000001F0D6F9AC
:108ED00070B101F0CDF900F6B830C8F8000001F02B
:108EE000C7F9254B00F5BB501030186003232370E1
:108EF000194B1B78002B3FF439AF01F0B9F900F59D
:108F00009C500830C8F80000B2E7B2F8E8301E44C0
:108F1000B14214DDD8F8000001F0B0F90028E7D024
:108F200001F0A6F900F6B830C8F8000001F0A0F989
:108F3000114B00F5EA30C03018600123D7E701F08B
:108F400097F900F6B830C8F80000D1E7582D002096
:108F5000F02D0020480A0020E60A0020100A002018
:108F6000140A0020520A00202C0A0020C82A0020DF
:108F7000180A00200C0A0020602D0020DF0A0020C3
:108F80006D4601085E0A0020CF460108B82A00207D
:108F90005C2D00202B7843F008032B70394B002008
:108FA0001870FFF757FC384B1B78002B3FF4DEAEF0
:108FB000364E3378002B42D1354B186801F05EF9FC
:108FC00068B101233370334B1B78012B07D932482A
:108FD00000F03DF9E9220146304804F047F9304BF2
:108FE000304A1B683049314E0988002BBCBF07EE60
:108FF000903A92ED3D7AB2F8E820B7BFF8EEE77A02
:10900000002367EE877AFDEEE77AB8BF17EE903A55
:109010001344994216DD306801F030F900283FF41E
:10902000A5AE01F025F900F6B830306001F020F966
:10903000174B00F5EA30C03018600123D1E6012358
:109040003370CCE701F014F900F6B83030608DE6EB
:109050000C4B164E00201870FFF7FCFBDBE70D4BA6
:109060001B784BB10C4800F0F2F82378014640F22F
:1090700011120F4804F0FAF80023B2E6FFF7CCFB18
:109080007CE600BFE60A0020480A0020B82A00203B
:10909000602D0020DF0A00206D460108804601088F
:1090A000140A0020C82A0020520A00205C2D00204B
:1090B000AD46010810B1012805D070474FF480413A
:1090C000024802F08BBE4FF40051F9E7000400485B
:1090D00010B1012805D070474FF48041024802F0DA
:1090E000A7BE4FF40051F9E7000400482DE9F34111
:1090F000234E01214FF4802003F05AF901214FF44F
:10910000802003F055F9002401254FF4804769467B
:10911000304600974FF400588DF805508DF80450F4
:109120008DF806408DF8074002F0FEFC6946304697
:10913000CDF800808DF805508DF804508DF806406C
:109140008DF8074002F0F0FC4146304602F070FE18
:1091500039460C4F304602F06BFE3C7001F088F847
:10916000094E30602046FFF7B3FF7C7001F080F8B5
:1091700070602846FFF7ACFF02B0BDE8F08100BF89
:10918000000400486C2D0020642D00202DE9F041E2
:10919000DFF874801B4E18F8003004460D46174661
:1091A0005BB1012B22D001F063F8284446F824007B
:1091B0002046FFF78DFF00230EE056F8200001F057
:1091C0005DF888B15FB101F053F8384446F82400E7
:1091D0002046FFF76FFF012308F8043004E001F098
:1091E00047F8284446F82400BDE8F08156F82000EE
:1091F00001F044F80028F7D0002DD4D101F038F860
:109200003844EFE7642D00206C2D002038B514465B
:109210001D460A4601460120FFF7B8FF2A462146AF
:109220000020BDE83840FFF7B1BF0000BFF34F8F0B
:109230000449054BCA6802F4E0621343CB60BFF3F4
:109240004F8FFEE700ED00E00400FA05FEE710B5E1
:109250002F21044604F040F800B1441C204610BD04
:109260002DE9F04F994A9A499A4E87B0002313701E
:109270000292994A33700B7089461C4692469C5460
:109280000133212BFBD1954D954F284602F020FF4D
:1092900000F0E8FF6B684FF47A72B3FBF2F3914A87
:1092A000013B5360904BF02183F823100723946017
:1092B000012113604FF4802003F07AF801214FF46C
:1092C000003003F075F801214FF4002003F070F82E
:1092D0000121084603F090F8FFF738FAFFF7B8F9D4
:1092E000824B1B78002B38D006A90F2341F8083D8C
:1092F0008DF814407E4801248DF815408DF81740F4
:1093000002F012FC21467A4802F098FC0221054640
:10931000774802F093FC04210446754802F08EFC65
:1093200084F00104E3B280F00104E4B2A400082157
:109330006F4844EA430402F081FC85F001052C43A8
:1093400080F0010064B2C0B244EAC00040B201281B
:1093500000F09180022800F09780664D97F8013167
:109360002B70FFF7E5F9FFF7C1FEFDF711FAFDF7E6
:1093700031FFFEF7E5F9FEF76FFB00F0C1FC00F0EE
:1093800085FEBB79012B40F08480FFF76BFCFCF776
:109390007FF9FCF7B5F800F06BFF00F56A5456480A
:1093A000DFF870B1FFF753FFBB7900930146534BD1
:1093B0005348AF2203F05AFF183497F801312B704D
:1093C000FCF7BCF94F4B1870FCF7B4F8FDF780FBC5
:1093D0004C4B1B78052B5FD07F2B64D164234FF45B
:1093E000617219461046FFF711FFBB79012B40F05F
:1093F0009380FFF753FC204600F040FF002837D051
:10940000414B9AF802801B88AAF80030029B1B7817
:10941000039398450DD02A78012A0AD93648FFF7D8
:1094200016FF039B009301464346D422374803F0BE
:109430001DFF029B28481B788AF80230344B1B78AA
:109440008AF803309BF90030002BBCBF00238BF857
:1094500000309BF800308AF8043001238AF8053088
:1094600000F01CF9002803DA00F002FF00F5FA749E
:10947000FEF732FBA1E7BB79012B3FF46EAF03206F
:10948000FEF7B0FFFFF7D2FEBB79002B3FF465AFCC
:10949000F6E7FFF76DFA7AE764234FF4FA620021EA
:1094A0004FF47A709FE7BB7943B9204600F0E6FE9F
:1094B000014618B94FF4FA731A46F1E74FF4FA71FE
:1094C00000234FF47A7208468DE700BF702D00200C
:1094D000922D0020F02D0020932D0020B42D00208F
:1094E000C82A002010E000E000ED00E04E2D002032
:1094F00000080048DF0A0020174701082547010837
:109500002E4701086E2700205E0A002058470108F8
:10951000DC0A0020DD0A0020DFF87881FFF736FA48
:10952000404600F031F9002840DB4F4BB8F80020EE
:109530001A8099F8004098F802300393A3420DD0A6
:109540002A78012A0AD94948FFF781FE039B009334
:1095500001462346F422464803F088FE98F802307C
:1095600089F80030434B98F803201A7098F80430BB
:109570008BF80030404B98F805201A7000F078FE08
:10958000337800F56A54DA0704F118040AD42B780A
:10959000012B07D93548FFF75AFEFE22014637480E
:1095A00003F064FE337843F001033370204600F08B
:1095B00065FE10B300F05CFE314B1A882A4B1A800E
:1095C000002389F800308BF800303378294A642171
:1095D000DB07A0F1020411700BD52B78012B08D901
:1095E0002248FFF734FE40F20D120146254803F0F1
:1095F0003DFE33786FF300033370A4F59C500838B8
:1096000000F03CFEDFF8908098F80030B8B183B9E4
:109610002B78022B0AD91548FFF719FE1A4B014681
:109620001B681A484FF4907203F020FE012388F85B
:109630000030FEF78BF8A0B1FEF792F8BDE6002BE4
:10964000F7D02B78022B0AD90848FFF700FE0E4B03
:1096500001461B680E484FF4947203F007FE002386
:10966000E5E7FDF7DFFDA8E6E20A0020174701085D
:1096700058470108E00A0020712A00207A470108B3
:109680005E0A0020A4470108140A0020CB47010805
:1096900000480108712D0020E50A002070B5374D03
:1096A0002B78FE2B67D1364B3F221A703C225A7022
:1096B00000F121011C46027822F0030242F001026F
:1096C0009A7042780678920802F03C0242EA8612CA
:1096D00042F00102DA7082784678120902F00C0238
:1096E00042EA061242F001021A71827803309200B7
:1096F00042F0010288425A7103F10403DBD101F008
:1097000055FE0B211F4801F05FFEC0F307268201C2
:10971000B10802F47F5201F03C010A4320F0030338
:1097200042F0010243F0010384F82F20C0F3074206
:1097300084F82E30130903F00C0343EA061343F0B8
:109740000103C0F3076084F8303020F00303800089
:1097500043F00103920000F00C0060F03E0042F084
:10976000010284F83230FF2384F8330084F831207A
:109770002B70212070BD4FF0FF30FBE7020000206E
:109780005A3600205C36002030B515490B78FE2B88
:1097900022D1144B00F121049A78DD7822F00302E3
:1097A00042EA95120270DA781D79920022F00F02D7
:1097B00042EA151242701A795D79120122F03F02D5
:1097C00042EA950282700330844203F10403E3D13C
:1097D000F0230B70212030BD4FF0FF30FBE700BFBE
:1097E00001000020263600202DE9F04F9B4889B06B
:1097F00002F07EF8012840F0CA819848984D02F0A6
:10980000D9F8984A984BB2F90080984A1878B2F97A
:109810000090974AB5F900A01188964AC0F38003DA
:1098200001931488944A00F0010302250393C0F3C6
:1098300040030493029583091288904D0593C0F369
:109840000113C0F3C000029F029E07F1010C8C4F70
:1098500037F816E037F81CC00FFA8CF607961FFA97
:109860008CF60696029EA6F1020C069E37F81CC0E6
:10987000A6EB0C0C1FFA8CFC0CF1190B1FFA8BFBDE
:10988000BBF1320F41D9B8F10A0F4DDC08F10108E4
:109890000FFA88F8CB46002800F0488103980FFAA9
:1098A0008CFC002844D1BCF1050FD4BF002001205E
:1098B00003900498AEEB0A0E0FFA8EFE00283DD1FD
:1098C000BEF1050FD4BF002001200490DDE903069E
:1098D00040EA4600059E5FFA80F9B14538D001386C
:1098E00089EA06060128F6B22ED9012E33D0022EBF
:1098F0002ED1644E307808289CBF01303070012092
:1099000030E0CDF81490D9469DE709F1010BB9F587
:10991000807F0FFA8BFBBEDD002BBCD11846DDF833
:10992000149098469B46F8E04FF00008C346B5E710
:109930001CF1050FB4BF00200120B9E71EF1050F8F
:10994000B4BF00200120C0E7012ED2D0022E02D0E9
:1099500001980028CDD14B48067801961EB1771E9C
:1099600007700020019047480078052835D801315C
:1099700089B20D292BD9072C28D9193464110FFA73
:1099800084FC1BB9062C04BF0123002210464FF0B3
:10999000010EB0F5D07F07D3012B4BD0022B79D02D
:1099A000024600240120C3E0C0F3CF0600F0070404
:1099B00015F806A00EFA04F4013044EA0A0480B255
:1099C000AC55841A24B26445E3DB02460024012B23
:1099D00032D0022B5AD00120AAE00134A4B2072CC5
:1099E000F5D90D2924D9232016314FF0010A91FB16
:1099F000F0F1104609B2B0F5D07F06D3012B2AD082
:109A0000022B41D00246012089E0C0F3CF0E00F0C6
:109A1000070C15F80E600AFA0CFC013026EA0C0659
:109A200080B205F80E60861A36B2B142E3DC024617
:109A30000021CCE7024600240F2A40F2AB802B78AD
:109A40003F2B40F0AA806B783C2B4FF0010040F098
:109A5000A58002236CE002460021F0E72000001000
:109A6000E80A0020FC0A0020F80A0020FA0A002078
:109A7000000B0020FE0A0020F40A0020F23500202E
:109A8000F22D00200000002002460021B2F5CE7F1A
:109A9000C0F0878095F82E3095F82F20424C23F0A7
:109AA000030343EA92132370920095F8303022F0BA
:109AB0000F0242EA131262701B0195F8312023F065
:109AC0003F0343EA9203A37095F8322095F83330B0
:109AD00022F00302C3F381031343E37001F066FC39
:109AE0000B213248246801F06FFC844219D1304ABE
:109AF0001378FF2B0BD02F4B2F4903F1340053F871
:109B0000044B41F8044B8342F9D1FE2313702B4AD6
