:020000040800F2
:104000000000022045E70208D9E10208E7E10208C2
:104010000DE2020813E2020819E2020800000000A3
:104020000000000000000000000000001FE2020885
:104030002DE20208000000003BE2020849E202080B
:1040400095E7020895E7020895E7020895E7020858
:1040500095E7020895E7020895E7020895E7020848
:1040600095E7020895E7020895E7020841910208E2
:1040700095E70208456201082D91020895E70208BC
:1040800095E7020895E702083D2802081DDB0108B4
:10409000C1DB010895E7020895E7020895E70208E9
:1040A00095E7020895E7020895E7020895E70208F8
:1040B00095E7020895E7020895E7020895E70208E8
:1040C00095E7020895E7020895E7020895E70208D8
:1040D00095E7020895E7020895E7020895E70208C8
:1040E00095E7020895E7020895E7020895E70208B8
:1040F00095E7020895E7020895E7020895E70208A8
:1041000095E7020895E7020895E7020895E7020897
:1041100095E7020895E7020895E7020895E7020887
:10412000F162010895E70208F560010895E70208C9
:1041300095E70208000000000000000095E7020873
:1041400095E7020895E7020895E7020895E7020857
:1041500095E7020895E7020895E7020895E7020847
:1041600095E7020895E7020895E7020895E7020837
:1041700095E7020895E7020895E7020800000000AD
:104180000000000095E702080000000000000000A9
:1041900095E70208000000000000000095E7020813
:1041A00000000000000000000000000095E7020889
:1041B00095E7020895E7020895E7020895E70208E7
:0441C00095E7020875
:1041C40014F9030800000020600A002014F9030811
:1041D4000000001000000010600A002030D600200B
:1041E4000000001000000010F8B500BFF8BC08BCC7
:1041F4009E467047F8B500BFF8BC08BC9E467047A1
:0C420400957D030825C0000801C00008DB
:10C0000010B5054C237833B9044B13B10448AFF392
:10C0100000800123237010BD600A00200000000092
:10C0200008F9030808B5034B1BB103490348AFF3F4
:10C03000008008BD00000000640A002008F9030821
:10C04000154B002B08BF134B9D46A3F5803A0021EA
:10C050008B460F461348144A121A29F0D7FE0F4B8D
:10C06000002B00D098470E4B002B00D098470020A3
:10C07000002104000D000D48002802D00C482BF0D0
:10C08000F9FE29F005FE200029001FF09DFE29F091
:10C09000EFFD00BF000008000000022000000000CB
:10C0A00000000000600A002030D60020757E0308E2
:10C0B000E190030880B500AF194B00221A70194BAC
:10C0C00000221A70184B00221A7022F091FA0346CF
:10C0D000164A1360164B00221A70134B1A78154B30
:10C0E0001A70154B00221A70144B00221A70144B50
:10C0F00000221A7022F07CFA034603F59C530833A1
:10C10000104A1360104B00221A70104B1B68104A23
:10C1100013600E4B5B680E4A536000BF80BD00BFCA
:10C120008110002076100020771000207C10002065
:10C130007410002080100020821000208C1000203D
:10C140007510002078100020831000203CC40020CF
:10C150008410002080B5A0B000AFBE4B1B7803F068
:10C16000010387F87F30BC4B1B78002B09D0BB4BF9
:10C170001B78002B05D0002387F87F30132012F0A6
:10C1800045F9B74B1B78072B00F2F58201A252F854
:10C1900023F000BFB5C100082BC200089BC20008F5
:10C1A00067C50008FDC5000859C60008D5C60008C7
:10C1B00021C70008AB4B00221A70AB4B00221A704B
:10C1C000AA4B00221A70AA4B1B68184622F020FACC
:10C1D0000346002B00F0D382A64B00221A70A64B18
:10C1E00000221A7022F004FA0346013BA04A1360B1
:10C1F000A24B1B78002B40F0C28297F87F30002BB7
:10C2000000F0BD829C4B01221A70954B01221A70DE
:10C2100022F0EEF9034603F5122303F5F863944A7E
:10C220001360132012F0B4F8A9E2924B00221A70A6
:10C23000914B01221A708B4B00221A708A4B0022FC
:10C240001A7097F87F30002B05D0132012F020F9D8
:10C250000346002B0BD1824B02221A7022F0C8F940
:10C26000034603F59C530833814A136089E2804BEF
:10C270001B68184622F0CCF90346002B00F081829F
:10C28000774B06221A70132012F0C0F8132012F018
:10C2900025F87B4829F06CFE73E2764B00221A7079
:10C2A000754B01221A706F4B00221A706E4B0022E0
:10C2B0001A7097F87F30002B06D0694B01221A7054
:10C2C000132012F065F85EE2694B1B68184622F0F5
:10C2D0009FF90346002B00F056826A4B1B78002B17
:10C2E00040F03181684B1B78002B00F02C815F4BB4
:10C2F0001B78002B40F02781644B1B78002B03D068
:10C30000574B04221A702DE1614B1B78062B0FD975
:10C310005F4B00221A70524B06221A70132012F043
:10C3200075F8132011F0DAFF554829F021FEE2E0FC
:10C33000574B1B78022B40F2D880002387F87E30C1
:10C340000023BB673B1D184603F078FE514B1A894A
:10C35000BB6F9BB213449BB201339BB207F1240223
:10C360001146184603F086FE53E04A4B1A89BB6F0C
:10C370009BB213449BB207F144021146184603F0E6
:10C3800079FE03461A46434B1B891946BB6F0B4483
:10C390009A4254D17B6C7B66BB6CBB6607F16C0226
:10C3A00007F164033C4918461BF033FB07F16C03AB
:10C3B00018461BF00BFBB0EE407A384B03F24443B7
:10C3C000D3ED007AB4EEE77AF1EE10FA06D597F8DD
:10C3D0002C30012B02D1012387F87E30BB6F013353
:10C3E000BB672C4B1A89BB6F9BB213449BB20133C2
:10C3F0009BB207F124021146184603F03BFE0346A8
:10C400001A46244B1B891946BB6F0B4401339A42D1
:10C4100017D197F87E30002B14D11E4B1B891A467A
:10C42000BB6F13445A1C1B4BDB88013B9A4209DA51
:10C430003B7B002B06D1BB6F042B96DD02E000BFD7
:10C4400000E000BF97F87E30002B47D000237B67C9
:10C450002BE000BFAC1000209910002098100020A5
:10C4600077100020821000208C1000207510002012
:10C470007C10002081100020761000207410002015
:10C4800070B30308DB100020D81D0020F11D002030
:10C4900083100020901900203CC4002088CE00208A
:10C4A00002F07AF87B6F01337B677A6FBB6F9A4239
:10C4B000F6DBB94B00221A70B84829F059FD132059
:10C4C00011F0A4FF22F094F8034603F59C530833BF
:10C4D000B34A1360B34B00221A700CE0AE4B032238
:10C4E0001A70B14829F044FD05E0AB4B03221A70E5
:10C4F000AD4829F03DFD07F16C031A46AB49AC4845
:10C500001BF087FA07F16C0318461BF05FFAF0EE98
:10C51000407A9FEDA87AF4EEC77AF1EE10FA06D5CC
:10C52000A04B1B780133DAB29E4B1A7002E09D4B90
:10C5300000221A709D4B1B689D4A13609B4B5B68E1
:10C540009B4A53600EE0944B00221A70132011F0A6
:10C550005DFF22F04DF8034603F59C530833904AE3
:10C56000136010E10FE1944B00221A70934B0022EC
:10C570001A70934B00221A70924B01221A70924B40
:10C58000924A1A60924B1B68924A136097F87F3068
:10C59000002B12D0904B01221A707F4B01221A708F
:10C5A000132011F0F5FE22F023F8034603F51223C1
:10C5B00003F5F8637A4A1360E7E0884BD3ED007A1D
:10C5C000B7EE087AF4EEC77AF1EE10FA0CDC844B81
:10C5D0001B78002B08D0834B1B78002B04D1824B97
:10C5E0001B78002B00F0D1806B4B00221A701320B7
:10C5F00011F00CFF734B00221A70C6E06E4B002244
:10C600001A706E4B00221A706D4B01221A706D4B1E
:10C6100000221A70724B1B78002B03D0714B1B78D1
:10C62000002B06D05C4B00221A70132011F0EEFE96
:10C63000ADE06E4B1B78002B40F0A980564B0522D5
:10C640001A7021F0D5FF034603F6B833544A13603D
:10C65000674829F08DFC9AE0574B00221A70574B1F
:10C6600000221A70564B00221A70564B00221A7084
:10C6700097F87F30002B12D0574B01221A70464B8F
:10C6800001221A70132011F083FE21F0B1FF03463E
:10C6900003F5122303F5F863414A136079E0504B28
:10C6A0001B78002B0FD03E4B1B68184621F0B0FFC3
:10C6B0000346002B03D097F87F30002B03D0494B63
:10C6C0001B78002B65D0344B00221A70132011F018
:10C6D0009DFE5EE0384B01221A70384B01221A7021
:10C6E000374B00221A70374B00221A70132011F0BA
:10C6F000EFFE0346002B05D1132011F0C9FE0346BF
:10C70000002B77D1244B07221A7021F071FF0346CA
:10C7100003F5FA63224A1360132011F039FE69E031
:10C72000254B01221A70254B01221A70254B00223D
:10C730001A7097F87F30002B0ED1132011F066FE8F
:10C74000154B00221A7021F053FF034603F59C534A
:10C750000833134A13604FE0114B1B68184621F051
:10C7600057FF0346002B47D00B4B06221A701320AD
:10C7700011F0B4FD40E0084B00221A703DE000BF0C
:10C780003BE000BF39E000BF37E000BF35E000BF4D
:10C7900033E000BF31E000BF771000209CB30308F6
:10C7A0007C10002083100020C4B303083CC4002088
:10C7B00084100020CDCCCC3E8110002076100020CB
:10C7C000821000208C100020FC1D00209A9999BE38
:10C7D0005CCE00208C19002075100020E41D002084
:10C7E000D81D0020DB1000207B190020F11D002047
:10C7F000F0B3030800BF00E000BF0B4B1A780B4BEF
:10C800001B789A420CD0094B1B781946064B1B78B3
:10C810001A46074829F04AFB034B1A78034B1A7053
:10C8200000BF8037BD4680BD7710002080100020FB
:10C8300018B4030880B582B000AF514B1B78DB09F8
:10C84000FB71504B1B78032B79D801A252F823F0CF
:10C8500061C8000875C80008A3C80008F9C8000826
:10C86000494B00221A70494B00221A70454B012295
:10C870001A706DE0444B00221A70444B00221A706B
:10C88000152011F0C3FDFB79002B5CD03D4B02223B
:10C890001A7021F0ADFE034603F5FA633C4A1360BB
:10C8A00051E0394B01221A70384B00221A701520C2
:10C8B00011F06EFDFB79002B0BD1354B1B68184630
:10C8C00021F0A6FE0346002B03D02E4B01221A7046
:10C8D0003BE0FB79002B38D0142011F0D9FD034642
:10C8E000002B32D10B2011F0D3FD0346002B2CD1AD
:10C8F000244B03221A7028E0234B01221A70234B89
:10C9000001221A70152011F043FDFB79002B0BD08A
:10C91000142011F0BDFD0346002B05D10B2011F0B2
:10C92000B7FD0346002B12D0164B02221A7021F0DD
:10C930005FFE034603F5FA63154A136007E0114BE7
:10C9400000221A7004E000BF02E000BF00E000BF58
:10C950000C4B1A780F4B1B789A420CD00D4B1B785E
:10C960001946084B1B781A460B4829F09FFA054BCD
:10C970001A78084B1A7000BF0837BD4680BD00BF4B
:10C98000AC1000209010002099100020981000207A
:10C99000941000209110002050B4030880B500AF1F
:10C9A000044B00221A7021F023FE0346024A136052
:10C9B00000BF80BD9C100020A010002080B582B078
:10C9C00000AF734B1B78FB71724B1B785B10DBB2B3
:10C9D00003F00103BB716F4B1B789B11DBB203F0BB
:10C9E00001037B716B4B1B785B11DBB203F001031E
:10C9F0003B717B79002B09D10A2011F049FD0346D8
:10CA0000002B03D10A2011F0C3FC0BE07B79002B33
:10CA100008D00A2011F03CFD0346002B02D00A206A
:10CA200011F0F4FC3B79002B09D10B2011F030FD03
:10CA30000346002B03D10B2011F0AAFC0BE03B793D
:10CA4000002B08D00B2011F023FD0346002B02D051
:10CA50000B2011F0DBFC4E4B1B78022B4AD0022B33
:10CA600071DC002B02D0012B21D06CE04A4B1B68FB
:10CA7000184621F0CDFD0346002B68D0474B00221D
:10CA80001A70474B00221A7021F0B2FD0346013B99
:10CA9000414A1360BB79002B59D13D4B01221A70DA
:10CAA000142011F01BFC3F4829F062FA4FE03B4B89
:10CAB00000221A703A4B01221A70142011F008FD5E
:10CAC0000346002B05D1142011F0E2FC0346002B95
:10CAD0003FD1142011F05CFC334829F049FA2C4B6B
:10CAE00002221A7021F084FD034603F5FA632F4AEF
:10CAF00013602EE0294B01221A70294B01221A7073
:10CB0000BB79002B0DD0224B00221A70142011F09B
:10CB10007DFC21F06DFD034603F5FA631E4A1360A8
:10CB200019E0224B1B68184621F072FD0346002BCA
:10CB300011D0174B01221A70142011F0CFFB1948A5
:10CB400029F016FA07E0124B00221A7004E000BF29
:10CB500002E000BF00E000BF0D4B1B78FA799A425B
:10CB600009D0FB790A4A12781946114829F09EF932
:10CB7000074B1B78FB71094B1B78002B02D01FF071
:10CB80005DFE01E01FF066FE00BF0837BD4680BDB8
:10CB90009D100020AC100020A0100020A910002043
:10CBA0009C1000207CB40308A8B40308A410002043
:10CBB000DCB4030880B400AF064B1B6840F221428E
:10CBC00093420CBF01230023DBB21846BD465DF83B
:10CBD000047B7047A8D3002080B400AF064B1B68CD
:10CBE00040F2194293420CBF01230023DBB21846E6
:10CBF000BD465DF8047B7047A8D3002080B582B0A5
:10CC000000AF3D4B00221A70FFF7E6FF0346002BF2
:10CC100002D01DF0D7FD6AE0FFF7CCFF0346002BE2
:10CC200065D00121042023F021FB0121042023F001
:10CC30001DFB0121082023F019FB0121042023F012
:10CC400015FB0121082023F011FB0121082023F00E
:10CC50000DFB0121082023F009FB0121082023F00E
:10CC600005FB00233B710123BB7102237B71002371
:10CC7000FB714FF480733B603B4619461F4823F01D
:10CC800097F880233B603B4619461C4823F090F8F8
:10CC90004FF400433B603B461946194823F088F89F
:10CCA00040233B603B461946144823F081F84FF47B
:10CCB00080433B603B461946114823F079F84FF416
:10CCC00080633B603B4619460D4823F071F84FF4F2
:10CCD00080733B603B461946094823F069F84FF4DE
:10CCE00000733B603B461946054823F061F800BFDE
:10CCF0000837BD4680BD00BFAC10002000080240D0
:10CD0000000C024080B500AFFFF766FF0346002B22
:10CD100004D0474B1A78474B1A7086E0FFF74AFF5A
:10CD20000346002B00F08180424B00221A704FF422
:10CD30008071414823F0CBF8034659003D4B1B78E6
:10CD40005AB24BB213435BB2DAB23A4B1A7080213B
:10CD5000394823F0BCF803469900364B1B785AB289
:10CD60004BB213435BB2DAB2324B1A704FF400414C
:10CD7000324823F0ACF80346D9002E4B1B785AB248
:10CD80004BB213435BB2DAB22A4B1A7040212A48E5
:10CD900023F09DF803461901264B1B785AB24BB27B
:10CDA00013435BB2DAB2234B1A704FF4804123482D
:10CDB00023F08DF80346D9011E4B1B785AB24BB2B3
:10CDC00013435BB2DAB21B4B1A704FF480611B48FD
:10CDD00023F07DF803461946164B1B785AB24BB226
:10CDE00013435BB2DAB2134B1A704FF480711348DD
:10CDF00023F06DF8034659010E4B1B785AB24BB223
:10CE000013435BB2DAB20B4B1A704FF400710B484C
:10CE100023F05DF803469901064B1B785AB24BB2DA
:10CE200013435BB2DAB2034B1A7000BF80BD00BF80
:10CE300070D40020AC10002000080240000C02401A
:10CE400080B52DED028B86B000AF78603960474B1E
:10CE5000D3ED007AF5EE407AF1EE10FA4ED0434B66
:10CE600093ED007AF7EE006AC6EE877AC7ED047A92
:10CE70004FF000037B61D7ED047AF5EEC07AF1EE56
:10CE800010FA1DD57B6893ED007AD7ED047A37EE62
:10CE9000677A374BD3ED007A67EE277AC7ED037ACE
:10CEA00097ED057A7B680433D3ED007A37EE677A25
:10CEB0002F4BD3ED007A67EE277AC7ED027A23E095
:10CEC00097ED047A7B68D3ED007A37EE677A284BCA
:10CED000D3ED007A67EE277AC7ED037A7B680433D7
:10CEE00093ED007AD7ED057A37EE677A204BD3EDD4
:10CEF000007A67EE277AC7ED027A05E04FF000036B
:10CF0000BB601B4B1B68FB601A4B1B78002B21D0AE
:10CF10003B6893ED007AD7ED027A27EE277A3B68DB
:10CF20000433D3ED006AD7ED037A66EEA77A37EEC5
:10CF3000278A38681AF04AFDF0EE408A07F10803A4
:10CF400018461AF043FDF0EE407A68EEA77A88EEB4
:10CF5000277A01E0BFEE007AF0EE477AB0EE670A7A
:10CF60001837BD46BDEC028B80BD00BFB4C30020A6
:10CF700060C30020E5C3002080B500AF094B01224B
:10CF80001A70094B00221A70084B00221A70084BC5
:10CF900000221A7021F02CFB0346064A136000BFE2
:10CFA00080BD00BFCE100020CD100020D510002085
:10CFB000D4100020D010002080B582B000AFFFF761
:10CFC000A1FEA04B1A78A04B1B7C1340DBB2002BB8
:10CFD0000CBF01230023DBB21A469B4B5A749A4BB9
:10CFE0005A7C9A4B1A7001237B602EE0954B19787E
:10CFF00095487A6813469B0013449B000344103302
:10D000001B780B40DBB2002B0CBF01230023DBB2EB
:10D0100018468D497A6813469B0013449B000B44C5
:10D02000113302461A70894B1B78002B0AD18649AE
:10D030007A6813469B0013449B000B4411331A7803
:10D04000824B1A707B6801337B607B68032BCDDDDC
:10D050007F4B1B78032B00F2E68001A252F823F0ED
:10D0600071D0000839D1000899D10008D9D1000841
:10D07000784B1B68184621F0CBFA0346002B00F0D2
:10D08000D680754B00221A70744B00221A7021F062
:10D09000AFFA0346013B6F4A1360714B1B78002BBC
:10D0A00040F0C580694B1B78002B00F0C080002346
:10D0B0003B6039E064493A6813469B0013449B0087
:10D0C0000B4411331B78002B2BD03A6813469B007E
:10D0D00013449B005C4A98183A6813469B0013441B
:10D0E0009B000833584A13441946FFF7A9FEF0EE97
:10D0F000407A9FED5C7AF4EEC77AF1EE10FA10DD1B
:10D10000534B01221A70554B01221A7021F070FA0C
:10D11000034603F56A4360334E4A13601C2011F046
:10D1200037F93B6801333B60494B1B78002B7ED1BC
:10D130003B68032BBEDD7AE0474B00221A70474B59
:10D1400001221A701C2011F023F9404B1B78002B90
:10D150000DD13F4B00221A7021F04AFA034603F525
:10D16000FA633C4A13601C2011F050F961E0394B1E
:10D170001B68184621F04CFA0346002B59D0344B5B
:10D1800002221A701C2011F041F91C2011F0A6F89F
:10D19000354828F0EDFE4CE02F4B01221A702F4B42
:10D1A00001221A701C2011F093F90346002B05D1BF
:10D1B0001C2011F06DF90346002B3CD11C2011F00E
:10D1C000E7F8234B03221A7021F012FA034603F505
:10D1D000FA63204A13602EE01F4B01221A701F4B86
:10D1E00001221A70194B1B78002B0DD1184B00220D
:10D1F0001A701C2011F00AF921F0FAF9034603F520
:10D20000FA63144A136018E0124B1B68184621F0A9
:10D21000FFF90346002B10D01C2011F05FF80C4BD7
:10D2200002221A7009E00A4B00221A7006E000BFC1
:10D2300004E000BF02E000BF00E000BF00BF08370D
:10D24000BD4680BDAC10002000000020D41000209E
:10D25000CC100020D0100020CD100020D5100020D0
:10D26000CE1000203333B33E10B5030880B500AFB5
:10D27000164B00221A70164B00221A70154B002212
:10D280001A70154B00221A70144B00221A7021F0EC
:10D29000AFF90346124A1360124B1A78124B1A70F8
:10D2A000124B00221A70124B00221A70114B0522E9
:10D2B0001A70114B1B68114A1360114B00221A702F
:10D2C000104B00221A7000BF80BD00BFDC18002088
:10D2D000DA100020E0180020E2100020D910002011
:10D2E000E4180020DE100020D8100020E3180020F1
:10D2F000E3100020E218002014C40020E8180020E9
:10D30000E1180020DB10002080B582B000AFA34BF5
:10D310001B8823F4AA4323F05503FB80A04B1B7802
:10D32000002B17D1FB88002B14BF01230023DBB295
:10D330001A469C4B1A70994B1B881A4645F2555356
:10D340001340002B14BF01230023DBB21A46964B77
:10D350001A7005E0934B00221A70934B00221A704A
:10D36000914B1A78914B1A708E4B1A78904B1A7019
:10D37000904B1B78002B03D18F4B00221A7002E0D8
:10D380008D4B01221A708B4B1B78072B00F2A18169
:10D3900001A252F823F000BFB9D30008D3D6000889
:10D3A00061D40008EDD4000835D5000871D5000817
:10D3B00039D6000885D60008804B00221A70804BB1
:10D3C00000221A707F4B00221A70754B1B78002BBD
:10D3D00040F08381734B1B78002B2DD07A4B1B7848
:10D3E000002B06D0734B06221A70122010F076FF25
:10D3F0001EE0764B1B78002B1AD0754AFB881380F1
:10D40000744B1B68744A1360744B1B78002B03D059
:10D41000684B04221A7008E0664B02221A70704BA7
:10D420001B78013BDAB26E4B1A70122010F0B0FF7D
:10D430006C4828F09DFD50E1664B93ED007A664BF9
:10D44000D3ED007A77EE677AB0EE047AF4EEC77A1D
:10D45000F1EE10FA00DC40E1614B05221A703CE16C
:10D46000584B00221A70554B01221A70544B00225F
:10D470001A705D4B5D4A1A605D4B1B685D4A136014
:10D48000574B1B78002B2AD05B4BD3ED007AB7EEBD
:10D49000087AF4EEC77AF1EE10FA07DC4B4B1B78F2
:10D4A000002B03D0554B1B78002B09D0414B002299
:10D4B0001A70424B00221A70122010F0A7FF0EE1E2
:10D4C000434B1B88DA43FB881340002B00F0078195
:10D4D000384B05221A703E4AFB881380FFE0354B1B
:10D4E00006221A70122010F0F9FEF8E0354B0022E7
:10D4F0001A70324B00221A70314B00221A70294BDD
:10D500001B78002B03D0314B1B78002B03D1294B08
:10D5100000221A70E5E02E4B1B88DA43FB8813408B
:10D52000002B00F0DE80234B04221A70284AFB886F
:10D530001380D6E0234B00221A70204B00221A7071
:10D540001F4B01221A70174B1B78002B03D01F4B67
:10D550001B78002B03D1174B00221A70C3E01F4B1E
:10D560001B78002B40F0BF80124B05221A70BAE0E6
:10D57000144B00221A70124B00221A700F4B00221B
:10D580001A70084B1B78002B03D0104B1B78002B14
:10D5900036D1084B00221A70A7E000BFDE18002029
:10D5A000E0180020DA100020E2100020D91000203E
:10D5B000E1180020DE100020DB100020E31800201E
:10D5C000E3100020DC1800205C1E0020D81D002085
:10D5D000DC10002014C40020E8180020F11D0020F9
:10D5E000E218002048B50308FC1D00209A9999BE56
:10D5F0005CCE00208C190020E41D00207B19002047
:10D60000514B1B88DA43FB881340002B6DD04E4AE8
:10D61000FB8813804D4B1B78002B03D04C4B04220E
:10D620001A7062E04A4B02221A704A4B1B78013B87
:10D63000DAB2484B1A7058E0474B00221A70474B39
:10D6400000221A70434B05221A70454B01221A70B2
:10D65000122010F03DFF0346002B05D1122010F0E0
:10D6600017FF0346002B42D1122010F0CFFE384B9B
:10D6700000221A7020F0BCFF034603F5FA63394A12
:10D68000136034E0344B00221A70344B00221A70BD
:10D69000334B01221A70344B1B78002B03D0334BD1
:10D6A0001B78002B06D0122010F0B0FE284B002271
:10D6B0001A701EE02B4B1B68184620F0A9FF03468A
:10D6C000002B16D0122010F009FE214B06221A70F2
:10D6D0000FE01F4B00221A700CE000BF0AE000BFF1
:10D6E00008E000BF06E000BF04E000BF02E000BFAA
:10D6F00000E000BF122010F0EBFE0346002B09D122
:10D70000122010F0C5FE0346002B03D0174B1B78E8
:10D71000002B02D0122010F079FE0D4B1A78144B1A
:10D720001B789A420CD0124B1B781946084B1B7879
:10D730001A46104828F0BAFB054B1A780C4B1A70A1
:10D7400000BF0837BD4680BDDC100020F11D002061
:10D75000DE100020E2180020E3100020E318002073
:10D76000DC180020E4180020DA100020E018002067
:10D77000D81000209CB5030880B400AF164B1B786E
:10D78000032B16D0032B20DC012B02D0022B08D058
:10D790001BE0124B1B79002B01D0012316E0002364
:10D7A00014E00E4B1B7F002B01D001230EE0002361
:10D7B0000CE00A4B1B79002B05D0084B1B7F002B7C
:10D7C00001D0012302E0002300E000231846BD46FB
:10D7D0005DF8047B704700BFF51800200419002095
:10D7E00080B582B000AF4B4B00221A704A4B4FF00D
:10D7F00000021A60494B4FF000021A60484B0022A9
:10D800001A7020F0F5FE0346464A136020F0F0FE41
:10D810000346454A1360454B00221A70444B1A7860
:10D82000444B1A7000237B606CE043497A681346CE
:10D830005B001344DB000B4400221A703E497A68F7
:10D8400013465B001344DB000B44013300221A70C3
:10D8500039497A6813465B001344DB000B440233FA
:10D8600000221A7034497A6813465B001344DB00C7
:10D870000B440C3300221A602F497A6813465B0070
:10D880001344DB000B44083300221A6020F0B0FE82
:10D89000014629487A6813465B001344DB000344C1
:10D8A0001033196020F0A4FE014623487A6813461D
:10D8B0005B001344DB000344143319601E497A688B
:10D8C00013465B001344DB000B44043300221A7040
:10D8D00019497A6813465B001344DB000B44033399
:10D8E00000221A7014497A6813465B001344DB0067
:10D8F0000B441978114A7B6813440A461A707B68F6
:10D9000001337B607B68012B8FDD00BF00BF0837D0
:10D91000BD4680BD0119002038190020441900209F
:10D9200000190020F018002060190020F6180020CF
:10D930004E19002058190020041900204C1900200D
:10D9400080B582B000AFAA4B1B881A464FF47A7399
:10D9500003FB02F31A46A74BDA60A74B1B881A4653
:10D960004FF47A7303FB02F31A46A24B9A60A34B5F
:10D970001B7803F00403002B0CBF01230023DBB250
:10D980001A469C4B1A719D4B1B7803F00203002B27
:10D990000CBF01230023DBB21A46964BDA70944B7E
:10D9A0005B881A464FF47A7303FB02F31A46914BD5
:10D9B0005A62914B5B881A464FF47A7303FB02F369
:10D9C0001A468C4B1A628D4B5B7803F00403002BD4
:10D9D0000CBF01230023DBB21A46864B1A77874B14
:10D9E0005B7803F00203002B0CBF01230023DBB2A2
:10D9F0001A46804BDA76824B1B78072B00F2F382B3
:10DA000001A252F823F000BF29DA000869DA000801
:10DA1000F7DA0008A9DB0008C3DC0008C9DE00084B
:10DA200071DF000893DF0008764B00221A70764BF6
:10DA30004FF000021A60754B4FF000021A60744BF1
:10DA400000221A70734B00221A706A4B00225A701F
:10DA5000684B00225A76704B1B78002B00F0C7826F
:10DA6000674B02221A70C2E2664B00221A70614BA9
:10DA700000225A705F4B00225A76674B1B78002BAE
:10DA800003D15F4B00221A70B3E2644B1B78002B6A
:10DA900003D05B4B06221A70ABE2614B1B78002B64
:10DAA0000AD16049604803F087FF002003F06EFF51
:10DAB000574B01221A709CE2594B1B78022B06D15E
:10DAC0004F4B02221A70524B00221A7091E2544BB3
:10DAD0001B78012B40F08D82544B1B684A4A13601F
:10DAE000534BD3ED007A9FED537A67EE877A474B1D
:10DAF000C3ED007A7DE2434B00221A703D4B0022B9
:10DB00005A703C4B00225A76434B1B78002B03D1B2
:10DB10003B4B00221A706EE2404B1B78002B03D067
:10DB2000374B06221A7066E23D4B1B78002B0AD158
:10DB300041493C4803F040FF012003F027FF344BEC
:10DB400001221A7057E2364B1B78022B18D12C4B4E
:10DB500003221A7020F04CFD034603F5FA63374A9E
:10DB6000136020F045FD034603F56A531833344A29
:10DB70001360284B1B780133DAB2264B1A703AE255
:10DB8000274B1B78012B40F03682284B1B681E4A1E
:10DB90001360274BD3ED007A9FED267A67EE877AE4
:10DBA0001A4BC3ED007A26E2164B00221A70164B70
:10DBB0004FF000021A60154B4FF000021A60144B30
:10DBC00000221A700B4B00225A700A4B00225A7620
:10DBD000114B1B78002B03D1094B00221A700CE269
:10DBE0000E4B1B78002B2DD0054B06221A7004E239
:10DBF00048190020041900205C190020EC180020AE
:10DC00004E19002001190020381900204419002065
:10DC1000F618002000190020EF180020EE18002050
:10DC2000F41E0020501900203CC40020981E002043
:10DC3000B81E00209A99993EF8180020F01800208C
:10DC400060190020FFF798FD0346002B16D0B04B5B
:10DC50001B78002B12D0AF4B1B68184620F0D8FC65
:10DC60000346002B12D0AC4B04221A7020F0C0FCEB
:10DC7000034603F5FA63A74A136007E020F0B8FCF7
:10DC8000034603F59C530833A24A1360A34B1B6859
:10DC9000184620F0BDFC0346002B00F0AE81A04BDF
:10DCA0001B78022B03D89C4B01221A70A5E19A4BDA
:10DCB00005221A70262010F06BFB9A4828F058F9BC
:10DCC0009BE1994B00221A70984B4FF000021A60AA
:10DCD000974B4FF000021A60964B00221A70964B39
:10DCE0001B78002B03D18C4B00221A7087E1934BD9
:10DCF0001B78002B03D0884B06221A707FE1072087
:10DD000011F0D0FE0346002B09D1834B07221A7075
:10DD1000252010F0E3FA8A4828F02AF96FE1894BB0
:10DD20001B78032B53D0032B00F39380012B02D0DD
:10DD3000022B26D08DE0844B01225A70824B0022A8
:10DD40005A76814B1B78032B0AD1734B05221A702C
:10DD500020F04EFC034603F5FA636E4A13607FE041
:10DD6000794B1B78052B05D0082011F09BFE03464C
:10DD7000002B75D1684B07221A70252010F0AEFADF
:10DD80006EE0714B00225A706F4B01225A766E4B37
:10DD90001B7E032B0AD1604B05221A7020F028FC51
:10DDA000034603F5FA635B4A13605BE0664B1B7E38
:10DDB000052B05D0092011F075FE0346002B51D12B
:10DDC000554B07221A70252010F088FA4AE05E4B66
:10DDD00001225A705C4B01225A765B4B1B78032B55
:10DDE0000ED1594B1B7E032B0AD14B4B05221A70C7
:10DDF00020F0FEFB034603F5FA63464A136027E072
:10DE0000514B1B78052B05D0082011F04BFE034623
:10DE1000002B09D1404B07221A70252010F05EFA22
:10DE20004A4828F0A5F813E0474B1B7E052B05D088
:10DE3000092011F037FE0346002B15D1364B07227F
:10DE40001A70252010F04AFA414828F091F80BE0AA
:10DE50000AE0404B07221A70252010F03FFA04E038
:10DE600000BF02E000BF00E000BFFFF785FC0346F3
:10DE7000002B07D020F0BCFB034603F5FA63254ACC
:10DE80001360BCE0234B1B68184620F0C1FB03461F
:10DE9000002B00F0B480204B03221A7020F0A8FB66
:10DEA000034603F5FA631B4A136020F0A1FB034607
:10DEB00003F56A531833194A1360234B00225A7032
:10DEC000214B00225A769AE0174B00221A70174B0A
:10DED0004FF000021A60164B4FF000021A60154B0B
:10DEE00000221A70184B00225A70174B00225A76E3
:10DEF000114B1B78002B03D1074B00221A7080E0D6
:10DF00000E4B1B78002B27D0034B06221A7078E0AB
:10DF10000EC30020F01800204E19002060190020C8
:10DF200000190020E8B50308011900203819002065
:10DF300044190020F6180020EF180020EE180020E9
:10DF400010B60308F51800200419002038B603089D
:10DF50006CB60308F41E0020C14B1B68184620F065
:10DF600057FB0346002B4CD0BE4B06221A7048E0EC
:10DF7000BD4B00221A70BD4B00225A70BB4B0022D1
:10DF80005A76BB4B1B78002B3DD1B64B00221A7042
:10DF900039E0B54B01221A70B64B4FF000021A60FF
:10DFA000B54B4FF000021A60B44B00221A70AF4B11
:10DFB00000225A70AD4B00225A76252010F088FAC4
:10DFC0000346002B05D1252010F062FA0346002BF2
:10DFD0001BD1252010F01AFAA34B00221A70A14B76
:10DFE00006221A7011E09F4B00221A700EE000BF4B
:10DFF0000CE000BF0AE000BF08E000BF06E000BF81
:10E0000004E000BF02E000BF00E000BF00237B602F
:10E010008CE196497A6813465B001344DB000B449D
:10E020001B78052B00F26C8101A252F823F000BF8F
:10E0300049E00008DFE00008B3E1000885E20008DD
:10E0400001E30008C3E2000888497A6813465B00D0
:10E050001344DB000B44023300221A7083497A68B0
:10E0600013465B001344DB000B4401331B78002B89
:10E0700000F050817D497A6813465B001344DB0051
:10E080000B4403331B78002B1FD178497A68134661
:10E090005B001344DB000B4401221A7020F0A8FA45
:10E0A000014672487A6813465B001344DB00034460
:10E0B00008331B6819446D487A6813465B001344A3
:10E0C000DB0003441033196024E168497A68134681
:10E0D0005B001344DB000B4403221A701AE163490E
:10E0E0007A6813465B001344DB000B4402330122C1
:10E0F0001A705E497A6813465B001344DB000B44D8
:10E1000001331B78002B09D158497A6813465B000C
:10E110001344DB000B4400221A70FDE053497A6877
:10E1200013465B001344DB000B4403331B78012BC5
:10E130001FD14E497A6813465B001344DB000B4441
:10E1400002221A7020F054FA014648487A681346B1
:10E150005B001344DB0003440C331B681944434841
:10E160007A6813465B001344DB00034414331960E0
:10E17000D2E03E497A6813465B001344DB000B444F
:10E1800010331B68184620F043FA0346002B00F0BA
:10E19000C38036497A6813465B001344DB000B44A6
:10E1A00005221A707B6801331946354827F07EFE38
:10E1B000B2E02E497A6813465B001344DB000B443F
:10E1C000023301221A7029497A6813465B0013440E
:10E1D000DB000B4401331B78002B09D123497A68FB
:10E1E00013465B001344DB000B4400221A7095E0D9
:10E1F0001E497A6813465B001344DB000B4414335A
:10E200001B68184620F004FA0346002B09D0174972
:10E210007A6813465B001344DB000B4403221A7038
:10E220007CE012497A6813465B001344DB000B4420
:10E2300010331B68184620F0EBF90346002B6DD015
:10E240000A497A6813465B001344DB000B4405223D
:10E250001A707B6801331946094827F027FE5DE0F4
:10E26000F01800204E190020011900200419002088
:10E27000EF1800203819002044190020F61800205B
:10E28000A0B6030871497A6813465B001344DB00AB
:10E290000B44023300221A706C497A6813465B0003
:10E2A0001344DB000B4401331B78002B38D1674942
:10E2B0007A6813465B001344DB000B4400221A709B
:10E2C0002EE062497A6813465B001344DB000B447E
:10E2D000023300221A705D497A6813465B001344CA
:10E2E000DB000B4401331B78002B1BD157497A68A4
:10E2F00013465B001344DB000B4400221A7011E04C
:10E3000052497A6813465B001344DB000B44002239
:10E310001A7008E000BF06E000BF04E000BF02E0A2
:10E3200000BF00E000BF7B6801337B607B68012B8E
:10E330007FF76FAE454B9B78002B07D0444B1B7883
:10E3400043F00803DAB2424B1A7006E0404B1B78E8
:10E3500023F00803DAB23E4B1A703C4B9B7E002B35
:10E3600007D03B4B1B7843F01003DAB2384B1A70DE
:10E3700006E0374B1B7823F01003DAB2344B1A70E7
:10E38000344B1B78002B03D0334B4FF000021A6044
:10E39000262010F09DF80346002B05D1262010F012
:10E3A00077F80346002B02D1262010F02FF82B4BD4
:10E3B0001A782B4B1B789A420CD0294B1B781946A4
:10E3C000264B1B781A46274827F070FD234B1A78F6
:10E3D000234B1A7000233B602FE01C493A68134618
:10E3E0005B001344DB000B441A781F493B680B4465
:10E3F0001B789A421ED01C4A3B6813441B7818466F
:10E4000012493A6813465B001344DB000B441B7847
:10E4100002463968154827F049FD0C493A68134609
:10E420005B001344DB000B4419780F4A3B6813442C
:10E430000A461A703B6801333B603B68012BCCDD18
:10E4400000BF00BF0837BD4680BD00BF04190020D3
:10E4500005C30020B7980020441900204E19002061
:10E4600058190020C4B603084C190020F4B603085C
:10E4700080B500AF2E4B00221A702D4B1A782D4B11
:10E480001A702D4B00221A702C4B00221A702C4B44
:10E490004FF000021A602B4B4FF000021A602A4B1B
:10E4A0004FF000021A60294B4FF000021A6020F072
:10E4B0009FF80346264A1360264B4FF000021A606D
:10E4C000254B4FF000021A60244B4FF000021A60F7
:10E4D000234B00221A70234B00221A70224B93F810
:10E4E0007120224B1A70224B00221A70214B0022FD
:10E4F0001A7020F07DF803461F4A136001F08CFC6F
:10E500001E4B00221A701E4B00221A70164B93F8F5
:10E5100071201C4B1A701C4B1B681C4A13601C4B4F
:10E5200001221A70184B1B681A4A136000BF80BD85
:10E53000641900207A190020D81D0020001E002038
:10E54000CC1D0020C81D002088190020841900203F
:10E55000D41D0020E41D0020FC1D00208C1900208B
:10E5600078190020D01D0020402C0020011E002022
:10E57000F81D0020F11D0020E81D00207B1900205F
:10E5800079190020F01D002014C400207419002007
:10E59000D11D00207019002080B588B000AF01F0B7
:10E5A0002BFE0346022B06D0022B36DC002B0AD0B2
:10E5B000012B04D031E01B4B02221A702DE0194BC5
:10E5C00005221A7029E03B46184601F037FD164B2C
:10E5D0001B68164A1360144B5B68144A53603B680F
:10E5E000114A13607B68104A53600E4B01221A7067
:10E5F0000F4B1B8918460E4B1B891A460C4B9B88E8
:10E60000D21A0B4BDB881946094B1B89CB1A013BED
:10E610000146084827F04AFC00BF00BF2037BD462E
:10E6200080BD00BF641900207C190020C01D00209F
:10E63000901900202CB7030880B588B000AF264B96
:10E640001B89012B06D8012012F04AFA234B022223
:10E650001A703DE0204B1B89023B9BB23A461146A3
:10E66000184601F007FD03461A461B4B1B89023B67
:10E670009A4203D0194B04221A7029E001F0E0FD00
:10E680000346002B24D1164B1B68164A1360144B0B
:10E690005B68144A53603B68114A13607B68104AF8
:10E6A00053600E4B01221A700B4B1B8918460A4B04
:10E6B0001B891A46084B9B88D21A074BDB881946E0
:10E6C000054B1B89CB1A013B0146074827F0EEFB9F
:10E6D00000BF2037BD4680BD90190020641900207E
:10E6E0007C190020C01D002060B703080000000056
:10E6F0002DE9B04F2DED028BADF5087D1EAF4FF02B
:10E700000003C7F89C31A54B00221A70A44B1B785C
:10E71000052B00F2B48101A252F823F035E700087E
:10E720004DE8000823E9000887EA000863E90008CB
:10E7300045EA00089B4B00221A709B4B00221A707E
:10E740009A4B00221A709A4B00221A70994B0022A1
:10E750001A60994B00221A70984B00221A70984B3D
:10E7600093F87120974B1A70974B1B68974A136068
:10E77000974B01221A70944B1B68964A1360964B74
:10E780001B78002B00F08181944B5B89002B3CD0DF
:10E79000834B01221A701FF02BFF034603F5BB5376
:10E7A00010338F4A1360824B01221A70864B1B680C
:10E7B0008C4A13608C4B1B68184626F0D9FE8246A3
:10E7C0008B46894B5B68184626F0D2FE04460D4600
:10E7D000864B1B68184626F0CBFE80468946834B45
:10E7E0005B68184626F0C4FE02460B467B49098941
:10E7F0000691CDE90423CDE90289CDE900455246D1
:10E800005B467B4827F052FB05E0654B02221A70FD
:10E81000784827F0ADFB784B1B68B3F1FF3F05D07C
:10E82000754B1A68754B1B689A4205D1744BB3F946
:10E830000030002B40F0298130200FF04FFD71484F
:10E8400027F096FB564B02221A701EE1624B1B7892
:10E85000002B02D1524B00221A706B4B1B78002BFD
:10E8600003D15E4B5B89002B02D14D4B02221A7003
:10E87000534B93F87130012B08D1514B93F8712011
:10E88000504B1B789A4201D0012300E0002387F807
:10E8900083315E4B1B78002B17D15D4B1B78002B0F
:10E8A00013D15C4B1B78002B0FD15B4B1B78002BDB
:10E8B0000BD15A4B1B78002B07D1594B1B78002BDF
:10E8C00003D1584B1B78002B10D0344B01221A7007
:10E8D000554B00221A7097F88331002B0FD0374B1D
:10E8E0001B780133DAB2354B1A7008E02B4B00224B
:10E8F0001A704D4B01221A70304B00221A704B4B8C
:10E900001B78002B04D04A4B1B68C7F89C31C3E02E
:10E91000484B1B6807EE903AF8EEE77AC7ED677A46
:10E92000BAE0394B00221A70434B4FF000021A60D4
:10E93000424B4FF000021A601A4B00221A701A4B19
:10E9400000221A701A4B00221A70214B01221A70F1
:10E95000214B1B78002B40F09A80114B00221A703B
:10E9600095E0354B4FF000021A60344B4FF0000237
:10E970001A60334B4FF000021A60FFF75DFE164B32
:10E980001B78002B02D1064B00221A701E4B1B78FD
:10E99000002B7ED0024B02221A707AE0F11D00207B
:10E9A00064190020201E0020281E0020D01D0020F9
:10E9B000F81D0020401E00207B190020791900203E
:10E9C000402C0020F01D002014C4002074190020E9
:10E9D000D11D002070190020D81D002090190020A2
:10E9E000EC1D0020F41D0020C01D00207C1900201B
:10E9F00094B703080CB80308382C0020D8950020E1
:10EA0000262C002054B80308001E00209DC30020BF
:10EA1000C8D5002075D5002009960020EFD200202F
:10EA2000E31800208C1000204E270020FD950020C8
:10EA3000FC960020341E0020881900208419002034
:10EA4000C81D0020A54B4FF000021A60A44B4FF0E8
:10EA500000021A60A34B4FF000021A60FFF79CFD02
:10EA6000A14B1B78002B02D1A04B00221A70A04BA7
:10EA70001B78002B0FD09D4B02221A700BE09B4B92
:10EA800000221A7008E000BF06E000BF04E000BFEB
:10EA900002E000BF00E000BF964B93F87120964B58
:10EAA0001A70924B1B78012B41F0BC8007F5A273C2
:10EAB000184601F0C3FA034687F89B318F4B1A784A
:10EAC0008F4B1B789A4222D08E4B1B68C7F8FC30C4
:10EAD0008C4B5B68C7F800318B4B1B68894A13600D
:10EAE000894B5B68874A5360D7F8FC30864A1360CD
:10EAF000D7F80031844A5360814B1B78002B03D038
:10EB0000824827F035FA02E0814827F031FA7E4B3F
:10EB100093ED007A7B4BD3ED007A77EE677AC7ED01
:10EB20003B7A794B93ED017A764BD3ED017A77EE10
:10EB3000677AC7ED3C7A07F1EC03184619F058F8EC
:10EB400087ED5F0A07F1EC03184618F03FFFF0EE7F
:10EB5000407AF5EE407AF1EE10FA01F04D80D7EDF3
:10EB60003C7AF1EE677AC7ED3D7AD7F8EC30C7F81A
:10EB7000F83007F1F403184618F028FF87ED690A0A
:10EB80005F4B1B78002B03D197F84C31012B2ED112
:10EB9000604B93ED007AD7ED3D6AD7ED677A66EE6C
:10EBA000A77ADFED5D6A27EEA66AD7ED696AC6EE41
:10EBB000267A77EE277A07F19C03C3ED007A554B4E
:10EBC00093ED017AD7ED3E6AD7ED677A66EEA77AC4
:10EBD000DFED516A27EEA66AD7ED696AC6EE267A9E
:10EBE00077EE277A07F19C03C3ED017A31E0494BB8
:10EBF00093ED007AD7ED3D6AD7ED677AF1EE677A4B
:10EC000066EEA77ADFED446A27EEA66AD7ED696A59
:10EC1000C6EE267A77EE277A07F19C03C3ED007AD9
:10EC20003C4B93ED017AD7ED3E6AD7ED677AF1EE72
:10EC3000677A66EEA77ADFED386A27EEA66AD7ED27
:10EC4000696AC6EE267A77EE277A07F19C03C3ED50
:10EC5000017A07F19C0393ED007A2A4BD3ED007AF9
:10EC600077EE677AC7ED397A07F19C0393ED017A65
:10EC7000244BD3ED017A77EE677AC7ED3A7AD7ED78
:10EC80003D7AF5EE407AF1EE10FA06D1D7ED3E7AF4
:10EC9000F5EE407AF1EE10FA40D097ED397AD7EDE3
:10ECA0003D7A27EE277AD7ED3A6AD7ED3E7A66EEBF
:10ECB000A77A77EE276A97ED3D7AD7ED3D7A27EE72
:10ECC000277A97ED3E6AD7ED3E7A66EE277A37EEE1
:10ECD000277AC6EE877AC7ED697A23E08819002083
:10ECE00084190020C81D0020D81D002064190020B0
:10ECF000001E0020402C0020F01D0020781900206C
:10ED0000F11D0020C01D00207C19002084B80308DC
:10ED1000A8B803083CC400206F12833A4FF00003E8
:10ED2000C7F8A43197ED3D7AD7ED697A67EE277A77
:10ED3000C7ED337A97ED3E7AD7ED697A67EE277A99
:10ED4000C7ED347A07F1CC03184618F03FFE87ED83
:10ED50005E0A97ED397AD7ED337A77EE677AC7EDA9
:10ED6000377A97ED3A7AD7ED347A77EE677AC7ED4E
:10ED7000387A97ED3B7AD7ED377A77EE677AC7ED39
:10ED8000357A97ED3C7AD7ED387A77EE677AC7ED2A
:10ED9000367AD7F8EC30CE4A1360D7F8F030CC4A48
:10EDA0005360D7F8DC30CA4A1360D7F8E030C84A5D
:10EDB000536097F84C31012B17D1C64B1B78002BB1
:10EDC00009D0C54BD3ED007A9FEDC47A77EE877AF0
:10EDD000C7ED657A20E0C04BD3ED007A9FEDBF7A96
:10EDE00077EEC77AC7ED657A16E0BA4B1B78002B31
:10EDF00009D0B94BD3ED007A9FEDB87A77EEC77A98
:10EE0000C7ED657A08E0B44BD3ED007A9FEDB37A95
:10EE100077EE877AC7ED657AD7ED650A97ED5F0AD9
:10EE200018F088FF87ED5D0A07F19C031B68C7F89F
:10EE3000BC3007F19C035B68C7F8C0304FF000039B
:10EE4000C7F8AC30A64B03F21C4393ED007AD7ED24
:10EE50005D7A9FEDA46AC7EE866AA14B03F21C435C
:10EE6000D3ED007A66EEA77A77EE677AC7ED2C7A53
:10EE700007F19C0393ED007AD7ED2B6A9A4BD3ED03
:10EE8000007A66EEA77A37EE277AD7ED2C6A974B91
:10EE9000D3ED007A66EEA77A77EE677AC7ED2D7A22
:10EEA00007F19C0393ED017AD7ED2B6A8F4BD3EDDD
:10EEB000007A66EEA77A37EE277AD7ED2C6A8A4B6E
:10EEC000D3ED007A66EEA77A77EE277AC7ED2E7A31
:10EED00007F1D403184618F079FD87ED680AD7F8D2
:10EEE000D430C7F8C430D7F8D830C7F8C8307C4B16
:10EEF00003F584631B687E4A13604FF00003C7F874
:10EF000090317C4B1B8987F89B314FF00003C7F889
:10EF10008C31012387F88B3111E1754B93ED007A29
:10EF2000D7ED687A77EE677AF5EEC07AF1EE10FAEF
:10EF300003D8002387F88B3101E1664B1B78002B47
:10EF400006D197F89B216B4BDB88023B9A4206DB8C
:10EF5000002387F88B31684BC7F88C31EFE097F8C6
:10EF60009B319BB207F592721146184601F082F868
:10EF700003461A4697F89B319BB29A421ED197F8E6
:10EF80009B319BB201339BB207F582721146184642
:10EF900001F070F803461A4697F89B3101339A4204
:10EFA0000CD197F82C2197F80C319A4206D0002307
:10EFB00087F88B31504BC7F88C31C0E04C4B93ED48
:10EFC000007AD7ED687A77EE677A494BC3ED007A1D
:10EFD00097ED647AD7ED687A77EE277AC7ED647A91
:10EFE00097ED417AD7ED497A77EE677AC7ED317AB6
:10EFF00097ED427AD7ED4A7A77EE677AC7ED327AA3
:10F0000007F1C403184618F0E1FC87ED680A97F889
:10F010009B319AB2374B1B899A4226D097F89B3185
:10F020009BB2013B9BB207F582721146184601F074
:10F0300021F803461A4697F89B31013B9A4214D1B6
:10F0400097ED497AD7ED417A77EE677A07F17C033D
:10F05000C3ED007A97ED4A7AD7ED427A77EE677A78
:10F0600007F17C03C3ED017A09E0D7F8D42007F15A
:10F070007C031A60D7F8D82007F17C035A6007F1A7
:10F08000740207F17C031146184618F051FD07F190
:10F090006C0207F1C4031146184618F049FD07F148
:10F0A0006C0207F174031146184618F081FD87EDD4
:10F0B000690AD7ED697AB7EE007AF4EEC77AF1EE15
:10F0C00010FA1BDD4FF07E53C7F8A43122E000BFD9
:10F0D000DC1D0020F11D00207CCE0020DB0FC93F8D
:10F0E00088CE0020DB0F494074CE00202CC40020C5
:10F0F000CC1D002090190020DB0F4940D7ED697A24
:10F10000BFEE007AF4EEC77AF1EE10FA02D5DE4BCC
:10F11000C7F8A431D7ED697AF0EEE77AB0EE670A66
:10F1200021F0A4FFB0EE407AD7ED637A77EE877ACC
:10F13000C7ED637A97F89B31013387F89B3197F8D5
:10F140008B31002B7FF4E9AED7ED687AF5EE407A8B
:10F15000F1EE10FA1ED097ED317ACC4BD3ED007A58
:10F1600067EE276A97ED687AC6EE877A07F1A403FF
:10F17000C3ED007A97ED327AC44BD3ED007A67EE97
:10F18000276A97ED687AC6EE877A07F1A403C3ED84
:10F19000017A09E0D7F8C42007F1A4031A60D7F870
:10F1A000C82007F1A4035A60B84BD3ED007A97ED5D
:10F1B000647A77EE277AC7ED647A97F89B319AB232
:10F1C000B34B1B899A4222D1B24B93ED007AD7ED13
:10F1D000377A37EE277A07F1A403D3ED007A77EE7A
:10F1E000277A07F1A403C3ED007AAA4B93ED017AC5
:10F1F000D7ED387A37EE277A07F1A403D3ED017AF9
:10F2000077EE277A07F1A403C3ED017A4BE097F874
:10F210009B219F4B1B8901339A421AD19E4B93ED40
:10F22000007A07F1A403D3ED007A77EE277A07F18D
:10F23000A403C3ED007A984B93ED017A07F1A40380
:10F24000D3ED017A77EE277A07F1A403C3ED017AB3
:10F2500029E097F89B319BB2013B9BB207F5927274
:10F260001146184600F006FF03461A4697F89B31F0
:10F27000013B9A4217D107F1A40393ED007AD7ED31
:10F28000497A77EE277A07F1A403C3ED007A07F1F4
:10F29000A40393ED017AD7ED4A7A77EE277A07F146
:10F2A000A403C3ED017AD7ED2F7AB8EE087A27EEE2
:10F2B000877AD7ED2D7AF0EE086A67EEA67A77EEB8
:10F2C000277AC7ED5C7AD7ED2F7AB0EE087A27EE71
:10F2D000877AD7ED2D7AF1EE086A67EEA67A37EED7
:10F2E000677A07F1A403D3ED007AF0EE086A67EEBF
:10F2F000A67A77EE277AC7ED5B7AD7ED307AB8EE4B
:10F30000087A27EE877AD7ED2E7AF0EE086A67EE54
:10F31000A67A77EE277AC7ED5A7AD7ED307AB0EE33
:10F32000087A27EE877AD7ED2E7AF1EE086A67EE33
:10F33000A67A37EE677A07F1A403D3ED017AF0EEEF
:10F34000086A67EEA67A77EE277AC7ED597AD7ED85
:10F350005C7AF5EE407AF1EE10FA06D1D7ED5A7AE2
:10F36000F5EE407AF1EE10FA3BD097ED5C7AD7EDEE
:10F37000597A27EE277AD7ED5B6AD7ED5A7A66EE8F
:10F38000A77A77EE677A77EEA77A17EE900A26F0DB
:10F39000EFF804460D46D7ED5C7A27EEA77AD7ED55
:10F3A0005A7A67EEA77A77EE277A17EE900A26F058
:10F3B000DFF802460B469FED321B43EC102B21F089
:10F3C0009FFC53EC102B2046294626F053FA0246A8
:10F3D0000B461046194626F0FBFB03462F4A1360E6
:10F3E00003E02E4B4FF000021A602D4B1B78002BD0
:10F3F0000ED12C4B93F87130012B09D1294B93F886
:10F400007120294B1B789A4202D0254B01221A7099
:10F41000234B1B78002B21D0D7ED637A9FED237A05
:10F42000F4EEC77AF1EE10FA15DCD7ED5D7A9FEDB8
:10F430001F7AF4EEC77AF1EE10FA0CDCD7ED5E7AA3
:10F440009FED1B7AF4EEC77AF1EE10FA03DC194B4C
:10F450001B78002B02D0124B00221A70104B1B7825
:10F46000002B3AD00D4BD3ED007A9FED137AF4EEDA
:10F47000C77AF1EE10FA23DD084B104A1A602CE02F
:10F48000000000000000F83F000080BFCC1D0020FD
:10F4900090190020C01D00207C190020C81D0020EC
:10F4A000D01D0020402C0020011E0020C3B8323E99
:10F4B0009A99193EF11D0020CDCC4C3ECDCC4C3E4E
:10F4C000A64BD3ED007A9FEDA67AF4EEC77AF1EE63
:10F4D00010FA02D5A14BA34A1A60A34BD3ED007AD0
:10F4E000F5EE407AF1EE10FA10D097F84C31012B7E
:10F4F0000CD0D7ED637A9FED9D7AF4EEC77AF1EEEA
:10F5000010FA0ADD9A4B1B78002B06D1994B00228A
:10F510001A70994B00221A7005E0964B00221A705F
:10F52000954B01221A70954BD3ED007AF0EEE77AF5
:10F530009FED937AF4EEC77AF1EE10FA40F3C280B1
:10F54000904B1B6818461FF063F80346002B00F031
:10F55000B98097ED5D7ADFED8C6AC7EE267A9FED74
:10F560008B7A67EE877A17EE900A26F001F8C7E9E2
:10F570001601D7F8EC30184625F0FAFFC7E9140158
:10F58000D7F8F030184625F0F3FFC7E91201D7F895
:10F59000DC30184625F0ECFFC7E91001D7F8E03061
:10F5A000184625F0E5FFC7E90E01D7F8BC3018462C
:10F5B00025F0DEFFC7E90C01D7F8C030184625F06A
:10F5C000D7FFC7E90A01D7F8B430184625F0D0FFB5
:10F5D000C7E90801D7F8B830184625F0C9FFC7E9D0
:10F5E000060107F1A4031B68184625F0C1FFC7E90F
:10F5F000040107F1A4035B68184625F0B9FFC7E9C9
:10F600000201564B1B68184625F0B2FFC7E90001FE
:10F61000D7F8780125F0ACFF82468B46D7F89C01DD
:10F6200025F0A6FF80468946D7F88C0125F0A0FF7B
:10F6300004460D46564B1B68184625F099FF0246B6
:10F640000B46CDE91C23CDE91A45CDE91889CDE952
:10F6500016AB97ED007B8DED147B97ED027B8DED66
:10F66000127B97ED047B8DED107B97ED067B8DED86
:10F670000E7B97ED087B8DED0C7B97ED0A7B8DED76
:10F680000A7B97ED0C7B8DED087B97ED0E7B8DED66
:10F69000067B97ED107B8DED047B97ED127B8DED56
:10F6A000027B97ED147B8DED007BD7E9162339485B
:10F6B00026F0FCFB1EF09CFF034603F59C53083329
:10F6C000304A13602A4B1B78002B08D0324B1B6842
:10F6D000324A1360324B1B68234A136095E097F857
:10F6E0004E3107EE903AF8EEE77A9FED257A67EE15
:10F6F000877A2A4BC3ED007A97F84D31002B04D05E
:10F70000194B4FF07E521A6003E0174B4FF0000286
:10F710001A6007F1D403184618F058F9F0EE407A51
:10F7200007F16403C3ED007A1C4B1A6807F1640308
:10F730005A601C4B1B891A461A4B5B89013B9A4243
:10F7400036D107F16403184A1849184618F086F9AB
:10F75000F0EE407A114BC3ED007A56E0C81D002050
:10F76000CDCC4CBECDCC4CBE84190020DB0F493F24
:10F77000F11D0020201E0020281E002068CE002041
:10F780000AD7233CD41D0020DB0F4940000034433E
:10F790002C1E0020CCB80308FC1D00208819002076
:10F7A0008C19002090190020640000206C000020BB
:10F7B000C24B1B8901339BB207F592721146184662
:10F7C00000F058FC03461A46BC4B1B8901339A4291
:10F7D0001BD197F84C31002B03D197F82C31012B1A
:10F7E00007D097F84C31012B0FD197F82C31002B13
:10F7F0000BD107F16403B24AB249184618F02EF94A
:10F80000F0EE407AB04BC3ED007AB04BD3ED007A06
:10F81000F5EEC07AF1EE10FA1FDDAB4B93ED007AF6
:10F82000AB4BD3ED007AB4EEE77AF1EE10FA14DDCB
:10F83000A54B93ED007AA64BD3ED007A37EE677AAD
:10F84000A44BD3ED007A27EE277AA14BD3ED007AB3
:10F8500077EE277A9C4BC3ED007A97F84C31012B59
:10F8600007D1994BD3ED007AF1EE677A964BC3ED51
:10F87000007A07F194031A469749984818F0C9F896
:10F88000974BC7F884318D4B1B891A468B4B5B898C
:10F89000013B9A4203DB934BC7F8843112E0874B5C
:10F8A0001B8901339BB207F592721146184600F08E
:10F8B000E1FB97F84C2197F82C319A4202D0894B02
:10F8C000C7F88431884B1B78002B7ED0874B0022F1
:10F8D0001A70874B93ED007A864BD3ED007AB4EE25
:10F8E000E77AF1EE10FA03D5824B1B68804A136069
:10F8F000814B93ED007A7F4BD3ED007A77EE677AF8
:10F90000F0EEE77A7D4BC3ED007A7C4BD3ED007AC5
:10F91000B1EE007AF4EEC77AF1EE10FA05DD784B1D
:10F9200001221A70774826F023FB07F1DC03184602
:10F9300018F04CF8B0EE408A07F1EC03184618F0C6
:10F9400045F8F0EE407AB4EEE78AF1EE10FA0EDAFE
:10F9500007F19403184618F039F8B0EE407AD7ED65
:10F96000617AF4EEC77AF1EE10FA40F33881534B26
:10F970001B89012B26D907F5A273184600F05EFB00
:10F980004E4B1B89013B9BB207F5927211461846FC
:10F9900000F070FB03461A46484B1B89013B9A4214
:10F9A00040F01D8197F84C2197F82C319A4206D0EF
:10F9B000534B01221A70544826F0DAFA0FE1FEF791
:10F9C0003BFE0CE1FEF738FE09E14D4B00221A70B8
:10F9D0003A4B1B891A46394B5B89013B9A4280F2AC
:10F9E000998007F5A273184600F028FB334B1B895A
:10F9F00001339BB207F592721146184600F03AFBAC
:10FA000097ED497AD7ED517A77EE677A07F18C0353
:10FA1000C3ED007A97ED4A7AD7ED527A77EE677A9E
:10FA200007F18C03C3ED017A2C4B93ED007AD7EDEF
:10FA3000517A77EE677A07F18403C3ED007A274B9A
:10FA400093ED017AD7ED527A77EE677A07F1840366
:10FA5000C3ED017A07F18C03D3ED007AF5EE407A1D
:10FA6000F1EE10FA08D107F18C03D3ED017AF5EE2F
:10FA7000407AF1EE10FA49D007F18C0393ED007A49
:10FA800007F18403D3ED007A27EE277A07F18C0380
:10FA9000D3ED016A07F18403D3ED017A66EEA77A0C
:10FAA00037EE278A07F18C03184617F08FFFB0EE68
:10FAB000407AC8EE077AC7ED697A2BE090190020EA
:10FAC000640000206C0000208819002068CE00200F
:10FAD00004BB03082C1E00207C1900203CC400201D
:10FAE0009A99193ECDCC4C3DF11D0020D11D00202E
:10FAF000701900207419002014C40020E41D002097
:10FB00007B190020CCB9030804BA03084FF00003A6
:10FB1000C7F8A43197F89B319AB28A4B1B899A4255
:10FB20000DD907F1D403184617F050FFB0EE407A14
:10FB3000D7ED697AF4EEC77AF1EE10FA2FDA07F111
:10FB4000DC03184617F042FFB0EE408A07F1EC03E1
:10FB5000184617F03BFFF0EE407AB4EEE78AF1EE7C
:10FB600010FA0EDB07F1EC0207F1DC031146184630
:10FB700018F01EF8F0EE407AF5EEC07AF1EE10FAC9
:10FB80000DDC07F19403184617F020FFB0EE407A21
:10FB9000D7ED617AF4EEC77AF1EE10FA01DDFEF7E7
:10FBA000FBFC694B1B68694A136097F82C31012BE9
:10FBB00003D1654B1B68664A1360654B93ED007A71
:10FBC000614BD3ED007AB4EEE77AF1EE10FA02D889
:10FBD000604B01221A70604B4FF000021A605F4BBD
:10FBE0001B78012B2AD15E4B4FF000021A605D4B4F
:10FBF0004FF000021A6021E0594B4FF000021A60EA
:10FC0000584B4FF000021A60574B4FF000021A6039
:10FC1000564B1B78002B02D0FEF70EFD0EE0FEF7D0
:10FC2000BBFC0BE04E4B4FF000021A604D4B4FF007
:10FC300000021A604C4B4FF000021A604B4B1B78CD
:10FC4000002B37D04A4B1B78002B03D029200EF015
:10FC50009FFB44E0474B1B78002B03D02A200EF07B
:10FC600097FB3CE0444B1B78002B03D02B200EF07D
:10FC70008FFB34E0414B1B78002B03D02C200EF07F
:10FC800087FB2CE03E4B1B78002B03D02D200EF081
:10FC90007FFB24E03B4B1B78002B03D02E200EF083
:10FCA00077FB1CE0384B1B78002B18D02F200EF070
:10FCB0006FFB14E029200EF0A9FB2A200EF0A6FB12
:10FCC0002B200EF0A3FB2C200EF0A0FB2D200EF01D
:10FCD0009DFB2E200EF09AFB2F200EF097FB234B5E
:10FCE0001A782A4B1A702A4B93F87120294B1A70F4
:10FCF00030200EF0EDFB0346002B05D130200EF036
:10FD0000C7FB0346002B02D130200EF07FFB224BB5
:10FD10001A78224B1B789A420CD0204B1B7819463C
:10FD20001D4B1B781A461E4826F0C0F81A4B1A784D
:10FD30001A4B1A7000BF07F5D477BD46BDEC028B95
:10FD4000BDE8B08F9019002014C400207419002061
:10FD500070190020D11D0020E41D0020A8C3002040
:10FD60008819002084190020C81D0020F11D0020E2
:10FD70009DC30020C8D5002075D50020099600201D
:10FD8000EFD20020E31800208C100020781900200A
:10FD9000402C0020011E0020641900207A19002048
:10FDA00040BA030880B483B000AF0346FB800B4623
:10FDB000BB8013467B80FA88BB881344FB807B881A
:10FDC000013B9BB21AB2B7F9063013401BB2FB805D
:10FDD000FB8818460C37BD465DF8047B704780B43D
:10FDE00083B000AF0346FB800B46BB8013467B808D
:10FDF000FA88BB88D31AFB807B88013B9BB21AB27E
:10FE0000B7F9063013401BB2FB80FB8818460C374D
:10FE1000BD465DF8047B704780B400AF114B0022F3
:10FE20009A70104B9A780F4B5A700E4B5A780D4BB4
:10FE30001A700C4B00225A810A4B5A89094B1A81BD
:10FE4000084B1A89074BDA80064BDA88054B9A80F3
:10FE5000044B002283F82C2400BFBD465DF8047BD0
:10FE6000704700BF9019002084B0B0B582B000AFD9
:10FE700007F1180484E80F00354B5B789BB2202211
:10FE800001211846FFF78EFF0346FB80304B00220E
:10FE900083F82C242E4BDA882D4B5B899A4201D3B0
:10FEA00001234DE02A4B1B789BB2FA889A422DD150
:10FEB000274B1A78264B9B789A4201D102233FE0C8
:10FEC000234B1B78224A22495B010B44083302F280
:10FED0000C441D1D0FCD0FC495E80F0084E80F00E2
:10FEE0001B4B012283F82C24194B1B789BB2202238
:10FEF00001211846FFF756FF0346DAB2144B1A7079
:10FF0000134B9B8801339AB2114B9A80104B5B784C
:10FF10000F4A5B01134408331C1D07F118050FCD70
:10FF20000FC495E80F0084E80F00FB88DAB2084B95
:10FF30005A70074BDB8801339AB2054BDA800023F5
:10FF400018460837BD46BDE8B04004B0704700BF52
:10FF50009019002084B0B0B582B000AF07F118044A
:10FF600084E80F00344B1B789BB2202201211846F5
:10FF7000FFF735FF0346FB802F4B002283F82C242C
:10FF80002D4B9B88002B01D101234EE02A4B5B783F
:10FF90009BB2FA889A422ED1274B5B789BB22022E3
:10FFA00001211846FFF71BFF0346BB80224B9B78BD
:10FFB0009BB2BA889A4201D1022336E0BB881E4A1E
:10FFC0001D495B010B44083302F20C441D1D0FCD8B
:10FFD0000FC495E80F0084E80F00174B012283F847
:10FFE0002C24BB88DAB2144B5A70134BDB88013BCC
:10FFF0009AB2114BDA80FB88DAB20F4B1A700E4BB3
:020000040801F1
:100000001B780D4A5B01134408331C1D07F11805CA
:100010000FCD0FC495E80F0084E80F00064B9B88B6
:10002000013B9AB2044B9A80002318460837BD461C
:10003000BDE8B04004B0704790190020B0B483B060
:1000400000AF78600A4B9B787968094A5B011344DA
:1000500008330D461C1D0FCC0FC594E80F0085E832
:100060000F00034B1B8918460C37BD46B0BC7047C8
:1000700090190020B0B584B000AF03463960FB8012
:10008000204B9B88FA889A420AD2FA881D4B9B889B
:100090001D491E4825F00AFF1A4B9B88FB800FE084
:1000A000184BDB88FA889A420AD3FA88154BDB880A
:1000B0001549174825F0FAFE124BDB88013BFB80FF
:1000C000104B9B88FA88D31AFB810E4B1B789BB28E
:1000D000F98920221846FFF765FE0346BB81BB89DC
:1000E0003968084A5B01134408330D461C1D0FCCC8
:1000F0000FC594E80F0085E80F00FB8818461037FD
:10010000BD46B0BD90190020DCBA030878BA0308D8
:10011000ACBA030880B584B000AF03463960FB80F9
:1001200013467B711E4B9B88FA889A420AD2FA8842
:100130001B4B9B881B491C4825F0B8FE184B9B881D
:10014000FB800FE0164BDB88FA889A420AD3FA88C4
:10015000134BDB881349154825F0A8FE104BDB88AC
:10016000013BFB800E4B9B88FA88D31AFB810C4B1A
:100170001B789BB2F98920221846FFF713FE03462D
:10018000BB81BA897B790649D200134406339B00B0
:100190000B443A689A60FB8818461037BD4680BD0C
:1001A00090190020F0BA030878BA0308ACBA030823
:1001B00080B400AF0F4B1B8901330E4A5289934222
:1001C00001DB022310E00B4BDA880A4B5B899A4271
:1001D00009D0084BDB88013B064A12899B1A012B88
:1001E00001DC012300E000231846BD465DF8047BD6
:1001F000704700BF9019002080B582B000AFFFF7B4
:10020000D7FF0346FB71FB79002B11D10B4B9B7879
:100210009BB2202201211846FFF7C4FD0346DAB243
:10022000064B9A70054B1B8901339AB2034B1A8116
:10023000FB7918460837BD4680BD00BF90190020E5
:1002400080B500AF144B1B89002B01D1022320E0A5
:10025000114B9B88002B09D00F4B1B891A460E4B64
:100260009B88D31A022B01DC012312E00A4B9B78F6
:100270009BB2202201211846FFF7B1FD0346DAB2F6
:10028000054B9A70044B1B89013B9AB2024B1A81B1
:100290000023184680BD00BF90190020B0B582B081
:1002A00000AF1C4B1B789BB2202201211846FFF7A0
:1002B00079FD0346FB80174B002283F82C24154B55
:1002C0001A78144B5B789A4201D101231EE0114B3E
:1002D0001B78104A0F495B010B44083302F20C44AF
:1002E0001D1D0FCD0FC495E80F0084E80F00094BCA
:1002F000012283F82C24FB88DAB2064B1A70054BD6
:100300009B8801339AB2034B9A8000231846083722
:10031000BD46B0BD9019002080B400AF0C4B002248
:100320001A600C4B00221A600B4B00221A600B4B18
:1003300000221A700A4B00221A700A4B0A4A1A60ED
:100340000A4B02221A6000BFBD465DF8047B70476D
:10035000141E0020081E0020181E0020201E002051
:100360000C1E00201C1E0020A0860100101E002074
:1003700080B584B000AF0023FB605B4B1B881A463E
:10038000594B5B881344584A92881344BB60FA68FF
:10039000BB68D31A7B60554B1B78002B02D0012B16
:1003A0003CD096E0524B00221A604F4B1B881A46F5
:1003B0004D4B5B881344002B17DD4E4B1A684D4B99
:1003C0001B681B14D31A4B4A1360474B1B881A46F1
:1003D000454B5B881A44474B1B681344454A1360DE
:1003E000444B1B681B14444A1360444B1B78002B7E
:1003F00073D0414B1B680233FB60414B00221A60F3
:10040000404A7B681360394B01221A701EF0F0F8E5
:10041000034603F57A733C4A13605EE0374B1B7862
:10042000002B03D1314B00221A7058E0364B1B6869
:1004300018461EF0EDF80346002B50D001227B68D1
:10044000934204DA01235B427A689A4227DC284B04
:100450001B68C82293420BDA254B1B686FF0C7025A
:10046000934205DD264B1A687B681344244A1360C7
:1004700006227B6803FB02F20221214B1B6803FB6F
:1004800001F31A441F4B1B687968CB1A002101FB4A
:1004900003F31344164A13601A4A7B681360144B23
:1004A0001B68C822934202DDC822114B1A60104B10
:1004B0001B686FF0C702934203DA6FF0C7020C4B60
:1004C0001A601EF095F8034603F57A730E4A13601E
:1004D00005E0064B00221A7002E000BF00E000BFFA
:1004E00000BF1037BD4680BDE0D300200C1E0020A9
:1004F000081E00201C1E0020101E0020201E0020B0
:10050000141E0020181E0020041E002080B400AF1E
:10051000134B00221A70134B00221A70124B002248
:100520001A600F4B1A78114B1A70114B1B68114A45
:100530001360114B00221A70104B4FF07E521A605C
:100540000F4B00221A600A4B1B680E4A13600E4BB9
:1005500000221A7000BFBD465DF8047B704700BFE3
:10056000301E0020281E0020341E00203C1E0020CB
:1005700014C40020381E00202A1E00202C1E00203B
:10058000401E0020241E0020291E002080B52DEDD5
:10059000028BAEB000AF804B1B78022B00F0628262
:1005A000022B00F32F84002B03D0012B19D000F075
:1005B00029BC7A4B1B891AB2794B1A80764B0122DF
:1005C0001A70784B4FF000021A60774B00221A60C5
:1005D000764B774A1A60774B1A78774B1A7000F08F
:1005E00011BC744B1A78744B1B789A4204D06A4B36
:1005F00000221A7000F005BC694BB3F900301A46AE
:10060000664B9B889A4203DC634B00221A70F8E326
:10061000634BB3F900300133604AD288934203DB65
:100620005D4B00221A70ECE3634B1B78002B07D163
:100630005B4BB3F900301A46584B1B899A420BDBCF
:100640005D4B1B78002B0BD0554BB3F900301A468D
:10065000524BDB889A4203DD4F4B00221A70D0E3E5
:100660004F4BB3F900301A464C4B1B899A4240F06D
:1006700044814B4BB3F900309BB207F1680211463D
:100680001846FFF7F7FC03461A46454BB3F900300E
:100690009A4240F0B683424BB3F900309BB2013B23
:1006A0009BB207F1480211461846FFF7E3FC0346E8
:1006B0001A463B4BB3F90030013B9A4240F0A1830C
:1006C0003D4B1B78002B0CD1BB6E3C4A1360FB6E7C
:1006D0003A4A5360BB6C3A4A1360FB6C384A536029
:1006E0000BE0BB6C354A1360FB6C344A5360BB6E45
:1006F000334A1360FB6E324A5360304B93ED007AFD
:100700002F4BD3ED007A77EE677AC7ED107A2B4B3B
:1007100093ED017A2A4BD3ED017A77EE677AC7ED34
:10072000117A284B93ED007A254BD3ED007A77EEC2
:10073000677AC7ED0E7A234B93ED017A204BD3ED08
:10074000017A77EE677AC7ED0F7AD7ED107AF5EE7A
:10075000407AF1EE10FA06D1D7ED117AF5EE407A33
:10076000F1EE10FA30D007F1400207F138031146DC
:10077000184617F01DFAB0EE408A07F1400207F163
:1007800040031146184617F013FAB0EE407AC8EE4F
:10079000077AC7ED2D7A1BE07C0A00209019002013
:1007A0007E0A0020800A0020840A0020880A002097
:1007B000FFFF7F7FF11D0020291E00208C0A0020F2
:1007C000940A00203CC400204FF07E53C7F8B43098
:1007D00097ED107AD7ED2D7A67EE277AC7ED0C7A70
:1007E00097ED117AD7ED2D7A67EE277AC7ED0D7A5E
:1007F000BB4B93ED007AD7ED0C7A77EE277AB84BA6
:10080000C3ED007AB64B93ED017AD7ED0D7A77EE12
:10081000277AB34BC3ED017AB24B93ED007AB04B1C
:10082000D3ED007A77EE677AC7ED107AAD4B93ED92
:10083000017AAB4BD3ED017A77EE677AC7ED117A87
:1008400007F14003184617F0C1F887ED240AA64BBC
:10085000D3ED007AB0EE007A77EE677AC7ED237AAF
:1008600097ED247AD7ED237AB4EEE77AF1EE10FA19
:1008700035DDD7ED247AF5EE407AF1EE10FA2ED080
:10088000D7ED236A97ED247AC6EE877AC7ED227AF0
:10089000934B93ED007AD7ED106AD7ED227A66EE8E
:1008A000A77A77EE277A8F4BC3ED007A8C4B93EDC6
:1008B000017AD7ED116AD7ED227A66EEA77A77EE44
:1008C000277A884BC3ED017A874B93ED007AD7EDF9
:1008D000237A77EE277A844BC3ED007A09E0824BC6
:1008E00093ED007AD7ED247A77EE277A7E4BC3ED2D
:1008F000007A7E4B02221A7083E27D4BB3F90030FE
:100900009BB207F1680211461846FFF7B3FB034696
:100910001A46774BB3F900309A4240F07282744B1A
:10092000B3F900309BB2013B9BB207F1480211467C
:100930001846FFF79FFB03461A466D4BB3F900308C
:10094000013B9A4240F05D826A4B1B78002B0CD130
:10095000BB6E644A1360FB6E624A5360BB6C604AB4
:100960001360FB6C5E4A53600BE0BB6C5D4A136026
:10097000FB6C5C4A5360BB6E594A1360FB6E584A6D
:100980005360584B93ED007A554BD3ED007A77EED8
:10099000677AC7ED0A7A534B93ED017A504BD3ED4A
:1009A000017A77EE677AC7ED0B7A07F128031846CC
:1009B00017F00CF887ED270A4B4BD3ED007AB0EE19
:1009C000007A77EE677AC7ED267A97ED277AD7ED2A
:1009D000267AB4EEE77AF1EE10FA35DDD7ED277A14
:1009E000F5EE407AF1EE10FA2ED0D7ED266A97EDAB
:1009F000277AC6EE877AC7ED257A394B93ED007AD0
:100A0000D7ED0A6AD7ED257A66EEA77A77EE277AD0
:100A1000344BC3ED007A324B93ED017AD7ED0B6A7C
:100A2000D7ED257A66EEA77A77EE277A2D4BC3EDC0
:100A3000017A2D4B93ED007AD7ED267A77EE277A5F
:100A4000294BC3ED007A09E0274B93ED007AD7EDEF
:100A5000277A77EE277A244BC3ED007A234B0222C4
:100A60001A70CEE11F4B93ED007A1D4BD3ED007A47
:100A700077EE677AC7ED087A1A4B93ED017A184B37
:100A8000D3ED017A77EE677AC7ED097AD7ED097A67
:100A9000F1EE677AC7ED067A3B6AFB61164B1B786D
:100AA000002B40F0A881D7ED087AF5EE407AF1EE00
:100AB00010FA07D1D7ED097AF5EE407AF1EE10FA87
:100AC00000F0998107F1200207F120031146184632
:100AD00017F06EF887ED290A0023C7F8B03006E159
:100AE000940A00208C0A0020800A00207C0A002042
:100AF0007E0A0020291E00207E8A0020C44B1A682E
:100B0000C44913469B0013449B000B4493ED007AA9
:100B1000C14BD3ED007A77EE677AC7ED047ABC4B10
:100B20001A68BC4913469B0013449B000B440433D2
:100B300093ED007AB84BD3ED017A77EE677AC7ED83
:100B4000057A07F1200207F110031146184617F045
:100B50002FF8F0EE406A97ED297AC6EE877AC7ED56
:100B6000287AD7ED287AF5EEC07AF1EE10FAC0F2C5
:100B7000B480D7ED287AB7EE007AF4EEC77AF1EEBA
:100B800010FA00F2AA80A44B93ED007AD7ED086A20
:100B9000D7ED287A66EEA77A77EE277AC7ED027A44
:100BA0009D4B93ED017AD7ED096AD7ED287A66EE71
:100BB000A77A77EE277AC7ED037A954B1A6895499D
:100BC00013469B0013449B000B4493ED007AD7ED32
:100BD000027A77EE677AC7ED007A8D4B1A688D49F5
:100BE00013469B0013449B000B44043393ED007A9F
:100BF000D7ED037A77EE677AC7ED017A3B46184660
:100C000016F0E4FE87ED2B0A3A4607F11803114669
:100C1000184616F0CDFFF0EE407AF5EEC07AF1EE10
:100C200010FA05D5D7ED2B7AF1EE677AC7ED2B7A5E
:100C30007A4B1B78002B05D0D7ED2B7AF1EE677A33
:100C4000C7ED2B7A764BB3F900309BB207F16802FF
:100C500011461846FFF70EFA03461A46704BB3F9D1
:100C600000309A4239D197F87030012B05D1D7ED79
:100C70002B7AF1EE677AC7ED2B7A6A4B1B6807EE89
:100C8000903AF8EEE77A9FED687A67EE877A9FED03
:100C9000677A77EEC77A97ED2B7AB4EEE77AF1EEC2
:100CA00010FA1ADDD7ED2B7A9FED607AF4EEC77A51
:100CB000F1EE10FA11D55E4BD3ED007A97ED2B7A59
:100CC000B4EEE77AF1EE10FA07D5594AD7F8AC300E
:100CD00013604F4B1B68574A13604D4B1B68013321
:100CE0004B4A1360D7F8B0300133C7F8B030D7F8AB
:100CF000B030092B08DC504BB3F900301A46444B96
:100D00001B689A423FF7FAAE4B4BB3F900301A46D4
:100D10003F4B1B689A4272DC484BD3ED007A9FED43
:100D2000487AF4EEC77AF1EE10FA46DB404BD3ED89
:100D3000007A9FED3E7AF4EEC77AF1EE10FA38D5DC
:100D40003B4BD3ED007A9FED3F7A77EEC77AC7ED44
:100D50002A7AD7ED2A7AF5EEC07AF1EE10FA03DBA3
:100D60004FF00003C7F8A8302E4B1B6807EE903AEF
:100D7000F8EEE77A9FED2C7A67EE877A97ED2A7A7C
:100D8000B4EEE77AF1EE10FA13DDD7ED2A7A9FED93
:100D90002E7A67EE877AFDEEE77A17EE902A214BDE
:100DA0001A60204B1B68234A12681946274825F011
:100DB0007DF8274B00221A7021E0184B1B78002B7E
:100DC00009D1174BB3F900309BB201339BB21AB271
:100DD000134B1A8008E0124BB3F900309BB2013B71
:100DE0009BB21AB20E4B1A80194B01221A70084B93
:100DF00000221A6003E0164B00221A7002E000BFC6
:100E000000E000BF00BFB837BD46BDEC028B80BD1F
:100E1000840A0020583C0020940A0020291E00204B
:100E20007E0A0020341E00206F12833A6666E63E7A
:100E3000880A00209C0A0020262C0020800A00201E
:100E4000A470FD3F9A99993E00007A4408BB0308BC
:100E50007C0A0020F0B589B004AFFFF797FBAF4BD9
:100E60001B6807EE903AB8EEE77AAD4B03F5866360
:100E7000D3ED007AB4EEE77AF1EE10FA0AD5A84B7A
:100E800003F58663D3ED007AFDEEE77A17EE902A3C
:100E9000A24B1A60A34B1B78022B00F01F81022B80
:100EA00000F33881002B02D0012B25D032E19B4B7F
:100EB00000221A609C4B4FF07E521A609B4B1B78AD
:100EC000002B00F04F819A4B1B68944A1360984B9B
:100ED00000221A60964B1B681946964824F0E6FFDC
:100EE000904B01221A70944B1B68944A1360924BEA
:100EF0001B68934A136035E1924B5B68FB608E4B35
:100F000093ED007A8D4BD3ED007A77EE677AC7EDDB
:100F1000027A894B93ED007A894BD3ED007A77EE14
:100F2000677AC7ED017A874BD3ED027A97ED037AA2
:100F3000B4EEE77AF1EE10FA02D5824B9B68FB60C3
:100F4000804BD3ED037A97ED037AB4EEE77AF1EEB6
:100F500010FA02D57B4BDB68FB60FB683B606F4B94
:100F60001B68002B53DAD7ED027AB0EE007AF4EE6C
:100F7000C77AF1EE10FA04DD6B4B4FF07E521A6027
:100F800014E0D7ED027AF5EEC07AF1EE10FA09DD41
:100F900097ED027AF0EE006AC7EE267A624BC3ED57
:100FA000007A03E0604B4FF07E521A60D7ED017A71
:100FB000B7EE007AF4EEC77AF1EE10FA27DD624B55
:100FC0001B78002B23D1554B1B681933534A1360F0
:100FD000524B1B68002B0BDB504B00221A607868C9
:100FE00024F0C6FA02460B46584824F05FFF0AE098
:100FF0004A4B1C68786824F0BBFA02460B4621462F
:10100000534824F053FF4C4B1B684D4A1360474B29
:101010001B78002B03D1434B00221A70A4E04A4BEB
:101020001B78002B2DD0D7ED007A9FED4A7A77EE12
:10103000C77A9FED497AF4EEC77AF1EE10FA20DD17
:10104000384B02221A70F86824F092FA04460D46D2
:10105000324B1E68384B93ED007A384BD3ED007A53
:1010600077EE677A17EE900A24F082FA02460B4672
:10107000CDE90223009622462B46384824F016FF7D
:1010800072E0314B1B78002B6ED02B4B1B682B4A28
:101090001360294B1B682A4A1360F86824F068FA29
:1010A00004460D461D4B1E68234B93ED007A234BDF
:1010B000D3ED007A77EE677A17EE900A24F058FAAB
:1010C00002460B46CDE90223009622462B462448D1
:1010D00024F0ECFE1C4B00221A7045E01A4B002253
:1010E0001A70124B1B78002B03D10E4B00221A7082
:1010F0003BE00C4B01221A70084B1B68643B074A0B
:1011000013600D4B1B680D4A13600B4B1B680C4A98
:1011100013602AE0034B00221A7026E0341E0020E0
:1011200088CE0020301E00202C1E0020281E00200B
:10113000401E002050BB030814C40020381E0020AD
:10114000241E00202C2700202A1E002084BB030818
:10115000C0BB0308CDCCCC3DCDCCCCBE0CBC030871
:1011600080BC030800BF00E000BF0D4B00221A70D6
:101170000C4B1A780C4B1B789A420CD00A4B1B78FC
:101180001946084B1B781A46084824F08FFE054B79
:101190001A78054B1A7000BF1437BD46F0BD00BF6A
:1011A0002A1E0020301E00203C1E0020FCBC03082C
:1011B00080B400AF034B01221A7000BFBD465DF83A
:1011C000047B70472A1E002080B400AF1A4B002217
:1011D0001A701A4B00221A70194B00221A70194B00
:1011E0004FF000021A60184B4FF000021A60174BC4
:1011F0004FF000021A60154B4FF07E525A60144BAC
:101200004FF000021A60124B4FF000025A60114B6F
:101210004FF07C521A60084B1A780F4B1A700F4B24
:1012200000221A700E4B93F871200E4B1A7000BFFB
:10123000BD465DF8047B7047641E0020941E0020AC
:10124000761E0020701E0020901E0020681E0020C8
:101250004C1E0020601E0020751E0020841E0020F1
:10126000402C0020741E002080B52DED028B90B024
:1012700000AFB04B1B7803F00403002B14BF012315
:101280000023DBB287F83F30AB4AAC49AC4816F0DC
:10129000C0FBA94816F0ACFCF0EE407AA94BC3EDB8
:1012A000007AA94B1B78052B00F21F8201A252F88D
:1012B00023F000BFCD120108011301081914010821
:1012C0009D150108A1160108CD160108002005F0A2
:1012D000CDF99E4B00221A709D4B4FF000021A6010
:1012E0009C4B4FF000021A609B4B00221A709B4BE4
:1012F0001B78002B00F0FD81934B02221A70F8E15D
:10130000002005F0B3F9954B1B78002B02D18E4BD2
:1013100000221A70924B1B78002B02D08A4B0422B9
:101320001A70904B1B78002B4ED184498E4800F0E8
:1013300043FB07F128031A4680498B4816F069FBE6
:101340008A4BD3ED007AF1EE677AC7ED087A884BC5
:101350001B687B6297ED0A7AD7ED087A27EE277A29
:10136000D7ED0B6AD7ED097A66EEA77A37EE278AB2
:1013700007F12803184616F029FBF0EE408A07F122
:101380002003184616F022FBF0EE407A28EEA77AEA
:10139000C8EE077AC7ED0E7AD7ED0E7AF5EEC07A71
:1013A000F1EE10FA03DD002000F0F0FA02E0012077
:1013B00000F0ECFA654B01221A70674B1B78013381
:1013C000DAB2654B1A7007E0664B1B78012B03D12C
:1013D000684B1B685F4A1360624B1B78022B05D178
:1013E0005A4B00221A70584B02221A703B4618467C
:1013F000FEF724FEBB7A07EE903AB8EEE77A5E4B32
:10140000D3ED007A67EE277A9FED5C7A67EE877AF4
:101410004F4BC3ED007A71E1504B1B78002B02D18A
:10142000494B00221A704E4B1B78002B02D0464BC2
:1014300004221A70524B1B78002B17D0464B1B7896
:10144000032293420CD2444B1B780133DAB2424B55
:101450001A703D4B01221A703C4B00221A7005E0B5
:10146000394B05221A70474824F082FD3D4B1B780A
:10147000002B09D13249314800F09EFA012000F0DA
:1014800085FA324B01221A70364B1B78022B2CD175
:101490002F4B4FF000021A602C4B00221A702A4B7F
:1014A00003221A701DF0A4F8034603F5EA43303313
:1014B000354A13601DF09CF8034603F59C5308332E
:1014C000324A13601DF094F8034603F5FA63304A7C
:1014D00013601DF08DF8034603F59C4320332D4A1D
:1014E00013602D4824F044FD07E01E4B1B78012BB0
:1014F00003D1204B1B68174A13603B461846FEF782
:101500009DFDBB7A07EE903AB8EEE77A1A4BD3ED21
:10151000007A67EE277A9FED197A67EE877A0C4B8F
:10152000C3ED007A07F130031A460F49044816F05C
:1015300070FAE3E0FDC20020541E0020681E002067
:101540004C1E00208C1E0020641E0020941E0020D3
:10155000701E0020901E0020841E00205C1E0020B3
:10156000481E0020F41E00203CC400202CC4002093
:1015700074CE0020981E0020B81E00200AD7233CFD
:101580007610002030BD0308781E0020801E002049
:10159000441E0020881E002068BD03087E4B4FF0CB
:1015A00000021A607D4B4FF000021A607C4B1B78E2
:1015B000002B3DD07B4B1B6818461DF029F80346D5
:1015C000002B25D097F83F30002B0ED0764B1B68B0
:1015D00018461DF01DF80346002B06D0734B04225D
:1015E0001A70734824F0C4FC39E097F83F30002BA0
:1015F00035D1704B1B6818461DF00AF80346002BC6
:101600002DD06A4B04221A706B4824F0B1FC26E0FE
:101610001CF0EEFF034603F5FA63634A13601CF007
:10162000E7FF034603F59C432033624A136016E04C
:101630001CF0DEFF034603F59C530833594A136040
:101640001CF0D6FF034603F5FA63574A13601CF0FB
:10165000CFFF034603F59C432033564A1360574B94
:101660001B6818461CF0D4FF0346002B43D0544B94
:101670001B78032293420CD2514B1B780133DAB210
:101680004F4B1A70494B01221A704E4824F070FCDF
:1016900031E0464B05221A704B4824F069FC2AE0E1
:1016A0003D4B4FF000021A603C4B4FF000021A60B5
:1016B000002004F0DBFF454B00221A70444B1B78DE
:1016C000002B1AD1394B00221A7016E0324B4FF022
:1016D00000021A60314B4FF000021A60334B0422B3
:1016E0001A7008200FF0FCF908E0304B00221A7045
:1016F00004E000BF02E000BF00E000BF354BD3EDC7
:10170000007AB1EE677A244BD3ED007AB4EEE77A33
:10171000F1EE10FA07DD2F4BD3ED007AF1EE677A88
:101720001D4BC3ED007A1C4B93ED007A294BD3ED92
:10173000007AB4EEE77AF1EE10FA03DD254B1B6870
:10174000154A1360244B1B78012B03D0234B1B78C5
:10175000002B03D0104B4FF000021A60204B93F87F
:101760007120204B1A70114B1A781F4B1B789A422C
:101770000CD01D4B1B7819460C4B1B781A461B4886
:1017800024F094FB094B1A78174B1A7000BF4037AE
:10179000BD46BDEC028B80BD701E0020901E002057
:1017A0000EC30020801E0020441E0020641E002066
:1017B000B0BD0308881E0020DCBD0308781E002091
:1017C000841E002008BE030828BE0308481E00200F
:1017D0005C1E0020601E0020761E0020B7980020AE
:1017E000402C0020741E0020751E002060BE0308DF
:1017F00080B485B000AF78607B6893ED007A7B6839
:10180000D3ED017A77EE677AC7ED027A7B68D3ED84
:10181000077AF5EE407AF1EE10FA7ED07B6893ED10
:10182000057AD7ED027A77EE277A7B68C3ED057AE1
:101830007B6893ED007A7B68D3ED087A27EE277AF0
:101840007B68D3ED066AD7ED027A66EEA77A37EEAB
:10185000277A7B68D3ED056A7B68D3ED077A66EE5D
:10186000A77A77EE277AC7ED037A7B68D3ED047AFF
:1018700097ED037AB4EEE77AF1EE10FA21DD7B689A
:1018800093ED047A7B68D3ED006A7B68D3ED087A28
:1018900066EEA77A37EE677A7B68D3ED066AD7EDF6
:1018A000027A66EEA77A77EE676A7B6893ED077A2D
:1018B000C6EE877A7B68C3ED057A7B681B69FB609F
