:1000000008940000567CFFFFFFFFFFFFFFFFFFFF8C
:10001000FFFFFFFFFFFFFFFFFFFFFFFFFFFFFFFFF0
:10002000FFFFFFFFFFFFFFFFFFFFFFFFFFFFFFFFE0
:10003000FFFFFFFFFFFFFFFFFFFFFFFFFFFFFFFFD0
:10004000FFFFFFFFFFFFFFFFFFFFFFFFFFFFFFFFC0
:10005000FFFFFFFFFFFFFFFFFFFFFFFFFFFFFFFFB0
:10006000FFFFFFFFFFFFFFFFFFFFFFFFFFFFFFFFA0
:10007000FFFFFFFFFFFFFFFFFFFFFFFFFFFFFFFF90
:10008000FFFFFFFFFFFFFFFFFFFFFFFFFFFFFFFF80
:10009000FFFFFFFFFFFFFFFFFFFFFFFFFFFFFFFF70
:1000A000FFFFFFFFFFFFFFFFFFFFFFFFFFFFFFFF60
:1000B000FFFFFFFFFFFFFFFFFFFFFFFFFFFFFFFF50
:1000C000FFFFFFFFFFFFFFFFFFFFFFFFFFFFFFFF40
:1000D000FFFFFFFFFFFFFFFFFFFFFFFFFFFFFFFF30
:1000E000FFFFFFFFFFFFFFFFFFFFFFFFFFFFFFFF20
:1000F000FFFFFFFFFFFFFFFFFFFFFFFFFFFFFFFF10
:10010000FFFFFFFFFFFFFFFFFFFFFFFFFFFFFFFFFF
:10011000FFFFFFFFFFFFFFFFFFFFFFFFFFFFFFFFEF
:10012000FFFFFFFFFFFFFFFFFFFFFFFFFFFFFFFFDF
:10013000FFFFFFFFFFFFFFFFFFFFFFFFFFFFFFFFCF
:10014000FFFFFFFFFFFFFFFFFFFFFFFFFFFFFFFFBF
:10015000FFFFFFFFFFFFFFFFFFFFFFFFFFFFFFFFAF
:10016000FFFFFFFFFFFFFFFFFFFFFFFFFFFFFFFF9F
:10017000FFFFFFFFFFFFFFFFFFFFFFFFFFFFFFFF8F
:10018000FFFFFFFFFFFFFFFFFFFFFFFFFFFFFFFF7F
:10019000FFFFFFFFFFFFFFFFFFFFFFFFFFFFFFFF6F
:1001A000FFFFFFFFFFFFFFFFFFFFFFFFFFFFFFFF5F
:1001B000FFFFFFFFFFFFFFFFFFFFFFFFFFFFFFFF4F
:1001C000FFFFFFFFFFFFFFFFFFFFFFFFFFFFFFFF3F
:1001D000FFFFFFFFFFFFFFFFFFFFFFFFFFFFFFFF2F
:1001E000FFFFFFFFFFFFFFFFFFFFFFFFFFFFFFFF1F
:1001F000FFFFFFFFFFFFFFFFFFFFFFFFFFFFFFFF0F
:10020000701C0020D94600002D4700002D4700003B
:100210002D4700002D4700002D4700000000000082
:100220000000000000000000000000002D4700005A
:100230002D470000000000002D47000089930000BA
:100240002D4700002D4700002D4700002D470000DE
:100250002D4700002D4700002D4700002D470000CE
:100260002D4700002D4700002D4700002D470000BE
:100270002D4700002D4700002D4700002D470000AE
:100280002D4700002D4700002D4700002D4700009E
:100290002D4700002D4700002D4700002D4700008E
:1002A0002D4700002D4700002D4700002D4700007E
:1002B0002D4700002D4700002D4700002D4700006E
:1002C0002D4700002D4700002D4700002D4700005E
:1002D0002D4700002D4700002D47000079A10000A8
:1002E0002D4700002D470000DDA300005DA40000A5
:1002F0002D4700002D4700002D4700002D4700002E
:100300002D4700002D4700002D4700002D4700001D
:100310002D4700002D4700002D4700002D4700000D
:100320002D4700002D4700002D4700002D470000FD
:100330002D470000499300002D4700002D47000085
:100340002D4700002D4700002D4700002D470000DD
:100350002D4700002D4700002D4700002D470000CD
:100360002D470000E9A100002D4700002D470000A7
:100370002D4700002D4700002D4700002D470000AD
:100380002D4700002D4700002D4700002D4700009D
:100390002D4700002D4700002D4700002D4700008D
:1003A0002D4700002D4700002D4700002D4700007D
:1005F0002D4700002D4700002D470000FFFFFFFFA3
:10060000FFFFFFFFFFFFFFFFFFFFFFFFFEFFFFFFFB
:1006100010B5054C237833B9044B13B10448AFF33C
:1006200000800123237010BD080D00200000000091
:10063000E8C8000008B5064B1BB106480649AFF3F1
:1006400000800648036813B1054B03B1984708BD05
:1006500000000000E8C800000C0D0020040D002080
:1006600000000000154B002B08BF134B9D46A3F55F
:10067000803A00218B460F461348144A121A07F09D
:100680009CFC0F4B002B00D098470E4B002B00D04A
:1006900098470020002104000D000D48002802D0DA
:1006A0000C48AFF3008007F059FC2000290000F04F
:1006B00041F807F03FFC00BF00000800701C00205C
:1006C0000000000000000000080D00206C14002055
:1006D000000000000000000072B60E480E490F4AEC
:1006E0004FF008033BB140F8042B41F8042BA3F171
:1006F0000103FFF7F7BF00F083F862B60849094A23
:10070000094B9A42BEBF51F8040B42F8040BF8E7BC
:10071000FFF7A8FF80E100E080E200E0FFFFFFFFBD
:1007200010C9000010000020080D0020FEE700BFE7
:10073000704700BF70B544F6206300BF013BFCD199
:100740002A4B2B4A2B4C2C4D41F2380041F23C01F4
:100750001E5846F478561E50585840F00200585023
:10076000136843F00203136044F62063A56000BFE2
:10077000013BFCD172B605F0A1FB05F08BF805F04A
:100780003DF805F093F905F0ABFE05F0EBFB05F045
:100790007FFD05F015FF05F0F1FF06F019F906F0F1
:1007A00077F906F091F906F005FD06F0E3FD06F095
:1007B000CBFE07F0B1F807F019FA62B605F08AFC33
:1007C00005F050FD0028FBD005F0CEFE05F0EAFD57
:1007D00005F0FEF804F0C4FA084D4FF0005400F0A4
:1007E0008FF9C5F8044105F0F5F8F8E7007004400A
:1007F0004080044000ED00E00042000000E100E025
:100800002DE9F00F2C4C2D4BD4F888802C48DFF8C4
:10081000C4C02C4F2C492D4A2D4D48F4700841F28C
:100820004406C4F888804CF2205B4DF6281A4FF439
:10083000E9794FF0A008A0F80EB041F20404A0F846
:100840000EA0A0F800908CF800809F51185920F459
:10085000803018511C6841F2380044F440241C6078
:100860001C5844F400741C508B6C23F0807323F4E8
:10087000E0638B64CB6C23F0807323F4E063062089
:10088000CB641070507800F0400040F024008023CA
:10089000C0B2E0215070D1702B70137B03F0FC03C9
:1008A00013739379DB06FCD5084A937913F00C0F88
:1008B000FBD1BDE8F00F704700ED00E00070044090
:1008C0000020054000000303009004400040064063
:1008D0000050064000E007402DE9F00F154C23883A
:1008E000072B04D94FF6FF70BDE8F00F7047DFF813
:1008F00048B003EB43084FEA081803F1010C0BEB77
:1009000008051FFA8CFC2BF808C000274FF000499F
:100910004FF6FF78A870A4F800C018466F732974CA
:10092000C5F80490A5F808806A82AF82BDE8F00F90
:10093000704700BFA40E0020240D002010B4154CF9
:100940002488844203D213205DF8044B7047124C74
:1009500000EB4000002904EB001017DB082B03D943
:100960000A205DF8044B70470124447321F0604471
:1009700011F0005118BF01214460817202B10122BF
:100980008375C2725DF8044B0020704700244473E5
:10099000ECE700BFA40E0020240D002000B50E4B94
:1009A0001A88824283B003D2132003B05DF804FB9F
:1009B0000A4A00EB400302EB0313998219B10020AD
:1009C00003B05DF804FB019103F010FA01990846A9
:1009D00003B05DF804FB00BFA40E0020240D00202E
:1009E000064B1B88834201D213207047044B00EB57
:1009F000400003EB0013002058737047A40E002042
:100A0000240D0020054B1B88834223BF044B00EBC1
:100A1000400003EB00100020704700BFA40E002030
:100A2000240D00201A4B1B8870B47BB3013B194A7C
:100A300004689DB205EB450502F1300303EB051593
:100A400002F10D0304E03032AA4203F130031AD060
:100A500053F8091CA142F6D1867913F8031C8E4283
:100A6000F1D1517B0129EED113F80B1C012908D0DB
:100A70000029E8D1C1790129E5D113F8021C012927
:100A8000E1D1104600E0002070BC70471846FBE73B
:100A9000A40E0020240D0020094B188810B460B16A
:100AA000002308491A461C46013390429AB228BFD7
:100AB0004C73904201F13001F6D85DF8044B704759
:100AC000A40E0020240D0020F0B40C4E0023374665
:100AD000F458844207EB030503F1080306D86C6859
:100AE000A04203D8884206D3904204D8402BEFD1CD
:100AF0000020F0BC70470120F0BC704780C00000AF
:100B000010B5234C237888B0A3B9224B1A7862B968
:100B1000214B1A781AB100221A7000F061FC03F020
:100B20001BF904F03DFB08B010BD00221A7003F061
:100B300063FFEDE7684602F0A7FF98B19DF81C300F
:100B4000052BE2D801A252F823F000BF894B000028
:100B50000B4B0000814B0000794B0000714B0000F3
:100B6000694B00002070D0E7684602F0D1F9CCE76D
:100B7000684602F0ABF9C8E7684600F05FFAC4E7E0
:100B8000684600F055FEC0E7684603F065FABCE72A
:100B9000B40E0020A70E0020A90E002001280BD0C3
:100BA00006D3022803D1064B01221A707047704702
:100BB000044B01221A707047034B1870704700BF36
:100BC000A90E0020A70E0020B40E00202DE9F84F3A
:100BD000DFF8DC800746002466003319344918F832
:100BE0000320BA4204D001340C2CF5D1BDE8F88FB3
:100BF0000B4493F80290B9F1030F1ED0DFF8C8A0A0
:100C00009AF800304B4516D0B9F1000F3FD0294B70
:100C10001D784DB1DFF8B4B0013DEDB248465BF848
:100C200025309847002DF7D1B9F1010F37D031D3D6
:100C3000B9F1020F26D08AF800903444A04498F805
:100C40000130012B03D0022B17D0BDE8F88F1A4BCF
:100C50001A78BA42F9D01F70002FF6D0174B1C78C3
:100C6000002CF2D0164D013CE4B2384655F8243041
:100C70009847002CF7D1BDE8F88F124B1A78BA428A
:100C8000E9D1E2E74846012100F0FEFCD3E700F09D
:100C900083FABCE70620012100F0F6FCCBE7062032
:100CA000002100F0F1FC0220002100F0EDFCC2E781
:100CB000C0C00000A80E002011000020B50E0020CA
:100CC000B00E002010000020A60E0020AC0E002068
:100CD000F0B52F4C237813F0FE0218BF43F0010348
:100CE00083B00CBF2270237006460F4600F004FE4E
:100CF0007F2804D0052802D01A2003B0F0BD237845
:100D00008DF8006016F47F4F18BF43F00103320ADC
:100D10008DF802308DF80120002300AA1A44FC5CF3
:100D2000D4700133052BF8D11A4B6946188800227C
:100D300002F02CFF002EE0D0DFF860C09CF800101D
:100D4000042919D94B1EDBB2134C5A1E042B9CBF2D
:100D500054F8225044F8235012F0FF03F5D13B78A9
:100D60007A781B0643EA02431E4304292660C4D84E
:100D700001318CF80010C0E709B10B46E4E73A787E
:100D80007C78054B120642EA044216431E60EFE7E8
:100D9000B60E0020BA0E0020C80E0020C40E00209F
:100DA000F8B50C4B1C7805460E466CB10A4F00E0B6
:100DB00054B1013CE4B2284657F8243031469847F4
:100DC0000028F5D01F20F8BD28463146BDE8F84080
:100DD000FFF77EBFC50E0020BC0E0020A0F580509E
:100DE000013814281CD8DFE800F00B1B111B1B1B5B
:100DF0001B1B1B1B1B1B1B1B1B1B1B1B1B0F0D0078
:100E000009487047094870470948704751B1094B74
:100E10001B788B4204D3084B481E03EB80007047BD
:100E20000020704703487047B60E0020B80E00201F
:100E3000C00E0020C40E0020C80E002008B541F2EC
:100E40001403984201D0002008BD094B1B689A4248
:100E5000F9D0002A03DB002B01DB0A2008BD812129
:100E600010460A46FFF730FE0128ECD1F5E700BF37
:100E7000C00E002041F21403984214D041F2150331
:100E800098420AD041F20303984201D000207047F3
:100E9000094B00221A7000207047084A084B10883E
:100EA0001988FFF77BBD054A064B10881968002298
:100EB0000823FFF743BD00BFC40E0020BA0E002078
:100EC000B80E0020C00E002008B10A20704700298B
:100ED0000CBF00200A207047034A044B1088196891
:100EE00000220823FFF72ABDBA0E0020C00E002002
:100EF00010B582B000F0FAFC124C00F18003002122
:100F000041F2140001AA236001F026FB10B9019BF5
:100F1000002B11DB41F2150000210DF1020201F05E
:100F2000E3FA38B9084A094BBDF802101088198055
:100F3000FFF734FD02B010BD236843F00043236087
:100F4000E8E700BFC00E0020BA0E0020B80E002057
:100F500008B5002002460821FFF7BEFC044A4FF600
:100F6000FF73108098420CBF1320002008BD00BF03
:100F7000BA0E00202DE9F0418700144E3C1806EB14
:100F8000C4040546204603F0FFFC628C208C60837D
:100F900002F07F02227702B158B93D4406EBC50644
:100FA0004FF00041308B00220123BDE8F041FFF7F4
:100FB000C5BC02F5E061208B00220123FFF7BEFCD7
:100FC000002384F82430BDE8F08100BF000F00202A
:100FD00000B583B000F090FC02A9054B01F8080DA4
:100FE00000226946188802F0D1FD03B05DF804FBC9
:100FF000FC0E002010B50E4B1C8882B08CB1012372
:101000004FF47A7101FB04F100930A4A0A48002365
:1010100003F080FC04460020FFF7DAFF204602B010
:1010200010BD054803F0B0FC204602B010BD00BF63
:10103000FE0E0020D14F0000DC0E00202DE9F04311
:10104000C37A012B83B0044620D0037C012B02D04D
:1010500003B0BDE8F083037F032B24D0437C002B37
:10106000F6D1494B46681C7806F07F06002CEFD07D
:10107000464D013CE4B2304655F8243000217F2231
:101080009847002CF5D103B0BDE8F08300F02EFCAA
:10109000636800F5E0608342DAD1002003B0BDE868
:1010A000F043FFF795BFC28B3949437C02EB8202C4
:1010B00001EBC207042B97F824801AD047D9052BDF
:1010C00017D07F2B15D0002687F82460B045BFD0FD
:1010D0002D4B3F7F1C78002CBAD02C4D013CE4B244
:1010E000384655F82430012132469847002CF5D176
:1010F000AEE787F82430384603F060FC798B254A48
:10110000044600234FF47A7000FB01F10093384647
:101110003B4603F0FFFBBCB91B4B3E7F1C7897F8A6
:10112000249054B1194D013CE4B2304655F82430B6
:1011300002214A469847002CF5D10320002100F0F7
:10114000A3FA97F82460C1E797F82460BEE7002B64
:10115000B9D10D4B97F81C801C787F2687F8246046
:101160007CB10A4D013CE4B2404655F824300021E0
:101170007F229847002CF5D197F824604FF07F0824
:10118000A4E7B046A2E700BF280F0020F80E002019
:10119000000F0020C951000008B500F0ADFB052884
:1011A00000D008BD074B197839B10229F9D10420C4
:1011B0000021BDE8084000F0ABBA7F20BDE8084040
:1011C00000F0A6BAF40E002070B5144B057F1C7811
:1011D00082B054B1124E013CE4B2284656F8243095
:1011E000032100229847002CF5D10023694648F2DC
:1011F00030108DF800308DF801308DF802308DF808
:1012000003308DF80430FFF7CBFD0320012100F0FF
:101210003BFAFFF7C1FF02B070BD00BF280F0020EE
:10122000F80E002041F21703984213D041F229032F
:1012300098420DD041F21603984201D00020704729
:10124000054B013901EB810103EBC10020307047F0
:101250000248704702487047000F0020F40E00203B
:10126000FE0E002038B5C1F306440546A4B188B28D
:1012700000B938BD00F03AFBA0420FD0012D03D0D9
:10128000074B1A7FA24201D0002038BD5B8B002B98
:1012900014BF0220002038BD204638BD022038BDD2
:1012A000000F002041F21603984207D041F21703C5
:1012B000984201D1FFF79EBE00207047481EC0B281
:1012C000FFF758BE10B4084B1A7822B11922104605
:1012D0005DF8044B7047054C0121197020601046E1
:1012E0005DF8044B704700BF280F0020F80E002067
:1012F00030B583B000F0FAFA0A4D0122134600F52A
:10130000E0612888FFF71AFB02A9002401F8084DC4
:1013100022466946288802F039FC2046FFF72AFE5B
:1013200003B030BDFC0E002000B583B041F21700C1
:1013300000210DF1020201F0D7F818B90B4BBDF8EE
:1013400002201A8041F21600012101AA01F004F9DD
:1013500010B9074A019B13620121064A41F2290094
:1013600001F08EF803B05DF804FB00BFFE0E002014
:10137000000F0020F40E0020F8B5044600200246BD
:101380000E460321FFF7A8FA4FF6FF77104AB8423E
:10139000108013D00F4B1C8096B10F4D002401E03C
:1013A0009E420DD90120A2B203210444FFF794FA12
:1013B000B8422883E3B205F12805F1D11320F8BD26
:1013C0000121064A41F2290001F05AF80020F8BD37
:1013D000FC0E0020FE0E0020000F0020F40E002066
:1013E000074A38B513680025156043B15A681C6870
:1013F0001D600AB1986890470CB12346F6E738BDE6
:101400002C0F0020014B00221A6070472C0F002087
:101410002DE9F047334FDFF8DC903A78324E99F8F7
:101420000130717812F001023DD1B078746899F8FA
:10143000005096F803C00444062D647800F10100C2
:10144000C0B20CBF98464FF00008002C0CBF0D46F0
:1014500001258445B07043D098450FD0234B1C78AC
:1014600054B1DFF894A0013CE4B240465AF824306D
:101470009847002CF7D1717889F801808D420DD002
:101480001B4B1C784CB1DFF87480013CE4B2284659
:1014900058F824309847002CF7D175703B78013309
:1014A0003B70BDE8F08799F80220D9F80400357840
:1014B00099F803401044062D407802F10102D2B29F
:1014C0000CBF0D46002500280CBF98464FF00108C0
:1014D000944289F8022004BF002289F80220BBE769
:1014E000B270B9E75C0F0020600F0020540F00209D
:1014F0005D0F0020680F0020500F0020580F0020C3
:1015000010B50A4B0A4A82B001244CF2503101282E
:1015100008BF194600940023064803F0FBF9064A69
:10152000064B147000221A7002B010BD400D03006B
:1015300011540000340F0020300F00205C0F0020F9
:1015400070B5204C2378012B054630D01E4E05EB9C
:1015500045035B001D4A2570D1180020D35C6160F3
:10156000E370A0702DB91A4B1B7863B1337883B147
:1015700070BD3378012BFBD0012D18BF0120BDE8D1
:101580007040FFF7BDBF134803F0FEF9124B3570F2
:101590001D70124B1C78002CEAD0114D013CE4B2B6
:1015A000002055F824309847002CF7D170BD094829
:1015B000054E03F0E9F90849054A002333700B7022
:1015C0001370C4E7680F0020300F0020ECC000004B
:1015D000600F0020340F00205C0F0020540F00200B
:1015E000500F002070B5204C2378012B054630D0D9
:1015F0001E4E05EB45035B001D4A2570D1180020E7
:10160000D35C6160E370A0702DB91A4B1B7863B195
:10161000337883B170BD3378012BFBD0012D18BF17
:101620000120BDE87040FFF76BBF134803F0ACF931
:10163000124B35701D70124B1C78002CEAD0114DE6
:10164000013CE4B2002055F824309847002CF7D133
:1016500070BD0948054E03F097F90849054A002373
:1016600033700B701370C4E7600F0020300F002040
:10167000ECC00000680F0020340F00205C0F002039
:101680005D0F0020580F0020012910B4114B1AD013
:101690001A68012101FA00F022EA0000186070B116
:1016A0000D4C0723013BDBB2E25C20FA02F1C907D3
:1016B00004D4002BF6D15DF8044B704710465DF85A
:1016C000044BFFF78FBF1A6801FA00F0104318604F
:1016D000E5E700BF4C0F0020E4C0000008B5002083
:1016E000FFF72EFF0020BDE80840FFF77BBF00BFDB
:1016F00008B5FFF787FE4FF4005049F6FF7101F07F
:1017000005F8032003F046F8BDE8084002F07ABB74
:101710002DE9F041254F3B788342054603D001294E
:1017200003D0052B01D0BDE8F081052D22D0042D7A
:101730003D7019D07F2D1AD10520FFF701FFDFF88A
:10174000748098F800404CB1194E013CE4B201207D
:1017500056F8243029469847002CF6D1052D21D083
:10176000BDE8F04101F0F0BE0220FFF7E9FEDFF82E
:101770004480E6E7DFF83C8098F8004064B10C4E06
:1017800000E04CB1013CE4B2002056F824300521C1
:1017900098470028F5D0C6E7052306203B70FFF7E1
:1017A000CFFECEE7BDE8F04101F0B2BE130000204D
:1017B000740F0020700F002038B504F071F9194B38
:1017C000194C1870FFF768F9184B00210A46188861
:1017D000802502232570FFF7B1F841F6FF714FF421
:1017E000805000F093FF02F06BFF01F01DFFFFF748
:1017F0009BFDFFF77DFB022002F0CCFF02F02AFFE9
:1018000001F0B8FE81200121FFF782FF01217F2036
:10181000FFF77EFFFFF76CFDFFF75EFBFFF7EAFBCC
:10182000002038BD1200002013000020720F00209D
:10183000436810B504465BB9037C022B13D010BD7E
:1018400081292AD0822937D1FFF7B6FF78B36368A0
:10185000B3F5E06FF3D9237C012BF0D12046BDE82E
:101860001040FFF7EBBB154A837C12789A4201D0F7
:10187000002BE4D1617C802919D0E1D8012907D05F
:1018800002291AD104200121FFF742FF6368DFE734
:101890000520FFF73DFF6368DAE780200121FFF7AD
:1018A00037FFFFF725FFFFF787FF0028CFD17F2005
:1018B0000121FFF72DFFCAE710BD10BD1200002067
:1018C00010B4084B1A7822B1192210465DF8044B67
:1018D0007047054C01211970206010465DF8044BDB
:1018E000704700BF700F0020740F0020014B187864
:1018F000704700BF12000020014B1878704700BFEE
:101900001300002008B560B1002002460221FEF756
:10191000E3FF084B18804FF6FF73984204D1132061
:1019200008BD02460120F1E7FFF7E2FEFFF744FFA2
:10193000002008BD720F002003463F2900F2CA8034
:10194000DFE811F0A800C800A3009E00C8009900BD
:10195000C800C800C8009400C8008F00C800C800B4
:10196000C800C800C800C800C800C800C800880077
:10197000C80083007B00C80076006E00C8006900C4
:1019800064005F005800BF0050005000C800C8004D
:101990004400440044004000400040005400540013
:1019A000AD00AD004C004C004C00C800C800480021
:1019B00048004800C800C800C800C800B100B50011
:1019C000C800BA001088194601F052BC10881946A8
:1019D00001F02EBB10881946FFF700BA108819468F
:1019E000FFF720BC1088194602F068BD1088194620
:1019F00001F04CBB384B186838B1138850F82300FD
:101A00007047364B18680028F7D17047344B186878
:101A10000028F2D1F9E7334B18680028EDD1F4E73C
:101A2000314B18680028F0D0138800EB8300704712
:101A30002E4B18680028E0D1E7E72D4B18680028E6
:101A4000E3D0138800EB430070472A4B1868002846
:101A5000D3D1DAE7284B18680028D6D01388184469
:101A60007047264B18680028C7D1CEE7244B18686A
:101A70000028D9D1C9E7234B18680028BDD1C4E795
:101A8000214B18680028DCD1BFE7204B18680028DC
:101A9000B3D1BAE71E4B18680028DFD1B5E710882C
:101AA000194601F00DBC1088194602F0B5BE194B5D
:101AB00018680028B8D1A8E7174B186800289CD1EF
:101AC000A3E7164B186800289FD0138850F82330DE
:101AD00018687047002098E78C0F0020B00F002096
:101AE000880F0020E40F0020C80F0020D00F002036
:101AF000C40F0020BC0F0020F00F0020EC0F0020CE
:101B0000E80F0020780F0020D80F0020E00F002001
:101B1000D40F00207C0F0020800F0020CC0F00206D
:101B200041784B1E02463D2B50D8DFE803F0264F8C
:101B30004F4A4F4F4F4F4F404F4F4F4F4F4F4F4FC9
:101B40004F4F4F454F4F2C4F4F334F4F4F4F4F4FEE
:101B50004F4F4F4F4F4F4F4F4F38383C3C4F4F4FE9
:101B60004F4F4F4F4F4F4F4F4F4F4F1F194B18680D
:101B7000A0B1538800EB83007047174B186868B119
:101B8000538818447047154B186838B1538800EBD8
:101B900043007047124B18680028EAD170475088FC
:101BA000117801F085BA5088117801F09BBB0D4B7C
:101BB00018680028DDD1F1E70B4B18680028DFD149
:101BC000ECE70A4B18680028E0D1E7E712F8020BAF
:101BD000FFF7B2BEAC0F0020DC0F0020A80F0020E2
:101BE000B80F0020C00F0020980F0020B40F002075
:101BF00008B506F0D9F9002008BD00BF06F0D4B939
:101C00008088704710B4447883B00346621E086829
:101C100000903D2A00F29B80DFE802F01F99991F97
:101C200099999999991F999999999999999999999E
:101C30009999999999999999991F1F1F1F242A99E0
:101C400099323A414850575E666D751F1F839999C6
:101C50008A1F9199991F997C991F002003B05DF804
:101C6000044B7047588803B05DF8044B02F05CBC2D
:101C700058881978009A03B05DF8044B02F070BCE4
:101C80000A785888197803B05DF8044B01F022BA3D
:101C90005888197803B05DF8044B01F037BA5888BA
:101CA000009903B05DF8044B01F046BA0A785888F1
:101CB000197803B05DF8044B01F026BB58881978F9
:101CC00003B05DF8044B01F03BBB5888009903B0AA
:101CD0005DF8044B01F04ABB0A785888197803B0C4
:101CE0005DF8044B01F046BA5888009903B05DF8DE
:101CF000044B01F05DBA0A785888197803B05DF892
:101D0000044B01F051BB5888009903B05DF8044BB7
:101D100001F07EBB5888009903B05DF8044B02F0D7
:101D200091BD1878009903B05DF8044BFFF79ABA9B
:101D30001878097803B05DF8044BFFF7C5B85888E8
:101D40001978009A03B05DF8044BFFF777B89888CC
:101D500000F0800080B2002880D03F2C00F2848008
:101D600001A353F824F000BF5B5C0000695E000033
:101D70005B5C00005B5C0000695E00005B5C000077
:101D8000695E0000695E0000695E00005B5C000047
:101D9000695E00005B5C0000695E0000695E000037
:101DA000695E0000695E0000695E0000695E000017
:101DB000695E0000695E0000695E00005B5C000017
:101DC0005B5C00005B5C00005B5C00005B5C000037
:101DD0005B5C00005B5C00005B5C00005B5C000027
:101DE000695E0000695E0000695E0000695E0000D7
:101DF000695E0000695E0000695E0000695E0000C7
:101E0000695E0000695E0000695E0000695E0000B6
:101E1000695E0000695E0000695E0000695E0000A6
:101E2000695E0000695E0000695E0000695E000096
:101E3000695E0000695E0000695E0000695E000086
:101E4000695E0000695E0000695E0000695E000076
:101E5000695E0000695E0000695E00005B5C000076
:101E6000695E00005B5C00000520F7E643783F2BCD
:101E700000F2F180DFE813F0D400CE00C800C1000A
:101E8000BA00B300EF00EF00EF00AC00A5009E0029
:101E9000EF00EF00EF00EF00EF00EF00EF00EF00CA
:101EA000EF00980092008C0085006C0065005E00D9
:101EB0005700790073008000500046004400420043
:101EC0004400420044004000420044004000420000
:101ED00044004200440042004400400042004400EC
:101EE0004200440040004200EF0042004000420037
:101EF0004200E800E100DA00022070470420704749
:101F000001207047554B1B68002B2CD0544B428846
:101F10001B6853F822007047524B1B681BB3428862
:101F200053F822007047504B1B68002B14BF04204D
:101F3000002070474D4B1B68002B14BF042000206D
:101F400070474B4B1B68002B14BF022000207047CA
:101F5000484B1B68002B14BF022000207047464BE3
:101F60001B68002BDBD118467047444B1B68002BC5
:101F700014BF042000207047414B1B68002BCED1BA
:101F8000F1E7404B1B68002B14BF02200020704774
:101F90003D4B1868003018BF012070473B4B186854
:101FA000003018BF01207047394B1868003018BF47
:101FB00001207047374B1B68002B14BF0420002002
:101FC0007047354B1B68002B14BF0420002070475E
:101FD000324B1B68002B14BF042000207047304B8D
:101FE0001B68002B14BF0220002070472D4B1B687C
:101FF000002B14BF0220002070472B4B1B68002BC6
:1020000014BF022000207047284B1868003018BF0A
:1020100001207047264B1868003018BF0120704718
:10202000244B1868003018BF01207047224B1B68F2
:10203000002B14BF042000207047204B1B68002B8E
:1020400014BF0420002070471D4B1B68002B14BFD9
:102050000420002070470020704700BFCC0F0020F4
:10206000F80F0020940F0020B80F0020C80F0020A8
:10207000D00F0020A80F0020A00F0020E40F0020A8
:10208000A40F0020C40F0020BC0F0020980F0020D8
:10209000F00F0020EC0F0020C00F0020E80F002000
:1020A000780F0020B40F0020D80F0020E00F002090
:1020B000DC0F0020D40F0020800F0020AC0F002088
:1020C0007C0F00202DE9F04782B004468846154673
:1020D0001F46B0F804A09DF82890FFF721FD0646A2
:1020E000F0B12046FFF7C2FEA84203D80C2002B090
:1020F000BDE8F087421B7FB9B9F1010F06EB05017E
:1021000012D0002440460AF004030094FFF776FD45
:10211000204602B0BDE8F087BA4228BF3A46EBE756
:10212000222002B0BDE8F087404605F03DFF0020C8
:10213000DDE700BF2DE9F047884641784D1E044693
:1021400016461F463D2D23D8DFE805F01F22221F2B
:1021500022222222221F2222222222222222222262
:10216000221F22221F22221F22221F22222222225B
:10217000222222222222222222222222222222223F
:102180002222222222222222221F0120BDE8F087C1
:10219000224612F8020BFFF7CFFB05460028F4D0C9
:1021A0002046FFF763FEB04202D80C20BDE8F0875E
:1021B000821B17B1BA4228BF3A46A819414605F01A
:1021C000F3FE099B00201870BDE8F0872DE9F003AD
:1021D0002D4C2E4B2688D3F800C00024013EB6B209
:1021E000A146254609E013D2002F08BF01247E1E18
:1021F000012CB6B210D0B5420ED8AB195B109FB20D
:102200003CF8338040450CEBC303ECD10124A146DC
:102210007D1C012CADB2EED1B9F1000F03D103202A
:10222000BDE8F0037047DC889D78631E1D44ADB2A5
:10223000AC4223D8164B00261F68B0460AE017D2DE
:10224000002B03F1FF3308BF01269DB2012E12D0EF
:10225000AC4210D863195B1003EB43009BB217F834
:1022600020C0614507EB8000E9D14FF001084646E8
:1022700001339CB2EAE7B8F1000F01D10420CFE7A7
:1022800010600020CCE700BF900F00209C0F0020C2
:10229000840F002000B583B001AAFFF797FF40B973
:1022A000019A107851780232FFF746FB03B05DF8CF
:1022B00004FB002003B05DF804FB00BF10B584B040
:1022C000144603AAFFF782FF38BB03984378352BE7
:1022D00025D8DFE803F01B1B1B24242424242424FA
:1022E00024242424242424242424242424242424AE
:1022F00024242424242424241B241B241B24241BC2
:1023000024241B241B241B24241B241B0123002204
:10231000009321461346FFF7D5FE04B010BD0520FB
:1023200004B010BD10B584B0144603AAFFF74EFFE9
:1023300038BB03984378093B332B24D8DFE803F0FC
:102340001A1A1A2323232323232323232323232378
:10235000232323232323232323231A231A23231A68
:1023600023231A231A231A23231A231A23231A2373
:102370001A23231A01230022009321461346FFF754
:10238000A1FE04B010BD052004B010BD70B51F281B
:1023900082B015461E4613D8069900220123441E1A
:1023A0002A600B70062C14D8DFE804F004041D1713
:1023B000041D1700012333700022104602B070BDC7
:1023C00001AAFFF703FFA0B9019A938813F0280F21
:1023D00013D11B22104602B070BD00220423104608
:1023E000337002B070BD002202231046337002B079
:1023F00070BD0246104602B070BD990701D4072295
:10240000DBE703F004039BB203B1012306990B70D1
:10241000107851780232FFF78FFA28600198FFF7A1
:1024200025FD00223070C8E710B51F2884B014467F
:1024300003D81B22104604B010BD03AA0193FFF776
:10244000C5FE019B40B90398828812F0180FF0D0A6
:10245000D10703D40622EDE70246EBE702F00402BF
:1024600092B202B1012206990A700193FFF758FB5C
:1024700020600398FFF7FAFC019B00221870D9E74F
:1024800010B582B0144601AAFFF7A0FE08BB01995F
:102490004B78352B1CD8DFE803F01E1E1E1B1B1BC0
:1024A0001B1B1B1B1B1B1B1B1B1B1B1B1B1B1B1B7C
:1024B0001B1B1B1B1B1B1B1B1B1B1B1B1B1B1E1B69
:1024C0001E1B1B1E1B1B1E1B1E1B1E1B1B1E1B1E47
:1024D000092002B010BD034ACB881268D35C237078
:1024E00002B010BDDC0F002010B582B0144601AA66
:1024F000FFF76CFE18BB01994B78033B372B1DD8B7
:10250000DFE803F01F1F1F1C1C1C1C1C1C1C1C1CB8
:102510001C1C1C1C1C1C1C1C1C1C1C1C1C1C1C1CFB
:102520001C1C1C1C1C1C1C1C1F1C1C1F1C1C1C1CE5
:102530001C1C1F1C1C1C1C1F1C1C1C1F092002B067
:1025400010BD044BCA881B6833F81230238002B0D8
:1025500010BD00BFB40F002010B582B0144601AA10
:10256000FFF734FE08BB01994B78093B322B1BD88F
:10257000DFE803F01D1D1D1A1A1A1A1A1A1A1A1A60
:102580001A1A1A1A1A1A1A1A1A1A1A1A1A1A1A1AAB
:102590001A1A1A1D1A1A1D1A1D1A1D1A1A1D1A1D89
:1025A0001A1A1D1A1A1A1D00092002B010BD044B78
:1025B000CA881B6853F82230236002B010BD00BFE8
:1025C000C00F0020184B1A78012A034616D0427813
:1025D000233A192A12D8DFE802F01711111B1B1B2E
:1025E0001F1F1F1111111123232311110D0D0D1187
:1025F0001111111340881978FEF73CBC0020704778
:102600004088197802F038B94088197801F0EABF9B
:102610004088197800F0F0BD4088197800F020BF9C
:1026200040881978FEF73EBEF40F002020B586B032
:1026300000238DF80F2005AA8DF813300546FFF70B
:10264000C5FD90BB05984378352B30D8DFE803F003
:102650001B2F1B2F2F2F2F2F2F2F2F2F2F2F2F2FB2
:102660002F2F2F2F2F2F2F2F2F2F2F2F2F2F2F2F7A
:102670002F2F1B2F1B2F1B2F2F1B2F2F1B2F1B2FE2
:102680001B2F2F1B2F1B01210DF1130300228DE89F
:102690000A0013460DF10F01FFF74CFD28B929463A
:1026A00005989DF81320FFF78DFF06B020BD05208B
:1026B00006B020BD104B198810B4D1B10F4B1B6868
:1026C0001A88824210D0013989B2083303EBC10164
:1026D00003E033F8082B824207D08B421C46F8D126
:1026E00000205DF8044B70471C46A0785DF8044B51
:1026F00070470846F5E700BF900F00209C0F0020B0
:10270000014B1870704700BFF40F00202DE9F00F47
:102710009E4B1B8894B082468B46002B00F0C680EF
:102720009B4ADFF8C092126800929A4ADFF8B8829A
:1027300012680692984A994912680192D9F80020C5
:102740000792D8F800200292954A09681268089208
:10275000944A0B9112680592934A944F12680C9216
:10276000934A944E1168944A944D12680D92944A7B
:10277000944C12680E92944A94483F6836682D68CB
:1027800024681268039703F1FF3C914B09961B687C
:1027900004950A9400680F928E4A126810928E4A2D
:1027A000126811928D4A126812928D4A1FFA8CF9A2
:1027B0001268139209F10109009A4FEAC90900272A
:1027C000D45B54456FD35C456DD8D51995F802801C
:1027D000B8F1000F67D000240092EE88264406EB83
:1027E000460603EB8606B6F804C01CF0400F55D031
:1027F00096F801C0BCF13F0F50D8DFE81CF05B0039
:102800004F00F700BA004F00AB004F004F004F00E1
:102810009F004F002D014F004F004F004F004F0011
:102820004F004F004F004F0021014F0012010601E1
:102830004F00900084004F0077004F004F004F0082
:102840004F004F004F004F004F004F004F004F0010
:102850004F004F004F004F004F004F004F004F0000
:102860004F004F004F004F004F004F004F004F00F0
:102870004F004F004F004F0067004F004000059A87
:10288000B6F806C0768802EB8C0C139ADCF800C010
:1028900052F82660C6F800C095F802800134A4B250
:1028A000A0459AD8009A08374F4589D114B0BDE8A1
:1028B000F00F7047B6F806C0019A768812F80CC07F
:1028C000069A02F806C095F80280E7E7059AB6F87E
:1028D00006C0768802EB8C0C0B9ADCF800C002EB89
:1028E0008606C6F800C095F80280D7E7B6F802C0A1
:1028F000129AF68852F82CC051F82660CCF8006085
:1029000095F80280CAE7B6F80680B6F802C00C9ABD
:1029100051F8286042F82C6095F80280BEE7109AC2
:10292000B6F80280B6F806C052F82860049A32F869
:102930001CC0A6F800C095F80280AFE7B6F8068084
:10294000B6F802C00A9A50F8286042F82C6095F850
:102950000280A3E70F9AB6F80280B6F806C052F8D4
:102960002860039A32F81CC0A6F800C095F80280CF
:1029700094E7B6F806C0039A768832F81CC0089A25
:1029800022F816C095F8028088E700BF900F00205B
:102990009C0F0020D40F0020DC0F00207C0F0020B3
:1029A000D80F0020AC0F0020C80F0020B40F00206B
:1029B000B80F0020C40F0020E00F0020A80F002057
:1029C000BC0F0020E80F0020780F0020C00F00206F
:1029D000840F0020D00F0020EC0F0020E40F002017
:1029E000800F0020F00F0020980F00200D9AB6F8FD
:1029F0000280B6F806C052F82860019A12F80CC09E
:102A000086F800C095F8028048E7B6F806C0049A38
:102A1000768832F81CC0099A22F816C095F8028010
:102A20003CE70E9AB6F80280B6F806C052F8286065
:102A3000029A12F80CC086F800C095F802802DE7C3
:102A4000B6F806C0029A768812F80CC0079A02F807
:102A500006C095F8028021E7B6F802C0119AF68800
:102A600052F82CC050F82660CCF8006095F802802F
:102A700014E700BF2DE9F00F099BDFF850811C68B7
:102A8000DFF84CC1C8F80040414F5C68CCF800400A
:102A9000404E9C683C60404DDC683460DFF834B1E7
:102AA0001C692C60DFF830915C69CBF80040DFF8DE
:102AB0002CA19C69C9F80040DFF82481DC69CAF8C0
:102AC0000040DFF820C19C6BC8F80040334FDC6B3E
:102AD000CCF80040324E1C6C324DDFF80C813C606B
:102AE000DFF808B11F6D1C6ADFF80491DFF804A15C
:102AF000DFF804C137602C60C8F800205C6A9A6A6D
:102B0000294FCBF80040C9F80000AAF80010274E62
:102B1000CCF80020DA6A3A60254D1A6B3260254CF9
:102B20005A6BDFF8D8902A605D6CDFF8D4A025607E
:102B30009C6C21482149C9F800405C6DDD6CDFF8D0
:102B4000C4801F4F1F4EDFF8C0B0CAF80040DFF846
:102B5000BCC09C6D1C4AD3F86090D3F864A005609B
:102B60000C60D86D9D6EDC6E1B6FC8F80000C2F85B
:102B70000090CCF800A03D603460CBF800304FF4FA
:102B8000805049F6FF71BDE8F00FFFF7BFBD00BFF1
:102B9000C00F0020AC0F0020D40F0020EC0F00204D
:102BA000800F0020980F0020F00F0020C40F00209D
:102BB000C80F0020BC0F0020E40F0020A40F00204D
:102BC000940F0020CC0F0020A00F0020DC0F00206D
:102BD000B40F0020D80F0020E80F00207C0F002049
:102BE000E00F0020780F0020840F0020A80F0020A5
:102BF0009C0F0020900F0020B80F0020D00F002065
:102C0000B00F0020880F0020F80F00208C0F00204C
:102C1000074B70B51C88058844B1064E013CA4B230
:102C2000284656F824309847002CF7D170BD00BFD5
:102C300004100020881000202DE9F04F4FEA001901
:102C4000DFF87080C0EB090608EB860685B000222D
:102C5000336B03920292074618788A46E0B1934696
:102C60001446154604EB440203EB820302A859689C
:102C70001A7A5B7A00955844FEF7C0FF336B04EB79
:102C8000440203EB82020134117A1A78E4B28B44D5
:102C9000A2425FFA8BFBE5D8C7EB090708EB870870
:102CA00002A9B8F80400524600F070FF05B0BDE874
:102CB000F08F00BF4C1000202DE9F043904691B0FA
:102CC0000C465AB100F5CF501F3080B2FFF7F2FC2E
:102CD000804542D9FF2011B0BDE8F0830D01204EA0
:102CE0006B1A06EB830300F5CF501B6B1F3080B2CD
:102CF00093F80080FFF7DEFC8045EBD8B8F1000FB9
:102D000029D0C4EB050906EB89090024D9F8303035
:102D1000274604AD07E0D9F830301E449045317A9B
:102D20000F44FFB213D904EB4406B60033446A1DC6
:102D3000D9680092080C2A462B1DC1F30721FFF722
:102D400073FB0134E2B20C350028E4D0C2E7384608
:102D500011B0BDE8F0834046BDE7014E2501D0E744
:102D60004C10002010B5044682B0FEF7C5FDA368E4
:102D7000002B06DB238A23B1227BFD2A01D90528FB
:102D800006D004F1140001F0FFFD002002B010BDD8
:102D900003224FF47A7101FB03F1009204F1140055
:102DA0002346024A01F0B6FDF0E700BFC56E000001
:102DB0002DE9F043904693B06AB100F5AF501F3053
:102DC00080B20391FFF776FC804503993FD9FF203D
:102DD00013B0BDE8F083204C4FEA811904EB0903DE
:102DE00000F5AF505B6B1F3080B293F80080FFF7A7
:102DF00061FC8045EBD8B8F1000F26D0A144002437
:102E0000D9F83430274606AD07E0D9F834301E44EF
:102E10009045317A0F44FFB213D904EB4406B60053
:102E200033446A1DD9680092080C2A462B1DC1F351
:102E30000721FFF7ABFA0134E2B20C350028E4D0E9
:102E4000C5E7384613B0BDE8F0834046C0E74FEA17
:102E50008119014CD2E700BF0810002013464A0038
:102E600002D40122FDF76ABD0022FDF767BD00BF55
:102E700038B504460D46FEF73FFD052801D01A205F
:102E800038BD0F4B1A88A24201D0012038BD9A6884
:102E9000002A0ADB187BF02803D840B901229A7077
:102EA00038BDFD2805D1022038BD142038BD0020D2
:102EB00038BD29460020BDE83840FFF7BDBE00BF41
:102EC0004C10002000880021FFF7D2BF10B5044647
:102ED000FEF712FD052800D010BD0B4BE08B1B88C0
:102EE0008342F9D3094BC0EB001203EB8202137B40
:102EF000F02B04D8002BEFD10123937010BD0021DB
:102F0000BDE81040FFF798BE481000204C1000208C
:102F10002DE9F04F85B00646FEF7EEFC052802D0FD
:102F200005B0BDE8F08F3D4AF38B12889A42F7D383
:102F30003B4F317C9B01FC1894F83C20914259D3C3
:102F4000238A002B49D1237BF02B3ED9B6F81E9063
:102F5000DFF8CCA04FEA89194F4411367B6B1A7801
:102F600002B34FF0000B5C46D84604EB440503EB7C
:102F7000850506EB0B016A68104632B16B7A2A7A36
:102F8000CDF80080FEF734FE7B6B04EB440203EBCC
:102F900082020134117A1A78E4B28B44A2425FFAB9
:102FA0008BFBE2D83B7B3AF80950F02BB8D91D4B8C
:102FB0001C88002CB4D01C4E013CA4B2284656F804
:102FC00024309847002CF7D1AAE756F8112F022396
:102FD00071682163E262A370A2E702224FF47A7162
:102FE00001FB03F1009204F11400104A234601F0A2
:102FF00091FCA8E7FB5A8DF808301A0A02A90023B1
:1030000048F210208DF809208DF80A308DF80B3029
:103010008DF80C30FDF7C4FE82E700BF06100020DB
:10302000081000204A100020FC0F0020116C000046
:10303000104B1B88834201D00020704701390529BD
:10304000FAD801A353F821F0717000006D700000F0
:103050006970000039700000657000006170000048
:103060000548704705487047054870470548704750
:10307000054870474C1000205E1000205C100020B6
:103080005A1000205810002054100020074B1A88B6
:10309000824201D00020704709B9586B70475B6BC2
:1030A00001EB410103EB8100704700BF4C10002091
:1030B000074B1A88824201D00020704709B9186B6B
:1030C00070471B6B01EB410103EB8100704700BFB0
:1030D0004C1000200C4B10B41C88844203D00B20F1
:1030E0005DF8044B70479B68002B01DB0A20F7E773
:1030F000022904D0062914BF04200020F0E7FD2A8D
:1031000034BF0A200020EBE74C100020094B1A883E
:10311000824201D00B207047032904D0052914BF37
:103120000420002070479B68002BB4BF00200A20B9
:10313000704700BF4C1000200D4B1A88824210B51A
:103140000C4601D00B2010BD00290EDB9B68002B24
:1031500003DB9C4201D00A2010BD40F281112046C1
:103160000A46FDF7B1FC0128F5D0002010BD00BFD4
:103170004C1000200D4B70B51C8884420D4616463D
:1031800001D00B2070BD9B68002B01DB1B2070BDA4
:1031900015B91EB9304670BD002070BDFFF78CFD1B
:1031A000082894BF00201C2070BD00BF4C100020D8
:1031B00000B5104B1A88824285B003D00B2005B0B1
:1031C0005DF804FB9A68002A03DB1B2005B05DF85C
:1031D00004FB1B6B1B78002BF7D10DF10B03009345
:1031E000080C03AAC1F307210DF10A03FFF71CF92C
:1031F000E5E700BF4C10002010B51C4C238883422B
:1032000001D00B2010BD022905D0052916D00129B7
:1032100009D0002010BD237B84F82C302046BDE867
:103220001040FFF79FBD00210A46FFF745FDA1684A
:103230000246A088FFF712FE28B110BD2046BDE867
:103240001040FFF78FBD2046FFF78CFD014660B9A7
:10325000237BA088FD2B04D9E189BDE81040FDF750
:103260009DBBBDE81040FDF799BB10BD4C10002080
:103270000E4B1B88834201D000207047013904297E
:10328000FAD801A353F821F0A9720000A57200003A
:10329000A1720000797200009D720000044870471E
:1032A00004487047044870470448704708100020DD
:1032B00018100020161000201410002010100020FC
:1032C000074B1A88824201D00020704709B9986BD9
:1032D00070479B6B01EB410103EB8100704700BF1E
:1032E00008100020074B1A88824201D00020704746
:1032F00009B9586B70475B6B01EB410103EB81002F
:10330000704700BF081000200C4B10B41C8884428A
:1033100003D00B205DF8044B70479B68002B01DB4A
:103320000A20F7E7022904D0062914BF0420002050
:10333000F0E7FD2A8CBF00200A20EBE708100020F0
:10334000094B1A88824201D00B207047032904D010
:10335000052914BF0420002070479B68002BB4BFD0
:1033600000200A20704700BF081000200D4B1A886B
:10337000824210B50C4601D00B2010BD00290EDB97
:103380009B68002B03DB9C4201D00A2010BD40F259
:10339000811120460A46FDF797FB0128F5D0002051
:1033A00010BD00BF0810002070B5184B1C88844267
:1033B00084B00D46164602D00B2004B070BD9C6848
:1033C000002C01DB1B20F8E7ADB15B6B1A78002AFB
:1033D000F8D1013D05EB450503EB85030DF10B022B
:1033E000D9680092080C03AAC1F307210DF10A0362
:1033F000FEF7CCFFE1E70EB93046DEE7FFF7D8FC79
:10340000082894BF00201C20D7E700BF0810002028
:1034100000B5124B1A88824285B003D00B2005B04C
:103420005DF804FB9A68002A03DB1B2005B05DF8F9
:1034300004FB5B6B1B78002BF7D10DF10B030093A2
:10344000080C03AAC1F307210DF10A03FEF79EFF42
:10345000002814BF1B200020E1E700BF0810002057
:1034600070B5144C2388834201D00B2070BD012914
:1034700003D0052915D0002070BD00210A46FFF7B2
:1034800097FCA16802460646A088FFF7E7FC0546C0
:1034900004F1140001F078FA4DB984F83C60284634
:1034A00070BD04F1140001F06FFA002070BD2846D1
:1034B00070BD00BF08100020084A1388012B10B40B
:1034C00003D919205DF8044B7047054C591C44F88A
:1034D0002300118000205DF8044B70474A10002043
:1034E000FC0F0020084A1388012B10B403D91920BF
:1034F0005DF8044B7047054C591C44F823001180BB
:1035000000205DF8044B7047041000208810002054
:10351000F8B50B4F3B8893B10A4D0024C4EB04135C
:1035200005EB830635F823000021FFF7A1FC3046A8
:10353000FFF718FC01343B88A4B2A342EED8F8BDD3
:10354000481000204C10002070B5084D2B8863B146
:10355000074E0024C4EB041006EB8000FFF702FCCA
:1035600001342B88A4B2A342F4D870BD48100020C7
:103570004C1000202DE9F041274F3B8803B3002574
:10358000264EA84610E036F82300FFF735FE237BD1
:1035900084F82C3084F802802046FFF7E3FB0135E5
:1035A0003B88ADB2AB420BD9C5EB051306EB8304E8
:1035B0000121A268002AE6DAA088FDF711FAE6E701
:1035C000174F3B8833B30025164EA84615E0F05A36
:1035D000FFF7EEFB03460246A168A08884F83C3062
:1035E000FFF73CFC04F1140084F8028001F0CCF9F0
:1035F00001353B88ADB2AB420AD9AB01F4180022C9
:10360000A06890422946E2DAA088FDF7E9F9E9E7E7
:10361000BDE8F081BDE8F081481000204C1000208A
:1036200006100020081000202DE9F04FDFF8F4B15B
:10363000BBF8003085B0002B7ED00026774D0DF111
:103640000C0A0DF109090DF10A074EE0039B03F086
:103650004043039335F824305A1E92B2032A5CD9B2
:10366000039A42F00042C8F8082003F5BF501F300B
:1036700080B202214A46FEF703FF18B99DF80930CF
:1036800088F80C3035F8240000F5BF501F3080B2A8
:1036900003213A46FEF728FF18B9BDF80A30A8F80A
:1036A0000E3035F8240000F5BF501F3080B20521E0
:1036B0003A46FEF719FF18B9BDF80A30A8F81030DD
:1036C00035F8240000F5BF501F3080B206214A466D
:1036D000FEF7D6FE18B99DF8093088F81230013689
:1036E000BBF80030B6B2B34226D9C6EB06140121AE
:1036F00035F8240000F5BF501F3080B2524605EB6C
:103700008408FEF729FF0028A0D00023039335F892
:1037100024305A1E92B2032AA2D80192FEF7E6F88C
:10372000019A039935F8243000EB022000F5C072AD
:103730001143C8F8081098E7DFF8ECB0BBF8003088
:10374000002B67D00026364D0DF10C0A0DF109094A
:103750000DF10A073CE0039B03F0404303932B5B0E
:103760005A1E92B2032A48D9039A42F00042C8F87E
:10377000082003F59F501F3080B202214A46FEF711
:103780007FFE18B99DF8093088F80C30285B00F5E9
:103790009F501F3080B203213A46FEF7A5FE18B9AC
:1037A000BDF80A30A8F80E30285B00F59F501F3096
:1037B00080B205213A46FEF797FE18B9BDF80A30E7
:1037C000A8F810300136BBF80030B6B2B34221D9A8
:1037D000B4010121285B00F59F501F3080B2524692
:1037E00005EB0408FEF7B8FE0028B4D000230393CD
:1037F0002B5B5A1E92B2032AB6D80192FEF776F8D6
:10380000019A03992B5B023200EB02200143C8F8B6
:103810000810AEE705B0BDE8F08F00BF4C100020E7
:103820000810002048100020061000202DE9F04F5D
:10383000324D83B02C889DF830A08146884693464F
:103840001CB1012003B0BDE8F08F2D4F04212246AA
:10385000A7F8009020460193FDF73EF82988B8802C
:10386000C1EB011607EB86064FF6FF72B088019B8D
:1038700090423ED033820D9B86F80C8086F82C80D7
:10388000A6F80EB086F812A0B4701BB1336374634F
:1038900086F8384048460022FFF70EFA2B880828A1
:1038A000C3EB031307EB83031BD94FF00041988848
:1038B0000022FFF7D3FA1C242B88C3EB031307EB7A
:1038C0008307B8F1FD0F87BFB888F989B888002150
:1038D000FDF764F82B88204601332B8003B0BDE848
:1038E000F08F02464FF000419888FFF7B7FA044680
:1038F000E2E7132003B0BDE8F08F00BF48100020BE
:103900004C1000202DE9F84F254C258880468A462A
:1039100091469B4615B10120BDE8F88F214F052146
:103920002A460120A7F80080FCF7D6FF2188B8803E
:1039300007EB81164FF6FF73B2889A422CD00A9B90
:1039400086F80CA0A6F80E90A6F810B0B5701BB1C2
:10395000B563736386F83D5040460022FFF728FAAE
:103960002388082807EB83170BD94FF00041B8884C
:103970000022FFF773FA238801331C202380BDE85F
:10398000F88F02464FF00041B888FFF767FA2388A6
:1039900001332380BDE8F88F1320BDE8F88F00BF06
:1039A0000610002008100020144B1B6810B463B1EF
:1039B00000229C8B844208BF1A461B6A002BF8D158
:1039C0001AB110465DF8044B70470D4B1B6893B15C
:1039D000002202E01B6A002BF3D09C8B8442F9D1B9
:1039E00001299C7F03D0022C08BF1A46F2E7002C65
:1039F00018BF1A46EEE71A46E3E700BFEC110020B5
:103A000090100020F8B51C4F3C680646002C30D0C2
:103A10000025A08BFCF7F6FF864208BF2546246AE6
:103A2000002CF6D1DDB13A681449134B0C70954265
:103A300001D116E01A46136A9D42FBD12B6A13622C
:103A40000F4B1A680AB912E01A46136A002BFBD111
:103A500015620020022201232862AA770B702846F3
:103A6000F8BD2A6A1A60064B1A68002AEDD11D605B
:103A7000EFE72546F3E700BFEC110020140000201B
:103A800090100020FFF7BEBF2DE9F041244F254ED6
:103A900005464FF0000833883A8822495C1C9A4258
:103AA000A4B23AD0042C8ABF00240C80A1F8008074
:103AB0001D4B21468A4203EB44141AD0201DFCF70B
:103AC000B1FFF0B1027C438AE38322772168626808
:103AD000A368E068E86029606A60AB60E06921691A
:103AE0006269A369AB61E86129616A610120BDE88F
:103AF000F0810920FDF76AF8201DFCF793FF0028EC
:103B0000E0D1636823F07F03B3F5E06FC3D10222F5
:103B10004FF6FF732277E383D8E70020BDE8F081FA
:103B2000F2110020F011002048110020094B0A4A30
:103B30001B88128801339BB2052B28BF00239A42B1
:103B400003D0064800EB43107047054B01221A7062
:103B500000207047F2110020F011002048110020D1
:103B6000E8110020074A08491388098801339BB2ED
:103B7000052B28BF0023994201D0138070470820ED
:103B8000FDF724B8F2110020F01100202DE9F047D4
:103B90000D4616460746FCF735FF044628B1437B21
:103BA000012B05D01420BDE8F0871920BDE8F0876F
:103BB000183000F003FFB207814625D4DFF85C819E
:103BC0000021F30788F8001048D4237CDA1E012A6C
:103BD0001FD9082B1DD04E4E4FF0000A33469A7F56
:103BE0001FFA8AF12433002A00F087800AF1010AC3
:103BF000BAF1050FF3D101230B2088F80030FCF750
:103C0000E5FF1720BDE8F0870128D7D11E20BDE8C9
:103C1000F08738460021FFF7C7FE0028DBD0037C81
:103C2000A3B1417C2A789142D5D1013B1FFA83FE92
:103C30002A46002304E08E7C12F8011F8E42CAD16E
:103C4000734500EB030103F10103F4D1012388F86C
:103C5000003001F095F90020BDE8F0873846FFF705
:103C6000A3FE06460120002EB5D0B783A37D337492
:103C7000A2786368A17AB1727360DAB90123F27233
:103C8000337323893381A37D43B10023F218E95CA8
:103C900051740133A27D9BB29A42F7D80028D5D146
:103CA000B9F1010F0BD11B4B86F81E901A683262D6
:103CB0001E60CBE7002201233273F372E1E738463E
:103CC0000121FFF771FE40B1A38A33B1114B0121ED
:103CD0001A6832621E60B177B8E70F4B1A680AB9EA
:103CE00009E01A46136A002BFBD116620022022358
:103CF0003262B377AAE71E60F8E7042904D02423D0
:103D000003FB0A660020B0E70A20FCF75FFFF6E736
:103D100094100020EC1100209010002014000020CE
:103D2000094B1B78012B0CD1084B186810B909E01E
:103D3000006A40B1837F022BFAD1032300608377AE
:103D4000704700207047704714000020901000203A
:103D5000036804229A77704770B5204B1A78012ABD
:103D600082B02FD01E4C23681BB36426002504E0CC
:103D70002268136A95772360C3B19A7F042A1AD107
:103D8000988BFCF73FFE03460028F1D0818A00297A
:103D9000EED0144A009506FB01F1183000F0BAFD90
:103DA0002268136A95772360002BE6D10E4B1B68BF
:103DB00073B102B070BD022AFBD102B0BDE8704001
:103DC00001F0DEB8002208201A70FCF7FFFEC9E7F8
:103DD0000C2002B0BDE87040FCF7F8BEE8110020EE
:103DE00090100020857A0000EC11002010B5FCF73F
:103DF00009FE044620B12046FFF704FE0028FAD150
:103E000010BD00BFF0B40C4A0C4F0D4E0D4D0E4CC2
:103E10000E49002301203B8033802B602360937781
:103E200082F8423082F8663082F88A3082F8AE300A
:103E30000870F0BC704700BF94100020F211002001
:103E4000F0110020EC110020901000201400002040
:103E5000F0B5B3B006AC174606460D4620461C49E1
:103E6000B02204F0A1F84FF00063012F039324D097
:103E7000002314F83320AA424FEAC30103F10103DF
:103E80001FD0162BF5D1738835798DF811300422A7
:103E900000244FEA132E05A8134603A90094802797
:103EA0008DF812E08DF810708DF81350FDF7A6FE16
:103EB000224604A9708BFFF769FE0023737033B0AC
:103EC000F0BD32AB194451F8AC3C0393DBE700BFC3
:103ED000CCBF000010B4084B1A7822B1192210464A
:103EE0005DF8044B7047054C0121197020601046A5
:103EF0005DF8044B704700BFFC1100203412002015
:103F000010B4084A1378012B03D919205DF8044B2B
:103F10007047054C591C117044F8230000205DF8CF
:103F2000044B704709120020001200202DE9F047D1
:103F3000DFF850A09AF8004006460F469046F4B1CC
:103F4000DFF8449000E064B1013CE4B20020314667
:103F50003A46434659F82450A8470028F3D0BDE814
:103F6000F0879AF8004054B1013CE4B2012059F8BE
:103F7000245031463A464346A847002CF4D100204D
:103F8000BDE8F087FC110020341200202DE9F04F2D
:103F9000DFF8609099F8004083B006460F469046DF
:103FA0009B461CB3DFF850A000E07CB1013CE4B2BA
:103FB000CDF800B0002031463A4643465AF8245026
:103FC000A8470028F1D003B0BDE8F08F99F8004071
:103FD00064B1013CE4B2CDF800B0012031463A466C
:103FE00043465AF82450A847002CF2D1002003B0D1
:103FF000BDE8F08FF4110020F81100202DE9F04108
:10400000DFF8508098F800500446EDB1104F00E002
:1040100065B1013DEDB2002021786288237957F81F
:104020002560B0470028F3D0BDE8F08198F8005033
:1040300055B1013DEDB2012057F825602178628825
:104040002379B047002DF4D10020BDE8F08100BFF6
:1040500000120020091200202DE9F04786B0044626
:10406000FDF74AFC7F2804D0052802D006B0BDE841
:10407000F087B54AE38B12789A42F7D9217C082958
:10408000F4D1607CDFF8C48203EB830300F0E0022C
:10409000DF00402A08EB070573D012D8C2B1202AEE
:1040A00040F088806A78002303938DF80B30002A53
:1040B00000F089801D26284631460022FFF7C8FE01
:1040C000D4E7602A12D0802A74D100236B70CDE728
:1040D0006B78022B01D00B2BECD100F010006B7D24
:1040E000C7B2BB4200F08B800E26E4E76B78012B51
:1040F00018BF0E46DFD100F01002697DD2B2002356
:1041000091428DF811308DF812308DF813308DF802
:1041100014308DF815308DF816308DF81730E3D146
:10412000002A40F0158110236B75AC688DF81020C3
:10413000072C00F20681C4F1070342F0010242EAB3
:10414000430200238DF810206B7000230093286930
:10415000EA680DF111012346FDF7B4FF0646002879
:10416000A9D1AF68EB68688B23443F1B324604A992
:10417000AF60EB60FFF70AFD0646002E3FF476AF16
:1041800099E76B78002B95D1E07CA37C43EA002073
:104190006880217D297105F11002FEF717F80646A7
:1041A000002888D12869FDF72BFDC30700F1838023
:1041B000062680E7E27CA37C43EA02236B80237D12
:1041C0002B71082677E7E07CA37C43EA0020688017
:1041D000217D297105F11002FDF7F8FF0646002840
:1041E0007FF469AF2869FDF741FEA8602869FDF7F3
:1041F00007FD10F0020F824612D107265BE767B970
:1042000010236B7594F81180AB68C8F34208C8F1AD
:104210000708984521D90C264DE700236B75F1E777
:10422000637C03F00306022E00F0E280032E00F010
:10423000D680012EC5D100230422009303A8134683
:1042400004F11501FDF7D4FCAB68B146039A934223
:1042500000F084807ED209262DE7002203AB8DE892
:104260000C0004F112012869EA684346FDF762FF79
:10427000064600287FF41FAFAA68EB68C8EB02026D
:104280004344AA60EB60637CDA0748D406AC47F08D
:10429000200704F8087D002107220DF1110003F02A
:1042A0008CFE2146688B0022FFF770FC0646002E2C
:1042B0003FF4DCAEFFE618F8070069882A79FFF7BB
:1042C00035FE064600287FF4F6AE2869FDF7CEFDE0
:1042D0006B882A79A860190A042805968DF8113090
:1042E0008DF812108DF8132040F2878004221346B7
:1042F000009605A8412405F108018DF81040FDF74E
:104300007DFC0123EE606E756B70688B04A9002242
:10431000FFF73CFC0646002E3FF4A8AECBE628464D
:10432000FFF76CFE064600287FF4C5AE6E70286964
:1043300069889DF80C20FEF745F906460028A5D0AF
:10434000B9E6072401E700BF081200200C12002084
:104350006B75EAE61AF0040F7FF47DAF1534214641
:104360002869FDF74FFC064600287FF4A4AE18F834
:10437000070069882A792346FFF708FE06460746A4
:1043800000287FF498AEB9F1010F7BD0AB68042B05
:104390006BD900220DF10B078DE8840021462869B6
:1043A000039BFDF7C7FE0646044600287FF483AE54
:1043B0002846FFF723FE0646002832D0AB68042BC0
:1043C0003FF6DBAE8DE890002246286905F1160124
:1043D0000423FDF7AFFE002E3FF448AE6BE6C3F3B7
:1043E0008103C3F1040303934FF00009AB682DE789
:1043F000AB6803934FF0000928E7C0F104039B006A
:10440000009643F0430332468DF810306E7005A9D4
:1044100028690423FDF756FE064600283FF475AFD1
:1044200049E6286969889DF80B20FEF7CBF8064617
:10443000044600287FF43FAE6B882F7905963246FC
:104440004FEA132E6026688B8DF8106004A98DF852
:1044500011308DF812E08DF81370FFF797FB0646C8
:104460006C70002E3FF402AE25E60090024605F186
:10447000160128690423FDF725FE064600287FF46F
:104480001AAE86E76B882C7905964FEA132E3246D2
:10449000688B8DF81130602604A98DF810608DF8B6
:1044A00012E08DF81340FFF771FB02230646EF6020
:1044B0006F756B70002E3FF4D9ADFCE570B4184BEE
:1044C0001D7875B1174E337883420DD032460023E4
:1044D00003E012F8284FA04207D001339BB29D425F
:1044E000F7D1002070BC70470023022911D00329A6
:1044F00008D00129F5D103EB830306EBC300243078
:1045000070BC704703EB830306EBC300143070BC30
:10451000704703EB830306EBC300203070BC704789
:10452000081200200C1200200B4B1A7882B10B4BA2
:10453000197881420ED0013A91B201EB810103EB6F
:10454000C10103E013F8282F904203D08B42F9D128
:104550000B20704700207047081200200C1200202A
:10456000F8B51E4B1E7876B11D4F3B7883420CD0B8
:104570003C46002303E014F8285FA84206D001332C
:104580009BB29E42F7D10B20F8BD0023012903D036
:1045900002290CD00420F8BD002A19DB03EB8303A9
:1045A00007EBC3077B6A002B14DB0A20F8BD002A47
:1045B0000EDB03EB830307EBC3073B6A002BF4DA44
:1045C0004FF4B06110460A46FCF77EFA0128ECD0A1
:1045D0000020F8BD4FF4C061F4E700BF08120020CE
:1045E0000C12002070B4194B1D7875B1184E337839
:1045F00083420DD03246002303E012F8284FA04238
:1046000007D001339BB29D42F7D10B2070BC70479D
:10461000002301290FD002290AD103EB830306EB03
:10462000C3060022708B316A082370BCFCF786B980
:10463000002070BC704703EB830306EBC306002227
:10464000B08B716A082370BCFCF778B9081200209F
:104650000C1200202DE9F047174F3B784BB3002494
:10466000DFF858A0A1464FF00048A00005190AEB5A
:10467000C50505F11806696A85F8019011F0804FAB
:104680004FF000024FF0080305D0C5F824804FF02A
:104690000041C5F82080B088FCF750F908237088E5
:1046A000296A0022FCF74AF901343B78A4B2A342FC
:1046B000DBD8BDE8F08700BF081200200C120020F4
:1046C000F8B5164F3B7843B3154E00240CE05968FB
:1046D0002A6A41F00041596001343B78A4B242F0AB
:1046E0000042A3422A6218D904EB840306EBC305F7
:1046F00016F83320012A05F12003E8D1FDF7F6F87A
:1047000000F5C0606862FDF7F1F801343B78A4B2AF
:1047100000F5B060A3422862E6D8F8BD0812002078
:104720000C1200202DE9F041184D2C78034614B1ED
:104730000120BDE8F081164E224633702046214606
:10474000FCF7CAF82A78708302EB820806EBC808E7
:1047500008F11808B8F802304FF6FF77BB4202D1D3
:104760001320BDE8F08101202146FCF7B5F82B7835
:10477000A8F8040003EB830206EBC206B28BBA4230
:10478000EED001332B702046BDE8F08108120020E6
:104790000C1200202DE9F0410C4D07460120FDF7D9
:1047A000AFFF2E8866B1DFF82880002458F8243047
:1047B0003846984701342B88A4B2A3420646F5D860
:1047C0000020FDF79DFF3046BDE8F0814412002037
:1047D00038120020084B1A8810B422B11922104652
:1047E0005DF8044B7047054C01212060198010468C
:1047F0005DF8044B704700BF4412002038120020BF
:10480000014B1860002070473C120020014B1860DB
:10481000002070474812002041F21003984208D04F
:1048200041F21103984203BF0448012303600020B2
:104830007047034801230360704700BF4012002007
:104840004C12002041F2100398420BD041F21103A8
:10485000984201D0002070470548814214BF2320B0
:10486000002070470348814214BF23200020704776
:104870006C6F61647361766508B541F2100398420C
:1048800005D041F2110398420AD0002008BD074B21
:104890001B681BB1084698470028F6D0202008BDA9
:1048A000034B1B68002BF5D1F8E700BF3C1200203A
:1048B00048120020154B826870B4154E1C6833688E
:1048C00014444460002523B915E01A6822B11D463E
:1048D000134659688C42F8D88C4205D285B12860BD
:1048E000036070BC002070471A685AB102601860FB
:1048F000002070BC70473060036070BC00207047BF
:104900003060EDE718600260F2E700BF5812002047
:1049100054120020F0B49DF81060D9B1184C2568ED
:1049200045B1A84203D126E0A04216D025462C6806
:10493000002CF9D1134C2568012EB1FBF5F48460ED
:1049400010D90CB9012181600675C2600361F0BC09
:10495000FFF7B0BF0120F0BC704707682F6000254B
:104960002560E7E705FB14110029EAD001348460D3
:10497000002CE9D1E6E7056825600446EFE700BFB3
:1049800054120020501200200B4B1A6842B1824290
:1049900003D10CE0984205D01A461368002BF9D1D8
:1049A0000120704719681160002018607047116875
:1049B00019601346F8E700BF54120020074B1B682C
:1049C0003BB1834202D106E0984204D01B68002B21
:1049D000FAD1184670470120704700BF54120020DA
:1049E00008B50020FCF7DAF8024B1A6801321A60A9
:1049F00008BD00BF581200202DE9F041234E244B82
:104A00003468002C3FD06268196891422DD3002091
:104A100018608A4238BF1146234600E05A68521A8D
:104A20005A601B68002BF9D16268184F9846CAB9C2
:104A30003268256842B1A24203D121E0A3421AD0D4
:104A40001A461368002BF9D1E3680BB12069984727
:104A5000237D03F0FD03012B09D035B12C4662689C
:104A6000002AE5D02568002DF8D1BDE8F081204668
:104A7000FFF720FFF1E721681160C3F80080E3E74A
:104A80003D602346F9E71C60BDE8F0815412002028
:104A900058120020014B1860704700BF50120020D0
:104AA00070B5184B184C194900224FF6FF76402577
:104AB00001389E801A6022800D8003281ED8DFE80E
:104AC00000F01A170A0205229A711148FFF718FA26
:104AD00040B1192070BD04220D489A71FFF710FAF9
:104AE0000028F6D10B48FEF7E7FC0028F1D170BD95
:104AF00006229A71E9E703229A71E6E700229A7189
:104B0000E3E700BF5C12002054130020561300207E
:104B1000058D0000BD8C000020B1054A13681BB153
:104B20001F2070470120704710601846704700BF73
:104B30005C12002008B50346402822D8DFE800F0C8
:104B4000232121212121212323212121212121234D
:104B50002121212121212121212121212121212145
:104B6000212321232121212321212121212121212F
:104B70002121212121212121212121212121212125
:104B80002300012008BD094A1188012021F06F018E
:104B90000B4301461380FEF76BF9054B987900280B
:104BA000F0D00121FEF764F9002008BD5613002063
:104BB0005C1200203E4B3F4A1B889188994210B5F9
:104BC00057D03D499380088803F08F01072900F0F2
:104BD0006F0050D00F2951D0062932D003F086043F
:104BE000022C25D013F082045ED01B065ED54FF454
:104BF0000043034340F227218B4220D0B3F50A7FC4
:104C000022D340F221718B420CD03AD940F6237165
:104C10008B4243D048F208018B4228D040F22771E2
:104C20008B421ED123201468D4B3A047002010BDAE
:104C30004FF40073034340F227218B42DED107205B
:104C4000F1E74FF4C063D4E7232B10D00BD940F227
:104C500021218B420BD040F223218B4207D0272BFE
:104C600005D0212010BD072B01D0212BF9D14020E8
:104C7000D9E7002010BD4FF4E063BAE74FF470634A
:104C8000B7E740F227618B4206D0B3F5C86F03D077
:104C900040F223618B42E4D12120C4E72720C2E700
:104CA000FFF748FF204610BD2346A2E70B02A0E70E
:104CB000541300205C1200205613002000B5012878
:104CC00083B006D00E4B9B79834202D003B05DF8CF
:104CD00004FBFFF76FFF0028F8D0002369464FF46C
:104CE00080508DF800308DF801308DF802308DF84D
:104CF00003308DF80430FBF7EBFF03B05DF804FBE5
:104D00005C12002000B5012885B003D0002005B05A
:104D10005DF804FB46F240018A42F7D1002BF5D141
:104D20000193FFF747FF019B0028EFD002A94FF442
:104D300080508DF808308DF809308DF80A308DF8E4
:104D40000B308DF80C30FBF7C3FFDFE708B5034BE2
:104D50001B780BB900F0F0FA002008BD64120020A7
:104D600008B500F0E1FA2B20272100F02FFD0F20DD
:104D7000002100F02BFD00F0CFFA002008BD00BF9D
:104D800008B500F0D1FA2B20002100F01FFD0F2004
:104D9000802100F01BFD024B0020187008BD00BFF1
:104DA0006C12002070B50446FFF7EAFF0A2C0DD004
:104DB0001849002301E094420AD00133DBB21846BF
:104DC00031F83320002AF6D1152070BD114900209A
:104DD00001EBC0012A204B884E790D798C79013E78
:104DE000591E01F01F01013DF60000F0EFFC06F036
:104DF000380605F007013143013C41F080012920CC
:104E000000F0E4FC04F00701282000F0DFFC0020A3
:104E100070BD00BF18C1000038B55649564C574AFE
:104E20000023237005460B7013600A2400F0B2FAC9
:104E300000F02CFC0E2000F053FC00F0E000802875
:104E400004F1FF3304D013F0FF04F3D1162038BD72
:104E50006020042100F0BAFC7020002100F0B6FCB4
:104E60000C20002100F0B2FC0020014600F0AEFC56
:104E70000120002100F0AAFC0220002100F0A6FC85
:104E80000320002100F0A2FC0420002100F09EFC81
:104E90000520002100F09AFC0620002100F096FC7D
:104EA0000720002100F092FC0820002100F08EFC79
:104EB0000920002100F08AFC0A20002100F086FC75
:104EC0000B20002100F082FC1020002100F07EFC6D
:104ED0001120002100F07AFC1220002100F076FC65
:104EE0001320002100F072FC1420002100F06EFC61
:104EF0001520002100F06AFC1620002100F066FC5D
:104F00001720002100F062FC2020002100F05EFC50
:104F10002120002100F05AFC2220002100F056FC44
:104F20002320002100F052FC2420002100F04EFC40
:104F30002520002100F04AFC2620002100F046FC3C
:104F40002720002100F042FC3020002100F03EFC30
:104F50004020002100F03AFC5020002100F036FCF7
:104F60000D20002100F032FC2846BDE83840FFF754
:104F700019BF00BF641200206C12002068120020CC
:104F8000034B1B78012B01D016207047FFF7DEBEC4
:104F90006C12002070B586B003212C2001AA00F00D
:104FA000AFFB9DF80430990746D15C0700F1B4804F
:104FB000784D2B78012B00F0E780774C2068002695
:104FC0002E7010B1FEF7C4FE2660FEF7A9FE206029
:104FD00018B3837A012B00F0BF808388DA085B0165
:104FE0008DF808208DF80930C27A037C012A20D080
:104FF00050F8112F4168CDF81110CDF80D2003F0B5
:105000000F03012400200D2102AA8DF80C302C7012
:1050100000F0BEFB204600F0A1FB9DF8043099068D
:1050200000F181800D2000F05BFB5C4B187006B036
:1050300070BD43F04003E2E700F09CFB04466206CB
:105040003DD4230663D502200D2102AA00F026FBE1
:1050500004F07F04FEF76AFD0028F0D09DF80930C7
:1050600003F0080202F0FF01002A41D000210122D2
:105070008272C1729DF80A109DF808609DF80B506D
:10508000090241EA4651294303F0E00541EA45316E
:1050900003F0030341EA034343609DF80C305E06CE
:1050A00017D5C27203F00F03082B28BF082303741F
:1050B000FEF758FD0120FBF771FD6206C1D5002007
:1050C0000D2102AA04F0BF0400F0E8FAC2E79DF83F
:1050D0000C3003F00F03082B28BF082306AA037423
:1050E00052F80B3D5268C0F81520C0F81130DFE7C8
:1050F0008172C1729DF80820D20042EA5312DD0687
:105100004260E4D50123C3729DF80C30CAE79DF8D4
:1051100004305C077FF54CAF2C200421002200F006
:105120005FFB1C4D49E700F031F99DF805309A0608
:1051300025D413F0180F1BBF012102220122417058
:10514000427113F0C00F1CBF0123037020212C20DB
:10515000002200F045FB65E743688DF80B30C3F390
:105160000142990C42EA411141F008015A0D1B0A13
:105170008DF809108DF808208DF80A3034E70121E8
:105180000322C1704271DCE700F0DAFA40073FF514
:1051900044AF12E764120020681200206D12002054
:1051A00070B582B000F0C0F800F0F0F802210446BB
:1051B00001AA2D2000F0A4FA9DF8053003F0E003C9
:1051C000802B47D09DF804309A0618D413F0180F9E
:1051D00014BF02220122627113F0C00F14D1274EB6
:1051E0003378E3B9264D2B78012B637927D0002B38
:1051F00035D100F091F800F0D7F802B070BD03226D
:1052000013F0C00F6271EAD001231C4E23702D20D1
:10521000C021002200F0E4FA3378002BE2D000F045
:105220008FFA00F004038DF8060003F0FF02002B54
:10523000D8D1134D32702B78012B6379D7D1B3B10C
:105240003378002BD5D10F4B1B68002BD1D0FFF743
:105250007DFDCEE7002363719DF80430BCE7012398
:105260002B70FFF773FD2B78012BE9D0C1E72B7072
:1052700000F052F800F098F802B070BD64120020FF
:105280006C12002068120020024B1878C0F3C10095
:10529000704700BF6D1200200E4B0F490F4A70B4CB
:1052A00041F204000E4C0F4D4FF00056C3F88460DD
:1052B000265846F0C006265040F20450C8608D6162
:1052C0005069802120F04000506183F83D1370BC8C
:1052D00000F0A6B900E100E000B0044080F00F400B
:1052E0000070044000010A000A4B41F2380141F20B
:1052F0003C02585840F478505850995841F00201F7
:10530000995003F582531A6842F002021A60FFF7BF
:10531000C3BF00BF00700440024B4FF000525A6000
:10532000704700BF00E100E0024B4FF00052C3F8AD
:105330008420704700E100E0024B4FF00052C3F8B8
:105340000421704700E100E008B5FFF723FE024B9F
:105350004022C3F8A02008BD00B00440074B084815
:10536000084A10B4F0245A60072180F82340002234
:1053700010469A6019605DF8044B704710E000E039
:1053800000ED00E0FFA50E00FFF72ABB00487047C4
:1053900070120020034B00221A705A709A70DA7053
:1053A0001A7170477012002038B5384C2378012BE1
:1053B0004BD06379354A032B2AD0D278012A27D0E3
:1053C00022793249032A2AD04AB3C978012926D042
:1053D000012A15D1022B47D0012B13D1E2782B499A
:1053E000012A05D04A78012A0CD10420FBF7EEFBF4
:1053F0000520FBF7EBFB2279244B012A5B7901D0D6
:10540000012B13D0002023716070A070E07038BDB4
:1054100023791E4D012B33D0032B11D16379022B3D
:1054200019D02279012AD7D0012BEBD10520FBF727
:10543000CDFB0020637923716070A070E07038BDEF
:105440000120FBF7C3FB6379BAE700230620237032
:10545000FBF7BCFBADE70520FBF7B8FB0420FBF72F
:10546000B5FB22796379B3E7E278084D002AC9D108
:105470000420FBF7ABFB2B79012B6B79ACD0BFE79A
:105480000420FBF7A3FB2B79C6E700BF70120020B6
:105490002DE9F00F451E002D40F3AD800024574B41
:1054A000214613F82120013442F00042A4B242F414
:1054B000803243F8212021B2A942F2DB13F8217097
:1054C0004F4C504A504DDFF84CA1504EDFF8488108
:1054D000DFF8489147F0006747F4803743F82170C0
:1054E000196841F080611960276847F4406700211E
:1054F00041F21C0B47F001074FF0800C2760297028
:1055000041F204076970C2F800C04FF0080C9176B0
:1055100022F80BC0CAF8003041F2080B042341F214
:10552000060AD35340F2022722F80A7042F80B30E1
:1055300041F20C0A41F2100B42F80A1042F80B60DB
:1055400041F2140A41F2180622F80A10915141F270
:10555000160A41F21E0641F23C0B22F80A00905353
:1055600041F2240A0126D176967622F80BC0C8F8BB
:10557000009041F2260C41F2280941F22C0822F851
:105580000A1041F2300A22F80C7041F2380B42F84E
:10559000093041F2340C42F8081041F2360941F268
:1055A0003E081B4F42F80A704FF0104A22F80C30A8
:1055B00042F80B1022F8090022F80800D676C4F849
:1055C0002CA0206802F5815220F001008E218F234B
:1055D00020601C3269702B7013881B06FCD5084BA9
:1055E000DA6A42F01042DA621A6842F001021A6086
:1055F000BDE8F00F7047014B00215FE7B8120020B3
:1056000000C00240008000400010024034C0024050
:1056100078120020009000402090004038C00240E6
:105620002DE9F00741F23C00114C124B54F800A058
:105630001149DFF85480114F114E124D4FF4017291
:105640004FF400794AF4805A4FF4804C44F800A09B
:105650000A614A61C1F81C90C8F84820C3F800C02C
:10566000DF6000201E601D63BDE8F007704700BFCB
:105670000070044000C0024000B004400000FF3849
:10568000010001800000030300D00440024BC0224F
:1056900001201A60FFF7FCBEB81200200E2938B5B1
:1056A0000C46154616D8420002F006020A4B42F09C
:1056B0009002481C1A60FFF7EBFE5CB1074A2846CF
:1056C0000023013352F8233000F8013B431B1BB287
:1056D000A342F6DB38BD00BFB812002078120020CC
:1056E00008B5054B0322586010461A60FFF7D0FE3C
:1056F000024B187A08BD00BFB812002078120020B3
:1057000038B50C460E2C0146154613D80A4B032219
:10571000A01C59601A60FFF7BBFE5CB1074A28461F
:105720000023023352F8233000F8013B431B1BB225
:10573000A342F6DB38BD00BFB8120020781200206B
:1057400008B5044BA02202201A60FFF7A1FE024B0D
:10575000187908BDB81200207812002000F0070068
:10576000034B40F0800201201A60FFF791BE00BF9A
:10577000B812002008B5044BB02202201A60FFF7CF
:1057800087FE024B187908BDB8120020781200205D
:105790000E29F0B415D800F007000B4F40F0400080
:1057A000386051B11446002314F8016B5D1CA31A34
:1057B0001BB28B4247F82560F6DB481CF0BCFFF7B4
:1057C00067BEF0BC704700BFB8120020034B022236
:1057D0005860032099601A60FFF75ABEB812002083
:1057E000054B10B4052458601C6004205DF8044B80
:1057F0009960DA60FFF74CBEB8120020704700BF16
:10580000704700BF08B5FCF777F8052800D008BD41
:10581000BDE8084001F0A0BD00B5012883B003D069
:10582000002003B05DF804FB0529F9D04020019168
:1058300001F08EFF01998029F2D1BFF34F8F054A05
:10584000054BD16801F4E0610B43D360BFF34F8F88
:10585000FEE700BF00ED00E00400FA05032900D0D8
:1058600070470F2001F074BF10B50446FCF744F8F0
:10587000052800D010BD2046BDE8104001F068BFEB
:1058800010B5044600F03CF92046BDE81040FFF793
:10589000B7BF00BF38B5FFF727FD7D20FFF7BCFA83
:1058A00010B14FF0FF3038BD42F21070FFF756FDD7
:1058B00010B16FF0010038BD374800F0B1FA10B1F7
:1058C0006FF0020038BD0320FFF7EAF810B16FF067
:1058D000030038BD3148FBF7F3FF10B16FF004004F
:1058E00038BD2F48FBF7EEFC10B16FF0050038BD56
:1058F0002C48FEF7EFFA10B16FF0060038BD2A48C9
:10590000FEF7FEFA10B16FF0070038BD2748FDF72B
:10591000D3FD10B16FF0080038BD2548FDF7E2FD5A
:1059200010B16FF0090038BD2248FFF7F5F810B14B
:105930006FF00A0038BD2048FEF762FF10B16FF02B
:105940000B0038BD1D48FEF761FF10B16FF00C0071
:1059500038BD032141F21800FCF79CFC184A194B92
:1059600012881B88184D43EA02430360042141F268
:105970001800FCF78FFC41F25804144B41F254011B
:1059800041F25C0259581C599A582B6821440A4428
:105990001344036038BD00BF719D000019980000DA
:1059A0005D980000159B0000459C00008198000058
:1059B0000598000069980000D59C00003D9D0000FE
:1059C0007EC000007CC00000608004400070044085
:1059D000704700BF70B582B001F0C6FC28B300214B
:1059E000012241F20100FCF721FE012101AA41F24E
:1059F0000300FCF797FC01F0B7FCBDF804309842B7
:105A000004D001F0B1FC2149FBF762F901F09AFEE4
:105A10001F4B1B88584010F06F0F21D11D4C00F018
:105A20004DF8237943B902B070BD0146024641F2F8
:105A30000100FCF7FBFDE9E7174EFFF725FC337883
:105A400083420546EFD0012818D010D3022804D194
:105A5000124BE26A9A665B6F9847357002B070BD70
:105A600001F070FE00F06F00FFF764F8D6E70B4B13
:105A700000229A665B6F98473570EFE7074BA26983
:105A80009A665B6F98473570E8E700BF58C1000021
:105A900056130020FC000020F8120020B001002066
:105AA000014B1879704700BF78000020024B032299
:105AB0001A765A76704700BF7800002010B501F0C2
:105AC00039FB0D4CC011A08201F028FBBDEEC00ACD
:105AD000B8EEC00A00F0EAFFE08201F00DFB9FED96
:105AE000077AF6EE007AE0EE077AFDEEE77A17EE37
:105AF000903AA38510BD00BF780000203046E240F8
:105B0000012808B500D008BD014B1B69984708BDA6
:105B1000B0010020012810B502D00023184610BDA6
:105B20004448016819B90EE050F8041F59B10C88B7
:105B30009442F9D18C789C42F6D1CB68002BEDD001
:105B400098470023EAE746F269039A4257D019D9E9
:105B500046F26C039A4246D039D946F278039A420B
:105B60001ED046F279039A4218D101F0B7FADFED60
:105B7000327A324A20EE270A0023FCEEC07AC2EDC8
:105B80000C7ACBE742F26C039A4247D046F26303A9
:105B90009A423DD042F263039A4211D00323BDE7FB
:105BA00001F0AAFA9FED267A244AF6EE007AE0EE9A
:105BB000077A0023FDEEE77A17EE901A9185ADE79C
:105BC00001F0B8FA1D4BC01198820023A6E746F2F7
:105BD0006B039A42E2D101F085FF00F067FF174A9C
:105BE000002350629AE701F099FABDEEC00AB8EEC0
:105BF000C00A00F05BFF114A002390628EE701F0BB
:105C00008DFA0E4ABDEEC00A002382ED080A85E730
:105C100001F090FA094A0023D0617FE701F07EFA93
:105C2000BDEEC00AB8EEC00A00F040FF034A0023F0
:105C3000D08273E71800002000007A44780000202A
:105C40003046E24070B5012882B002D0002002B098
:105C500070BD1E4D2C681CB90DE055F8044F54B1B1
:105C600026889642F9D1A0789842F6D12369002B74
:105C7000ECD09847EAE741F651718A420CD046F2DF
:105C800060039A421ED1124B93F91820032ADDD0EB
:105C900003221A760A20DAE7012BD7D110461946DB
:105CA0000DF10702FCF70AFB0028D0D19DF8074050
:105CB000002CCBD101F04CFD01F058FA00F08CF82B
:105CC0002046C4E7032002B070BD00BF18000020CA
:105CD0007800002038B5FBF70FFE7F2801D01A208E
:105CE00038BD72B6144D00F053FC00F0E9F82B6893
:105CF000FBB1043D0024DB6803B198476B68198849
:105D00009B78204643EA014100F0FAF855F8043F39
:105D1000201D596800F0F4F86B680834002BEAD1B4
