:020000040800F2
:1040000000A00020F170000883700008857000088F
:1040100087700008897000088B700008000000009D
:104020000000000000000000000000008D7000088B
:104030008F70000800000000917000089570000863
:104040004171000841710008417100084171000888
:104050004171000841710008A57000084171000815
:104060004171000841710008417100084171000868
:104070004D6B000841710008417100084171000852
:10408000417100084171000841710008ED4B0008C2
:10409000514C00084171000841710008417100084D
:1040A0004171000841710008417100084171000828
:1040B0004171000841710008417100084171000818
:1040C0004171000841710008417100084171000808
:1040D00041710008417100084171000841710008F8
:1040E00041710008417100084171000841710008E8
:1040F00041710008417100084171000841710008D8
:1041000000000000000000000000000041710008F5
:1041100041710008417100084171000841710008B7
:1041200041710008417100084171000841710008A7
:10413000417100084171000800000000000000000B
:104140004171000841710008417100080000000041
:10415000000000000000000000000000000000005F
:1041600000000000000000004171000841710008DB
:104170004171000800000000000000000000000085
:0841800000000000417100087D
:1041880010B5054C237833B9044B13B10448AFF389
:1041980000800123237010BD580400200000000097
:1041A8002897000808B5064B1BB106480649AFF327
:1041B80000800648036813B1054B03B1984708BD52
:1041C80000000000289700085C0400205804002024
:1041D8000000000081F0004102E000BF83F00043CE
:1041E80030B54FEA41044FEA430594EA050F08BF8A
:1041F80090EA020F1FBF54EA000C55EA020C7FEA4E
:10420800645C7FEA655C00F0E2804FEA5454D4EBCA
:104218005555B8BF6D420CDD2C4480EA020281EA94
:10422800030382EA000083EA010180EA020281EACC
:104238000303362D88BF30BD11F0004F4FEA01311E
:104248004FF4801C4CEA113102D0404261EB41012D
:1042580013F0004F4FEA03334CEA133302D05242B3
:1042680063EB430394EA050F00F0A780A4F101046F
:10427800D5F1200E0DDB02FA0EFC22FA05F28018A9
:1042880041F1000103FA0EF2801843FA05F359418F
:104298000EE0A5F120050EF1200E012A03FA0EFC0E
:1042A80028BF4CF0020C43FA05F3C01851EBE37138
:1042B80001F0004507D54FF0000EDCF1000C7EEB55
:1042C80000006EEB0101B1F5801F1BD3B1F5001F93
:1042D8000CD349085FEA30004FEA3C0C04F10104B2
:1042E8004FEA445212F5800F80F09A80BCF1004FDB
:1042F80008BF5FEA500C50F1000041EB045141EA5D
:10430800050130BD5FEA4C0C404141EB010111F45D
:10431800801FA4F10104E9D191F0000F04BF014608
:104328000020B1FA81F308BF2033A3F10B03B3F1E6
:1043380020020CDA0C3208DD02F1140CC2F10C0276
:1043480001FA0CF021FA02F10CE002F11402D8BFD4
:10435800C2F1200C01FA02F120FA0CFCDCBF41EAA0
:104368000C019040E41AA2BF01EB0451294330BD6F
:104378006FEA04041F3C1CDA0C340EDC04F114044C
:10438800C4F1200220FA04F001FA02F340EA030023
:1043980021FA04F345EA030130BDC4F10C04C4F169
:1043A800200220FA02F001FA04F340EA0300294649
:1043B80030BD21FA04F0294630BD94F0000F83F493
:1043C800801306BF81F480110134013D4EE77FEA76
:1043D800645C18BF7FEA655C29D094EA050F08BFC2
:1043E80090EA020F05D054EA000C04BF19461046A3
:1043F80030BD91EA030F1EBF0021002030BD5FEAE7
:10440800545C05D14000494128BF41F0004130BD0E
:1044180014F580043CBF01F5801130BD01F0004562
:1044280045F0FE4141F470014FF0000030BD7FEAD5
:10443800645C1ABF194610467FEA655C1CBF0B46D0
:10444800024650EA013406BF52EA033591EA030FE7
:1044580041F4002130BD00BF90F0000F04BF0021DF
:10446800704730B54FF4806404F132044FF0000512
:104478004FF0000150E700BF90F0000F04BF00218B
:10448800704730B54FF4806404F1320410F00045F1
:1044980048BF40424FF000013EE700BF42004FEAEC
:1044A800E2014FEA31014FEA02701FBF12F07F4369
:1044B80093F07F4F81F06051704792F0000F14BF66
:1044C80093F07F4F704730B54FF4607401F00045AA
:1044D80021F0004120E700BF50EA010208BF704701
:1044E80030B54FF000050AE050EA010208BF7047F6
:1044F80030B511F0004502D5404261EB41014FF45F
:10450800806404F132045FEA915C3FF4DCAE4FF062
:1045180003025FEADC0C18BF03325FEADC0C18BF49
:10452800033202EBDC02C2F1200300FA03FC20FA9A
:1045380002F001FA03FE40EA0E0021FA02F11444E7
:10454800C1E600BF70B54FF0FF0C4CF4E06C1CEAFC
:1045580011541DBF1CEA135594EA0C0F95EA0C0F71
:1045680000F0DEF82C4481EA030621EA4C5123EAE4
:104578004C5350EA013518BF52EA033541F4801113
:1045880043F4801338D0A0FB02CE4FF00005E1FBC6
:1045980002E506F00042E0FB03E54FF00006E1FB10
:1045A80003569CF0000F18BF4EF0010EA4F1FF0453
:1045B800B6F5007F64F5407404D25FEA4E0E6D4193
:1045C80046EB060642EAC62141EA55514FEAC520A4
:1045D80040EA5E504FEACE2EB4F1FD0C88BFBCF520
:1045E800E06F1ED8BEF1004F08BF5FEA500E50F1D1
:1045F800000041EB045170BD06F0004646EA010197
:1046080040EA020081EA0301B4EB5C04C2BFD4EBC8
:104618000C0541EA045170BD41F480114FF0000EC1
:10462800013C00F3AB8014F1360FDEBF002001F02F
:10463800004170BDC4F10004203C35DA0C341BDCA9
:1046480004F11404C4F1200500FA05F320FA04F07B
:1046580001FA05F240EA020001F0004221F00041AF
:1046680010EBD37021FA04F642EB06015EEA430E22
:1046780008BF20EAD37070BDC4F10C04C4F1200552
:1046880000FA04F320FA05F001FA04F240EA020005
:1046980001F0004110EBD37041F100015EEA430ED6
:1046A80008BF20EAD37070BDC4F1200500FA05F2F6
:1046B8004EEA020E20FA04F301FA05F243EA020375
:1046C80021FA04F001F0004121FA04F220EA020084
:1046D80000EBD3705EEA430E08BF20EAD37070BDCA
:1046E80094F0000F0FD101F00046400041EB0101AA
:1046F80011F4801F08BF013CF7D041EA060195F08C
:10470800000F18BF704703F00046520043EB030345
:1047180013F4801F08BF013DF7D043EA0603704732
:1047280094EA0C0F0CEA135518BF95EA0C0F0CD03D
:1047380050EA410618BF52EA4306D1D181EA030183
:1047480001F000414FF0000070BD50EA410606BF7D
:104758001046194652EA430619D094EA0C0F02D1C2
:1047680050EA013613D195EA0C0F05D152EA033607
:104778001CBF104619460AD181EA030101F0004125
:1047880041F0FE4141F470014FF0000070BD41F06E
:10479800FE4141F4780170BD70B54FF0FF0C4CF448
:1047A800E06C1CEA11541DBF1CEA135594EA0C0F67
:1047B80095EA0C0F00F0A7F8A4EB050481EA030EB4
:1047C80052EA03354FEA013100F088804FEA03339B
:1047D8004FF0805545EA131343EA12634FEA022269
:1047E80045EA111545EA10654FEA00260EF000412A
:1047F8009D4208BF964244F1FD0404F5407402D27C
:104808005B084FEA3202B61A65EB03055B084FEA0C
:1048180032024FF480104FF4002CB6EB020E75EB09
:10482800030E22BFB61A754640EA0C005B084FEA31
:104838003202B6EB020E75EB030E22BFB61A7546AE
:1048480040EA5C005B084FEA3202B6EB020E75EBF9
:10485800030E22BFB61A754640EA9C005B084FEA71
:104868003202B6EB020E75EB030E22BFB61A75467E
:1048780040EADC0055EA060E18D04FEA051545EA6D
:1048880016754FEA06164FEAC30343EA52734FEA16
:10489800C2025FEA1C1CC0D111F4801F0BD141EA8F
:1048A80000014FF000004FF0004CB6E711F4801FF4
:1048B80004BF01430020B4F1FD0C88BFBCF5E06FD4
:1048C8003FF6AFAEB5EB030C04BFB6EB020C5FEAE4
:1048D800500C50F1000041EB045170BD0EF0004E39
:1048E8004EEA113114EB5C04C2BFD4EB0C0541EA6B
:1048F800045170BD41F480114FF0000E013C90E668
:1049080045EA060E8DE60CEA135594EA0C0F08BF2B
:1049180095EA0C0F3FF43BAF94EA0C0F0AD150EA2A
:1049280001347FF434AF95EA0C0F7FF425AF1046BD
:1049380019462CE795EA0C0F06D152EA03353FF4E5
:10494800FDAE1046194622E750EA410618BF52EA62
:1049580043067FF4C5AE50EA41047FF40DAF52EA36
:1049680043057FF4EBAE12E74FEA4102B2F1E043B0
:1049780024BFB3F5001CDCF1FE5C0DD901F0004C3E
:104988004FEAC0024CEA5070B2F1004F40EB83008E
:1049980008BF20F00100704711F0804F21D113F1BA
:1049A8003872BCBF01F00040704741F480114FEAF3
:1049B8005252C2F11802C2F1200C10FA0CF320FA7C
:1049C80002F018BF40F001004FEAC1234FEAD32399
:1049D80003FA0CFC40EA0C0023FA02F34FEA430303
:1049E800CCE77FEA625307D150EA01331EBF4FF08C
:1049F800FE4040F44000704701F0004040F0FE40A7
:104A080040F40000704700BF70B50F4E0F4D761B85
:104A1800B61007D0043D0024013455F8043F9847E8
:104A2800A642F9D10A4E0B4D761B04F079FEB6105A
:104A380008D0043D0024013455F8043F9847A642A5
:104A4800F9D170BD70BD00BF50970008509700089D
:104A58005897000850970008F0B4840743D0541EB4
:104A6800002A3ED0CDB2034603E0621E002C38D0A7
:104A7800144603F8015B9A07F7D1032C2AD9CDB263
:104A880045EA05250F2C45EA054515D9A4F1100777
:104A98003F0903F1100606EB07161A461560556024
:104AA8009560D5601032B242F8D104F00F04013796
:104AB800032C03EB07130DD91E462246043A032A9A
:104AC80046F8045BFAD8221F22F00302043213448A
:104AD80004F003042CB1C9B21C4403F8011BA3421F
:104AE800FBD1F0BC704714460346C6E7024B13B12E
:104AF800024800F005B8704700000000154B000898
:104B0800014600200246034600F018B838B5094DA2
:104B1800094C641BA41018BF05EB840505D0013CA3
:104B280055F8043D9847002CF9D1BDE8384004F009
:104B3800FDBD00BF589700085C970008F0B5274CEA
:104B48002668D6F8484185B00746002C41D06568EC
:104B58001F2D1EDD224818B94FF0FF3005B0F0BDFB
:104B68004FF4C870039102920193AFF30080039948
:104B7800029A019B04460028EED0D6F848512560D9
:104B8800002060600546C6F84841C4F88801C4F8AA
:104B98008C013FB9AB1C00200135656044F8231037
:104BA80005B0F0BD04EB85004FF0010CC0F888207B
:104BB800D4F888610CFA05F21643022FC4F888610C
:104BC800C0F80831E6D1D4F88C311A43C4F88C21E6
:104BD800E0E706F5A674C6F84841B8E7BC910008B6
:104BE8000000000038B5164C164894F8023501212B
:104BF80023F0020384F8023502F05AFE254695F8A0
:104C0800003595F801250E4C9A4217D014210D480D
:104C180001FB034102F02CFC04280FD094F8023564
:104C280094F8002523F00103013202F03F0243F01B
:104C3800020384F8002584F80235E0E738BD00BF98
:104C4800D80B002000640040F0B5224C94F80165B0
:104C5800751C87B005F03F051F48002102F002FDD2
:104C680090B194F800351B4FAB420DD0142202FBD3
:104C780006721948002102F095FC6B1C87F8015553
:104C88002E4603F03F05E7E71348144902F054FDA8
:104C9800F0B11148114902F0BBFDD4F804350133D5
:104CA800C4F8043521250C48002102F0DBFC78B15A
:104CB800013D15F0FF050BD00748002101AA02F0BD
:104CC80071FC94F8023543F0010384F80235EAE7F1
:104CD80007B0F0BDD006002000640040100000328C
:104CE800F0B54C4E8BB04FF48020012103F04CFC02
:104CF80030460821092203F077FA09210A4630468E
:104D080003F072FA4FF440730024012501A90193BE
:104D18000227032330468DF809308DF808708DF886
:104D28000A408DF80B5003F02FF9142368463A4EC9
:104D38008DF800308DF801408DF802408DF8035051
:104D480003F09AFA132368468DF800308DF8014075
:104D58008DF802408DF8035003F08EFA29464FF083
:104D6800007003F059FC304602F0E8F903A802F09D
:104D78006FFB08238DF81030052303A98DF8113037
:104D880030462023ADF80C308DF812408DF81350C2
:104D98008DF814408DF815408DF816408DF81740A1
:104DA8008DF80E408DF80F4002F0E0F906A88DF856
:104DB80022408DF823408DF82450ADF81840ADF806
:104DC8001A40ADF81C40ADF81E40ADF820408DF8F3
:104DD800255002F0A1FA114B83F8004583F80145EC
:104DE80083F80245C3F804450D4B304629462A4648
:104DF80083F8004583F8014583F80245C3F8044564
:104E080002F052FC304639462A4602F04DFC0BB0FF
:104E1800F0BD00BF0004004800640040D006002038
:104E2800D80B002070B50121002286B00546354810
:104E380002F03AFC344B93F8021501F0020000F03E
:104E4800FF021C4620BB2B88A978019302928DF89B
:104E58000D208DF80C208DF80E1013468B4206DAC3
:104E6800E81801AA1A44C078D0720133F6E701A9FC
:104E7800244802F0FDFA94F802352248012143F053
:104E880002030A4684F8023502F00EFC012435E0DC
:104E980093F8012593F80065501C00F03F00864206
:104EA8001DD014235343E1182E88E65000234B608D
:104EB80001F108064B720B72A978B17002EB8202FD
:104EC80004EB8202A9788B4205DAE918CE78D1186A
:104ED8000133CE72F6E784F80105012409E0D3F81E
:104EE800042541F00101013283F80215C3F80425B5
:104EF8000024012103480A4602F0D6FB204606B0EA
:104F080070BD00BF00640040D80B00201F2838B5D2
:104F180004460D4603D90648D82102F0ADF8054BE2
:104F28000E2254431A191D530123137338BD00BFB1
:104F3800C0910008100500202DE9F0411E4991F8A4
:104F4800016591F80005B04233D01B4B142404FBD3
:104F580000341A4B03F5E0771A7BD2071AD51D885F
:104F68002268954216D1A57A9D700022AA4209DAD4
:104F780004EB020803EB020C98F80B808CF8038012
:104F88000132F3E71A7B95074CBF42F0040242F066
:104F980002021A730E33BB42DED191F8023501309A
:104FA80000F03F0023F0010381F8000581F8023585
:104FB800C7E7BDE8F08100BFD0060020100500203B
:104FC8001F2838B505460C4603D90D48FB2102F0C9
:104FD80053F80C4B0E2000FB0530037B03F0030352
:104FE800032B0BD103682360436863608368A36065
:104FF800037B23F006030373012038BD002038BD6E
:10500800C09100081005002001F07F0141EAC0109E
:1050180070470000064B1A78064B80321A60064B20
:105028001A8008229A70054B00221A70704700BF38
:1050380018110020E8100020F010002005110020B1
:10504800C308054A012100F0070001FA00F0D15C0D
:105058000843D054704700BFFD100020C308054A1C
:10506800012100F0070001FA00F0D15C21EA0000FC
:10507800D0547047FD1000200023054A9A5C22B9DD
:105088000133042BF9D1012070470020704700BF7D
:10509800FD100020F0B50023134A14499C5C5A5CAB
:1050A80094EA02051AD0002245FA02F7FF07D6B2A1
:1050B80011D5144104F001040470012505FA02F227
:1050C800C85C0CB1024301E020EA0202CA5446EA75
:1050D800C303D8B2F0BD0132082AE5D10133042B4D
:1050E800DAD10020F0BD00BFFD100020E410002040
:1050F800034B00221A705A709A70DA70704700BF1A
:10510800E41000202DE9F743204C2678A14616B17B
:10511800012E30D034E00DF10700FFF7BBFF074642
:1051280080B39DF807801A4D1A4CB8F1000F06D0CD
:105138002B78E67043F001032B70102306E0FFF78D
:105148009BFF08B185F800800023E37023712B785A
:1051580063711048A7710023E37123726372A3720D
:10516800FFF760FE012389F8003001F09FFF0A4B2A
:105178006430186006E0084B186801F09DFF08B11C
:105188000023237003B0BDE8F08300BF05110020A1
:10519800FC100020F0100020EC100020BFF34F8F0F
:1051A800044A054BD16801F4E0610B43D360BFF3B7
:1051B8004F8FFEE700ED00E00400FA050C4B10B538
:1051C80000241C700B4B01229A700B4A127820465F
:1051D80002F5E06221461A80FFF798FE03204FF49B
:1051E800E861FFF793FE054B1C60054B1C6010BD82
:1051F800740400201A110020181100207C040020DB
:105208007804002008B5FFF76BFD084B5A79084B66
:105218001A7000F0DBFCFFF7D1FFFFF7FBFE00F090
:10522800FDFABDE8084000F013BE00BFC012002020
:1052380018110020F8B5594CFFF77EFE2378A3B962
:105248005748C370FFF7EEFD01F030FF554B00F5EE
:105258007A70186001F02AFF534B00F59C4020300B
:1052680018607F23237000F0BFFB23787F2B04D0C6
:10527800043BDBB2012B00F281804C4E494D0020EB
:105288003146FFF79DFEB0B333791BB1484A127817
:105298009A4230D101F00AFFF3780138012B2860D7
:1052A80004D105232370FFF723FF24E0022B01D14B
:1052B80004230AE0802B01D17F2306E0812B11D043
:1052C800822B06D1FFF79EFF0023237000F08CFB92
:1052D80011E0902B08D1374B1A7842F001021A706E
:1052E80001F07AFCFFF75AFF912B04D1314B1A7861
:1052F8006FF30002F3E7286801F0DEFE50B128489A
:105308002378C370FFF78EFD01F0D0FE254B00F522
:105318007A701860284F244E03203946FFF750FE54
:10532800D0B12378052B0ED1FB78052B08D01B4B69
:105338007F221A7000F058FB1020FFF781FE02E070
:105348001020FFF78BFE1120FFF788FE01F0AEFE5C
:1053580000F59C4020303060306801F0ADFE68B147
:105368002378042B08D000F03FFB01F09FFE0138A2
:1053780028601120FFF764FE042323702378052B8F
:1053880004D100F079FD00F0C5FB01E07F2B03D1CB
:10539800FFF7B8FE00F03EFD2078F8BD7404002049
:1053A8001A110020780400207C0400200811002035
:1053B80018110020C01200202611002008B503464D
:1053C800008800F4005292B292B19B681A79732A4D
:1053D8001FD15A79612A1CD19A79762A19D1DA799A
:1053E800652A16D1DB78012B13D101F0F5FB0EE00D
:1053F80000F4804080B268B19868C178012908D16A
:10540800027198684271986882719B68D97104200A
:1054180008BD002008BD08B50346008800F4005206
:1054280092B292B19B681A796C2A1FD15A796F2A65
:105438001CD19A79612A19D1DA79642A16D1DB78D4
:10544800012B13D101F0A4FC0EE000F4804080B2DF
:1054580068B19868C178012908D1027198684271C9
:10546800986882719B68D971042008BD002008BD26
:1054780037B5048804F400539BB2054653B18368DA
:10548800DA78012A1BD11879D8B10138C0B201F0F5
:10549800D1FB16E004F48044A4B2ACB18268D4789D
:1054A800012C10D10DF1070001F086FBAB6820B18B
:1054B8009DF8072001321A7106E0187104E00024F3
:1054C80002E0042400E01C46204603B030BD000082
:1054D800F0B5034613260020371A00EB6707FFB222
:1054E8000C24DFF858C07C430CEB04053CF804405E
:1054F8009C421DD895F802C0A444634513DAE878A5
:10550800884219D909B26E6806EBC10036F8311025
:1055180001F4805189B221B11B1B2C7A634313809B
:10552800F0BD1180F0BD9C4202D2781CC0B201E0EF
:105538007E1EF6B2B042CFD90020F0BDB09400086C
:1055480030B50488650485B03AD5456820040AD585
:1055580004A86B68029324F40054039220F80C4DBD
:105568002B6898474AE0E4B2013C122C46D8DFE8A1
:1055780004F00A292C19292C19191D1F211D1F2176
:10558800211B1B242400002D38D06B1869581B7967
:10559800D80803F00703095C41FA03F303F0010399
:1055A80013702BE0002406E0002407E001240AE041
:1055B80001240BE00124042009E00124082006E06E
:1055C80010481CE00024012001E000240220984239
:1055D80014D80DB9002012E03CB90D44E3B298424A
:1055E800F8D02B5D13550134F8E76C580023D9B275
:1055F8008842EFD0E15CD1540133F8E7024805B0A6
:1056080030BD00BF000001061000070673B515463F
:105618000DF106020C461E46FFF75AFF30B1BDF8E1
:1056280006102A463346FFF78BFF04E0034B044875
:10563800002C08BF184602B070BD00BF000002066B
:105648001100090630B503889C0485B05AD5446812
:1056580018040CD504A86168029123F4804320F84B
:105668000C3D03922368984700284DD042E0002C57
:1056780040D0DBB2013B6018122B48D8DFE803F0BA
:105688000A212427212427272F33372F3337372A76
:105698002A3C3C00531810781C795258E30804F04F
:1056A800070110F001004FF0010404FA01F103D0E2
:1056B800D45C2143D1541DE0D55C25EA0101D154C5
:1056C80026E01378635415E01388635212E01368D8
:1056D80063500FE0D2E90023C0E900230AE06358D1
:1056E80012781A7006E0635812881A8002E063582C
:1056F80012681A6000200BE0D2E900236158C1E962
:105708000023F7E7034803E04FF0006000E0024899
:1057180005B030BD00000106100007062DE9F7436B
:105728001A4E044600F5D05840460021321901238C
:10573800FFF76CFFB14618BB0546012619F804307F
:10574800B3421ED30423314601AA4046FFF75EFF49
:105758000F4ABDF806009DF8051005EB041702EB8B
:105768004702FFF7B5FE0B4B9DF8042043F82700CE
:10577800094BDA5508B10135EDB20136F6B2DDE76D
:10578800002509F8045003B0BDE8F0832A12002070
:10579800FE11002068110020EC1100202DE9F743CC
:1057A8001A4E044600F5B05840460021321901232C
:1057B800FFF72CFFB14618BB0546012619F804303F
:1057C800B3421ED30423314601AA4046FFF71EFF09
:1057D8000F4ABDF806009DF8051005EB041702EB0B
:1057E8004702FFF775FE0B4B9DF8042043F827008E
:1057F800094BDA5508B10135EDB20136F6B2DDE7ED
:10580800002509F8045003B0BDE8F083FC1100201E
:1058180040110020AC1100202B12002038B52C4D6F
:10582800002128460C22FFF717F900210C222948ED
:105838000024FFF711F9284B28481C702146402204
:10584800FFF70AF9214620222548FFF705F92146E6
:1058580010222448FFF700F9234B24481C702146E6
:105868004022FFF7F9F8214620222148FFF7F4F8F3
:10587800214610221F48FFF7EFF81F4B1F491C70E5
:105888001F4B1C801F4B1C701F4B1A69187D087119
:10589800D88A0A60C880A242C2F30A0129801D463C
:1058A80005DB0420FFF732FB2046FFF777FF174B95
:1058B800AA68297B1A601971064BC2F30A01002AEB
:1058C800198004DB0020BDE83840FFF727BF38BD4A
:1058D8003C1200201E120020341100206811002004
:1058E800FE110020EC1100202A120020AC1100202B
:1058F800401100202B120020FC1100206011002014
:10590800A811002048120020C012002038110020E1
:105918002DE9F74F074628B12C4B0022DA5503B082
:10592800BDE8F08F2A4BDFF8B08093F800B0DFF8BD
:10593800AC90284C05460646EBB29B45ECD0DFF808
:10594800A0A015F80A20072A27D8DFF898E02178C0
:105958009EF802E0F00806F0070301301941864579
:105968008DF8071009D943B16078C3F1080300FA2C
:1059780003F319438DF80710013401239DF807102C
:1059880058F8040C9340013B02AA0B4002F8013D71
:1059980039F8021CFFF756FE0DE0224658F8040CB1
:1059A80039F8021CFFF74EFE15F80A30073606F0E4
:1059B800F80604EBD3041AF805301E44F6B2013594
:1059C80008F1040809F10209B6E700BF7A120020BD
:1059D800FC1100203F120020B011002042110020CD
:1059E8002B1200203C12002008B5054800210C228B
:1059F800FFF732F80020BDE80840FFF789BF00BF75
:105A08003C1200202DE9F74F0646002850D1324BB2
:105A1800DFF8D89093F800B0DFF8D4802F4C074611
:105A28000546FBB29B4544D0DFF8C8A017F80A30FA
:105A3800072B20D859F8040C38F8021C0DF107027E
:105A48000123FFF77DFD48BB9DF807202078E90872
:105A580005F0070302FA03FC01314CEA00000729AC
:105A680020701BD8D3B16178C3F108031A410A43E7
:105A78006270013412E00735C5F3C703C3F10803A8
:105A88002246DBB259F8040C38F8021CFFF758FD1F
:105A980017F80A3005F0F80504EBD3041AF80730B4
:105AA8001D44EDB2013709F1040908F10208B8E70D
:105AB80000250B4A0C237343D1180735ED108D7060
:105AC800084951F83610C1F30A01D152064B002299
:105AD8009A5503B0BDE8F08F2A1200202112002049
:105AE8001E120020381100207C1200206C110020AA
:105AF80000120020EC110020044B00221A54044B21
:105B08000C2202FB0030FFF78DB900BF7C12002089
:105B18001E12002038B51F4C2368002B25DB0420FB
:105B28001D49FFF74DFA054678B101F0BFFAE38841
:105B38001A4A18441A4B108001221A702379FF2B35
:105B480013D10020FFF7E4FE0FE0E3886BB1134B9D
:105B5800188801F0B1FA40B1114B1A782AB11148EE
:105B68001D7029460822FEF777FF0F4C2378DB07C4
:105B78000ED50E4B1B79FF2B0AD10020FFF742FFF1
:105B88000020FFF7B9FF18B1237823F00103237031
:105B980038BD00BF601100203C120020A811002071
:105BA800481200203F120020341100203811002034
:105BB800C308054A012100F0070001FA00F0D15C92
:105BC8000843D054704700BF3411002010B50F4B64
:105BD8000F4C104A1B780820A07003F5B061A07321
:105BE8009070907303F5B8601180908103F5C061DF
:105BF8000E2003F5C8632180A381FFF787F9A189E7
:105C08000F20BDE81040FFF781B900BF1811002030
:105C18004A12002062120020F0B50F4C0C23C2F18A
:105C2800040503FB0043AD0045F04305DD700B465A
:105C38005E1A76B296424FF00C0506DA05FB00456F
:105C48002E4413F8017BF771F2E705FB0040BDE82D
:105C5800F040FFF7E7B800BF62120020074B0C22A4
:105C680002FB00308023C3700B0A817243720B0C55
:105C7800090E0372C171FFF7D5B800BF6212002088
:105C88002DE9FF41594F0E780C460C2303FB007396
:105C98006278897894F803801A7194F802C083F8BE
:105CA80005C006F0E00694F803C083F806C0402E4D
:105CB800054602D0202E40F0908002EB012080B2F1
:105CC80041460DF10202FFF703FC00287DD0402E6B
:105CD80003881ED15A0448D5DAB2023A92B2112A80
:105CE80004D843498E5C43498A5C01E00022164689
:105CF8001F0423D5426804A85168029123F4005375
:105D080020F80C3D03941368984798B12846211D44
:105D18001FE0990429D51A041FD5426804A85168C0
:105D2800029123F4804320F80C3D039413689847AC
:105D3800002842D128464FF0006151E096B14368EF
:105D480083B1BDF80200012A03EB000108BF19580E
:105D580028463246FFF760FF44E0DBB2023B9BB2C5
:105D6800112B05D9284624493AE02846234937E02B
:105D7800234A2449D25C11F803E0002AF2D02378A0
:105D8800C3F38103C3F104039A42EBD1BDF8023097
:105D98004668BEF1010F06EB030108BFF158002366
:105DA800E61896F804E004F803E046680EB101F836
:105DB80003E00133DBB29342F2D10C2000FB057003
:105DC8006023C370FFF72EF80CE02846B8F1000FE7
:105DD80001D10D4904E00D4902E0802E02D00C49A2
:105DE800FFF73CFF002004B0BDE8F08162120020FC
:105DF800E8950008FA95000810000706000001065B
:105E08000C9600081E9600080000020611000906FC
:105E18000100040508B50E200949FFF7D1F818B1AB
:105E280000200849FFF72CFF0F200749FFF7C8F8A3
:105E380028B101200549BDE80840FFF721BF08BD8A
:105E48004A1200204D12002056120020591200203C
:105E5800064B10B500241C70054B022080211C70D5
:105E6800FFF754F8034B1C7010BD00BF7A120020D6
:105E78007C1200207B1200201FB5022001A9FFF729
:105E88009FF8154B18B301221A70144B1A78013277
:105E9800D2B21A70124B1979914205D81B68002B9F
:105EA80002DB0020FFF734FD0E4B1A780132D2B224
:105EB8001A700D4B197991420AD81B68002B07DB21
:105EC8000020FFF79FFD0020FFF716FE00E0187086
:105ED80005B05DF804FB00BF7B1200207A12002099
:105EE800601100207C12002038110020704700004B
:105EF800F8B51D461E4B14461A78012A07460E4669
:105F080035D100224FF0904010211A7002F042F96A
:105F18000EB144F08004174B1C70012447B1AC4209
:105F28000DD83A1912F8012C1A550134E4B2F6E7E3
:105F3800AC4204D800221A550134E4B2F8E70E4BFB
:105F48000E491D700E4B0F481E608C8101F0CCFD70
:105F58000C48012101F06AFE0B490C488C8101F0C4
:105F6800C3FD0A480121BDE8F84001F05FBEF8BD55
:105F7800AC040020AD040020F8040020C004002078
:105F8800F40400201C00024080040020300002407D
:105F980010B50C46134600212246BDE81040FFF715
:105FA800A7BF30B505460C461346294622460020B1
:105FB800BDE83040FFF79CBF08B50F4B1B780BB905
:105FC800002008BD0D48802102F026FD0028F7D1E9
:105FD8000A48022102F020FD0028F1D007480121DB
:105FE80002F01AFD0028EBD14FF09040102102F08A
:105FF800A7F8012008BD00BFAC0400200030014014
:106008002DE9F04F2DED068BC84D9FEDC99AC94F6C
:10601800C94ECA4CDFF8588385B002238DF80F307B
:106028002B78032B00F23182DFE813F00400120012
:10603800370035010DF10F004C210122FFF7A8FFB1
:1060480001F034F8BE4B0A30186001232B7021E0B0
:10605800DFF8EC92D9F8000001F02EF880B1FFF7D4
:10606800ABFF68B1B74802210622FFF79AFF01F09B
:106078001DF800F59C5008300223C9F800002B7069
:10608800D9F8000000F59C50083001F015F80028F8
:1060980040F0F5804FF00009FBE1FFF78DFF002885
:1060A80000F0EA80A74B987893F8039059781A780B
:1060B80040EA092942EA01220FFA89F908215879A8
:1060C8001B7999FBF1F912B292FBF1F21FFA89F9E7
:1060D8001FFA82FB43EA002319FB09F01BFB0B00A4
:1060E80006EE900AF8EEE66A1BB293FBF1F116EEA3
:1060F800900A1FFA81FA02F063FE07EE900AF3EEA7
:10610800049AF4EEE97A0FFA89F2F1EE10FA0AEE3F
:10611800102A12DDB8EECA7ADFED8B8A87EE277A6D
:1061280017EE100A02F0FAFD06EE900ADFED877A04
:1061380066EEA88AC8EEA78A01E0DFED858A1AFB19
:106148000AF31BFB0B3006EE900AF8EEE66A0FFA2C
:106158008BF2002A16EE900AB8BFF1EE688A019217
:10616800009302F02DFE07EE900AF4EEE97AF1EEC4
:1061780010FA16DD0FFA8AF207EE102AB8EEC77A7F
:106188009FED718A87EE277A17EE100A02F0C6FD96
:1061980006EE900ADFED6D7A26EE888A88EE278A69
:1061A80001E09FED6B8A009B019A19FB093006EE0E
:1061B800900AF8EEE66A002A16EE900AB8BFB1EE29
:1061C800488A02F0FDFD07EE900AF4EEE97AF1EE56
:1061D80010FA16DD0FFA8AFA07EE10AAB8EEC77A97
:1061E80087EE277A17EE100A02F098FDDFED567A4F
:1061F80007EE100A67EE277A9FED547AC7EE877A82
:1062080001E0DFED537A1AEE102AB3EE0E7A002A77
:10621800B4EEC78AB8BFF1EE677AF1EE10FA04D58A
:10622800F4EEC77AF1EE10FA0DD49FED4A7AB4EE87
:10623800C78AF1EE10FA01DC002305E0F4EEC77A14
:10624800F1EE10FAF8DD0123434ADBB213702BB9E3
:10625800FDEEE88A414B18EE902A1A80394842210F
:106268000622FFF79EFE00F021FF354B00F59C50FB
:106278000830186003232B70314A106805E7384B43
:106288003848012200211A7001F0D0FC364800215C
:1062980001F0CCFCF9E0FFF78FFE002800F0E18068
:1062A800284BDFED326A9978DA785879DFF8C490AC
:1062B80001F0F80101EB02211A7902F0FE0202EB6B
:1062C800002218785B7800F0F80009B200EB03238D
:1062D80007EE101A1BB207EE903AB8EEC77AF8EE3E
:1062E800E77A87EE267A12B2C7EEA67A06EE902AE9
:1062F800F8EEE66A89ED017AC6EE896A27EE077A32
:10630800C9ED026AA7EEA77AC9ED007A17EE100A5E
:1063180002F056FD06EE900AF4EEC96AF1EE10FAA4
:106328004FF0000328D53B60002394E0AE12002014
:106338000000C842A4120020A112002094120020DC
:10634800FC040020EC04002000003443DB0F49402B
:106358000000000000001643B0120020B212002016
:10636800AC040020300002401C0002409A99C94148
:10637800C01200208812002099ED018ADFF854A38A
:106388002360B5EE408AF1EE10FADFEDCD8A34D005
:10639800D9ED009AF5EE409AF1EE10FA37D088EE72
:1063A800297A17EE100A02F0D7FB07EE900AF5EEED
:1063B800C07AF1EE10FACAF8000004DDB5EEC08A22
:1063C800F1EE10FA09D4F5EEC07AF1EE10FA07D51D
:1063D800F5EEC09AF1EE10FA03D577EEA87A09E047
:1063E8001ED5B5EEC08AF1EE10FA19D59FEDB57A33
:1063F80077EE877AC4ED007A12E0D9ED007AF5EEEF
:10640800C07AF1EE10FA0BDACAED008A08E0B5EEB0
:10641800C08AF1EE10FACCBFAB4BAC4BCAF80030D7
:1064280094ED007ADFEDAA7A98F8613067EE277A62
:10643800C7EEA88AC4ED008A23B1A64BF1EE688A9C
:10644800C3ED008A94ED007AD8ED197A77EE677A71
:106458000123C4ED007A337000232B704FF001093B
:1064680000E081469C4B186800F026FE88B19B4BE3
:106478009B48012200211A7001F0D8FB994800219D
:1064880001F0D4FB00232B7003E04FF0000985F8DE
:106498000090DFED957A94ED007ADFED946AB4EE22
:1064A800E77AF1EE10FAC9BFDFED917A87ED007A4D
:1064B80077EE677AC7ED007AD7ED007AF4EEE67AE0
:1064C800F1EE10FA06D5DFED8A6A8A4B77EEA67AE6
:1064D800C3ED007AD7ED006AD8ED217A864ADFF855
:1064E80040A2864B864D874C66EEA77AD346FDEED2
:1064F800E76AC7ED007A16EE901A11809AF8002024
:10650800814F012A25D002D3022A47D010E1B9F1E0
:10651800000F00F01081D3ED1D7AF7EE006AF4EE5B
:10652800E67AF1EE10FA40F106813378002B00F09C
:10653800028176EEE77A754B87EE277A83ED007A4B
:1065480000F0B4FD724B00F59C5008301860012330
:10655800EFE0704A00211170B9F1000F13D03278C2
:106568008AB1D3ED1D7A694BD3ED006AA6EEA77AFE
:10657800F7EE006A76EEE77A83ED007A27EE277A5F
:10658800654B83ED007A624B186800F095FD002892
:1065980000F0D18002238BF80030CCE05D4A1178FE
:1065A80039B1002313708AF80030584B00221A6062
:1065B800C1E0B9F1000F00F0BE803278002A00F087
:1065C800BA80D3ED1C6AB0EEC76AB4EEE66AF1EEA3
:1065D80010FA11D5D3ED1D6A4C4B93ED006AA6EE67
:1065E800267AB7EE006A76EE666A83ED007A27EEC1
:1065F800267A494B83ED007A98ED1B7A3F4BF4EEEF
:10660800C77AF1EE10FA04D5012300222B7022601C
:1066180054E0D3ED206AF4EEE67AF1EE10FA03D5F1
:106628004FF07E53236048E093ED1A7AF4EEC77A70
:10663800F1EE10FA76D594ED006AF7EE005AB4EE52
:10664800E56AF1EE10FA06D593ED1E5A2D4B36EE9B
:10665800056A83ED006A94ED006AB4EEE56AF1EE2E
:1066680010FA03DD274B4FF07E521A60F5EEC07A20
:10667800F1EE10FA21DD9FED296A36EE866AB4EE56
:10668800C67AF1EE10FA18DD77EE677A37EE667A99
:10669800C7EE877A94ED007AB4EEE77AF1EE10FA55
:1066A8000BDD98ED1F7A174BF4EEC77AF1EE10FA6E
:1066B800C3ED007A44BF01232B7000233B703AE0FE
:1066C800DB0F4940DB0FC940DB0FC93FE4CB9640E5
:1066D8000000344394120020FC040020AC04002085
:1066E800300002401C000240000087430000B4C292
:1066F8000000B443A4120020AC120020C0120020F5
:10670800BC120020B8120020AF1200208012002016
:106718009C12002098120020A8120020CDCCCC3D5D
:106728008512002001232B703B700023236002E0B8
:1067380000238AF800303B78D4ED007A3278174C81
:10674800002B27EE899A0CBF00230223002A0CBFD6
:106758001A4643F00102BCEEC99A114B20681A7020
:1067680019EE102A0F4B1A7000F0A6FC48B100264B
:106778002E7000F09BFC643020603046FFF718FA5A
:1067880006E02B7823B1206800F0A8FC4F28EEDD46
:1067980005B0BDEC068BBDE8F08F00BFB412002039
:1067A800841200208612002010B5074C4FF4805345
:1067B8002360FFF701FC28B923685A1E2260002BCA
:1067C800F7D1FEE710BD00BF2804002010B50C4625
:1067D800134600212246FFF78BFBBDE81040FFF768
:1067E800E3BF38B505460C46134629462246002025
:1067F800FFF77EFBBDE83840FFF7D6BF2DE9F04F25
:10680800BA4BBB4E00241C70BA4B01258FB01D70CB
:10681800B94B8DF8174029464FF480501C7001F091
:10682800D7FE29464FF4003001F0AEFE05210A4696
:106838004FF0904001F0D8FC4FF09040062105221F
:1068480001F0D2FC0DF1380805224FF090400721E5
:1068580001F0CAFC202348F81C3D02274FF0030929
:1068680041464FF090404FF0800A8DF820708DF827
:1068780021908DF822408DF8235001F085FB414688
:106888004FF09040CDF81CA001F07EFB402341461C
:106898004FF09040079301F077FB304601F028FF56
:1068A8004FF4E063ADF828304FF40073ADF82E30A4
:1068B80028234FF00702ADF8303030464FF482738A
:1068C80009A9ADF83420ADF82630ADF82440ADF86C
:1068D8002A40ADF82C40ADF8324001F03FFF304679
:1068E8004FF4805102F036F83046294602F006F897
:1068F8004FF0100B41464FF09040DFF840828DF882
:106908002190CDF81CB08DF820508DF8224001F070
:106918003BFB59464FF0904001F012FCDFF8209203
:106928002146404601F082F9404601F02FF8214601
:10693800484601F07BF9484601F028F84FF00C0C66
:1069480006A88DF818C0CDF804C08DF819408DF848
:106958001A408DF81B5001F08FFC684903910846D6
:1069680001F056F90399664B0B60664B4B604FF488
:1069780080524FF6FE7340468B818C600C61C1F8E3
:1069880014A08C61CC610C624A628C62029301F0A3
:10699800ABF8404639462A4601F08CF92A4630467B
:1069A800294602F001F858490391084601F030F9E8
:1069B8000399029B524A0A608B81544A4A604FF4F9
:1069C800805348464B62C1F808B00C61C1F814A066
:1069D8008C61CC610C628C6201F086F830463946D5
:1069E8000EAE2A4601F0E0FF4FF0070206F8212D0F
:1069F800214630462A46FFF7F4FEDDF804C08DF83C
:106A080017C030462A460F21FFF7E0FE7F233046A5
:106A18002A4613218DF81730FFF7D8FE30462A464C
:106A280038218DF81740FFF7D1FE30462A46392124
:106A3800FFF7CCFE30462A463A21FFF7C7FE30461C
:106A48002A4611218DF81740FFF7C0FE30462A4626
:106A58004B218DF81750FFF7B9FE30462A465121D1
:106A68008DF81770FFF7B2FE042330462A465221EC
:106A78008DF817300627FFF7A9FE30462A464C2125
:106A88008DF81770FFF7A2FE30462A4651218DF87F
:106A98001770FFF79BFE2A4652210E2330468DF8C9
:106AA8001730FFF793FE1A4B1C701A4B1D7000F03D
:106AB800FDFA194B1860194B1C70194B00261E6003
:106AC80000F0F4FA174B00F57A701860164B4FF087
:106AD8007E521A60154B1C70154B1E60154B1D70AD
:106AE800154B1C700FB0BDE8F08F00BFAE12002030
:106AF80000300140AC04002085120020C0040020B2
:106B08000C3001400005002080040020AD04002066
:106B1800B0120020A1120020B4120020BC120020E4
:106B2800801200209C120020B8120020841200203D
:106B3800A8120020AF120020981200201C0002406A
:106B48003000024010B5202001F000F930B32020B9
:106B580001F060F94FF4007001F0F8F818B14FF443
:106B6800007001F057F90E48002101F05FF80D4858
:106B7800002101F05BF80C4B1A681AB90B4B012283
:106B88001A7010BD0A4B197800238B42F6DA0133CC
:106B980008481C5CD01800F8014CF6E710BD00BF8F
:106BA800300002401C000240F4040020AC04002025
:106BB800F804002000050020064B93F86030012BF4
:106BC80003D0022B01D0032B02D1037001207047A0
:106BD80000207047C012002038B501F039F912487A
:106BE800124D01F071F98824022C06D0032C07D02D
:106BF800012C0BD115F8021C0AE035F8021C07E03D
:106C080035F8023C297843EA014101E055F8021CB5
:106C18000748001B01F082F9043C05F10405E3D1A3
:106C2800BDE8384001F022B900F80308C21200207C
:106C380088F8030870B53C4C237803F0FC036FF325
:106C480087034FF00042FF2623700B210023022800
:106C580005466380217184F86130A260267323762B
:106C68002261267584F83C3016D003282ED00128DE
:106C780045D1052184F8600003206171FEF7C4F94D
:106C880002232376294BE36140F0C04003F580736B
:106C9800A0602573236234E084F8600003206171EA
:106CA800FEF7B2F903232376214BE36103F58753FB
:106CB8000833236203F5807340F0C04063621D4BC4
:106CC800A366A06026734FF0824315E0102161711E
:106CD80084F86000FEF798F9154BE36103F58753D4
:106CE8000833236203F5807340F0C0406362124B9F
:106CF800A06026732576A366C4F8803001E084F886
:106D080060300E4A62670E4A0E4BA2670E4AE3666F
:106D1800E2674FF07E53002223676266C4F884302E
:106D2800BDE87040FFF758BFC012002008010121DC
:106D380020010221000090410000484372F97F3F82
:106D48000AD7233C0000A0C00000A0410E4A8823B7
:106D58000E49C91A022B096806D0032B07D0012B4C
:106D68000AD102F8021C09E022F8021C06E022F807
:106D7800021C090C117001E042F8021C043B02F1EC
:106D88000402E5D1704700BFC212002088F803084A
:106D980008B50120FFF74EFFFFF71EFFBDE80840CA
:106DA800FFF7D4BF08B5FFF7D1FF044B1B790B2BB6
:106DB80003D0BDE80840FFF7EBBF08BDC0120020B4
:106DC80013B54FF4C043104C009301238DF80530E0
:106DD8008DF804302046002369468DF806308DF87A
:106DE800073001F0D1F820464FF4005101F0D2F9F4
:106DF80020464FF4804101F0CDF920464FF4804100
:106E080001F0C8F902B010BD00040048012803D001
:106E180006D3022804D0704704484FF4005102E01A
:106E280002484FF4804101F08BB900BF00040048CC
:106E3800012803D006D3022804D0704704484FF431
:106E4800005102E002484FF4804101F0A3B900BFAD
:106E580000040048BFF34F8F044A054BD16801F482
:106E6800E0610B43D360BFF34F8FFEE700ED00E016
:106E78000400FA0573B5794C204601F049FA00F090
:106E88000FF962684FF47A73B2FBF3F2744B013A6C
:106E98005A60744AF02182F82310002407229C606B
:106EA8004FF480201A60012101F06EFB4FF400308E
:106EB800012101F069FB0120014601F065FB012079
:106EC800014601F085FBFFF76DFF02A90F2341F88A
:106ED800083D8DF804404FF09040012469468DF834
:106EE80005408DF8074001F04FF802214FF090401F
:106EF80001F0D0F8042105464FF0904001F0CAF89F
:106F0800214606464FF0904001F0C4F860406640C4
:106F18000821C4B24FF0904001F0BCF8F6B2A400CA
:106F280044EA460485F001052C4380F00100E4B2F0
:106F3800C3B244EAC303DBB2012B02D0022B07D051
:106F480010E0494B93F86030022B0BD0022005E08B
:106F5800454B93F86030032B04D00320FFF76AFEFB
:106F6800FFF778FFFFF72CFFFEF74CF9FFF746FC19
:106F78000020FEF7BBFF00F099F800F57A750024B1
:106F8800FEF758F9394E3070FFF73AF8384B1A883F
:106F9800384B11B2462901DD462202E04631B8BF1E
:106FA800BA221A7096F90030052B18D1012C284600
:106FB80008D000F081F80028E1D000F077F800F55B
:106FC800FA6534E000F078F80028D9D000F06EF8BF
:106FD80000F164052046FFF72BFF00203BE0042B5F
:106FE80018D1012C284609D000F066F808B90446E3
:106FF800C6E700F05BF800F5FA7518E000F05CF8F9
:107008000028BDD000F052F800F5FA750020FFF70F
:107018000FFF1FE07F2BB3D1012C28460FD000F0C3
:107028004BF80028E3D000F041F800F56175002026
:10703800FFF7FEFE0120FFF7FBFE0124A0E700F0AA
:107048003BF800289CD000F031F800F164050020DE
:10705800FFF7DCFE2046FFF7D9FE90E7501300202B
:1070680010E000E000ED00E0C01200204D13002009
:10707800B21200204C130020FEE77047FEE7FEE73F
:10708800FEE7FEE77047704770470000024B1A683A
:1070980001321A60704700BF8C130020704700004F
:1070A800014B00221A6070478C130020014B1868AE
:1070B800704700BF8C130020074B1B6801308342C8
:1070C80003D9181AC043C00F7047C01AB0F1004F57
:1070D80094BF0020012070478C130020014B1B68CF
:1070E800C01A70478C130020002100F004B80D4B23
:1070F8005B58435004310C480C4B42189A42FFF439
:10710800F6AF0B4A00F003B8002342F8043B094BE2
:107118009A42FFF4F9AF01F0BBFCFDF775FCFFF7ED
:10712800A9FE70475C970008000000205804002062
:107138005804002094130020FFF7FEBF08B5094B40
:10714800984203D008489B21FFF796FF4FF0007044
:10715800012101F0A9FA4FF000700021BDE80840B4
:1071680001F0A2BA006400403096000837B5002349
:107178000193674B984204460D4603D06548B121F8
:10718800FFF77AFFAB79012B03D96248B221FFF7E9
:1071980073FFEB79012B03D95E48B321FFF76CFF2E
:1071A8002B7A012B03D95B48B421FFF765FF6B7A73
:1071B800012B03D95748B521FFF75EFFAB7A012BA6
:1071C80003D95448B621FFF757FFEB7A012B03D9AF
:1071D8005048B721FFF750FFAB78032B03D94D4830
:1071E800B821FFF749FFEB78032B03D94948B921A8
:1071F800FFF742FF2B790F2B03D94648BA21FFF737
:107208003BFF6B79072B03D94248BB21FFF734FFBB
:107218002B88013B9BB2B3F5806F03D33D48BC215B
:10722800FFF72AFF236823F002032360236843F053
:10723800010323606368DA0708D4019A6FF07F437B
:107248009A4203D0019B01330193F3E7606810F081
:1072580001005AD0AB79012B23680CBF43F080039F
:1072680023F080032360EB79012B23680CBF43F0E4
:10727800400323F0400323602B7A012B23680CBFC3
:1072880043F0200323F0200323606B7A012B23684B
:107298000CBF43F0100323F010032360AB7A012BDB
:1072A80023680CBF43F0080323F008032360EB7A3C
:1072B800012B23680CBF43F0040323F0040323606D
:1072C800AB78EA789B0743EA02632A7943EA0243E8
:1072D8006A7943EA02532A88013A1343E36123682F
:1072E80023F001032360002301936368DB0707D5BC
:1072F800019A6FF07F439A4202D0019B0133F3E772
:10730800606800F0010080F0010003B030BD00BFEC
:10731800006400403096000870B5837A1B2B044641
:1073280004D9484840F23911FFF7A6FEE37A012B49
:1073380004D944484FF49D71FFF79EFE237B012B2F
:1073480004D9404840F23B11FFF796FE2389012BF0
:1073580004D93C484FF49E71FFF78EFE637B012BE6
:1073680004D9384840F23D11FFF786FEA37A01217F
:107378009940354BD3F8002242F00102C3F80022AD
:10738800D3F81C22C8430240C3F81C22227BA2B9AE
:10739800D3F80C22E68865880240C3F80C22A27A4A
:1073A800483245EA064543F832502388A57AA28830
:1073B800ED0043EA0242254B5A51237B012B15D19C
:1073C800214B2688D3F80C2265880A43C3F80C227F
:1073D800A27A483245EA064543F83250E388A57A4E
:1073E800A288ED0043EA0242184B5A51E37A164A42
:1073F8001BB9D2F80432034002E0D2F804320B433E
:107408002589C2F80432104B2DB9D2F814522840FD
:10741800C2F8140206E0012D04D1D3F814220A435D
:10742800C3F81422627B012A04D1D3F81C22114329
:10743800C3F81C12D3F8002222F00102C3F800227C
:1074480070BD00BF309600080064004044660040EC
:1074580000238371C371037243728372C372837092
:10746800C370032303710223437101230380704710
:10747800F8B54A4B984206460C4604D0484840F2B4
:107488002B21FFF7F9FD237A13F0FB0F04D04448B2
:107498004FF40B71FFF7F0FD637A13F0FD0F04D082
:1074A8003F4840F22D21FFF7E7FDA37A082B04D9C6
:1074B8003B4840F22E21FFF7DFFDB368590107D49E
:1074C800B3681A0106D4B368DB0005D4042762E068
:1074D800002702E0012700E0022706EB0715D5F890
:1074E800803103F00103C5F88031237A7BB9236822
:1074F800B3F5006F04D32A484FF41271FFF7BCFDAF
:107508002368617AD5F8802141EA435310E0636823
:10751800B3F1005F04D3224840F24E21FFF7ACFDDF
:107528006368217AD5F8802141EAC3031343627A5C
:107538001343C5F88031A37A03F00F03A372D5F87B
:10754800843123F00F03C5F88431D5F88431A27A49
:107558001343C5F88431627BA37B120442EA0362B9
:10756800E37A1A43237B06EB071642EA0322C6F89E
:107578008821627CA17C120442EA0162E17B0A4311
:10758800217C42EA0122C6F88C21D5F8803143F0EB
:107598000103C5F880313846F8BD00BF00640040DB
:1075A800309600082D4B984270B505460E46144695
:1075B80004D02B4840F2D721FFF75EFD012E04D9F5
:1075C80027484FF43671FFF757FD05EB0613D3F83C
:1075D800B02102F00402D2B2227222B9D3F8B0214B
:1075E800520D226003E0D3F8B021D2086260D3F8CC
:1075F800B02102F002026272D3F8B42102F00F0245
:10760800A272D3F8B4311B0AE37405EB061303F531
:10761800DC72D3F8B811E172D3F8B811090A2173F2
:10762800D3F8B811090C6173D3F8B8311B0EA373E2
:107638005368E37353681B0A237453681B0C637401
:1076480053681B0EA37426B9EB6843F02003EB6064
:1076580070BD2B6943F020032B6170BD00640040AE
:107668003096000838B50E4B984204460D4604D0B3
:107678000C484FF44871FFF7FFFC012D05D9094864
:1076880040F22131FFF7F8FC08E00DB9E06802E0AC
:10769800012D03D1206900F0030038BD002038BD5A
:1076A8000064004030960008214B984270B50546AA
:1076B8000C46164604D01F4840F2C541FFF7DCFCD3
:1076C800631E012B23D9042C21D0082C1FD0102C89
:1076D8001DD0202C1BD0402C19D0B4F5807F16D09B
:1076E800B4F5007F13D0B4F5806F10D0B4F5006FF7
:1076F8000DD0B4F5004F0AD0B4F5803F07D0B4F5EB
:10770800003F04D00B4840F2C641FFF7B5FC012EFC
:1077180005D9084840F2C741FFF7AEFC00E016B1B2
:107728006B691C4302E06B6923EA04046C6170BD59
:10773800006400403096000838B52A4B9842054648
:107748000C4604D0284840F2EF41FFF795FC274B40
:107758009C422FD003F160436C3B9C422AD0244BBF
:107768002344012B26D9234B9C4223D0224B9C42F5
:1077780020D0083B9C421DD0204B9C421AD0204B65
:107788009C4217D0083B9C4214D01E4B9C4211D0FF
:107798001D4B9C420ED0A3F57F439C420AD0FF3B71
:1077A8009C4207D0194B9C4204D00F484FF49E616D
:1077B800FFF762FC14F4700F01D0AB690BE0E10134
:1077C80001D56B6807E0220101D5AB6803E0A3018E
:1077D8004CBFEB682B69C3F3130323420CBF002093
:1077E800012038BD00640040309600087000F03079
:1077F800FFFF0FEF080000311000003203000012F5
:107808001000003403000014000001381200003199
:1078180038B5204B984205460C4604D01E4840F225
:107828005251FFF729FC1D4B9C4221D01C4B9C4216
:1078380021D0A3F57F439C421DD0FF3B9C421AD028
:10784800184B9C4217D008339C4214D0164B9C42CC
:1078580011D008339C420ED0144B9C420BD00A33F3
:107868009C4208D00C4840F25351FFF705FC02E057
:107878000023AB6138BDA201C4F3130301D5EB604B
:1078880038BD600101D52B6138BD21014CBFAB600B
:107898006B6038BD00640040309600087000F0301E
:1078A80000000138080000320800003408000031E8
:1078B80038B5334B984205460C4604D0314840F25F
:1078C800F551FFF7D9FB012C44D0042C45D0082CE6
:1078D80045D0202C46D0402C46D0B4F5807F4CD0E3
:1078E800B4F5007F49D0B4F5806F46D0B4F5006F89
:1078F80041D0B4F5004F3ED0B4F5803F37D0B4F551
:10790800003F36D01F4840F2F651FFF7B5FBB4F5FB
:10791800807F32D00CD8082C21D004D8012C19D063
:10792800042C2CD119E0202C1CD0402C27D11BE092
:10793800B4F5006F1FD006D8B4F5007F1DD0B4F59C
:10794800806F1CD119E0B4F5004F14D0B4F5803F16
:1079580015D10CE00C4BAB6038BD082300E01023B8
:10796800EB6038BD082300E010232B6138BD0823E5
:1079780004E0102302E00023AB6104236B6038BDF0
:1079880000640040309600080101010038B5484BFA
:10799800984204461D4625D01433984222D0143309
:1079A80098421FD0143398421CD01433984219D0EF
:1079B8001433984216D01433984213D003F56273E7
:1079C80098420FD0143398420CD01433984209D0FF
:1079D8001433984206D01433984203D03548902186
:1079E800FFF74AFB22684FF6FE7313402360AC4250
:1079F8004FF0000323606360A360E36005D12E4B62
:107A08005A6842F00F025A6038BD2C4B9C4229D06C
:107A18002B4B9C4230D02B4B9C4237D02A4B9C425C
:107A28003ED02A4B9C4206D153F8682C42F470028F
:107A380043F8682C38BD264B9C4206D153F87C2C61
:107A480042F0706243F87C2C38BD224B9C4206D130
:107A580053F8042C42F00F0243F8042C38BD1E4B97
:107A68009C4206D153F8182C42F0F00243F8182C27
:107A780038BD1A4B9C4206D153F82C2C42F4706244
:107A880043F82C2C38BD164B9C4206D153F8402C99
:107A980042F4704243F8402C38BD124B9C4205D149
:107AA80053F8542C42F4702243F8542C38BD00BFCC
:107AB800080002404B960008000002401C000240EB
:107AC8003000024044000240580002406C0002406E
:107AD80080000240080402401C04024030040240B6
:107AE800440402405804024038B5474B98420546C2
:107AF8000C4625D01433984222D0143398421FD014
:107B0800143398421CD01433984219D01433984235
:107B180016D01433984213D003F5627398420FD0ED
:107B2800143398420CD01433984209D01433984235
:107B380006D01433984203D03448F021FFF79CFA5A
:107B4800A36833F0100203D03048F121FFF794FA0C
:107B5800236933F0400203D02C48F221FFF78CFA56
:107B6800636933F0800203D02848F321FFF784FAD1
:107B7800A36933F4807206D0B3F5007F03D023489D
:107B8800F421FFF779FAE36933F4806206D0B3F59C
:107B9800006F03D01D48F521FFF76EFA236A33F012
:107BA800200203D01948F621FFF766FA636A33F416
:107BB800405203D01548F721FFF75EFAA36A33F461
:107BC800804203D01148F821FFF756FAA268216ACB
:107BD8002B6811432269114362691143A269114359
:107BE800E2691143626A1143A26A23F4FF4323F056
:107BF80070030A4313432B60A3896B602368AB604F
:107C08006368EB6038BD00BF080002404B9600086F
:107C18000023036043608360838103614361836160
:107C2800C3610362436283627047000038B51F4B2B
:107C3800984204460D4626D01433984223D0143374
:107C4800984220D0143398421DD0143398421AD049
:107C58001433984217D01433984214D003F5627342
:107C6800984210D0143398420DD0143398420AD059
:107C78001433984207D01433984204D00C4840F289
:107C88004B11FFF7F9F9012D05D909484FF4A671F1
:107C9800FFF7F2F900E01DB1236843F0010303E0A8
:107CA80022684FF6FE731340236038BD0800024077
:107CB8004B960008234B984270B504460D4616466D
:107CC80026D01433984223D01433984220D014334A
:107CD80098421DD0143398421AD01433984217D0C2
:107CE8001433984214D003F56273984210D01433B9
:107CF80098420DD0143398420AD01433984207D0D2
:107D08001433984204D010484FF4F271FFF7B4F9D5
:107D180035F00E0300D125B90B4840F2E511FFF705
:107D2800ABF9012E05D908484FF4F371FFF7A4F910
:107D380000E016B123681D4302E0236823EA050525
:107D4800256070BD080002404B96000820F0805363
:107D58005A1E012A10B504464CD9042B4AD0082BC8
:107D680048D0102B46D0202B44D0402B42D0802B1B
:107D780040D0B3F5807F3DD0B3F5007F3AD0B3F55E
:107D8800806F37D0B3F5006F34D0B3F5805F31D052
:107D9800B3F5005F2ED0B3F5804F2BD0B3F5004F6D
:107DA80028D0B3F5803F25D0B3F5003F22D0B3F5F6
:107DB800802F1FD0B3F5002F1CD0B0F5801F19D02D
:107DC800B0F5001F16D0B0F5800F13D0B0F5000F36
:107DD80010D0B0F1807F0DD0B0F1007F0AD0B0F1A3
:107DE800806F07D0B0F1006F04D0074840F2372108
:107DF800FFF742F9E3004CBF044B054B1B682342D5
:107E08000CBF0020012010BD4B9600080004024062
:107E18000000024010F0704F10B5044603D0084B24
:107E280003400BB905E020B9064840F24331FFF79B
:107E380023F9E3004CBF044B044B5C6010BD00BF4A
:107E48000000F0EF4B9600080004024000000240DA
:107E5800044B1A69120604D5034A5A6002F18832A3
:107E68005A6070470020024023016745024B1A6997
:107E780042F080021A61704700200240084BDA681D
:107E8800D10709D4DA68D20608D4DB6813F0040FE6
:107E98000CBF042003207047012070470220704760
:107EA8000020024010B50446FFF7E8FF012806D17C
:107EB8001CB1FFF7E3FF013CF8E7052010BD002CDB
:107EC80008BF052010BD000038B500F17843B3F5B0
:107ED800802F054604D30F484FF48571FFF7CCF87F
:107EE8004FF43020FFF7DEFF042811D10A4C236934
:107EF80043F0020323616561236943F04003236172
:107F08004FF43020FFF7CEFF236923F002032361EB
:107F180038BD00BF669600080020024073B50023F4
:107F2800019300F17843B3F5802F05460E4604D33C
:107F380013484FF4AA71FFF79FF84FF43020FFF76A
:107F4800B1FF042819D10F4C236943F001032361C1
:107F5800B3B22B804FF43020FFF7A4FF042808D1D8
:107F680002350195019B360C1E804FF43020FFF737
:107F780099FF236923F00103236102B070BD00BF9C
:107F88006696000800200240B0F1904F2DE9F041BC
:107F980004460D4616D03D4B984213D003F5806336
:107FA80098420FD003F5806398420BD003F58063A5
:107FB800984207D003F58063984203D03448B32130
:107FC800FFF75AF82B681BB93148B421FFF754F86A
:107FD8002B79032B03D92E48B521FFF74DF8EB7900
:107FE800022B03D92A48B621FFF746F80026374660
:107FF80001232A68BB4003EA020898453ED12B7941
:10800800013BDBB2012B26D86B79013BDBB2022B9B
:1080180003D91F48C621FFF72FF8A2680323B340EE
:1080280022EA0303A3606B79A268B3401343A360F9
:10803800AB79012B03D91648CD21FFF71DF8A3888A
:108048009BB223EA0808A4F80480AB79A288BB4055
:1080580013439BB2A38003232268B340DB431A4037
:1080680022602A792168B2400A432260E2681340FC
:10807800E360EB79E268B3401343E3600137102F04
:1080880006F10206B4D1BDE8F08100BF0004004843
:1080980083960008B0F1904F38B505460C4617D0C6
:1080A800254B984214D003F58063984210D003F50D
:1080B800806398420CD003F58063984208D003F59A
:1080C8008063984204D01D4840F22D11FEF7D4FF7A
:1080D800631E9BB2012B28D9042C26D0082C24D04F
:1080E800102C22D0202C20D0402C1ED0802C1CD02C
:1080F800B4F5807F19D0B4F5007F16D0B4F5806F41
:1081080013D0B4F5006F10D0B4F5805F0DD0B4F57E
:10811800005F0AD0B4F5804F07D0B4F5004F04D003
:1081280006484FF49771FEF7A7FF2B8A1C420CBF35
:108138000020012038BD00BF0004004883960008D5
:10814800B0F1904F38B504460D4617D00F4B984202
:1081580014D003F58063984210D003F580639842E9
:108168000CD003F58063984208D003F580639842E9
:1081780004D0074840F27D11FEF77EFF25B9044878
:108188004FF4BF71FEF778FFA56138BD00040048C1
:1081980083960008B0F1904F38B504460D4617D0C5
:1081A8000F4B984214D003F58063984210D003F522
:1081B800806398420CD003F58063984208D003F599
:1081C8008063984204D0074840F28F11FEF754FFAD
:1081D80025B904484FF4C871FEF74EFF258538BD10
:1081E8000004004883960008B0F1904F70B504462B
:1081F8000E46154617D01E4B984214D003F58063DF
:10820800984210D003F5806398420CD003F5806340
:10821800984208D003F58063984204D015484FF47B
:10822800FC71FEF729FF0F2E04D9124840F2F9110C
:10823800FEF722FF0B2D09D9A5F10E03DBB2012BA6
:1082480004D90C484FF4FD71FEF716FF06F007033A
:10825800F60804EB86049B00216A0F229A4021EA63
:1082680002022262226A05FA03F31343236270BDF5
:108278000004004883960008C378012B10B5044613
:1082880003D920487B21FEF7F7FE63780F2B03D92B
:108298001C487C21FEF7F0FEA3780F2B03D9194860
:1082A8007D21FEF7E9FEE2782378FAB1164A607874
:1082B800D268D243C2F30222C2F1040100FA01F1EA
:1082C8000F2020FA02F2A07802400A4303F160432B
:1082D80003F561431201D2B283F800232378012207
:1082E800590903F01F0302FA03F306E059090122B2
:1082F80003F01F0302FA03F32031044A42F8213045
:1083080010BD00BF9F96000800ED00E000E100E00E
:10831800984B596801F00C0104292DE9F04105D06A
:10832800082906D0944A0260B9B917E0924A026057
:1083380013E05A685C68C2F38342E70302F1020261
:1083480001D48E4906E0D96A8B4C01F00F01013146
:10835800B4FBF1F15143016000E000215A68884FF5
:10836800DFF82082C2F30312BE5C0268F6B222FA7A
:1083780006F545605C68C4F302243C5D25FA04F404
:108388008460D3F804C0CCF3C22C17F80C70FFB289
:10839800FD40C560D3F82CC0CCF3041C38F81CC0D1
:1083A8001FFA8CFC1CF0100F1ABFB1FBFCFCC0F8C4
:1083B80010C00261D3F82CC0CCF3442C38F81CC090
:1083C8001FFA8CFC1CF0100F1ABFB1FBFCFCC0F8A4
:1083D80014C04261D3F830C01CF0100F06BFDFF89C
:1083E80098C1C0F818C08261D3F830C01CF0200FC3
:1083F80006BFDFF884C1C0F81CC0C261D3F830C022
:108408001CF4807F08D08A4206D1B74204D14FEAD3
:10841800420CC0F820C000E00562D3F830C01CF45C
:10842800007F06D08A4204D1B74202D1510041628E
:1084380000E045621E6B4F49B60701D1856215E021
:108448000D6B05F00305012D01D182620EE00D6B65
:1084580005F00305022D02D14FF4004105E0096B38
:1084680001F00301032901D1434981621D6B414990
:1084780015F4403F01D1C46218E00D6B05F4403596
:10848800B5F5803F01D1C26210E00D6B05F44035AF
:10849800B5F5003F02D14FF4004106E0096B01F445
:1084A8004031B1F5403F01D13349C1621D6B3149BB
:1084B80015F4402F01D1046318E00D6B05F4402535
:1084C800B5F5802F01D1026310E00D6B05F440254E
:1084D800B5F5002F02D14FF4004106E0096B01F415
:1084E8004021B1F5402F01D1234901631D6B21497A
:1084F80015F4401F01D1446318E00D6B05F44015D5
:10850800B5F5801F01D1426310E00D6B05F44015ED
:10851800B5F5001F02D14FF4004106E0096B01F4E4
:108528004011B1F5401F01D1134941631B6B11493B
:1085380013F4400F02D18463BDE8F0810B6B03F4A0
:108548004003B3F5800F02D18263BDE8F0810B6B65
:1085580003F44003B3F5000F02D14FF4004306E0E3
:108568000B6B03F44003B3F5400F01D1024B836357
:10857800BDE8F0810010024000127A0000093D00B9
:10858800460400202C0400200E4B034070B505461D
:108598000E4603B920B90C4840F25C51FEF76CFD59
:1085A800012E0A4C05D9084840F25D51FEF764FDDA
:1085B80000E016B163691D4302E0636923EA05051B
:1085C800656170BDA8FF81CEBB960008001002400F
:1085D80020F4EF2323F0010370B505460E4603B9D6
:1085E80020B90B4840F27F51FEF746FD012E094C99
:1085F80005D907484FF4B061FEF73EFD00E016B11B
:10860800A3691D4302E0A36923EA0505A56170BDBE
:10861800BB960008001002400E4B034070B505469B
:108628000E4603B920B90C4840F2AC51FEF724FDC0
:10863800012E0A4C05D9084840F2AD51FEF71CFD41
:1086480000E016B1E3691D4302E0E36923EA05058A
:10865800E56170BDC83701CDBB9600080010024027
:1086680020F4EF2323F0010370B505460E4603B945
:1086780020B90B4840F2ED51FEF7FEFC012E094CE3
:1086880005D9074840F2EE51FEF7F6FC00E016B1B6
:10869800E3681D4302E0E36823EA0505E56070BD71
:1086A800BB960008001002400E4B034070B505460B
:1086B8000E4603B920B90C4840F21761FEF7DCFCFE
:1086C800012E0A4C05D908484FF4C361FEF7D4FCC3
:1086D80000E016B123691D4302E0236923EA05057A
:1086E800256170BDC83701CDBB9600080010024057
:1086F80008B5184B98420DD0A3F5784398421DD081
:1087080003F58063984211D01348C121BDE80840A1
:10871800FEF7B2BC4FF480500121FFF7A1FF4FF4E0
:1087280080500021BDE80840FFF79ABF4FF4004091
:108738000121FFF7B9FF4FF4004006E04FF48040F5
:108748000121FFF7B1FF4FF480400021BDE8084048
:10875800FFF7AABF00300140D6960008654B984243
:108768002DE9F04705460C460CD0A3F5784398420E
:1087780008D003F58063984204D05F484FF48371B2
:10878800FEF77AFC238823F480624AB123F48043FD
:10879800B3F5004F04D0584840F20911FEF76CFCBD
:1087A8006388B3F5827F05D023B153484FF48571B0
:1087B800FEF762FCA38823F48062B2F5407F16D0EE
:1087C80023F41062B2F5806F11D023F40062B2F581
:1087D800C06F0CD023F44072B2F5006F07D0B3F528
:1087E800706F04D0444840F20B11FEF745FCE38853
:1087F80023F002039BB223B13F484FF48671FEF782
:108808003BFC2389012B04D93B4840F20D11FEF7AC
:1088180033FC638923F400739BB223B136484FF4C9
:108828008771FEF729FCA38923F018039BB233B1A3
:10883800202B04D0304840F20F11FEF71DFCE389CD
:1088480023F080039BB223B12B484FF48871FEF7C5
:1088580013FC238A23B9284840F21111FEF70CFCB7
:10886800B4F80290B4F806C06689E189B4F80080CB
:108878002789A089B4F804A0B9F5827F18D148EAFD
:108888000C0C4CF4827C4CEA07072B883E4330439F
:1088980003F441530143194389B22980AA8822F479
:1088A80070621204120C42EA0A0292B2AA8017E01D
:1088B800AB8823F470631B041B0C43EA0A0349EAE0
:1088C80008089BB248EA0C0CAB804CEA07072B88D7
:1088D8003E43304303F441530143194389B229808D
:1088E800AB8B23F400631B041B0CAB83238A2B8202
:1088F800BDE8F08700300140D696000838B5134B24
:10890800984204460D460CD0A3F57843984208D007
:1089180003F58063984204D00D4840F2F111FEF748
:10892800ABFB012D05D90A484FF4F971FEF7A4FBFA
:1089380000E025B123889BB243F0400304E023887C
:1089480023F040031B041B0C238038BD003001407A
:10895800D696000838B5124B984204460D460CD0FE
:10896800A3F57843984208D003F58063984204D071
:108978000C4840F26921FEF77FFB25F4805323B1B0
:10898800084840F26A21FEF777FBA38823F4805356
:108998001B041B0CA380A3889BB21D43A58038BD74
:1089A80000300140D6960008194B984270B504462D
:1089B8000D46164613D0A3F5784398420FD003F519
:1089C800806398420BD0A3F50063984207D0B0F1BA
:1089D800402F04D00F4840F24341FEF74DFB012ED3
:1089E80004D90C4840F24441FEF746FB25F0030346
:1089F80003B925B9074840F24541FEF73DFBA38876
:108A08009BB20EB11D4301E023EA0505A58070BDA8
:108A180000300140D696000838B51B4B98420546F1
:108A28000C4613D0A3F5784398420FD003F5806322
:108A380098420BD0A3F50063984207D0B0F1402FBD
:108A480004D0124840F21651FEF716FB802C15D0C0
:108A5800402C13D0202C11D0102C0FD0631E9BB2A9
:108A6800012B0BD9B4F5807F08D0042C06D0082C34
:108A780004D0064840F21751FEF7FEFA2B891C4233
:108A88000CBF0020012038BD00300140D6960008F8
:108A98002A4BD3F8882042F47002C3F88820284B68
:108AA8001A6842F001021A605968264A0A405A6058
:108AB8001A6822F0847222F480321A601A6822F44A
:108AC80080221A605A6822F4FE025A60DA6A22F09A
:108AD8000F02DA62196B1C4A82B00A401A6300223C
:108AE8009A6000920192194A1360194A1221116082
:108AF8005A685A605A685A605A6822F47C125A6056
:108B08005A6842F460125A601A6842F080721A6019
:108B180019680B4A8901FBD5516821F0030151609E
:108B2800516841F0020151605A6802F00C02082AAB
:108B3800FAD1084A014B9A6002B0704700ED00E094
:108B4800001002400CC07FF8CCFC00FF90130020FE
:108B5800002002400040000838B520F00044B4F17D
:108B6800A14F07EE900A05460DDBB4F1FF4F5CDC20
:108B78009FED557ADFED557A0028D8BFF0EE477A99
:108B880017EE900A38BD524B9C4261DCB4F1445F49
:108B980050DB4FF0FF3367EEA76A9FED4E1A9FED4B
:108BA8004E2A9FED4E3ADFED4E1ADFED4E2A9FED2D
:108BB8004E4ADFED4E3A9FED4E5ADFED4E4A9FED9D
:108BC8004E6ADFED4E5A26EEA67A5A1CA7EE012A07
:108BD800E7EE212AA2EE073AE2EE873AA3EE074A29
:108BE800E3EE874AA4EE075AE4EE875AA5EE076A31
:108BF80025EE877A66EE266A41D04149414A9B00B4
:108C0800194436EE877A91ED005A97EE275A1344A5
:108C1800002D93ED007A75EE677A77EE677AB8BF24
:108C2800F1EE677A17EE900A38BD77EEA77A17EE5D
:108C3800900A38BDDFED346A77EEA66AB7EE007A9F
:108C4800F4EEC76AF1EE10FAA3DD17EE900A38BD0C
:108C580000F060F82D4B9C4207EE100A14DCA3F5D7
:108C6800D0039C4225DCF0EE007AFFEE006AE7EEC6
:108C7800276A002377EE277AC6EEA77A8BE736EEC7
:108C8800877AE7EE677A7BE7214B9C420BDCF7EEAD
:108C9800087AF7EE006AE7EE276A022377EE677A2A
:108CA800C7EEA67A77E7FFEE007AC7EE877A032346
:108CB80071E7F7EE006A77EE667A37EE267A0123D7
:108CC800C7EE877A67E700BFDB0FC9BFDB0FC93F75
:108CD800FFFFDF3ED769853C59DA4B3D356B883D50
:108CE80021A215BD6BF16EBD6E2EBA3D95879DBD57
:108CF8002549123E388EE3BDABAAAA3ECDCC4CBE68
:108D0800F496000804970008CAF24971FFFF973FDC
:108D1800FFFF1B4020F00040704700BF70B5254C96
:108D28008AB0054600F0A4F894F9003001330646ED
:108D380003D0284600F022FA10B930460AB070BDB8
:108D48002846FFF7E7FF07EE100AF7EE007AB4EEC1
:108D5800E77AF1EE10FAF0DD0123174A009328466E
:108D6800002301920893FBF799FB02460B46134830
:108D7800CDE90423CDE9022300F0FAF994F9003093
:108D8800022BCDE906010BD0684600F0EFF938B1A7
:108D9800089B53B9DDE90601FBF7E6FD0AB070BD93
:108DA80000F0CAFC21230360F2E700F0C5FC089B31
:108DB8000360EFE756040020149700081C9700088A
:108DC80030B52DED028B284C8BB008EE100A00F060
:108DD80077F994F900300133054609D018EE100AE6
:108DE80000F0CCF920B1B5EEC08AF1EE10FA04D447
:108DF80028460BB0BDEC028B30BD01231B4A009303
:108E080018EE100A002301920893FBF747FB247819
:108E1800CDE90401CDE902018CB900220023CDE996
:108E28000623684600F0A2F998B1089BB3B9DDE9BA
:108E38000601FBF799FD0BB0BDEC028B30BD00209D
:108E4800002102460B46FBF7A7FC022CCDE90601E0
:108E5800E7D100F071FC21230360E6E700F06CFC29
:108E6800089B0360E3E700BF560400202097000832
:108E780008B520F00043B3F17E5F2DED028B07EEBD
:108E8800900A16D00CDCB3F17C5F1FDAB3F10C5FEB
:108E980070DCBDEC028BDFED797A17EE900A08BD25
:108EA80077EEE77AC7EEA77ABDEC028B17EE900A49
:108EB80008BDBDEC028B9FED727ADFED727A002857
:108EC800D8BFF0EE477A17EE900A08BD0028C0F226
:108ED8008E80F7EE008A78EEE77AB6EE007A27EE13
:108EE800878A18EE100A00F0EBF89FED677A9FED7D
:108EF800673A9FED674ADFED672ADFED673A9FED36
:108F0800675ADFED674ADFED677ADFED675A9FED55
:108F1800676AA8EE073A20F47F6323F00F03E8EEB0
:108F2800223AA3EE084AE3EE884AA4EE085AE4EE91
:108F3800885AE5EE087A07EE103AA7EE886AF0EE4E
:108F4800487A06EE900AE5EE888AE7EE477A26EE3A
:108F5800088A76EE875AC8EE288AC7EEA57AE8EE20
:108F6800A67ABDEC028B77EE277A77EEA77A17EE12
:108F7800900A08BD27EEA77A9FED431ADFED432A32
:108F8800DFED433ADFED431A9FED433A9FED436A25
:108F98009FED434ADFED434A9FED435ADFED435AC5
:108FA800DFED436A9FED432AE7EE012ABDEC028B11
:108FB800E2EE873AA7EE213AA3EE876AA3EE074AC4
:108FC800E6EE074AA4EE075AE4EE875AB7EE006ABF
:108FD800A5EE076A25EE877A87EE066AE7EEC66A87
:108FE80077EEE67A72EE677A17EE900A08BDB7EE6A
:108FF800003A77EE837AB6EE007A67EE877A9FEDCD
:10900800222ADFED223ADFED224ADFED222A9FED08
:10901800224ADFED225A9FED225ADFED226A9FEDA8
:10902800226A9FED227AE7EE823AA7EEA24AE3EEA1
:10903800A74AA4EE275AE4EEA75AA5EE276AE5EE5A
:10904800A76AB0EE438AA6EEA77AA6EE278A67EE4D
:10905800278A17EE900A00F033F888EE888A06EE21
:10906800100A9FED157ADFED157AA8EE067AF0EE74
:10907800006A37EE067AE7EE667A15E7DB0FC93F36
:10908800DB0F49400000000008EF1138047F4F3A19
:10909800461124BD2EC69D3D613330BFA80A4E3E01
:1090A8002D57014090B0A6BE39D119C0ABAA2A3EAF
:1090B8006821A233DA0FC93F6821A2B3DA0F494009
:1090C80020F00042B2F1FF4F70B407EE900A034659
:1090D80032D26AB3002841DBB2F5000F4FEAE05103
:1090E80030D3A1F17F02C3F31603D10743F4000381
:1090F80048BF5B00002556105B002C4619214FF035
:109108008072A018984202DC1B1A84181544013991
:109118004FEA43034FEA5202F3D113B105F00103BA
:109128001D446D1005F17C5505EBC65507EE905AA8
:1091380017EE900A70BC7047E7EEA77A70BC17EE7E
:10914800900A704710F400020DD15B00180202F17A
:109158000102FAD5C2F101021144C2E777EEE77ABB
:10916800C7EEA77AE4E701221144BAE70020704766
:1091780000200149704700BF0000F87F30F0004030
:1091880001D102207047A0F50003B3F1FE4F01D2D0
:1091980004207047054B421E9A4201D803207047AD
:1091A800B0F1FF4358425841704700BFFEFF7F00AF
:1091B80043000000000000202E2E2F7372632F63DF
:1091C800616E6F70656E2F63616E2E630044656318
:1091D800203231203230313700312E30322E3031CA
:1091E800320030393A30373A30380000204E4000EB
:1091F800E803000005700000D81200200770000086
:10920800DC12002007700000E01200200770000048
:10921800E412002007700000E81200200770000028
:10922800EC12002007700000F01200200770000008
:10923800F412002007700000F8120020010000005E
:1092480006600000F8910008054000009C940008A2
:1092580007E00000A8950008054000009D9400085C
:1092680007E00000A4940008010000000540000089
:109278009F940008026000004C1300200560000065
:10928800B012002005400000A0940008086000000B
:10929800A412002008600000881200200860000066
:1092A8008C1200200860000090120020036000006B
:1092B800AC12002005600000A1120020056000002B
:1092C800211300200860000024130020086000001B
:1092D80028130020086000002C13002008600000FC
:1092E80030130020086000003413002008600000DC
:1092F80038130020086000003C13002008600000BC
:10930800A812002008600000B812002005600000C4
:10931800AF120020056000008412002005600000E4
:10932800861200200860000040130020056000003D
:109338009812002008600000441300200540000037
:10934800AC94000807600000F491000802000000D7
:1093580005400000AE940008074000004492000851
:1093680007400000F893000807400000CC9300086D
:1093780006400000D991000806400000D591000879
:1093880006400000DE91000806400000EA9100084F
:1093980006400000ED91000806400000F09100082A
:1093A80007400000E191000807400000E59100082F
:1093B80007400000E991000805400000FC1000206B
:1093C800020000000100000005500000C0950008E0
:1093D80007700000D012002005700000D412002091
:1093E80006700000D6120020795400080000000022
:1093F8000100000001000000481000060570000090
:10940800FC12002007700000001300200770000005
:1094180004130020077000000813002007700000E4
:109428000C130020077000001013002007700000C4
:1094380014130020077000001813002007700000A4
:109448001C1300200540000070920008076000000F
:10945800FD10002005400000AD94000807600000E2
:109468000111002005400000FC930008076000007F
:10947800E0100020074000000094000805400000AC
:109488005493000805200000321100200540000018
:10949800CC95000801010102160000001F540008C5
:1094A8000000000001010C00001001017C9400087C
:1094B8000000000001100101C09300080000000036
:1094C8001010010250920008000000001110010263
:1094D800609200080000000012100102B095000818
:1094E8000000000014100101C495000800000000ED
:1094F8001610010244930008000000001710010133
:1095080048920008000000001810010D5893000848
:109518000000000000140104D093000808000000B7
:109528000016010904940008240000000018010333
:10953800D095000808000000001A0109FC910008F5
:109548002400000000200101A09500080000000090
:10955800012001024C9400080000000002200102D2
:109568005C94000800000000032001026C940008CD
:10957800000000001020010384940008000000008F
:109588000121010374920008000000000221011764
:109598008C9200080000000005600000C512002041
:1095A800C553000800000000054000009E94000814
:1095B80005E00000F09300080300000007400000E9
:1095C800E81000200100000005500000C8930008C2
:1095D80007700000C812002005700000CC1200209F
:1095E800010204010204040102040102040408083F
:1095F800080800000000000000010101010101014C
:109608000000010101020401020404010204010234
:109618000404080808080000000000000001010117
:1096280001010101000001012E2E2F6C69622F73C8
:1096380072632F73746D3332663330785F63616E93
:109648002E63002E2E2F6C69622F7372632F737432
:109658006D3332663330785F646D612E63002E2E71
:109668002F6C69622F7372632F73746D3332663394
:1096780030785F666C6173682E63002E2E2F6C69DC
:10968800622F7372632F73746D3332663330785F71
:109698006770696F2E63002E2E2F6C69622F7372AC
:1096A800632F73746D3332663330785F6D6973631B
:1096B8002E63002E2E2F6C69622F7372632F7374C2
:1096C8006D3332663330785F7263632E63002E2EFB
:1096D8002F6C69622F7372632F73746D3332663324
:1096E80030785F7370692E63000000006937AC3111
:1096F80068212233B40F14336821A2333863ED3E56
:10970800DA0F493F5E987B3FDA0FC93F61636F7399
:1097180066000000000000007371727466000000AB
:10972800F8B500BFF8BC08BC9E467047F8B500BF46
:10973800F8BC08BC9E46704701B40248844601BC88
:08974800604700BF4913002037
:08975000F54A0008AD410008D4
:04975800894100083B
:10975C0000000000EC02002054030020BC03002099
:10976C0000000000000000000000000000000000ED
:10977C0000000000000000000000000000000000DD
:10978C0000000000B891000800000000000000007C
:10979C0000000000000000000000000000000000BD
:1097AC0000000000000000000000000000000000AD
:1097BC00000000000000000000000000000000009D
:1097CC00000000000000000000000000000000008D
:1097DC00000000000000000000000000000000007D
:1097EC00000000000000000000000000000000006D
:1097FC00000000000000000001000000000000005C
:10980C000E33CDAB34126DE6ECDE05000B00000020
:10981C00000000000000000000000000000000003C
:10982C00000000000000000000000000000000002C
:10983C00000000000000000000000000000000001C
:10984C00000000000000000000000000000000000C
:109B7C0000000000000000000010000000000100C8
:109B8C0002000400060008000A000C00100020006F
:109B9C0040008000000100000000010203040102EB
:089BAC0003040607080901008B
:04000005080070F18E
:00000001FF
